{"abi":[{"inputs":[],"stateMutability":"nonpayable","type":"constructor"},{"inputs":[{"internalType":"address","name":"_address","type":"address"}],"name":"RevokePermission","outputs":[{"internalType":"bool","name":"success","type":"bool"}],"stateMutability":"nonpayable","type":"function"},{"inputs":[],"name":"appointmentCount","outputs":[{"internalType":"uint256","name":"","type":"uint256"}],"stateMutability":"view","type":"function"},{"inputs":[{"internalType":"uint256","name":"","type":"uint256"}],"name":"appointmentList","outputs":[{"internalType":"address","name":"","type":"address"}],"stateMutability":"view","type":"function"},{"inputs":[],"name":"doctorCount","outputs":[{"internalType":"uint256","name":"","type":"uint256"}],"stateMutability":"view","type":"function"},{"inputs":[{"internalType":"uint256","name":"","type":"uint256"}],"name":"doctorList","outputs":[{"internalType":"address","name":"","type":"address"}],"stateMutability":"view","type":"function"},{"inputs":[{"internalType":"string","name":"_ic","type":"string"},{"internalType":"string","name":"_name","type":"string"},{"internalType":"string","name":"_phone","type":"string"},{"internalType":"string","name":"_gender","type":"string"},{"internalType":"string","name":"_dob","type":"string"},{"internalType":"string","name":"_height","type":"string"},{"internalType":"string","name":"_weight","type":"string"},{"internalType":"string","name":"_houseaddr","type":"string"},{"internalType":"string","name":"_bloodgroup","type":"string"},{"internalType":"string","name":"_allergies","type":"string"},{"internalType":"string","name":"_medication","type":"string"}],"name":"editDetails","outputs":[],"stateMutability":"nonpayable","type":"function"},{"inputs":[{"internalType":"string","name":"_ic","type":"string"},{"internalType":"string","name":"_name","type":"string"},{"internalType":"string","name":"_phone","type":"string"},{"internalType":"string","name":"_gender","type":"string"},{"internalType":"string","name":"_dob","type":"string"},{"internalType":"string","name":"_qualification","type":"string"},{"internalType":"string","name":"_major","type":"string"}],"name":"editDoctor","outputs":[],"stateMutability":"nonpayable","type":"function"},{"inputs":[],"name":"getAppointmentCount","outputs":[{"internalType":"uint256","name":"","type":"uint256"}],"stateMutability":"view","type":"function"},{"inputs":[{"internalType":"address","name":"_address","type":"address"}],"name":"getAppointmentPerPatient","outputs":[{"internalType":"uint256","name":"","type":"uint256"}],"stateMutability":"view","type":"function"},{"inputs":[],"name":"getAppointments","outputs":[{"internalType":"address[]","name":"","type":"address[]"}],"stateMutability":"view","type":"function"},{"inputs":[],"name":"getDoctorCount","outputs":[{"internalType":"uint256","name":"","type":"uint256"}],"stateMutability":"view","type":"function"},{"inputs":[],"name":"getDoctors","outputs":[{"internalType":"address[]","name":"","type":"address[]"}],"stateMutability":"view","type":"function"},{"inputs":[],"name":"getPatientCount","outputs":[{"internalType":"uint256","name":"","type":"uint256"}],"stateMutability":"view","type":"function"},{"inputs":[],"name":"getPatients","outputs":[{"internalType":"address[]","name":"","type":"address[]"}],"stateMutability":"view","type":"function"},{"inputs":[],"name":"getPermissionGrantedCount","outputs":[{"internalType":"uint256","name":"","type":"uint256"}],"stateMutability":"view","type":"function"},{"inputs":[{"internalType":"address","name":"_address","type":"address"}],"name":"givePermission","outputs":[{"internalType":"bool","name":"success","type":"bool"}],"stateMutability":"nonpayable","type":"function"},{"inputs":[],"name":"owner","outputs":[{"internalType":"address","name":"","type":"address"}],"stateMutability":"view","type":"function"},{"inputs":[],"name":"patientCount","outputs":[{"internalType":"uint256","name":"","type":"uint256"}],"stateMutability":"view","type":"function"},{"inputs":[{"internalType":"uint256","name":"","type":"uint256"}],"name":"patientList","outputs":[{"internalType":"address","name":"","type":"address"}],"stateMutability":"view","type":"function"},{"inputs":[],"name":"permissionGrantedCount","outputs":[{"internalType":"uint256","name":"","type":"uint256"}],"stateMutability":"view","type":"function"},{"inputs":[{"internalType":"address","name":"_address","type":"address"}],"name":"searchAppointment","outputs":[{"internalType":"address","name":"","type":"address"},{"internalType":"string","name":"","type":"string"},{"internalType":"string","name":"","type":"string"},{"internalType":"string","name":"","type":"string"},{"internalType":"string","name":"","type":"string"},{"internalType":"string","name":"","type":"string"},{"internalType":"string","name":"","type":"string"},{"internalType":"string","name":"","type":"string"}],"stateMutability":"view","type":"function"},{"inputs":[{"internalType":"address","name":"_address","type":"address"}],"name":"searchAppointmentDate","outputs":[{"internalType":"uint256","name":"","type":"uint256"}],"stateMutability":"view","type":"function"},{"inputs":[{"internalType":"address","name":"_address","type":"address"}],"name":"searchDoctor","outputs":[{"internalType":"string","name":"","type":"string"},{"internalType":"string","name":"","type":"string"},{"internalType":"string","name":"","type":"string"},{"internalType":"string","name":"","type":"string"},{"internalType":"string","name":"","type":"string"},{"internalType":"string","name":"","type":"string"},{"internalType":"string","name":"","type":"string"}],"stateMutability":"view","type":"function"},{"inputs":[{"internalType":"address","name":"_address","type":"address"}],"name":"searchDoctorDate","outputs":[{"internalType":"uint256","name":"","type":"uint256"}],"stateMutability":"view","type":"function"},{"inputs":[{"internalType":"address","name":"_address","type":"address"}],"name":"searchPatientDemographic","outputs":[{"internalType":"string","name":"","type":"string"},{"internalType":"string","name":"","type":"string"},{"internalType":"string","name":"","type":"string"},{"internalType":"string","name":"","type":"string"},{"internalType":"string","name":"","type":"string"},{"internalType":"string","name":"","type":"string"},{"internalType":"string","name":"","type":"string"}],"stateMutability":"view","type":"function"},{"inputs":[{"internalType":"address","name":"_address","type":"address"}],"name":"searchPatientMedical","outputs":[{"internalType":"string","name":"","type":"string"},{"internalType":"string","name":"","type":"string"},{"internalType":"string","name":"","type":"string"},{"internalType":"string","name":"","type":"string"},{"internalType":"string","name":"","type":"string"},{"internalType":"string","name":"","type":"string"}],"stateMutability":"view","type":"function"},{"inputs":[{"internalType":"address","name":"_address","type":"address"}],"name":"searchRecordDate","outputs":[{"internalType":"uint256","name":"","type":"uint256"}],"stateMutability":"view","type":"function"},{"inputs":[{"internalType":"address","name":"_addr","type":"address"},{"internalType":"string","name":"_date","type":"string"},{"internalType":"string","name":"_time","type":"string"},{"internalType":"string","name":"_diagnosis","type":"string"},{"internalType":"string","name":"_prescription","type":"string"},{"internalType":"string","name":"_description","type":"string"},{"internalType":"string","name":"_status","type":"string"}],"name":"setAppointment","outputs":[],"stateMutability":"nonpayable","type":"function"},{"inputs":[{"internalType":"string","name":"_ic","type":"string"},{"internalType":"string","name":"_name","type":"string"},{"internalType":"string","name":"_phone","type":"string"},{"internalType":"string","name":"_gender","type":"string"},{"internalType":"string","name":"_dob","type":"string"},{"internalType":"string","name":"_height","type":"string"},{"internalType":"string","name":"_weight","type":"string"},{"internalType":"string","name":"_houseaddr","type":"string"},{"internalType":"string","name":"_bloodgroup","type":"string"},{"internalType":"string","name":"_allergies","type":"string"},{"internalType":"string","name":"_medication","type":"string"}],"name":"setDetails","outputs":[],"stateMutability":"nonpayable","type":"function"},{"inputs":[{"internalType":"string","name":"_ic","type":"string"},{"internalType":"string","name":"_name","type":"string"},{"internalType":"string","name":"_phone","type":"string"},{"internalType":"string","name":"_gender","type":"string"},{"internalType":"string","name":"_dob","type":"string"},{"internalType":"string","name":"_qualification","type":"string"},{"internalType":"string","name":"_major","type":"string"}],"name":"setDoctor","outputs":[],"stateMutability":"nonpayable","type":"function"},{"inputs":[{"internalType":"address","name":"_addr","type":"address"},{"internalType":"string","name":"_date","type":"string"},{"internalType":"string","name":"_time","type":"string"},{"internalType":"string","name":"_diagnosis","type":"string"},{"internalType":"string","name":"_prescription","type":"string"},{"internalType":"string","name":"_description","type":"string"},{"internalType":"string","name":"_status","type":"string"}],"name":"updateAppointment","outputs":[],"stateMutability":"nonpayable","type":"function"}],"devdoc":{"kind":"dev","methods":{},"version":1},"evm":{"assembly":"    /* \"Record.sol\":60:11691  contract Record {... */\n  mstore(0x40, 0x80)\n    /* \"Record.sol\":1514:1515  0 */\n  0x00\n    /* \"Record.sol\":1484:1515  uint256 public patientCount = 0 */\n  0x0b\n  sstore\n    /* \"Record.sol\":1551:1552  0 */\n  0x00\n    /* \"Record.sol\":1522:1552  uint256 public doctorCount = 0 */\n  0x0c\n  sstore\n    /* \"Record.sol\":1593:1594  0 */\n  0x00\n    /* \"Record.sol\":1559:1594  uint256 public appointmentCount = 0 */\n  0x0d\n  sstore\n    /* \"Record.sol\":1641:1642  0 */\n  0x00\n    /* \"Record.sol\":1601:1642  uint256 public permissionGrantedCount = 0 */\n  0x0e\n  sstore\n    /* \"Record.sol\":1655:1707  constructor()  {... */\n  callvalue\n  dup1\n  iszero\n  tag_1\n  jumpi\n  0x00\n  dup1\n  revert\ntag_1:\n  pop\n    /* \"Record.sol\":1689:1699  msg.sender */\n  caller\n    /* \"Record.sol\":1681:1686  owner */\n  0x00\n  dup1\n    /* \"Record.sol\":1681:1699  owner = msg.sender */\n  0x0100\n  exp\n  dup2\n  sload\n  dup2\n  0xffffffffffffffffffffffffffffffffffffffff\n  mul\n  not\n  and\n  swap1\n  dup4\n  0xffffffffffffffffffffffffffffffffffffffff\n  and\n  mul\n  or\n  swap1\n  sstore\n  pop\n    /* \"Record.sol\":60:11691  contract Record {... */\n  dataSize(sub_0)\n  dup1\n  dataOffset(sub_0)\n  0x00\n  codecopy\n  0x00\n  return\nstop\n\nsub_0: assembly {\n        /* \"Record.sol\":60:11691  contract Record {... */\n      mstore(0x40, 0x80)\n      callvalue\n      dup1\n      iszero\n      tag_1\n      jumpi\n      0x00\n      dup1\n      revert\n    tag_1:\n      pop\n      jumpi(tag_2, lt(calldatasize, 0x04))\n      shr(0xe0, calldataload(0x00))\n      dup1\n      0x8b945c6d\n      gt\n      tag_34\n      jumpi\n      dup1\n      0xbabb1d41\n      gt\n      tag_35\n      jumpi\n      dup1\n      0xcaee6c85\n      gt\n      tag_36\n      jumpi\n      dup1\n      0xcaee6c85\n      eq\n      tag_30\n      jumpi\n      dup1\n      0xe6fce0d2\n      eq\n      tag_31\n      jumpi\n      dup1\n      0xe93a15b9\n      eq\n      tag_32\n      jumpi\n      dup1\n      0xeebc3fb2\n      eq\n      tag_33\n      jumpi\n      jump(tag_2)\n    tag_36:\n      dup1\n      0xbabb1d41\n      eq\n      tag_26\n      jumpi\n      dup1\n      0xbd6f972b\n      eq\n      tag_27\n      jumpi\n      dup1\n      0xc0cb24ba\n      eq\n      tag_28\n      jumpi\n      dup1\n      0xc190665b\n      eq\n      tag_29\n      jumpi\n      jump(tag_2)\n    tag_35:\n      dup1\n      0xa0303c41\n      gt\n      tag_37\n      jumpi\n      dup1\n      0xa0303c41\n      eq\n      tag_22\n      jumpi\n      dup1\n      0xa5aca8bc\n      eq\n      tag_23\n      jumpi\n      dup1\n      0xb13d5d94\n      eq\n      tag_24\n      jumpi\n      dup1\n      0xb6b477f3\n      eq\n      tag_25\n      jumpi\n      jump(tag_2)\n    tag_37:\n      dup1\n      0x8b945c6d\n      eq\n      tag_18\n      jumpi\n      dup1\n      0x8da5cb5b\n      eq\n      tag_19\n      jumpi\n      dup1\n      0x92041982\n      eq\n      tag_20\n      jumpi\n      dup1\n      0x96b80d08\n      eq\n      tag_21\n      jumpi\n      jump(tag_2)\n    tag_34:\n      dup1\n      0x2a825ba0\n      gt\n      tag_38\n      jumpi\n      dup1\n      0x625961fc\n      gt\n      tag_39\n      jumpi\n      dup1\n      0x625961fc\n      eq\n      tag_14\n      jumpi\n      dup1\n      0x78522bc4\n      eq\n      tag_15\n      jumpi\n      dup1\n      0x79111c1c\n      eq\n      tag_16\n      jumpi\n      dup1\n      0x80b76b26\n      eq\n      tag_17\n      jumpi\n      jump(tag_2)\n    tag_39:\n      dup1\n      0x2a825ba0\n      eq\n      tag_10\n      jumpi\n      dup1\n      0x3bc98280\n      eq\n      tag_11\n      jumpi\n      dup1\n      0x3d391f70\n      eq\n      tag_12\n      jumpi\n      dup1\n      0x4c14b38d\n      eq\n      tag_13\n      jumpi\n      jump(tag_2)\n    tag_38:\n      dup1\n      0x245f9686\n      gt\n      tag_40\n      jumpi\n      dup1\n      0x245f9686\n      eq\n      tag_6\n      jumpi\n      dup1\n      0x24c24b2b\n      eq\n      tag_7\n      jumpi\n      dup1\n      0x261b73f3\n      eq\n      tag_8\n      jumpi\n      dup1\n      0x29e4afbb\n      eq\n      tag_9\n      jumpi\n      jump(tag_2)\n    tag_40:\n      dup1\n      0x02516abd\n      eq\n      tag_3\n      jumpi\n      dup1\n      0x127ca4b4\n      eq\n      tag_4\n      jumpi\n      dup1\n      0x12ad1c37\n      eq\n      tag_5\n      jumpi\n    tag_2:\n      0x00\n      dup1\n      revert\n        /* \"Record.sol\":7054:7208  function RevokePermission(address _address) public returns(bool success) {... */\n    tag_3:\n      tag_41\n      0x04\n      dup1\n      calldatasize\n      sub\n      dup2\n      add\n      swap1\n      tag_42\n      swap2\n      swap1\n      tag_43\n      jump\t// in\n    tag_42:\n      tag_44\n      jump\t// in\n    tag_41:\n      mload(0x40)\n      tag_45\n      swap2\n      swap1\n      tag_46\n      jump\t// in\n    tag_45:\n      mload(0x40)\n      dup1\n      swap2\n      sub\n      swap1\n      return\n        /* \"Record.sol\":1075:1102  address[] public doctorList */\n    tag_4:\n      tag_47\n      0x04\n      dup1\n      calldatasize\n      sub\n      dup2\n      add\n      swap1\n      tag_48\n      swap2\n      swap1\n      tag_49\n      jump\t// in\n    tag_48:\n      tag_50\n      jump\t// in\n    tag_47:\n      mload(0x40)\n      tag_51\n      swap2\n      swap1\n      tag_52\n      jump\t// in\n    tag_51:\n      mload(0x40)\n      dup1\n      swap2\n      sub\n      swap1\n      return\n        /* \"Record.sol\":7263:7361  function getPatients() public view returns(address[] memory) {... */\n    tag_5:\n      tag_53\n      tag_54\n      jump\t// in\n    tag_53:\n      mload(0x40)\n      tag_55\n      swap2\n      swap1\n      tag_56\n      jump\t// in\n    tag_55:\n      mload(0x40)\n      dup1\n      swap2\n      sub\n      swap1\n      return\n        /* \"Record.sol\":5251:5975  function setAppointment(address  _addr, string memory _date, string memory _time, string memory _diagnosis, string memory _prescription, string memory _description, string memory _status) public {... */\n    tag_6:\n      tag_57\n      0x04\n      dup1\n      calldatasize\n      sub\n      dup2\n      add\n      swap1\n      tag_58\n      swap2\n      swap1\n      tag_59\n      jump\t// in\n    tag_58:\n      tag_60\n      jump\t// in\n    tag_57:\n      stop\n        /* \"Record.sol\":10902:11016  function getPermissionGrantedCount() public view returns(uint256) {... */\n    tag_7:\n      tag_61\n      tag_62\n      jump\t// in\n    tag_61:\n      mload(0x40)\n      tag_63\n      swap2\n      swap1\n      tag_64\n      jump\t// in\n    tag_63:\n      mload(0x40)\n      dup1\n      swap2\n      sub\n      swap1\n      return\n        /* \"Record.sol\":6087:6661  function updateAppointment(address  _addr, string memory _date, string memory _time, string memory _diagnosis, string memory _prescription, string memory _description, string memory _status) public {... */\n    tag_8:\n      tag_65\n      0x04\n      dup1\n      calldatasize\n      sub\n      dup2\n      add\n      swap1\n      tag_66\n      swap2\n      swap1\n      tag_59\n      jump\t// in\n    tag_66:\n      tag_67\n      jump\t// in\n    tag_65:\n      stop\n        /* \"Record.sol\":10751:10853  function getAppointmentCount() public view returns(uint256) {... */\n    tag_9:\n      tag_68\n      tag_69\n      jump\t// in\n    tag_68:\n      mload(0x40)\n      tag_70\n      swap2\n      swap1\n      tag_64\n      jump\t// in\n    tag_70:\n      mload(0x40)\n      dup1\n      swap2\n      sub\n      swap1\n      return\n        /* \"Record.sol\":8346:8743  function searchPatientMedical(address  _address) public view returns(string memory, string memory, string memory, string memory, string memory, string memory) {... */\n    tag_10:\n      tag_71\n      0x04\n      dup1\n      calldatasize\n      sub\n      dup2\n      add\n      swap1\n      tag_72\n      swap2\n      swap1\n      tag_43\n      jump\t// in\n    tag_72:\n      tag_73\n      jump\t// in\n    tag_71:\n      mload(0x40)\n      tag_74\n      swap7\n      swap6\n      swap5\n      swap4\n      swap3\n      swap2\n      swap1\n      tag_75\n      jump\t// in\n    tag_74:\n      mload(0x40)\n      dup1\n      swap2\n      sub\n      swap1\n      return\n        /* \"Record.sol\":7820:8206  function searchPatientDemographic(address   _address) public view returns(string memory, string memory, string memory, string memory, string memory, string memory, string memory) {... */\n    tag_11:\n      tag_76\n      0x04\n      dup1\n      calldatasize\n      sub\n      dup2\n      add\n      swap1\n      tag_77\n      swap2\n      swap1\n      tag_43\n      jump\t// in\n    tag_77:\n      tag_78\n      jump\t// in\n    tag_76:\n      mload(0x40)\n      tag_79\n      swap8\n      swap7\n      swap6\n      swap5\n      swap4\n      swap3\n      swap2\n      swap1\n      tag_80\n      jump\t// in\n    tag_79:\n      mload(0x40)\n      dup1\n      swap2\n      sub\n      swap1\n      return\n        /* \"Record.sol\":6769:6955  function givePermission(address _address) public returns(bool success) {... */\n    tag_12:\n      tag_81\n      0x04\n      dup1\n      calldatasize\n      sub\n      dup2\n      add\n      swap1\n      tag_82\n      swap2\n      swap1\n      tag_43\n      jump\t// in\n    tag_82:\n      tag_83\n      jump\t// in\n    tag_81:\n      mload(0x40)\n      tag_84\n      swap2\n      swap1\n      tag_46\n      jump\t// in\n    tag_84:\n      mload(0x40)\n      dup1\n      swap2\n      sub\n      swap1\n      return\n        /* \"Record.sol\":10263:10448  function searchAppointmentDate(address  _address) public view returns(uint) {... */\n    tag_13:\n      tag_85\n      0x04\n      dup1\n      calldatasize\n      sub\n      dup2\n      add\n      swap1\n      tag_86\n      swap2\n      swap1\n      tag_43\n      jump\t// in\n    tag_86:\n      tag_87\n      jump\t// in\n    tag_85:\n      mload(0x40)\n      tag_88\n      swap2\n      swap1\n      tag_64\n      jump\t// in\n    tag_88:\n      mload(0x40)\n      dup1\n      swap2\n      sub\n      swap1\n      return\n        /* \"Record.sol\":10023:10185  function searchDoctorDate(address  _address) public view returns(uint) {... */\n    tag_14:\n      tag_89\n      0x04\n      dup1\n      calldatasize\n      sub\n      dup2\n      add\n      swap1\n      tag_90\n      swap2\n      swap1\n      tag_43\n      jump\t// in\n    tag_90:\n      tag_91\n      jump\t// in\n    tag_89:\n      mload(0x40)\n      tag_92\n      swap2\n      swap1\n      tag_64\n      jump\t// in\n    tag_92:\n      mload(0x40)\n      dup1\n      swap2\n      sub\n      swap1\n      return\n        /* \"Record.sol\":1522:1552  uint256 public doctorCount = 0 */\n    tag_15:\n      tag_93\n      tag_94\n      jump\t// in\n    tag_93:\n      mload(0x40)\n      tag_95\n      swap2\n      swap1\n      tag_64\n      jump\t// in\n    tag_95:\n      mload(0x40)\n      dup1\n      swap2\n      sub\n      swap1\n      return\n        /* \"Record.sol\":10617:10709  function getDoctorCount() public view returns(uint256) {... */\n    tag_16:\n      tag_96\n      tag_97\n      jump\t// in\n    tag_96:\n      mload(0x40)\n      tag_98\n      swap2\n      swap1\n      tag_64\n      jump\t// in\n    tag_98:\n      mload(0x40)\n      dup1\n      swap2\n      sub\n      swap1\n      return\n        /* \"Record.sol\":1816:2868  function setDetails(string memory _ic, string memory _name, string memory _phone, string memory _gender, string memory _dob, string memory _height, string memory _weight, string memory _houseaddr, string memory _bloodgroup, string memory _allergies, string memory _medication) public {... */\n    tag_17:\n      tag_99\n      0x04\n      dup1\n      calldatasize\n      sub\n      dup2\n      add\n      swap1\n      tag_100\n      swap2\n      swap1\n      tag_101\n      jump\t// in\n    tag_100:\n      tag_102\n      jump\t// in\n    tag_99:\n      stop\n        /* \"Record.sol\":3903:4565  function setDoctor(string memory _ic, string memory _name, string memory _phone, string memory _gender, string memory _dob, string memory _qualification, string memory _major) public {... */\n    tag_18:\n      tag_103\n      0x04\n      dup1\n      calldatasize\n      sub\n      dup2\n      add\n      swap1\n      tag_104\n      swap2\n      swap1\n      tag_105\n      jump\t// in\n    tag_104:\n      tag_106\n      jump\t// in\n    tag_103:\n      stop\n        /* \"Record.sol\":1013:1033  address public owner */\n    tag_19:\n      tag_107\n      tag_108\n      jump\t// in\n    tag_107:\n      mload(0x40)\n      tag_109\n      swap2\n      swap1\n      tag_52\n      jump\t// in\n    tag_109:\n      mload(0x40)\n      dup1\n      swap2\n      sub\n      swap1\n      return\n        /* \"Record.sol\":9288:9697  function searchAppointment(address  _address) public view returns(address , string memory, string memory, string memory, string memory, string memory, string memory, string memory) {... */\n    tag_20:\n      tag_110\n      0x04\n      dup1\n      calldatasize\n      sub\n      dup2\n      add\n      swap1\n      tag_111\n      swap2\n      swap1\n      tag_43\n      jump\t// in\n    tag_111:\n      tag_112\n      jump\t// in\n    tag_110:\n      mload(0x40)\n      tag_113\n      swap9\n      swap8\n      swap7\n      swap6\n      swap5\n      swap4\n      swap3\n      swap2\n      swap1\n      tag_114\n      jump\t// in\n    tag_113:\n      mload(0x40)\n      dup1\n      swap2\n      sub\n      swap1\n      return\n        /* \"Record.sol\":7570:7676  function getAppointments() public view returns(address[] memory) {... */\n    tag_21:\n      tag_115\n      tag_116\n      jump\t// in\n    tag_115:\n      mload(0x40)\n      tag_117\n      swap2\n      swap1\n      tag_56\n      jump\t// in\n    tag_117:\n      mload(0x40)\n      dup1\n      swap2\n      sub\n      swap1\n      return\n        /* \"Record.sol\":1484:1515  uint256 public patientCount = 0 */\n    tag_22:\n      tag_118\n      tag_119\n      jump\t// in\n    tag_118:\n      mload(0x40)\n      tag_120\n      swap2\n      swap1\n      tag_64\n      jump\t// in\n    tag_120:\n      mload(0x40)\n      dup1\n      swap2\n      sub\n      swap1\n      return\n        /* \"Record.sol\":4626:5143  function editDoctor(string memory _ic, string memory _name, string memory _phone, string memory _gender, string memory _dob, string memory _qualification, string memory _major) public {... */\n    tag_23:\n      tag_121\n      0x04\n      dup1\n      calldatasize\n      sub\n      dup2\n      add\n      swap1\n      tag_122\n      swap2\n      swap1\n      tag_105\n      jump\t// in\n    tag_122:\n      tag_123\n      jump\t// in\n    tag_121:\n      stop\n        /* \"Record.sol\":7415:7511  function getDoctors() public view returns(address[] memory) {... */\n    tag_24:\n      tag_124\n      tag_125\n      jump\t// in\n    tag_124:\n      mload(0x40)\n      tag_126\n      swap2\n      swap1\n      tag_56\n      jump\t// in\n    tag_126:\n      mload(0x40)\n      dup1\n      swap2\n      sub\n      swap1\n      return\n        /* \"Record.sol\":2935:3791  function editDetails(string memory _ic, string memory _name, string memory _phone, string memory _gender, string memory _dob, string memory _height, string memory _weight, string memory _houseaddr, string memory _bloodgroup, string memory _allergies, string memory _medication) public {... */\n    tag_25:\n      tag_127\n      0x04\n      dup1\n      calldatasize\n      sub\n      dup2\n      add\n      swap1\n      tag_128\n      swap2\n      swap1\n      tag_101\n      jump\t// in\n    tag_128:\n      tag_129\n      jump\t// in\n    tag_127:\n      stop\n        /* \"Record.sol\":1040:1068  address[] public patientList */\n    tag_26:\n      tag_130\n      0x04\n      dup1\n      calldatasize\n      sub\n      dup2\n      add\n      swap1\n      tag_131\n      swap2\n      swap1\n      tag_49\n      jump\t// in\n    tag_131:\n      tag_132\n      jump\t// in\n    tag_130:\n      mload(0x40)\n      tag_133\n      swap2\n      swap1\n      tag_52\n      jump\t// in\n    tag_133:\n      mload(0x40)\n      dup1\n      swap2\n      sub\n      swap1\n      return\n        /* \"Record.sol\":9778:9942  function searchRecordDate(address  _address) public view returns(uint) {... */\n    tag_27:\n      tag_134\n      0x04\n      dup1\n      calldatasize\n      sub\n      dup2\n      add\n      swap1\n      tag_135\n      swap2\n      swap1\n      tag_43\n      jump\t// in\n    tag_135:\n      tag_136\n      jump\t// in\n    tag_134:\n      mload(0x40)\n      tag_137\n      swap2\n      swap1\n      tag_64\n      jump\t// in\n    tag_137:\n      mload(0x40)\n      dup1\n      swap2\n      sub\n      swap1\n      return\n        /* \"Record.sol\":1601:1642  uint256 public permissionGrantedCount = 0 */\n    tag_28:\n      tag_138\n      tag_139\n      jump\t// in\n    tag_138:\n      mload(0x40)\n      tag_140\n      swap2\n      swap1\n      tag_64\n      jump\t// in\n    tag_140:\n      mload(0x40)\n      dup1\n      swap2\n      sub\n      swap1\n      return\n        /* \"Record.sol\":10486:10580  function getPatientCount() public view returns(uint256) {... */\n    tag_29:\n      tag_141\n      tag_142\n      jump\t// in\n    tag_141:\n      mload(0x40)\n      tag_143\n      swap2\n      swap1\n      tag_64\n      jump\t// in\n    tag_143:\n      mload(0x40)\n      dup1\n      swap2\n      sub\n      swap1\n      return\n        /* \"Record.sol\":8849:9212  function searchDoctor(address  _address) public view returns(string memory, string memory, string memory, string memory, string memory, string memory, string memory) {... */\n    tag_30:\n      tag_144\n      0x04\n      dup1\n      calldatasize\n      sub\n      dup2\n      add\n      swap1\n      tag_145\n      swap2\n      swap1\n      tag_43\n      jump\t// in\n    tag_145:\n      tag_146\n      jump\t// in\n    tag_144:\n      mload(0x40)\n      tag_147\n      swap8\n      swap7\n      swap6\n      swap5\n      swap4\n      swap3\n      swap2\n      swap1\n      tag_80\n      jump\t// in\n    tag_147:\n      mload(0x40)\n      dup1\n      swap2\n      sub\n      swap1\n      return\n        /* \"Record.sol\":1109:1141  address[] public appointmentList */\n    tag_31:\n      tag_148\n      0x04\n      dup1\n      calldatasize\n      sub\n      dup2\n      add\n      swap1\n      tag_149\n      swap2\n      swap1\n      tag_49\n      jump\t// in\n    tag_149:\n      tag_150\n      jump\t// in\n    tag_148:\n      mload(0x40)\n      tag_151\n      swap2\n      swap1\n      tag_52\n      jump\t// in\n    tag_151:\n      mload(0x40)\n      dup1\n      swap2\n      sub\n      swap1\n      return\n        /* \"Record.sol\":11065:11204  function getAppointmentPerPatient(address  _address) public view returns(uint256) {... */\n    tag_32:\n      tag_152\n      0x04\n      dup1\n      calldatasize\n      sub\n      dup2\n      add\n      swap1\n      tag_153\n      swap2\n      swap1\n      tag_43\n      jump\t// in\n    tag_153:\n      tag_154\n      jump\t// in\n    tag_152:\n      mload(0x40)\n      tag_155\n      swap2\n      swap1\n      tag_64\n      jump\t// in\n    tag_155:\n      mload(0x40)\n      dup1\n      swap2\n      sub\n      swap1\n      return\n        /* \"Record.sol\":1559:1594  uint256 public appointmentCount = 0 */\n    tag_33:\n      tag_156\n      tag_157\n      jump\t// in\n    tag_156:\n      mload(0x40)\n      tag_158\n      swap2\n      swap1\n      tag_64\n      jump\t// in\n    tag_158:\n      mload(0x40)\n      dup1\n      swap2\n      sub\n      swap1\n      return\n        /* \"Record.sol\":7054:7208  function RevokePermission(address _address) public returns(bool success) {... */\n    tag_44:\n        /* \"Record.sol\":7113:7125  bool success */\n      0x00\n        /* \"Record.sol\":7173:7178  false */\n      dup1\n        /* \"Record.sol\":7138:7148  isApproved */\n      0x07\n        /* \"Record.sol\":7138:7160  isApproved[msg.sender] */\n      0x00\n        /* \"Record.sol\":7149:7159  msg.sender */\n      caller\n        /* \"Record.sol\":7138:7160  isApproved[msg.sender] */\n      0xffffffffffffffffffffffffffffffffffffffff\n      and\n      0xffffffffffffffffffffffffffffffffffffffff\n      and\n      dup2\n      mstore\n      0x20\n      add\n      swap1\n      dup2\n      mstore\n      0x20\n      add\n      0x00\n      keccak256\n        /* \"Record.sol\":7138:7170  isApproved[msg.sender][_address] */\n      0x00\n        /* \"Record.sol\":7161:7169  _address */\n      dup5\n        /* \"Record.sol\":7138:7170  isApproved[msg.sender][_address] */\n      0xffffffffffffffffffffffffffffffffffffffff\n      and\n      0xffffffffffffffffffffffffffffffffffffffff\n      and\n      dup2\n      mstore\n      0x20\n      add\n      swap1\n      dup2\n      mstore\n      0x20\n      add\n      0x00\n      keccak256\n      0x00\n        /* \"Record.sol\":7138:7178  isApproved[msg.sender][_address] = false */\n      0x0100\n      exp\n      dup2\n      sload\n      dup2\n      0xff\n      mul\n      not\n      and\n      swap1\n      dup4\n      iszero\n      iszero\n      mul\n      or\n      swap1\n      sstore\n      pop\n        /* \"Record.sol\":7196:7200  true */\n      0x01\n        /* \"Record.sol\":7189:7200  return true */\n      swap1\n      pop\n        /* \"Record.sol\":7054:7208  function RevokePermission(address _address) public returns(bool success) {... */\n      swap2\n      swap1\n      pop\n      jump\t// out\n        /* \"Record.sol\":1075:1102  address[] public doctorList */\n    tag_50:\n      0x02\n      dup2\n      dup2\n      sload\n      dup2\n      lt\n      tag_160\n      jumpi\n      0x00\n      dup1\n      revert\n    tag_160:\n      swap1\n      0x00\n      mstore\n      keccak256(0x00, 0x20)\n      add\n      0x00\n      swap2\n      pop\n      sload\n      swap1\n      0x0100\n      exp\n      swap1\n      div\n      0xffffffffffffffffffffffffffffffffffffffff\n      and\n      dup2\n      jump\t// out\n        /* \"Record.sol\":7263:7361  function getPatients() public view returns(address[] memory) {... */\n    tag_54:\n        /* \"Record.sol\":7306:7322  address[] memory */\n      0x60\n        /* \"Record.sol\":7342:7353  patientList */\n      0x01\n        /* \"Record.sol\":7335:7353  return patientList */\n      dup1\n      sload\n      dup1\n      0x20\n      mul\n      0x20\n      add\n      mload(0x40)\n      swap1\n      dup2\n      add\n      0x40\n      mstore\n      dup1\n      swap3\n      swap2\n      swap1\n      dup2\n      dup2\n      mstore\n      0x20\n      add\n      dup3\n      dup1\n      sload\n      dup1\n      iszero\n      tag_163\n      jumpi\n      0x20\n      mul\n      dup3\n      add\n      swap2\n      swap1\n      0x00\n      mstore\n      keccak256(0x00, 0x20)\n      swap1\n    tag_164:\n      dup2\n      0x00\n      swap1\n      sload\n      swap1\n      0x0100\n      exp\n      swap1\n      div\n      0xffffffffffffffffffffffffffffffffffffffff\n      and\n      0xffffffffffffffffffffffffffffffffffffffff\n      and\n      dup2\n      mstore\n      0x20\n      add\n      swap1\n      0x01\n      add\n      swap1\n      dup1\n      dup4\n      gt\n      tag_164\n      jumpi\n    tag_163:\n      pop\n      pop\n      pop\n      pop\n      pop\n      swap1\n      pop\n        /* \"Record.sol\":7263:7361  function getPatients() public view returns(address[] memory) {... */\n      swap1\n      jump\t// out\n        /* \"Record.sol\":5251:5975  function setAppointment(address  _addr, string memory _date, string memory _time, string memory _diagnosis, string memory _prescription, string memory _description, string memory _status) public {... */\n    tag_60:\n        /* \"Record.sol\":5465:5473  isDoctor */\n      0x09\n        /* \"Record.sol\":5465:5485  isDoctor[msg.sender] */\n      0x00\n        /* \"Record.sol\":5474:5484  msg.sender */\n      caller\n        /* \"Record.sol\":5465:5485  isDoctor[msg.sender] */\n      0xffffffffffffffffffffffffffffffffffffffff\n      and\n      0xffffffffffffffffffffffffffffffffffffffff\n      and\n      dup2\n      mstore\n      0x20\n      add\n      swap1\n      dup2\n      mstore\n      0x20\n      add\n      0x00\n      keccak256\n      0x00\n      swap1\n      sload\n      swap1\n      0x0100\n      exp\n      swap1\n      div\n      0xff\n      and\n        /* \"Record.sol\":5457:5486  require(isDoctor[msg.sender]) */\n      tag_166\n      jumpi\n      0x00\n      dup1\n      revert\n    tag_166:\n        /* \"Record.sol\":5497:5519  Appointments storage a */\n      0x00\n        /* \"Record.sol\":5522:5534  appointments */\n      0x06\n        /* \"Record.sol\":5522:5541  appointments[_addr] */\n      0x00\n        /* \"Record.sol\":5535:5540  _addr */\n      dup10\n        /* \"Record.sol\":5522:5541  appointments[_addr] */\n      0xffffffffffffffffffffffffffffffffffffffff\n      and\n      0xffffffffffffffffffffffffffffffffffffffff\n      and\n      dup2\n      mstore\n      0x20\n      add\n      swap1\n      dup2\n      mstore\n      0x20\n      add\n      0x00\n      keccak256\n        /* \"Record.sol\":5497:5541  Appointments storage a = appointments[_addr] */\n      swap1\n      pop\n        /* \"Record.sol\":5577:5587  msg.sender */\n      caller\n        /* \"Record.sol\":5562:5563  a */\n      dup2\n        /* \"Record.sol\":5562:5574  a.doctoraddr */\n      0x00\n      add\n      0x00\n        /* \"Record.sol\":5562:5587  a.doctoraddr = msg.sender */\n      0x0100\n      exp\n      dup2\n      sload\n      dup2\n      0xffffffffffffffffffffffffffffffffffffffff\n      mul\n      not\n      and\n      swap1\n      dup4\n      0xffffffffffffffffffffffffffffffffffffffff\n      and\n      mul\n      or\n      swap1\n      sstore\n      pop\n        /* \"Record.sol\":5614:5619  _addr */\n      dup8\n        /* \"Record.sol\":5598:5599  a */\n      dup2\n        /* \"Record.sol\":5598:5611  a.patientaddr */\n      0x01\n      add\n      0x00\n        /* \"Record.sol\":5598:5619  a.patientaddr = _addr */\n      0x0100\n      exp\n      dup2\n      sload\n      dup2\n      0xffffffffffffffffffffffffffffffffffffffff\n      mul\n      not\n      and\n      swap1\n      dup4\n      0xffffffffffffffffffffffffffffffffffffffff\n      and\n      mul\n      or\n      swap1\n      sstore\n      pop\n        /* \"Record.sol\":5639:5644  _date */\n      dup7\n        /* \"Record.sol\":5630:5631  a */\n      dup2\n        /* \"Record.sol\":5630:5636  a.date */\n      0x02\n      add\n        /* \"Record.sol\":5630:5644  a.date = _date */\n      swap1\n      dup2\n      tag_167\n      swap2\n      swap1\n      tag_168\n      jump\t// in\n    tag_167:\n      pop\n        /* \"Record.sol\":5664:5669  _time */\n      dup6\n        /* \"Record.sol\":5655:5656  a */\n      dup2\n        /* \"Record.sol\":5655:5661  a.time */\n      0x03\n      add\n        /* \"Record.sol\":5655:5669  a.time = _time */\n      swap1\n      dup2\n      tag_169\n      swap2\n      swap1\n      tag_168\n      jump\t// in\n    tag_169:\n      pop\n        /* \"Record.sol\":5694:5704  _diagnosis */\n      dup5\n        /* \"Record.sol\":5680:5681  a */\n      dup2\n        /* \"Record.sol\":5680:5691  a.diagnosis */\n      0x06\n      add\n        /* \"Record.sol\":5680:5704  a.diagnosis = _diagnosis */\n      swap1\n      dup2\n      tag_170\n      swap2\n      swap1\n      tag_168\n      jump\t// in\n    tag_170:\n      pop\n        /* \"Record.sol\":5732:5745  _prescription */\n      dup4\n        /* \"Record.sol\":5715:5716  a */\n      dup2\n        /* \"Record.sol\":5715:5729  a.prescription */\n      0x04\n      add\n        /* \"Record.sol\":5715:5745  a.prescription = _prescription */\n      swap1\n      dup2\n      tag_171\n      swap2\n      swap1\n      tag_168\n      jump\t// in\n    tag_171:\n      pop\n        /* \"Record.sol\":5773:5785  _description */\n      dup3\n        /* \"Record.sol\":5757:5758  a */\n      dup2\n        /* \"Record.sol\":5757:5770  a.description */\n      0x05\n      add\n        /* \"Record.sol\":5757:5785  a.description = _description */\n      swap1\n      dup2\n      tag_172\n      swap2\n      swap1\n      tag_168\n      jump\t// in\n    tag_172:\n      pop\n        /* \"Record.sol\":5807:5814  _status */\n      dup2\n        /* \"Record.sol\":5796:5797  a */\n      dup2\n        /* \"Record.sol\":5796:5804  a.status */\n      0x07\n      add\n        /* \"Record.sol\":5796:5814  a.status = _status */\n      swap1\n      dup2\n      tag_173\n      swap2\n      swap1\n      tag_168\n      jump\t// in\n    tag_173:\n      pop\n        /* \"Record.sol\":5842:5857  block.timestamp */\n      timestamp\n        /* \"Record.sol\":5825:5826  a */\n      dup2\n        /* \"Record.sol\":5825:5839  a.creationDate */\n      0x08\n      add\n        /* \"Record.sol\":5825:5857  a.creationDate = block.timestamp */\n      dup2\n      swap1\n      sstore\n      pop\n        /* \"Record.sol\":5870:5885  appointmentList */\n      0x03\n        /* \"Record.sol\":5891:5896  _addr */\n      dup9\n        /* \"Record.sol\":5870:5897  appointmentList.push(_addr) */\n      swap1\n      dup1\n      0x01\n      dup2\n      sload\n      add\n      dup1\n      dup3\n      sstore\n      dup1\n      swap2\n      pop\n      pop\n      0x01\n      swap1\n      sub\n      swap1\n      0x00\n      mstore\n      keccak256(0x00, 0x20)\n      add\n      0x00\n      swap1\n      swap2\n      swap1\n      swap2\n      swap1\n      swap2\n      0x0100\n      exp\n      dup2\n      sload\n      dup2\n      0xffffffffffffffffffffffffffffffffffffffff\n      mul\n      not\n      and\n      swap1\n      dup4\n      0xffffffffffffffffffffffffffffffffffffffff\n      and\n      mul\n      or\n      swap1\n      sstore\n      pop\n        /* \"Record.sol\":5908:5924  appointmentCount */\n      0x0d\n      0x00\n        /* \"Record.sol\":5908:5926  appointmentCount++ */\n      dup2\n      sload\n      dup1\n      swap3\n      swap2\n      swap1\n      tag_175\n      swap1\n      tag_176\n      jump\t// in\n    tag_175:\n      swap2\n      swap1\n      pop\n      sstore\n      pop\n        /* \"Record.sol\":5937:5958  AppointmentPerPatient */\n      0x0a\n        /* \"Record.sol\":5937:5965  AppointmentPerPatient[_addr] */\n      0x00\n        /* \"Record.sol\":5959:5964  _addr */\n      dup10\n        /* \"Record.sol\":5937:5965  AppointmentPerPatient[_addr] */\n      0xffffffffffffffffffffffffffffffffffffffff\n      and\n      0xffffffffffffffffffffffffffffffffffffffff\n      and\n      dup2\n      mstore\n      0x20\n      add\n      swap1\n      dup2\n      mstore\n      0x20\n      add\n      0x00\n      keccak256\n      0x00\n        /* \"Record.sol\":5937:5967  AppointmentPerPatient[_addr]++ */\n      dup2\n      sload\n      dup1\n      swap3\n      swap2\n      swap1\n      tag_177\n      swap1\n      tag_176\n      jump\t// in\n    tag_177:\n      swap2\n      swap1\n      pop\n      sstore\n      pop\n        /* \"Record.sol\":5446:5975  {... */\n      pop\n        /* \"Record.sol\":5251:5975  function setAppointment(address  _addr, string memory _date, string memory _time, string memory _diagnosis, string memory _prescription, string memory _description, string memory _status) public {... */\n      pop\n      pop\n      pop\n      pop\n      pop\n      pop\n      pop\n      jump\t// out\n        /* \"Record.sol\":10902:11016  function getPermissionGrantedCount() public view returns(uint256) {... */\n    tag_62:\n        /* \"Record.sol\":10959:10966  uint256 */\n      0x00\n        /* \"Record.sol\":10986:11008  permissionGrantedCount */\n      sload(0x0e)\n        /* \"Record.sol\":10979:11008  return permissionGrantedCount */\n      swap1\n      pop\n        /* \"Record.sol\":10902:11016  function getPermissionGrantedCount() public view returns(uint256) {... */\n      swap1\n      jump\t// out\n        /* \"Record.sol\":6087:6661  function updateAppointment(address  _addr, string memory _date, string memory _time, string memory _diagnosis, string memory _prescription, string memory _description, string memory _status) public {... */\n    tag_67:\n        /* \"Record.sol\":6304:6312  isDoctor */\n      0x09\n        /* \"Record.sol\":6304:6324  isDoctor[msg.sender] */\n      0x00\n        /* \"Record.sol\":6313:6323  msg.sender */\n      caller\n        /* \"Record.sol\":6304:6324  isDoctor[msg.sender] */\n      0xffffffffffffffffffffffffffffffffffffffff\n      and\n      0xffffffffffffffffffffffffffffffffffffffff\n      and\n      dup2\n      mstore\n      0x20\n      add\n      swap1\n      dup2\n      mstore\n      0x20\n      add\n      0x00\n      keccak256\n      0x00\n      swap1\n      sload\n      swap1\n      0x0100\n      exp\n      swap1\n      div\n      0xff\n      and\n        /* \"Record.sol\":6296:6325  require(isDoctor[msg.sender]) */\n      tag_180\n      jumpi\n      0x00\n      dup1\n      revert\n    tag_180:\n        /* \"Record.sol\":6336:6358  Appointments storage a */\n      0x00\n        /* \"Record.sol\":6361:6373  appointments */\n      0x06\n        /* \"Record.sol\":6361:6380  appointments[_addr] */\n      0x00\n        /* \"Record.sol\":6374:6379  _addr */\n      dup10\n        /* \"Record.sol\":6361:6380  appointments[_addr] */\n      0xffffffffffffffffffffffffffffffffffffffff\n      and\n      0xffffffffffffffffffffffffffffffffffffffff\n      and\n      dup2\n      mstore\n      0x20\n      add\n      swap1\n      dup2\n      mstore\n      0x20\n      add\n      0x00\n      keccak256\n        /* \"Record.sol\":6336:6380  Appointments storage a = appointments[_addr] */\n      swap1\n      pop\n        /* \"Record.sol\":6416:6426  msg.sender */\n      caller\n        /* \"Record.sol\":6401:6402  a */\n      dup2\n        /* \"Record.sol\":6401:6413  a.doctoraddr */\n      0x00\n      add\n      0x00\n        /* \"Record.sol\":6401:6426  a.doctoraddr = msg.sender */\n      0x0100\n      exp\n      dup2\n      sload\n      dup2\n      0xffffffffffffffffffffffffffffffffffffffff\n      mul\n      not\n      and\n      swap1\n      dup4\n      0xffffffffffffffffffffffffffffffffffffffff\n      and\n      mul\n      or\n      swap1\n      sstore\n      pop\n        /* \"Record.sol\":6453:6458  _addr */\n      dup8\n        /* \"Record.sol\":6437:6438  a */\n      dup2\n        /* \"Record.sol\":6437:6450  a.patientaddr */\n      0x01\n      add\n      0x00\n        /* \"Record.sol\":6437:6458  a.patientaddr = _addr */\n      0x0100\n      exp\n      dup2\n      sload\n      dup2\n      0xffffffffffffffffffffffffffffffffffffffff\n      mul\n      not\n      and\n      swap1\n      dup4\n      0xffffffffffffffffffffffffffffffffffffffff\n      and\n      mul\n      or\n      swap1\n      sstore\n      pop\n        /* \"Record.sol\":6478:6483  _date */\n      dup7\n        /* \"Record.sol\":6469:6470  a */\n      dup2\n        /* \"Record.sol\":6469:6475  a.date */\n      0x02\n      add\n        /* \"Record.sol\":6469:6483  a.date = _date */\n      swap1\n      dup2\n      tag_181\n      swap2\n      swap1\n      tag_168\n      jump\t// in\n    tag_181:\n      pop\n        /* \"Record.sol\":6503:6508  _time */\n      dup6\n        /* \"Record.sol\":6494:6495  a */\n      dup2\n        /* \"Record.sol\":6494:6500  a.time */\n      0x03\n      add\n        /* \"Record.sol\":6494:6508  a.time = _time */\n      swap1\n      dup2\n      tag_182\n      swap2\n      swap1\n      tag_168\n      jump\t// in\n    tag_182:\n      pop\n        /* \"Record.sol\":6533:6543  _diagnosis */\n      dup5\n        /* \"Record.sol\":6519:6520  a */\n      dup2\n        /* \"Record.sol\":6519:6530  a.diagnosis */\n      0x06\n      add\n        /* \"Record.sol\":6519:6543  a.diagnosis = _diagnosis */\n      swap1\n      dup2\n      tag_183\n      swap2\n      swap1\n      tag_168\n      jump\t// in\n    tag_183:\n      pop\n        /* \"Record.sol\":6571:6584  _prescription */\n      dup4\n        /* \"Record.sol\":6554:6555  a */\n      dup2\n        /* \"Record.sol\":6554:6568  a.prescription */\n      0x04\n      add\n        /* \"Record.sol\":6554:6584  a.prescription = _prescription */\n      swap1\n      dup2\n      tag_184\n      swap2\n      swap1\n      tag_168\n      jump\t// in\n    tag_184:\n      pop\n        /* \"Record.sol\":6612:6624  _description */\n      dup3\n        /* \"Record.sol\":6596:6597  a */\n      dup2\n        /* \"Record.sol\":6596:6609  a.description */\n      0x05\n      add\n        /* \"Record.sol\":6596:6624  a.description = _description */\n      swap1\n      dup2\n      tag_185\n      swap2\n      swap1\n      tag_168\n      jump\t// in\n    tag_185:\n      pop\n        /* \"Record.sol\":6646:6653  _status */\n      dup2\n        /* \"Record.sol\":6635:6636  a */\n      dup2\n        /* \"Record.sol\":6635:6643  a.status */\n      0x07\n      add\n        /* \"Record.sol\":6635:6653  a.status = _status */\n      swap1\n      dup2\n      tag_186\n      swap2\n      swap1\n      tag_168\n      jump\t// in\n    tag_186:\n      pop\n        /* \"Record.sol\":6285:6661  {... */\n      pop\n        /* \"Record.sol\":6087:6661  function updateAppointment(address  _addr, string memory _date, string memory _time, string memory _diagnosis, string memory _prescription, string memory _description, string memory _status) public {... */\n      pop\n      pop\n      pop\n      pop\n      pop\n      pop\n      pop\n      jump\t// out\n        /* \"Record.sol\":10751:10853  function getAppointmentCount() public view returns(uint256) {... */\n    tag_69:\n        /* \"Record.sol\":10802:10809  uint256 */\n      0x00\n        /* \"Record.sol\":10829:10845  appointmentCount */\n      sload(0x0d)\n        /* \"Record.sol\":10822:10845  return appointmentCount */\n      swap1\n      pop\n        /* \"Record.sol\":10751:10853  function getAppointmentCount() public view returns(uint256) {... */\n      swap1\n      jump\t// out\n        /* \"Record.sol\":8346:8743  function searchPatientMedical(address  _address) public view returns(string memory, string memory, string memory, string memory, string memory, string memory) {... */\n    tag_73:\n        /* \"Record.sol\":8415:8428  string memory */\n      0x60\n        /* \"Record.sol\":8430:8443  string memory */\n      dup1\n        /* \"Record.sol\":8445:8458  string memory */\n      0x60\n        /* \"Record.sol\":8460:8473  string memory */\n      dup1\n        /* \"Record.sol\":8475:8488  string memory */\n      0x60\n        /* \"Record.sol\":8490:8503  string memory */\n      dup1\n        /* \"Record.sol\":8524:8534  isApproved */\n      0x07\n        /* \"Record.sol\":8524:8544  isApproved[_address] */\n      0x00\n        /* \"Record.sol\":8535:8543  _address */\n      dup9\n        /* \"Record.sol\":8524:8544  isApproved[_address] */\n      0xffffffffffffffffffffffffffffffffffffffff\n      and\n      0xffffffffffffffffffffffffffffffffffffffff\n      and\n      dup2\n      mstore\n      0x20\n      add\n      swap1\n      dup2\n      mstore\n      0x20\n      add\n      0x00\n      keccak256\n        /* \"Record.sol\":8524:8556  isApproved[_address][msg.sender] */\n      0x00\n        /* \"Record.sol\":8545:8555  msg.sender */\n      caller\n        /* \"Record.sol\":8524:8556  isApproved[_address][msg.sender] */\n      0xffffffffffffffffffffffffffffffffffffffff\n      and\n      0xffffffffffffffffffffffffffffffffffffffff\n      and\n      dup2\n      mstore\n      0x20\n      add\n      swap1\n      dup2\n      mstore\n      0x20\n      add\n      0x00\n      keccak256\n      0x00\n      swap1\n      sload\n      swap1\n      0x0100\n      exp\n      swap1\n      div\n      0xff\n      and\n        /* \"Record.sol\":8516:8557  require(isApproved[_address][msg.sender]) */\n      tag_189\n      jumpi\n      0x00\n      dup1\n      revert\n    tag_189:\n        /* \"Record.sol\":8578:8595  Patients memory p */\n      0x00\n        /* \"Record.sol\":8598:8606  patients */\n      0x04\n        /* \"Record.sol\":8598:8616  patients[_address] */\n      0x00\n        /* \"Record.sol\":8607:8615  _address */\n      dup10\n        /* \"Record.sol\":8598:8616  patients[_address] */\n      0xffffffffffffffffffffffffffffffffffffffff\n      and\n      0xffffffffffffffffffffffffffffffffffffffff\n      and\n      dup2\n      mstore\n      0x20\n      add\n      swap1\n      dup2\n      mstore\n      0x20\n      add\n      0x00\n      keccak256\n        /* \"Record.sol\":8578:8616  Patients memory p = patients[_address] */\n      mload(0x40)\n      dup1\n      0x01e0\n      add\n      0x40\n      mstore\n      swap1\n      dup2\n      0x00\n      dup3\n      add\n      dup1\n      sload\n      tag_190\n      swap1\n      tag_191\n      jump\t// in\n    tag_190:\n      dup1\n      0x1f\n      add\n      0x20\n      dup1\n      swap2\n      div\n      mul\n      0x20\n      add\n      mload(0x40)\n      swap1\n      dup2\n      add\n      0x40\n      mstore\n      dup1\n      swap3\n      swap2\n      swap1\n      dup2\n      dup2\n      mstore\n      0x20\n      add\n      dup3\n      dup1\n      sload\n      tag_192\n      swap1\n      tag_191\n      jump\t// in\n    tag_192:\n      dup1\n      iszero\n      tag_193\n      jumpi\n      dup1\n      0x1f\n      lt\n      tag_194\n      jumpi\n      0x0100\n      dup1\n      dup4\n      sload\n      div\n      mul\n      dup4\n      mstore\n      swap2\n      0x20\n      add\n      swap2\n      jump(tag_193)\n    tag_194:\n      dup3\n      add\n      swap2\n      swap1\n      0x00\n      mstore\n      keccak256(0x00, 0x20)\n      swap1\n    tag_195:\n      dup2\n      sload\n      dup2\n      mstore\n      swap1\n      0x01\n      add\n      swap1\n      0x20\n      add\n      dup1\n      dup4\n      gt\n      tag_195\n      jumpi\n      dup3\n      swap1\n      sub\n      0x1f\n      and\n      dup3\n      add\n      swap2\n    tag_193:\n      pop\n      pop\n      pop\n      pop\n      pop\n      dup2\n      mstore\n      0x20\n      add\n      0x01\n      dup3\n      add\n      dup1\n      sload\n      tag_196\n      swap1\n      tag_191\n      jump\t// in\n    tag_196:\n      dup1\n      0x1f\n      add\n      0x20\n      dup1\n      swap2\n      div\n      mul\n      0x20\n      add\n      mload(0x40)\n      swap1\n      dup2\n      add\n      0x40\n      mstore\n      dup1\n      swap3\n      swap2\n      swap1\n      dup2\n      dup2\n      mstore\n      0x20\n      add\n      dup3\n      dup1\n      sload\n      tag_197\n      swap1\n      tag_191\n      jump\t// in\n    tag_197:\n      dup1\n      iszero\n      tag_198\n      jumpi\n      dup1\n      0x1f\n      lt\n      tag_199\n      jumpi\n      0x0100\n      dup1\n      dup4\n      sload\n      div\n      mul\n      dup4\n      mstore\n      swap2\n      0x20\n      add\n      swap2\n      jump(tag_198)\n    tag_199:\n      dup3\n      add\n      swap2\n      swap1\n      0x00\n      mstore\n      keccak256(0x00, 0x20)\n      swap1\n    tag_200:\n      dup2\n      sload\n      dup2\n      mstore\n      swap1\n      0x01\n      add\n      swap1\n      0x20\n      add\n      dup1\n      dup4\n      gt\n      tag_200\n      jumpi\n      dup3\n      swap1\n      sub\n      0x1f\n      and\n      dup3\n      add\n      swap2\n    tag_198:\n      pop\n      pop\n      pop\n      pop\n      pop\n      dup2\n      mstore\n      0x20\n      add\n      0x02\n      dup3\n      add\n      dup1\n      sload\n      tag_201\n      swap1\n      tag_191\n      jump\t// in\n    tag_201:\n      dup1\n      0x1f\n      add\n      0x20\n      dup1\n      swap2\n      div\n      mul\n      0x20\n      add\n      mload(0x40)\n      swap1\n      dup2\n      add\n      0x40\n      mstore\n      dup1\n      swap3\n      swap2\n      swap1\n      dup2\n      dup2\n      mstore\n      0x20\n      add\n      dup3\n      dup1\n      sload\n      tag_202\n      swap1\n      tag_191\n      jump\t// in\n    tag_202:\n      dup1\n      iszero\n      tag_203\n      jumpi\n      dup1\n      0x1f\n      lt\n      tag_204\n      jumpi\n      0x0100\n      dup1\n      dup4\n      sload\n      div\n      mul\n      dup4\n      mstore\n      swap2\n      0x20\n      add\n      swap2\n      jump(tag_203)\n    tag_204:\n      dup3\n      add\n      swap2\n      swap1\n      0x00\n      mstore\n      keccak256(0x00, 0x20)\n      swap1\n    tag_205:\n      dup2\n      sload\n      dup2\n      mstore\n      swap1\n      0x01\n      add\n      swap1\n      0x20\n      add\n      dup1\n      dup4\n      gt\n      tag_205\n      jumpi\n      dup3\n      swap1\n      sub\n      0x1f\n      and\n      dup3\n      add\n      swap2\n    tag_203:\n      pop\n      pop\n      pop\n      pop\n      pop\n      dup2\n      mstore\n      0x20\n      add\n      0x03\n      dup3\n      add\n      dup1\n      sload\n      tag_206\n      swap1\n      tag_191\n      jump\t// in\n    tag_206:\n      dup1\n      0x1f\n      add\n      0x20\n      dup1\n      swap2\n      div\n      mul\n      0x20\n      add\n      mload(0x40)\n      swap1\n      dup2\n      add\n      0x40\n      mstore\n      dup1\n      swap3\n      swap2\n      swap1\n      dup2\n      dup2\n      mstore\n      0x20\n      add\n      dup3\n      dup1\n      sload\n      tag_207\n      swap1\n      tag_191\n      jump\t// in\n    tag_207:\n      dup1\n      iszero\n      tag_208\n      jumpi\n      dup1\n      0x1f\n      lt\n      tag_209\n      jumpi\n      0x0100\n      dup1\n      dup4\n      sload\n      div\n      mul\n      dup4\n      mstore\n      swap2\n      0x20\n      add\n      swap2\n      jump(tag_208)\n    tag_209:\n      dup3\n      add\n      swap2\n      swap1\n      0x00\n      mstore\n      keccak256(0x00, 0x20)\n      swap1\n    tag_210:\n      dup2\n      sload\n      dup2\n      mstore\n      swap1\n      0x01\n      add\n      swap1\n      0x20\n      add\n      dup1\n      dup4\n      gt\n      tag_210\n      jumpi\n      dup3\n      swap1\n      sub\n      0x1f\n      and\n      dup3\n      add\n      swap2\n    tag_208:\n      pop\n      pop\n      pop\n      pop\n      pop\n      dup2\n      mstore\n      0x20\n      add\n      0x04\n      dup3\n      add\n      dup1\n      sload\n      tag_211\n      swap1\n      tag_191\n      jump\t// in\n    tag_211:\n      dup1\n      0x1f\n      add\n      0x20\n      dup1\n      swap2\n      div\n      mul\n      0x20\n      add\n      mload(0x40)\n      swap1\n      dup2\n      add\n      0x40\n      mstore\n      dup1\n      swap3\n      swap2\n      swap1\n      dup2\n      dup2\n      mstore\n      0x20\n      add\n      dup3\n      dup1\n      sload\n      tag_212\n      swap1\n      tag_191\n      jump\t// in\n    tag_212:\n      dup1\n      iszero\n      tag_213\n      jumpi\n      dup1\n      0x1f\n      lt\n      tag_214\n      jumpi\n      0x0100\n      dup1\n      dup4\n      sload\n      div\n      mul\n      dup4\n      mstore\n      swap2\n      0x20\n      add\n      swap2\n      jump(tag_213)\n    tag_214:\n      dup3\n      add\n      swap2\n      swap1\n      0x00\n      mstore\n      keccak256(0x00, 0x20)\n      swap1\n    tag_215:\n      dup2\n      sload\n      dup2\n      mstore\n      swap1\n      0x01\n      add\n      swap1\n      0x20\n      add\n      dup1\n      dup4\n      gt\n      tag_215\n      jumpi\n      dup3\n      swap1\n      sub\n      0x1f\n      and\n      dup3\n      add\n      swap2\n    tag_213:\n      pop\n      pop\n      pop\n      pop\n      pop\n      dup2\n      mstore\n      0x20\n      add\n      0x05\n      dup3\n      add\n      dup1\n      sload\n      tag_216\n      swap1\n      tag_191\n      jump\t// in\n    tag_216:\n      dup1\n      0x1f\n      add\n      0x20\n      dup1\n      swap2\n      div\n      mul\n      0x20\n      add\n      mload(0x40)\n      swap1\n      dup2\n      add\n      0x40\n      mstore\n      dup1\n      swap3\n      swap2\n      swap1\n      dup2\n      dup2\n      mstore\n      0x20\n      add\n      dup3\n      dup1\n      sload\n      tag_217\n      swap1\n      tag_191\n      jump\t// in\n    tag_217:\n      dup1\n      iszero\n      tag_218\n      jumpi\n      dup1\n      0x1f\n      lt\n      tag_219\n      jumpi\n      0x0100\n      dup1\n      dup4\n      sload\n      div\n      mul\n      dup4\n      mstore\n      swap2\n      0x20\n      add\n      swap2\n      jump(tag_218)\n    tag_219:\n      dup3\n      add\n      swap2\n      swap1\n      0x00\n      mstore\n      keccak256(0x00, 0x20)\n      swap1\n    tag_220:\n      dup2\n      sload\n      dup2\n      mstore\n      swap1\n      0x01\n      add\n      swap1\n      0x20\n      add\n      dup1\n      dup4\n      gt\n      tag_220\n      jumpi\n      dup3\n      swap1\n      sub\n      0x1f\n      and\n      dup3\n      add\n      swap2\n    tag_218:\n      pop\n      pop\n      pop\n      pop\n      pop\n      dup2\n      mstore\n      0x20\n      add\n      0x06\n      dup3\n      add\n      dup1\n      sload\n      tag_221\n      swap1\n      tag_191\n      jump\t// in\n    tag_221:\n      dup1\n      0x1f\n      add\n      0x20\n      dup1\n      swap2\n      div\n      mul\n      0x20\n      add\n      mload(0x40)\n      swap1\n      dup2\n      add\n      0x40\n      mstore\n      dup1\n      swap3\n      swap2\n      swap1\n      dup2\n      dup2\n      mstore\n      0x20\n      add\n      dup3\n      dup1\n      sload\n      tag_222\n      swap1\n      tag_191\n      jump\t// in\n    tag_222:\n      dup1\n      iszero\n      tag_223\n      jumpi\n      dup1\n      0x1f\n      lt\n      tag_224\n      jumpi\n      0x0100\n      dup1\n      dup4\n      sload\n      div\n      mul\n      dup4\n      mstore\n      swap2\n      0x20\n      add\n      swap2\n      jump(tag_223)\n    tag_224:\n      dup3\n      add\n      swap2\n      swap1\n      0x00\n      mstore\n      keccak256(0x00, 0x20)\n      swap1\n    tag_225:\n      dup2\n      sload\n      dup2\n      mstore\n      swap1\n      0x01\n      add\n      swap1\n      0x20\n      add\n      dup1\n      dup4\n      gt\n      tag_225\n      jumpi\n      dup3\n      swap1\n      sub\n      0x1f\n      and\n      dup3\n      add\n      swap2\n    tag_223:\n      pop\n      pop\n      pop\n      pop\n      pop\n      dup2\n      mstore\n      0x20\n      add\n      0x07\n      dup3\n      add\n      dup1\n      sload\n      tag_226\n      swap1\n      tag_191\n      jump\t// in\n    tag_226:\n      dup1\n      0x1f\n      add\n      0x20\n      dup1\n      swap2\n      div\n      mul\n      0x20\n      add\n      mload(0x40)\n      swap1\n      dup2\n      add\n      0x40\n      mstore\n      dup1\n      swap3\n      swap2\n      swap1\n      dup2\n      dup2\n      mstore\n      0x20\n      add\n      dup3\n      dup1\n      sload\n      tag_227\n      swap1\n      tag_191\n      jump\t// in\n    tag_227:\n      dup1\n      iszero\n      tag_228\n      jumpi\n      dup1\n      0x1f\n      lt\n      tag_229\n      jumpi\n      0x0100\n      dup1\n      dup4\n      sload\n      div\n      mul\n      dup4\n      mstore\n      swap2\n      0x20\n      add\n      swap2\n      jump(tag_228)\n    tag_229:\n      dup3\n      add\n      swap2\n      swap1\n      0x00\n      mstore\n      keccak256(0x00, 0x20)\n      swap1\n    tag_230:\n      dup2\n      sload\n      dup2\n      mstore\n      swap1\n      0x01\n      add\n      swap1\n      0x20\n      add\n      dup1\n      dup4\n      gt\n      tag_230\n      jumpi\n      dup3\n      swap1\n      sub\n      0x1f\n      and\n      dup3\n      add\n      swap2\n    tag_228:\n      pop\n      pop\n      pop\n      pop\n      pop\n      dup2\n      mstore\n      0x20\n      add\n      0x08\n      dup3\n      add\n      dup1\n      sload\n      tag_231\n      swap1\n      tag_191\n      jump\t// in\n    tag_231:\n      dup1\n      0x1f\n      add\n      0x20\n      dup1\n      swap2\n      div\n      mul\n      0x20\n      add\n      mload(0x40)\n      swap1\n      dup2\n      add\n      0x40\n      mstore\n      dup1\n      swap3\n      swap2\n      swap1\n      dup2\n      dup2\n      mstore\n      0x20\n      add\n      dup3\n      dup1\n      sload\n      tag_232\n      swap1\n      tag_191\n      jump\t// in\n    tag_232:\n      dup1\n      iszero\n      tag_233\n      jumpi\n      dup1\n      0x1f\n      lt\n      tag_234\n      jumpi\n      0x0100\n      dup1\n      dup4\n      sload\n      div\n      mul\n      dup4\n      mstore\n      swap2\n      0x20\n      add\n      swap2\n      jump(tag_233)\n    tag_234:\n      dup3\n      add\n      swap2\n      swap1\n      0x00\n      mstore\n      keccak256(0x00, 0x20)\n      swap1\n    tag_235:\n      dup2\n      sload\n      dup2\n      mstore\n      swap1\n      0x01\n      add\n      swap1\n      0x20\n      add\n      dup1\n      dup4\n      gt\n      tag_235\n      jumpi\n      dup3\n      swap1\n      sub\n      0x1f\n      and\n      dup3\n      add\n      swap2\n    tag_233:\n      pop\n      pop\n      pop\n      pop\n      pop\n      dup2\n      mstore\n      0x20\n      add\n      0x09\n      dup3\n      add\n      dup1\n      sload\n      tag_236\n      swap1\n      tag_191\n      jump\t// in\n    tag_236:\n      dup1\n      0x1f\n      add\n      0x20\n      dup1\n      swap2\n      div\n      mul\n      0x20\n      add\n      mload(0x40)\n      swap1\n      dup2\n      add\n      0x40\n      mstore\n      dup1\n      swap3\n      swap2\n      swap1\n      dup2\n      dup2\n      mstore\n      0x20\n      add\n      dup3\n      dup1\n      sload\n      tag_237\n      swap1\n      tag_191\n      jump\t// in\n    tag_237:\n      dup1\n      iszero\n      tag_238\n      jumpi\n      dup1\n      0x1f\n      lt\n      tag_239\n      jumpi\n      0x0100\n      dup1\n      dup4\n      sload\n      div\n      mul\n      dup4\n      mstore\n      swap2\n      0x20\n      add\n      swap2\n      jump(tag_238)\n    tag_239:\n      dup3\n      add\n      swap2\n      swap1\n      0x00\n      mstore\n      keccak256(0x00, 0x20)\n      swap1\n    tag_240:\n      dup2\n      sload\n      dup2\n      mstore\n      swap1\n      0x01\n      add\n      swap1\n      0x20\n      add\n      dup1\n      dup4\n      gt\n      tag_240\n      jumpi\n      dup3\n      swap1\n      sub\n      0x1f\n      and\n      dup3\n      add\n      swap2\n    tag_238:\n      pop\n      pop\n      pop\n      pop\n      pop\n      dup2\n      mstore\n      0x20\n      add\n      0x0a\n      dup3\n      add\n      dup1\n      sload\n      tag_241\n      swap1\n      tag_191\n      jump\t// in\n    tag_241:\n      dup1\n      0x1f\n      add\n      0x20\n      dup1\n      swap2\n      div\n      mul\n      0x20\n      add\n      mload(0x40)\n      swap1\n      dup2\n      add\n      0x40\n      mstore\n      dup1\n      swap3\n      swap2\n      swap1\n      dup2\n      dup2\n      mstore\n      0x20\n      add\n      dup3\n      dup1\n      sload\n      tag_242\n      swap1\n      tag_191\n      jump\t// in\n    tag_242:\n      dup1\n      iszero\n      tag_243\n      jumpi\n      dup1\n      0x1f\n      lt\n      tag_244\n      jumpi\n      0x0100\n      dup1\n      dup4\n      sload\n      div\n      mul\n      dup4\n      mstore\n      swap2\n      0x20\n      add\n      swap2\n      jump(tag_243)\n    tag_244:\n      dup3\n      add\n      swap2\n      swap1\n      0x00\n      mstore\n      keccak256(0x00, 0x20)\n      swap1\n    tag_245:\n      dup2\n      sload\n      dup2\n      mstore\n      swap1\n      0x01\n      add\n      swap1\n      0x20\n      add\n      dup1\n      dup4\n      gt\n      tag_245\n      jumpi\n      dup3\n      swap1\n      sub\n      0x1f\n      and\n      dup3\n      add\n      swap2\n    tag_243:\n      pop\n      pop\n      pop\n      pop\n      pop\n      dup2\n      mstore\n      0x20\n      add\n      0x0b\n      dup3\n      add\n      dup1\n      sload\n      tag_246\n      swap1\n      tag_191\n      jump\t// in\n    tag_246:\n      dup1\n      0x1f\n      add\n      0x20\n      dup1\n      swap2\n      div\n      mul\n      0x20\n      add\n      mload(0x40)\n      swap1\n      dup2\n      add\n      0x40\n      mstore\n      dup1\n      swap3\n      swap2\n      swap1\n      dup2\n      dup2\n      mstore\n      0x20\n      add\n      dup3\n      dup1\n      sload\n      tag_247\n      swap1\n      tag_191\n      jump\t// in\n    tag_247:\n      dup1\n      iszero\n      tag_248\n      jumpi\n      dup1\n      0x1f\n      lt\n      tag_249\n      jumpi\n      0x0100\n      dup1\n      dup4\n      sload\n      div\n      mul\n      dup4\n      mstore\n      swap2\n      0x20\n      add\n      swap2\n      jump(tag_248)\n    tag_249:\n      dup3\n      add\n      swap2\n      swap1\n      0x00\n      mstore\n      keccak256(0x00, 0x20)\n      swap1\n    tag_250:\n      dup2\n      sload\n      dup2\n      mstore\n      swap1\n      0x01\n      add\n      swap1\n      0x20\n      add\n      dup1\n      dup4\n      gt\n      tag_250\n      jumpi\n      dup3\n      swap1\n      sub\n      0x1f\n      and\n      dup3\n      add\n      swap2\n    tag_248:\n      pop\n      pop\n      pop\n      pop\n      pop\n      dup2\n      mstore\n      0x20\n      add\n      0x0c\n      dup3\n      add\n      dup1\n      sload\n      tag_251\n      swap1\n      tag_191\n      jump\t// in\n    tag_251:\n      dup1\n      0x1f\n      add\n      0x20\n      dup1\n      swap2\n      div\n      mul\n      0x20\n      add\n      mload(0x40)\n      swap1\n      dup2\n      add\n      0x40\n      mstore\n      dup1\n      swap3\n      swap2\n      swap1\n      dup2\n      dup2\n      mstore\n      0x20\n      add\n      dup3\n      dup1\n      sload\n      tag_252\n      swap1\n      tag_191\n      jump\t// in\n    tag_252:\n      dup1\n      iszero\n      tag_253\n      jumpi\n      dup1\n      0x1f\n      lt\n      tag_254\n      jumpi\n      0x0100\n      dup1\n      dup4\n      sload\n      div\n      mul\n      dup4\n      mstore\n      swap2\n      0x20\n      add\n      swap2\n      jump(tag_253)\n    tag_254:\n      dup3\n      add\n      swap2\n      swap1\n      0x00\n      mstore\n      keccak256(0x00, 0x20)\n      swap1\n    tag_255:\n      dup2\n      sload\n      dup2\n      mstore\n      swap1\n      0x01\n      add\n      swap1\n      0x20\n      add\n      dup1\n      dup4\n      gt\n      tag_255\n      jumpi\n      dup3\n      swap1\n      sub\n      0x1f\n      and\n      dup3\n      add\n      swap2\n    tag_253:\n      pop\n      pop\n      pop\n      pop\n      pop\n      dup2\n      mstore\n      0x20\n      add\n      0x0d\n      dup3\n      add\n      0x00\n      swap1\n      sload\n      swap1\n      0x0100\n      exp\n      swap1\n      div\n      0xffffffffffffffffffffffffffffffffffffffff\n      and\n      0xffffffffffffffffffffffffffffffffffffffff\n      and\n      0xffffffffffffffffffffffffffffffffffffffff\n      and\n      dup2\n      mstore\n      0x20\n      add\n      0x0e\n      dup3\n      add\n      sload\n      dup2\n      mstore\n      pop\n      pop\n      swap1\n      pop\n        /* \"Record.sol\":8645:8646  p */\n      dup1\n        /* \"Record.sol\":8645:8656  p.houseaddr */\n      0xe0\n      add\n      mload\n        /* \"Record.sol\":8658:8659  p */\n      dup2\n        /* \"Record.sol\":8658:8670  p.bloodgroup */\n      0x0100\n      add\n      mload\n        /* \"Record.sol\":8672:8673  p */\n      dup3\n        /* \"Record.sol\":8672:8683  p.allergies */\n      0x0120\n      add\n      mload\n        /* \"Record.sol\":8685:8686  p */\n      dup4\n        /* \"Record.sol\":8685:8697  p.medication */\n      0x0140\n      add\n      mload\n        /* \"Record.sol\":8699:8700  p */\n      dup5\n        /* \"Record.sol\":8699:8714  p.emergencyName */\n      0x0160\n      add\n      mload\n        /* \"Record.sol\":8716:8717  p */\n      dup6\n        /* \"Record.sol\":8716:8734  p.emergencyContact */\n      0x0180\n      add\n      mload\n        /* \"Record.sol\":8637:8735  return (p.houseaddr, p.bloodgroup, p.allergies, p.medication, p.emergencyName, p.emergencyContact) */\n      swap7\n      pop\n      swap7\n      pop\n      swap7\n      pop\n      swap7\n      pop\n      swap7\n      pop\n      swap7\n      pop\n      pop\n        /* \"Record.sol\":8346:8743  function searchPatientMedical(address  _address) public view returns(string memory, string memory, string memory, string memory, string memory, string memory) {... */\n      swap2\n      swap4\n      swap6\n      pop\n      swap2\n      swap4\n      swap6\n      jump\t// out\n        /* \"Record.sol\":7820:8206  function searchPatientDemographic(address   _address) public view returns(string memory, string memory, string memory, string memory, string memory, string memory, string memory) {... */\n    tag_78:\n        /* \"Record.sol\":7894:7907  string memory */\n      0x60\n        /* \"Record.sol\":7909:7922  string memory */\n      dup1\n        /* \"Record.sol\":7924:7937  string memory */\n      0x60\n        /* \"Record.sol\":7939:7952  string memory */\n      dup1\n        /* \"Record.sol\":7954:7967  string memory */\n      0x60\n        /* \"Record.sol\":7969:7982  string memory */\n      dup1\n        /* \"Record.sol\":7984:7997  string memory */\n      0x60\n        /* \"Record.sol\":8018:8028  isApproved */\n      0x07\n        /* \"Record.sol\":8018:8038  isApproved[_address] */\n      0x00\n        /* \"Record.sol\":8029:8037  _address */\n      dup10\n        /* \"Record.sol\":8018:8038  isApproved[_address] */\n      0xffffffffffffffffffffffffffffffffffffffff\n      and\n      0xffffffffffffffffffffffffffffffffffffffff\n      and\n      dup2\n      mstore\n      0x20\n      add\n      swap1\n      dup2\n      mstore\n      0x20\n      add\n      0x00\n      keccak256\n        /* \"Record.sol\":8018:8050  isApproved[_address][msg.sender] */\n      0x00\n        /* \"Record.sol\":8039:8049  msg.sender */\n      caller\n        /* \"Record.sol\":8018:8050  isApproved[_address][msg.sender] */\n      0xffffffffffffffffffffffffffffffffffffffff\n      and\n      0xffffffffffffffffffffffffffffffffffffffff\n      and\n      dup2\n      mstore\n      0x20\n      add\n      swap1\n      dup2\n      mstore\n      0x20\n      add\n      0x00\n      keccak256\n      0x00\n      swap1\n      sload\n      swap1\n      0x0100\n      exp\n      swap1\n      div\n      0xff\n      and\n        /* \"Record.sol\":8010:8051  require(isApproved[_address][msg.sender]) */\n      tag_257\n      jumpi\n      0x00\n      dup1\n      revert\n    tag_257:\n        /* \"Record.sol\":8072:8089  Patients memory p */\n      0x00\n        /* \"Record.sol\":8092:8100  patients */\n      0x04\n        /* \"Record.sol\":8092:8110  patients[_address] */\n      0x00\n        /* \"Record.sol\":8101:8109  _address */\n      dup11\n        /* \"Record.sol\":8092:8110  patients[_address] */\n      0xffffffffffffffffffffffffffffffffffffffff\n      and\n      0xffffffffffffffffffffffffffffffffffffffff\n      and\n      dup2\n      mstore\n      0x20\n      add\n      swap1\n      dup2\n      mstore\n      0x20\n      add\n      0x00\n      keccak256\n        /* \"Record.sol\":8072:8110  Patients memory p = patients[_address] */\n      mload(0x40)\n      dup1\n      0x01e0\n      add\n      0x40\n      mstore\n      swap1\n      dup2\n      0x00\n      dup3\n      add\n      dup1\n      sload\n      tag_258\n      swap1\n      tag_191\n      jump\t// in\n    tag_258:\n      dup1\n      0x1f\n      add\n      0x20\n      dup1\n      swap2\n      div\n      mul\n      0x20\n      add\n      mload(0x40)\n      swap1\n      dup2\n      add\n      0x40\n      mstore\n      dup1\n      swap3\n      swap2\n      swap1\n      dup2\n      dup2\n      mstore\n      0x20\n      add\n      dup3\n      dup1\n      sload\n      tag_259\n      swap1\n      tag_191\n      jump\t// in\n    tag_259:\n      dup1\n      iszero\n      tag_260\n      jumpi\n      dup1\n      0x1f\n      lt\n      tag_261\n      jumpi\n      0x0100\n      dup1\n      dup4\n      sload\n      div\n      mul\n      dup4\n      mstore\n      swap2\n      0x20\n      add\n      swap2\n      jump(tag_260)\n    tag_261:\n      dup3\n      add\n      swap2\n      swap1\n      0x00\n      mstore\n      keccak256(0x00, 0x20)\n      swap1\n    tag_262:\n      dup2\n      sload\n      dup2\n      mstore\n      swap1\n      0x01\n      add\n      swap1\n      0x20\n      add\n      dup1\n      dup4\n      gt\n      tag_262\n      jumpi\n      dup3\n      swap1\n      sub\n      0x1f\n      and\n      dup3\n      add\n      swap2\n    tag_260:\n      pop\n      pop\n      pop\n      pop\n      pop\n      dup2\n      mstore\n      0x20\n      add\n      0x01\n      dup3\n      add\n      dup1\n      sload\n      tag_263\n      swap1\n      tag_191\n      jump\t// in\n    tag_263:\n      dup1\n      0x1f\n      add\n      0x20\n      dup1\n      swap2\n      div\n      mul\n      0x20\n      add\n      mload(0x40)\n      swap1\n      dup2\n      add\n      0x40\n      mstore\n      dup1\n      swap3\n      swap2\n      swap1\n      dup2\n      dup2\n      mstore\n      0x20\n      add\n      dup3\n      dup1\n      sload\n      tag_264\n      swap1\n      tag_191\n      jump\t// in\n    tag_264:\n      dup1\n      iszero\n      tag_265\n      jumpi\n      dup1\n      0x1f\n      lt\n      tag_266\n      jumpi\n      0x0100\n      dup1\n      dup4\n      sload\n      div\n      mul\n      dup4\n      mstore\n      swap2\n      0x20\n      add\n      swap2\n      jump(tag_265)\n    tag_266:\n      dup3\n      add\n      swap2\n      swap1\n      0x00\n      mstore\n      keccak256(0x00, 0x20)\n      swap1\n    tag_267:\n      dup2\n      sload\n      dup2\n      mstore\n      swap1\n      0x01\n      add\n      swap1\n      0x20\n      add\n      dup1\n      dup4\n      gt\n      tag_267\n      jumpi\n      dup3\n      swap1\n      sub\n      0x1f\n      and\n      dup3\n      add\n      swap2\n    tag_265:\n      pop\n      pop\n      pop\n      pop\n      pop\n      dup2\n      mstore\n      0x20\n      add\n      0x02\n      dup3\n      add\n      dup1\n      sload\n      tag_268\n      swap1\n      tag_191\n      jump\t// in\n    tag_268:\n      dup1\n      0x1f\n      add\n      0x20\n      dup1\n      swap2\n      div\n      mul\n      0x20\n      add\n      mload(0x40)\n      swap1\n      dup2\n      add\n      0x40\n      mstore\n      dup1\n      swap3\n      swap2\n      swap1\n      dup2\n      dup2\n      mstore\n      0x20\n      add\n      dup3\n      dup1\n      sload\n      tag_269\n      swap1\n      tag_191\n      jump\t// in\n    tag_269:\n      dup1\n      iszero\n      tag_270\n      jumpi\n      dup1\n      0x1f\n      lt\n      tag_271\n      jumpi\n      0x0100\n      dup1\n      dup4\n      sload\n      div\n      mul\n      dup4\n      mstore\n      swap2\n      0x20\n      add\n      swap2\n      jump(tag_270)\n    tag_271:\n      dup3\n      add\n      swap2\n      swap1\n      0x00\n      mstore\n      keccak256(0x00, 0x20)\n      swap1\n    tag_272:\n      dup2\n      sload\n      dup2\n      mstore\n      swap1\n      0x01\n      add\n      swap1\n      0x20\n      add\n      dup1\n      dup4\n      gt\n      tag_272\n      jumpi\n      dup3\n      swap1\n      sub\n      0x1f\n      and\n      dup3\n      add\n      swap2\n    tag_270:\n      pop\n      pop\n      pop\n      pop\n      pop\n      dup2\n      mstore\n      0x20\n      add\n      0x03\n      dup3\n      add\n      dup1\n      sload\n      tag_273\n      swap1\n      tag_191\n      jump\t// in\n    tag_273:\n      dup1\n      0x1f\n      add\n      0x20\n      dup1\n      swap2\n      div\n      mul\n      0x20\n      add\n      mload(0x40)\n      swap1\n      dup2\n      add\n      0x40\n      mstore\n      dup1\n      swap3\n      swap2\n      swap1\n      dup2\n      dup2\n      mstore\n      0x20\n      add\n      dup3\n      dup1\n      sload\n      tag_274\n      swap1\n      tag_191\n      jump\t// in\n    tag_274:\n      dup1\n      iszero\n      tag_275\n      jumpi\n      dup1\n      0x1f\n      lt\n      tag_276\n      jumpi\n      0x0100\n      dup1\n      dup4\n      sload\n      div\n      mul\n      dup4\n      mstore\n      swap2\n      0x20\n      add\n      swap2\n      jump(tag_275)\n    tag_276:\n      dup3\n      add\n      swap2\n      swap1\n      0x00\n      mstore\n      keccak256(0x00, 0x20)\n      swap1\n    tag_277:\n      dup2\n      sload\n      dup2\n      mstore\n      swap1\n      0x01\n      add\n      swap1\n      0x20\n      add\n      dup1\n      dup4\n      gt\n      tag_277\n      jumpi\n      dup3\n      swap1\n      sub\n      0x1f\n      and\n      dup3\n      add\n      swap2\n    tag_275:\n      pop\n      pop\n      pop\n      pop\n      pop\n      dup2\n      mstore\n      0x20\n      add\n      0x04\n      dup3\n      add\n      dup1\n      sload\n      tag_278\n      swap1\n      tag_191\n      jump\t// in\n    tag_278:\n      dup1\n      0x1f\n      add\n      0x20\n      dup1\n      swap2\n      div\n      mul\n      0x20\n      add\n      mload(0x40)\n      swap1\n      dup2\n      add\n      0x40\n      mstore\n      dup1\n      swap3\n      swap2\n      swap1\n      dup2\n      dup2\n      mstore\n      0x20\n      add\n      dup3\n      dup1\n      sload\n      tag_279\n      swap1\n      tag_191\n      jump\t// in\n    tag_279:\n      dup1\n      iszero\n      tag_280\n      jumpi\n      dup1\n      0x1f\n      lt\n      tag_281\n      jumpi\n      0x0100\n      dup1\n      dup4\n      sload\n      div\n      mul\n      dup4\n      mstore\n      swap2\n      0x20\n      add\n      swap2\n      jump(tag_280)\n    tag_281:\n      dup3\n      add\n      swap2\n      swap1\n      0x00\n      mstore\n      keccak256(0x00, 0x20)\n      swap1\n    tag_282:\n      dup2\n      sload\n      dup2\n      mstore\n      swap1\n      0x01\n      add\n      swap1\n      0x20\n      add\n      dup1\n      dup4\n      gt\n      tag_282\n      jumpi\n      dup3\n      swap1\n      sub\n      0x1f\n      and\n      dup3\n      add\n      swap2\n    tag_280:\n      pop\n      pop\n      pop\n      pop\n      pop\n      dup2\n      mstore\n      0x20\n      add\n      0x05\n      dup3\n      add\n      dup1\n      sload\n      tag_283\n      swap1\n      tag_191\n      jump\t// in\n    tag_283:\n      dup1\n      0x1f\n      add\n      0x20\n      dup1\n      swap2\n      div\n      mul\n      0x20\n      add\n      mload(0x40)\n      swap1\n      dup2\n      add\n      0x40\n      mstore\n      dup1\n      swap3\n      swap2\n      swap1\n      dup2\n      dup2\n      mstore\n      0x20\n      add\n      dup3\n      dup1\n      sload\n      tag_284\n      swap1\n      tag_191\n      jump\t// in\n    tag_284:\n      dup1\n      iszero\n      tag_285\n      jumpi\n      dup1\n      0x1f\n      lt\n      tag_286\n      jumpi\n      0x0100\n      dup1\n      dup4\n      sload\n      div\n      mul\n      dup4\n      mstore\n      swap2\n      0x20\n      add\n      swap2\n      jump(tag_285)\n    tag_286:\n      dup3\n      add\n      swap2\n      swap1\n      0x00\n      mstore\n      keccak256(0x00, 0x20)\n      swap1\n    tag_287:\n      dup2\n      sload\n      dup2\n      mstore\n      swap1\n      0x01\n      add\n      swap1\n      0x20\n      add\n      dup1\n      dup4\n      gt\n      tag_287\n      jumpi\n      dup3\n      swap1\n      sub\n      0x1f\n      and\n      dup3\n      add\n      swap2\n    tag_285:\n      pop\n      pop\n      pop\n      pop\n      pop\n      dup2\n      mstore\n      0x20\n      add\n      0x06\n      dup3\n      add\n      dup1\n      sload\n      tag_288\n      swap1\n      tag_191\n      jump\t// in\n    tag_288:\n      dup1\n      0x1f\n      add\n      0x20\n      dup1\n      swap2\n      div\n      mul\n      0x20\n      add\n      mload(0x40)\n      swap1\n      dup2\n      add\n      0x40\n      mstore\n      dup1\n      swap3\n      swap2\n      swap1\n      dup2\n      dup2\n      mstore\n      0x20\n      add\n      dup3\n      dup1\n      sload\n      tag_289\n      swap1\n      tag_191\n      jump\t// in\n    tag_289:\n      dup1\n      iszero\n      tag_290\n      jumpi\n      dup1\n      0x1f\n      lt\n      tag_291\n      jumpi\n      0x0100\n      dup1\n      dup4\n      sload\n      div\n      mul\n      dup4\n      mstore\n      swap2\n      0x20\n      add\n      swap2\n      jump(tag_290)\n    tag_291:\n      dup3\n      add\n      swap2\n      swap1\n      0x00\n      mstore\n      keccak256(0x00, 0x20)\n      swap1\n    tag_292:\n      dup2\n      sload\n      dup2\n      mstore\n      swap1\n      0x01\n      add\n      swap1\n      0x20\n      add\n      dup1\n      dup4\n      gt\n      tag_292\n      jumpi\n      dup3\n      swap1\n      sub\n      0x1f\n      and\n      dup3\n      add\n      swap2\n    tag_290:\n      pop\n      pop\n      pop\n      pop\n      pop\n      dup2\n      mstore\n      0x20\n      add\n      0x07\n      dup3\n      add\n      dup1\n      sload\n      tag_293\n      swap1\n      tag_191\n      jump\t// in\n    tag_293:\n      dup1\n      0x1f\n      add\n      0x20\n      dup1\n      swap2\n      div\n      mul\n      0x20\n      add\n      mload(0x40)\n      swap1\n      dup2\n      add\n      0x40\n      mstore\n      dup1\n      swap3\n      swap2\n      swap1\n      dup2\n      dup2\n      mstore\n      0x20\n      add\n      dup3\n      dup1\n      sload\n      tag_294\n      swap1\n      tag_191\n      jump\t// in\n    tag_294:\n      dup1\n      iszero\n      tag_295\n      jumpi\n      dup1\n      0x1f\n      lt\n      tag_296\n      jumpi\n      0x0100\n      dup1\n      dup4\n      sload\n      div\n      mul\n      dup4\n      mstore\n      swap2\n      0x20\n      add\n      swap2\n      jump(tag_295)\n    tag_296:\n      dup3\n      add\n      swap2\n      swap1\n      0x00\n      mstore\n      keccak256(0x00, 0x20)\n      swap1\n    tag_297:\n      dup2\n      sload\n      dup2\n      mstore\n      swap1\n      0x01\n      add\n      swap1\n      0x20\n      add\n      dup1\n      dup4\n      gt\n      tag_297\n      jumpi\n      dup3\n      swap1\n      sub\n      0x1f\n      and\n      dup3\n      add\n      swap2\n    tag_295:\n      pop\n      pop\n      pop\n      pop\n      pop\n      dup2\n      mstore\n      0x20\n      add\n      0x08\n      dup3\n      add\n      dup1\n      sload\n      tag_298\n      swap1\n      tag_191\n      jump\t// in\n    tag_298:\n      dup1\n      0x1f\n      add\n      0x20\n      dup1\n      swap2\n      div\n      mul\n      0x20\n      add\n      mload(0x40)\n      swap1\n      dup2\n      add\n      0x40\n      mstore\n      dup1\n      swap3\n      swap2\n      swap1\n      dup2\n      dup2\n      mstore\n      0x20\n      add\n      dup3\n      dup1\n      sload\n      tag_299\n      swap1\n      tag_191\n      jump\t// in\n    tag_299:\n      dup1\n      iszero\n      tag_300\n      jumpi\n      dup1\n      0x1f\n      lt\n      tag_301\n      jumpi\n      0x0100\n      dup1\n      dup4\n      sload\n      div\n      mul\n      dup4\n      mstore\n      swap2\n      0x20\n      add\n      swap2\n      jump(tag_300)\n    tag_301:\n      dup3\n      add\n      swap2\n      swap1\n      0x00\n      mstore\n      keccak256(0x00, 0x20)\n      swap1\n    tag_302:\n      dup2\n      sload\n      dup2\n      mstore\n      swap1\n      0x01\n      add\n      swap1\n      0x20\n      add\n      dup1\n      dup4\n      gt\n      tag_302\n      jumpi\n      dup3\n      swap1\n      sub\n      0x1f\n      and\n      dup3\n      add\n      swap2\n    tag_300:\n      pop\n      pop\n      pop\n      pop\n      pop\n      dup2\n      mstore\n      0x20\n      add\n      0x09\n      dup3\n      add\n      dup1\n      sload\n      tag_303\n      swap1\n      tag_191\n      jump\t// in\n    tag_303:\n      dup1\n      0x1f\n      add\n      0x20\n      dup1\n      swap2\n      div\n      mul\n      0x20\n      add\n      mload(0x40)\n      swap1\n      dup2\n      add\n      0x40\n      mstore\n      dup1\n      swap3\n      swap2\n      swap1\n      dup2\n      dup2\n      mstore\n      0x20\n      add\n      dup3\n      dup1\n      sload\n      tag_304\n      swap1\n      tag_191\n      jump\t// in\n    tag_304:\n      dup1\n      iszero\n      tag_305\n      jumpi\n      dup1\n      0x1f\n      lt\n      tag_306\n      jumpi\n      0x0100\n      dup1\n      dup4\n      sload\n      div\n      mul\n      dup4\n      mstore\n      swap2\n      0x20\n      add\n      swap2\n      jump(tag_305)\n    tag_306:\n      dup3\n      add\n      swap2\n      swap1\n      0x00\n      mstore\n      keccak256(0x00, 0x20)\n      swap1\n    tag_307:\n      dup2\n      sload\n      dup2\n      mstore\n      swap1\n      0x01\n      add\n      swap1\n      0x20\n      add\n      dup1\n      dup4\n      gt\n      tag_307\n      jumpi\n      dup3\n      swap1\n      sub\n      0x1f\n      and\n      dup3\n      add\n      swap2\n    tag_305:\n      pop\n      pop\n      pop\n      pop\n      pop\n      dup2\n      mstore\n      0x20\n      add\n      0x0a\n      dup3\n      add\n      dup1\n      sload\n      tag_308\n      swap1\n      tag_191\n      jump\t// in\n    tag_308:\n      dup1\n      0x1f\n      add\n      0x20\n      dup1\n      swap2\n      div\n      mul\n      0x20\n      add\n      mload(0x40)\n      swap1\n      dup2\n      add\n      0x40\n      mstore\n      dup1\n      swap3\n      swap2\n      swap1\n      dup2\n      dup2\n      mstore\n      0x20\n      add\n      dup3\n      dup1\n      sload\n      tag_309\n      swap1\n      tag_191\n      jump\t// in\n    tag_309:\n      dup1\n      iszero\n      tag_310\n      jumpi\n      dup1\n      0x1f\n      lt\n      tag_311\n      jumpi\n      0x0100\n      dup1\n      dup4\n      sload\n      div\n      mul\n      dup4\n      mstore\n      swap2\n      0x20\n      add\n      swap2\n      jump(tag_310)\n    tag_311:\n      dup3\n      add\n      swap2\n      swap1\n      0x00\n      mstore\n      keccak256(0x00, 0x20)\n      swap1\n    tag_312:\n      dup2\n      sload\n      dup2\n      mstore\n      swap1\n      0x01\n      add\n      swap1\n      0x20\n      add\n      dup1\n      dup4\n      gt\n      tag_312\n      jumpi\n      dup3\n      swap1\n      sub\n      0x1f\n      and\n      dup3\n      add\n      swap2\n    tag_310:\n      pop\n      pop\n      pop\n      pop\n      pop\n      dup2\n      mstore\n      0x20\n      add\n      0x0b\n      dup3\n      add\n      dup1\n      sload\n      tag_313\n      swap1\n      tag_191\n      jump\t// in\n    tag_313:\n      dup1\n      0x1f\n      add\n      0x20\n      dup1\n      swap2\n      div\n      mul\n      0x20\n      add\n      mload(0x40)\n      swap1\n      dup2\n      add\n      0x40\n      mstore\n      dup1\n      swap3\n      swap2\n      swap1\n      dup2\n      dup2\n      mstore\n      0x20\n      add\n      dup3\n      dup1\n      sload\n      tag_314\n      swap1\n      tag_191\n      jump\t// in\n    tag_314:\n      dup1\n      iszero\n      tag_315\n      jumpi\n      dup1\n      0x1f\n      lt\n      tag_316\n      jumpi\n      0x0100\n      dup1\n      dup4\n      sload\n      div\n      mul\n      dup4\n      mstore\n      swap2\n      0x20\n      add\n      swap2\n      jump(tag_315)\n    tag_316:\n      dup3\n      add\n      swap2\n      swap1\n      0x00\n      mstore\n      keccak256(0x00, 0x20)\n      swap1\n    tag_317:\n      dup2\n      sload\n      dup2\n      mstore\n      swap1\n      0x01\n      add\n      swap1\n      0x20\n      add\n      dup1\n      dup4\n      gt\n      tag_317\n      jumpi\n      dup3\n      swap1\n      sub\n      0x1f\n      and\n      dup3\n      add\n      swap2\n    tag_315:\n      pop\n      pop\n      pop\n      pop\n      pop\n      dup2\n      mstore\n      0x20\n      add\n      0x0c\n      dup3\n      add\n      dup1\n      sload\n      tag_318\n      swap1\n      tag_191\n      jump\t// in\n    tag_318:\n      dup1\n      0x1f\n      add\n      0x20\n      dup1\n      swap2\n      div\n      mul\n      0x20\n      add\n      mload(0x40)\n      swap1\n      dup2\n      add\n      0x40\n      mstore\n      dup1\n      swap3\n      swap2\n      swap1\n      dup2\n      dup2\n      mstore\n      0x20\n      add\n      dup3\n      dup1\n      sload\n      tag_319\n      swap1\n      tag_191\n      jump\t// in\n    tag_319:\n      dup1\n      iszero\n      tag_320\n      jumpi\n      dup1\n      0x1f\n      lt\n      tag_321\n      jumpi\n      0x0100\n      dup1\n      dup4\n      sload\n      div\n      mul\n      dup4\n      mstore\n      swap2\n      0x20\n      add\n      swap2\n      jump(tag_320)\n    tag_321:\n      dup3\n      add\n      swap2\n      swap1\n      0x00\n      mstore\n      keccak256(0x00, 0x20)\n      swap1\n    tag_322:\n      dup2\n      sload\n      dup2\n      mstore\n      swap1\n      0x01\n      add\n      swap1\n      0x20\n      add\n      dup1\n      dup4\n      gt\n      tag_322\n      jumpi\n      dup3\n      swap1\n      sub\n      0x1f\n      and\n      dup3\n      add\n      swap2\n    tag_320:\n      pop\n      pop\n      pop\n      pop\n      pop\n      dup2\n      mstore\n      0x20\n      add\n      0x0d\n      dup3\n      add\n      0x00\n      swap1\n      sload\n      swap1\n      0x0100\n      exp\n      swap1\n      div\n      0xffffffffffffffffffffffffffffffffffffffff\n      and\n      0xffffffffffffffffffffffffffffffffffffffff\n      and\n      0xffffffffffffffffffffffffffffffffffffffff\n      and\n      dup2\n      mstore\n      0x20\n      add\n      0x0e\n      dup3\n      add\n      sload\n      dup2\n      mstore\n      pop\n      pop\n      swap1\n      pop\n        /* \"Record.sol\":8139:8140  p */\n      dup1\n        /* \"Record.sol\":8139:8143  p.ic */\n      0x00\n      add\n      mload\n        /* \"Record.sol\":8145:8146  p */\n      dup2\n        /* \"Record.sol\":8145:8151  p.name */\n      0x20\n      add\n      mload\n        /* \"Record.sol\":8153:8154  p */\n      dup3\n        /* \"Record.sol\":8153:8160  p.phone */\n      0x40\n      add\n      mload\n        /* \"Record.sol\":8162:8163  p */\n      dup4\n        /* \"Record.sol\":8162:8170  p.gender */\n      0x60\n      add\n      mload\n        /* \"Record.sol\":8172:8173  p */\n      dup5\n        /* \"Record.sol\":8172:8177  p.dob */\n      0x80\n      add\n      mload\n        /* \"Record.sol\":8179:8180  p */\n      dup6\n        /* \"Record.sol\":8179:8187  p.height */\n      0xa0\n      add\n      mload\n        /* \"Record.sol\":8189:8190  p */\n      dup7\n        /* \"Record.sol\":8189:8197  p.weight */\n      0xc0\n      add\n      mload\n        /* \"Record.sol\":8131:8198  return (p.ic, p.name, p.phone, p.gender, p.dob, p.height, p.weight) */\n      swap8\n      pop\n      swap8\n      pop\n      swap8\n      pop\n      swap8\n      pop\n      swap8\n      pop\n      swap8\n      pop\n      swap8\n      pop\n      pop\n        /* \"Record.sol\":7820:8206  function searchPatientDemographic(address   _address) public view returns(string memory, string memory, string memory, string memory, string memory, string memory, string memory) {... */\n      swap2\n      swap4\n      swap6\n      swap8\n      swap1\n      swap3\n      swap5\n      swap7\n      pop\n      jump\t// out\n        /* \"Record.sol\":6769:6955  function givePermission(address _address) public returns(bool success) {... */\n    tag_83:\n        /* \"Record.sol\":6826:6838  bool success */\n      0x00\n        /* \"Record.sol\":6886:6890  true */\n      0x01\n        /* \"Record.sol\":6851:6861  isApproved */\n      0x07\n        /* \"Record.sol\":6851:6873  isApproved[msg.sender] */\n      0x00\n        /* \"Record.sol\":6862:6872  msg.sender */\n      caller\n        /* \"Record.sol\":6851:6873  isApproved[msg.sender] */\n      0xffffffffffffffffffffffffffffffffffffffff\n      and\n      0xffffffffffffffffffffffffffffffffffffffff\n      and\n      dup2\n      mstore\n      0x20\n      add\n      swap1\n      dup2\n      mstore\n      0x20\n      add\n      0x00\n      keccak256\n        /* \"Record.sol\":6851:6883  isApproved[msg.sender][_address] */\n      0x00\n        /* \"Record.sol\":6874:6882  _address */\n      dup5\n        /* \"Record.sol\":6851:6883  isApproved[msg.sender][_address] */\n      0xffffffffffffffffffffffffffffffffffffffff\n      and\n      0xffffffffffffffffffffffffffffffffffffffff\n      and\n      dup2\n      mstore\n      0x20\n      add\n      swap1\n      dup2\n      mstore\n      0x20\n      add\n      0x00\n      keccak256\n      0x00\n        /* \"Record.sol\":6851:6890  isApproved[msg.sender][_address] = true */\n      0x0100\n      exp\n      dup2\n      sload\n      dup2\n      0xff\n      mul\n      not\n      and\n      swap1\n      dup4\n      iszero\n      iszero\n      mul\n      or\n      swap1\n      sstore\n      pop\n        /* \"Record.sol\":6901:6923  permissionGrantedCount */\n      0x0e\n      0x00\n        /* \"Record.sol\":6901:6925  permissionGrantedCount++ */\n      dup2\n      sload\n      dup1\n      swap3\n      swap2\n      swap1\n      tag_324\n      swap1\n      tag_176\n      jump\t// in\n    tag_324:\n      swap2\n      swap1\n      pop\n      sstore\n      pop\n        /* \"Record.sol\":6943:6947  true */\n      0x01\n        /* \"Record.sol\":6936:6947  return true */\n      swap1\n      pop\n        /* \"Record.sol\":6769:6955  function givePermission(address _address) public returns(bool success) {... */\n      swap2\n      swap1\n      pop\n      jump\t// out\n        /* \"Record.sol\":10263:10448  function searchAppointmentDate(address  _address) public view returns(uint) {... */\n    tag_87:\n        /* \"Record.sol\":10333:10337  uint */\n      0x00\n        /* \"Record.sol\":10350:10371  Appointments memory a */\n      dup1\n        /* \"Record.sol\":10374:10386  appointments */\n      0x06\n        /* \"Record.sol\":10374:10396  appointments[_address] */\n      0x00\n        /* \"Record.sol\":10387:10395  _address */\n      dup5\n        /* \"Record.sol\":10374:10396  appointments[_address] */\n      0xffffffffffffffffffffffffffffffffffffffff\n      and\n      0xffffffffffffffffffffffffffffffffffffffff\n      and\n      dup2\n      mstore\n      0x20\n      add\n      swap1\n      dup2\n      mstore\n      0x20\n      add\n      0x00\n      keccak256\n        /* \"Record.sol\":10350:10396  Appointments memory a = appointments[_address] */\n      mload(0x40)\n      dup1\n      0x0120\n      add\n      0x40\n      mstore\n      swap1\n      dup2\n      0x00\n      dup3\n      add\n      0x00\n      swap1\n      sload\n      swap1\n      0x0100\n      exp\n      swap1\n      div\n      0xffffffffffffffffffffffffffffffffffffffff\n      and\n      0xffffffffffffffffffffffffffffffffffffffff\n      and\n      0xffffffffffffffffffffffffffffffffffffffff\n      and\n      dup2\n      mstore\n      0x20\n      add\n      0x01\n      dup3\n      add\n      0x00\n      swap1\n      sload\n      swap1\n      0x0100\n      exp\n      swap1\n      div\n      0xffffffffffffffffffffffffffffffffffffffff\n      and\n      0xffffffffffffffffffffffffffffffffffffffff\n      and\n      0xffffffffffffffffffffffffffffffffffffffff\n      and\n      dup2\n      mstore\n      0x20\n      add\n      0x02\n      dup3\n      add\n      dup1\n      sload\n      tag_326\n      swap1\n      tag_191\n      jump\t// in\n    tag_326:\n      dup1\n      0x1f\n      add\n      0x20\n      dup1\n      swap2\n      div\n      mul\n      0x20\n      add\n      mload(0x40)\n      swap1\n      dup2\n      add\n      0x40\n      mstore\n      dup1\n      swap3\n      swap2\n      swap1\n      dup2\n      dup2\n      mstore\n      0x20\n      add\n      dup3\n      dup1\n      sload\n      tag_327\n      swap1\n      tag_191\n      jump\t// in\n    tag_327:\n      dup1\n      iszero\n      tag_328\n      jumpi\n      dup1\n      0x1f\n      lt\n      tag_329\n      jumpi\n      0x0100\n      dup1\n      dup4\n      sload\n      div\n      mul\n      dup4\n      mstore\n      swap2\n      0x20\n      add\n      swap2\n      jump(tag_328)\n    tag_329:\n      dup3\n      add\n      swap2\n      swap1\n      0x00\n      mstore\n      keccak256(0x00, 0x20)\n      swap1\n    tag_330:\n      dup2\n      sload\n      dup2\n      mstore\n      swap1\n      0x01\n      add\n      swap1\n      0x20\n      add\n      dup1\n      dup4\n      gt\n      tag_330\n      jumpi\n      dup3\n      swap1\n      sub\n      0x1f\n      and\n      dup3\n      add\n      swap2\n    tag_328:\n      pop\n      pop\n      pop\n      pop\n      pop\n      dup2\n      mstore\n      0x20\n      add\n      0x03\n      dup3\n      add\n      dup1\n      sload\n      tag_331\n      swap1\n      tag_191\n      jump\t// in\n    tag_331:\n      dup1\n      0x1f\n      add\n      0x20\n      dup1\n      swap2\n      div\n      mul\n      0x20\n      add\n      mload(0x40)\n      swap1\n      dup2\n      add\n      0x40\n      mstore\n      dup1\n      swap3\n      swap2\n      swap1\n      dup2\n      dup2\n      mstore\n      0x20\n      add\n      dup3\n      dup1\n      sload\n      tag_332\n      swap1\n      tag_191\n      jump\t// in\n    tag_332:\n      dup1\n      iszero\n      tag_333\n      jumpi\n      dup1\n      0x1f\n      lt\n      tag_334\n      jumpi\n      0x0100\n      dup1\n      dup4\n      sload\n      div\n      mul\n      dup4\n      mstore\n      swap2\n      0x20\n      add\n      swap2\n      jump(tag_333)\n    tag_334:\n      dup3\n      add\n      swap2\n      swap1\n      0x00\n      mstore\n      keccak256(0x00, 0x20)\n      swap1\n    tag_335:\n      dup2\n      sload\n      dup2\n      mstore\n      swap1\n      0x01\n      add\n      swap1\n      0x20\n      add\n      dup1\n      dup4\n      gt\n      tag_335\n      jumpi\n      dup3\n      swap1\n      sub\n      0x1f\n      and\n      dup3\n      add\n      swap2\n    tag_333:\n      pop\n      pop\n      pop\n      pop\n      pop\n      dup2\n      mstore\n      0x20\n      add\n      0x04\n      dup3\n      add\n      dup1\n      sload\n      tag_336\n      swap1\n      tag_191\n      jump\t// in\n    tag_336:\n      dup1\n      0x1f\n      add\n      0x20\n      dup1\n      swap2\n      div\n      mul\n      0x20\n      add\n      mload(0x40)\n      swap1\n      dup2\n      add\n      0x40\n      mstore\n      dup1\n      swap3\n      swap2\n      swap1\n      dup2\n      dup2\n      mstore\n      0x20\n      add\n      dup3\n      dup1\n      sload\n      tag_337\n      swap1\n      tag_191\n      jump\t// in\n    tag_337:\n      dup1\n      iszero\n      tag_338\n      jumpi\n      dup1\n      0x1f\n      lt\n      tag_339\n      jumpi\n      0x0100\n      dup1\n      dup4\n      sload\n      div\n      mul\n      dup4\n      mstore\n      swap2\n      0x20\n      add\n      swap2\n      jump(tag_338)\n    tag_339:\n      dup3\n      add\n      swap2\n      swap1\n      0x00\n      mstore\n      keccak256(0x00, 0x20)\n      swap1\n    tag_340:\n      dup2\n      sload\n      dup2\n      mstore\n      swap1\n      0x01\n      add\n      swap1\n      0x20\n      add\n      dup1\n      dup4\n      gt\n      tag_340\n      jumpi\n      dup3\n      swap1\n      sub\n      0x1f\n      and\n      dup3\n      add\n      swap2\n    tag_338:\n      pop\n      pop\n      pop\n      pop\n      pop\n      dup2\n      mstore\n      0x20\n      add\n      0x05\n      dup3\n      add\n      dup1\n      sload\n      tag_341\n      swap1\n      tag_191\n      jump\t// in\n    tag_341:\n      dup1\n      0x1f\n      add\n      0x20\n      dup1\n      swap2\n      div\n      mul\n      0x20\n      add\n      mload(0x40)\n      swap1\n      dup2\n      add\n      0x40\n      mstore\n      dup1\n      swap3\n      swap2\n      swap1\n      dup2\n      dup2\n      mstore\n      0x20\n      add\n      dup3\n      dup1\n      sload\n      tag_342\n      swap1\n      tag_191\n      jump\t// in\n    tag_342:\n      dup1\n      iszero\n      tag_343\n      jumpi\n      dup1\n      0x1f\n      lt\n      tag_344\n      jumpi\n      0x0100\n      dup1\n      dup4\n      sload\n      div\n      mul\n      dup4\n      mstore\n      swap2\n      0x20\n      add\n      swap2\n      jump(tag_343)\n    tag_344:\n      dup3\n      add\n      swap2\n      swap1\n      0x00\n      mstore\n      keccak256(0x00, 0x20)\n      swap1\n    tag_345:\n      dup2\n      sload\n      dup2\n      mstore\n      swap1\n      0x01\n      add\n      swap1\n      0x20\n      add\n      dup1\n      dup4\n      gt\n      tag_345\n      jumpi\n      dup3\n      swap1\n      sub\n      0x1f\n      and\n      dup3\n      add\n      swap2\n    tag_343:\n      pop\n      pop\n      pop\n      pop\n      pop\n      dup2\n      mstore\n      0x20\n      add\n      0x06\n      dup3\n      add\n      dup1\n      sload\n      tag_346\n      swap1\n      tag_191\n      jump\t// in\n    tag_346:\n      dup1\n      0x1f\n      add\n      0x20\n      dup1\n      swap2\n      div\n      mul\n      0x20\n      add\n      mload(0x40)\n      swap1\n      dup2\n      add\n      0x40\n      mstore\n      dup1\n      swap3\n      swap2\n      swap1\n      dup2\n      dup2\n      mstore\n      0x20\n      add\n      dup3\n      dup1\n      sload\n      tag_347\n      swap1\n      tag_191\n      jump\t// in\n    tag_347:\n      dup1\n      iszero\n      tag_348\n      jumpi\n      dup1\n      0x1f\n      lt\n      tag_349\n      jumpi\n      0x0100\n      dup1\n      dup4\n      sload\n      div\n      mul\n      dup4\n      mstore\n      swap2\n      0x20\n      add\n      swap2\n      jump(tag_348)\n    tag_349:\n      dup3\n      add\n      swap2\n      swap1\n      0x00\n      mstore\n      keccak256(0x00, 0x20)\n      swap1\n    tag_350:\n      dup2\n      sload\n      dup2\n      mstore\n      swap1\n      0x01\n      add\n      swap1\n      0x20\n      add\n      dup1\n      dup4\n      gt\n      tag_350\n      jumpi\n      dup3\n      swap1\n      sub\n      0x1f\n      and\n      dup3\n      add\n      swap2\n    tag_348:\n      pop\n      pop\n      pop\n      pop\n      pop\n      dup2\n      mstore\n      0x20\n      add\n      0x07\n      dup3\n      add\n      dup1\n      sload\n      tag_351\n      swap1\n      tag_191\n      jump\t// in\n    tag_351:\n      dup1\n      0x1f\n      add\n      0x20\n      dup1\n      swap2\n      div\n      mul\n      0x20\n      add\n      mload(0x40)\n      swap1\n      dup2\n      add\n      0x40\n      mstore\n      dup1\n      swap3\n      swap2\n      swap1\n      dup2\n      dup2\n      mstore\n      0x20\n      add\n      dup3\n      dup1\n      sload\n      tag_352\n      swap1\n      tag_191\n      jump\t// in\n    tag_352:\n      dup1\n      iszero\n      tag_353\n      jumpi\n      dup1\n      0x1f\n      lt\n      tag_354\n      jumpi\n      0x0100\n      dup1\n      dup4\n      sload\n      div\n      mul\n      dup4\n      mstore\n      swap2\n      0x20\n      add\n      swap2\n      jump(tag_353)\n    tag_354:\n      dup3\n      add\n      swap2\n      swap1\n      0x00\n      mstore\n      keccak256(0x00, 0x20)\n      swap1\n    tag_355:\n      dup2\n      sload\n      dup2\n      mstore\n      swap1\n      0x01\n      add\n      swap1\n      0x20\n      add\n      dup1\n      dup4\n      gt\n      tag_355\n      jumpi\n      dup3\n      swap1\n      sub\n      0x1f\n      and\n      dup3\n      add\n      swap2\n    tag_353:\n      pop\n      pop\n      pop\n      pop\n      pop\n      dup2\n      mstore\n      0x20\n      add\n      0x08\n      dup3\n      add\n      sload\n      dup2\n      mstore\n      pop\n      pop\n      swap1\n      pop\n        /* \"Record.sol\":10425:10426  a */\n      dup1\n        /* \"Record.sol\":10425:10439  a.creationDate */\n      0x0100\n      add\n      mload\n        /* \"Record.sol\":10417:10440  return (a.creationDate) */\n      swap2\n      pop\n      pop\n        /* \"Record.sol\":10263:10448  function searchAppointmentDate(address  _address) public view returns(uint) {... */\n      swap2\n      swap1\n      pop\n      jump\t// out\n        /* \"Record.sol\":10023:10185  function searchDoctorDate(address  _address) public view returns(uint) {... */\n    tag_91:\n        /* \"Record.sol\":10088:10092  uint */\n      0x00\n        /* \"Record.sol\":10105:10121  Doctors memory d */\n      dup1\n        /* \"Record.sol\":10124:10131  doctors */\n      0x05\n        /* \"Record.sol\":10124:10141  doctors[_address] */\n      0x00\n        /* \"Record.sol\":10132:10140  _address */\n      dup5\n        /* \"Record.sol\":10124:10141  doctors[_address] */\n      0xffffffffffffffffffffffffffffffffffffffff\n      and\n      0xffffffffffffffffffffffffffffffffffffffff\n      and\n      dup2\n      mstore\n      0x20\n      add\n      swap1\n      dup2\n      mstore\n      0x20\n      add\n      0x00\n      keccak256\n        /* \"Record.sol\":10105:10141  Doctors memory d = doctors[_address] */\n      mload(0x40)\n      dup1\n      0x0120\n      add\n      0x40\n      mstore\n      swap1\n      dup2\n      0x00\n      dup3\n      add\n      dup1\n      sload\n      tag_357\n      swap1\n      tag_191\n      jump\t// in\n    tag_357:\n      dup1\n      0x1f\n      add\n      0x20\n      dup1\n      swap2\n      div\n      mul\n      0x20\n      add\n      mload(0x40)\n      swap1\n      dup2\n      add\n      0x40\n      mstore\n      dup1\n      swap3\n      swap2\n      swap1\n      dup2\n      dup2\n      mstore\n      0x20\n      add\n      dup3\n      dup1\n      sload\n      tag_358\n      swap1\n      tag_191\n      jump\t// in\n    tag_358:\n      dup1\n      iszero\n      tag_359\n      jumpi\n      dup1\n      0x1f\n      lt\n      tag_360\n      jumpi\n      0x0100\n      dup1\n      dup4\n      sload\n      div\n      mul\n      dup4\n      mstore\n      swap2\n      0x20\n      add\n      swap2\n      jump(tag_359)\n    tag_360:\n      dup3\n      add\n      swap2\n      swap1\n      0x00\n      mstore\n      keccak256(0x00, 0x20)\n      swap1\n    tag_361:\n      dup2\n      sload\n      dup2\n      mstore\n      swap1\n      0x01\n      add\n      swap1\n      0x20\n      add\n      dup1\n      dup4\n      gt\n      tag_361\n      jumpi\n      dup3\n      swap1\n      sub\n      0x1f\n      and\n      dup3\n      add\n      swap2\n    tag_359:\n      pop\n      pop\n      pop\n      pop\n      pop\n      dup2\n      mstore\n      0x20\n      add\n      0x01\n      dup3\n      add\n      dup1\n      sload\n      tag_362\n      swap1\n      tag_191\n      jump\t// in\n    tag_362:\n      dup1\n      0x1f\n      add\n      0x20\n      dup1\n      swap2\n      div\n      mul\n      0x20\n      add\n      mload(0x40)\n      swap1\n      dup2\n      add\n      0x40\n      mstore\n      dup1\n      swap3\n      swap2\n      swap1\n      dup2\n      dup2\n      mstore\n      0x20\n      add\n      dup3\n      dup1\n      sload\n      tag_363\n      swap1\n      tag_191\n      jump\t// in\n    tag_363:\n      dup1\n      iszero\n      tag_364\n      jumpi\n      dup1\n      0x1f\n      lt\n      tag_365\n      jumpi\n      0x0100\n      dup1\n      dup4\n      sload\n      div\n      mul\n      dup4\n      mstore\n      swap2\n      0x20\n      add\n      swap2\n      jump(tag_364)\n    tag_365:\n      dup3\n      add\n      swap2\n      swap1\n      0x00\n      mstore\n      keccak256(0x00, 0x20)\n      swap1\n    tag_366:\n      dup2\n      sload\n      dup2\n      mstore\n      swap1\n      0x01\n      add\n      swap1\n      0x20\n      add\n      dup1\n      dup4\n      gt\n      tag_366\n      jumpi\n      dup3\n      swap1\n      sub\n      0x1f\n      and\n      dup3\n      add\n      swap2\n    tag_364:\n      pop\n      pop\n      pop\n      pop\n      pop\n      dup2\n      mstore\n      0x20\n      add\n      0x02\n      dup3\n      add\n      dup1\n      sload\n      tag_367\n      swap1\n      tag_191\n      jump\t// in\n    tag_367:\n      dup1\n      0x1f\n      add\n      0x20\n      dup1\n      swap2\n      div\n      mul\n      0x20\n      add\n      mload(0x40)\n      swap1\n      dup2\n      add\n      0x40\n      mstore\n      dup1\n      swap3\n      swap2\n      swap1\n      dup2\n      dup2\n      mstore\n      0x20\n      add\n      dup3\n      dup1\n      sload\n      tag_368\n      swap1\n      tag_191\n      jump\t// in\n    tag_368:\n      dup1\n      iszero\n      tag_369\n      jumpi\n      dup1\n      0x1f\n      lt\n      tag_370\n      jumpi\n      0x0100\n      dup1\n      dup4\n      sload\n      div\n      mul\n      dup4\n      mstore\n      swap2\n      0x20\n      add\n      swap2\n      jump(tag_369)\n    tag_370:\n      dup3\n      add\n      swap2\n      swap1\n      0x00\n      mstore\n      keccak256(0x00, 0x20)\n      swap1\n    tag_371:\n      dup2\n      sload\n      dup2\n      mstore\n      swap1\n      0x01\n      add\n      swap1\n      0x20\n      add\n      dup1\n      dup4\n      gt\n      tag_371\n      jumpi\n      dup3\n      swap1\n      sub\n      0x1f\n      and\n      dup3\n      add\n      swap2\n    tag_369:\n      pop\n      pop\n      pop\n      pop\n      pop\n      dup2\n      mstore\n      0x20\n      add\n      0x03\n      dup3\n      add\n      dup1\n      sload\n      tag_372\n      swap1\n      tag_191\n      jump\t// in\n    tag_372:\n      dup1\n      0x1f\n      add\n      0x20\n      dup1\n      swap2\n      div\n      mul\n      0x20\n      add\n      mload(0x40)\n      swap1\n      dup2\n      add\n      0x40\n      mstore\n      dup1\n      swap3\n      swap2\n      swap1\n      dup2\n      dup2\n      mstore\n      0x20\n      add\n      dup3\n      dup1\n      sload\n      tag_373\n      swap1\n      tag_191\n      jump\t// in\n    tag_373:\n      dup1\n      iszero\n      tag_374\n      jumpi\n      dup1\n      0x1f\n      lt\n      tag_375\n      jumpi\n      0x0100\n      dup1\n      dup4\n      sload\n      div\n      mul\n      dup4\n      mstore\n      swap2\n      0x20\n      add\n      swap2\n      jump(tag_374)\n    tag_375:\n      dup3\n      add\n      swap2\n      swap1\n      0x00\n      mstore\n      keccak256(0x00, 0x20)\n      swap1\n    tag_376:\n      dup2\n      sload\n      dup2\n      mstore\n      swap1\n      0x01\n      add\n      swap1\n      0x20\n      add\n      dup1\n      dup4\n      gt\n      tag_376\n      jumpi\n      dup3\n      swap1\n      sub\n      0x1f\n      and\n      dup3\n      add\n      swap2\n    tag_374:\n      pop\n      pop\n      pop\n      pop\n      pop\n      dup2\n      mstore\n      0x20\n      add\n      0x04\n      dup3\n      add\n      dup1\n      sload\n      tag_377\n      swap1\n      tag_191\n      jump\t// in\n    tag_377:\n      dup1\n      0x1f\n      add\n      0x20\n      dup1\n      swap2\n      div\n      mul\n      0x20\n      add\n      mload(0x40)\n      swap1\n      dup2\n      add\n      0x40\n      mstore\n      dup1\n      swap3\n      swap2\n      swap1\n      dup2\n      dup2\n      mstore\n      0x20\n      add\n      dup3\n      dup1\n      sload\n      tag_378\n      swap1\n      tag_191\n      jump\t// in\n    tag_378:\n      dup1\n      iszero\n      tag_379\n      jumpi\n      dup1\n      0x1f\n      lt\n      tag_380\n      jumpi\n      0x0100\n      dup1\n      dup4\n      sload\n      div\n      mul\n      dup4\n      mstore\n      swap2\n      0x20\n      add\n      swap2\n      jump(tag_379)\n    tag_380:\n      dup3\n      add\n      swap2\n      swap1\n      0x00\n      mstore\n      keccak256(0x00, 0x20)\n      swap1\n    tag_381:\n      dup2\n      sload\n      dup2\n      mstore\n      swap1\n      0x01\n      add\n      swap1\n      0x20\n      add\n      dup1\n      dup4\n      gt\n      tag_381\n      jumpi\n      dup3\n      swap1\n      sub\n      0x1f\n      and\n      dup3\n      add\n      swap2\n    tag_379:\n      pop\n      pop\n      pop\n      pop\n      pop\n      dup2\n      mstore\n      0x20\n      add\n      0x05\n      dup3\n      add\n      dup1\n      sload\n      tag_382\n      swap1\n      tag_191\n      jump\t// in\n    tag_382:\n      dup1\n      0x1f\n      add\n      0x20\n      dup1\n      swap2\n      div\n      mul\n      0x20\n      add\n      mload(0x40)\n      swap1\n      dup2\n      add\n      0x40\n      mstore\n      dup1\n      swap3\n      swap2\n      swap1\n      dup2\n      dup2\n      mstore\n      0x20\n      add\n      dup3\n      dup1\n      sload\n      tag_383\n      swap1\n      tag_191\n      jump\t// in\n    tag_383:\n      dup1\n      iszero\n      tag_384\n      jumpi\n      dup1\n      0x1f\n      lt\n      tag_385\n      jumpi\n      0x0100\n      dup1\n      dup4\n      sload\n      div\n      mul\n      dup4\n      mstore\n      swap2\n      0x20\n      add\n      swap2\n      jump(tag_384)\n    tag_385:\n      dup3\n      add\n      swap2\n      swap1\n      0x00\n      mstore\n      keccak256(0x00, 0x20)\n      swap1\n    tag_386:\n      dup2\n      sload\n      dup2\n      mstore\n      swap1\n      0x01\n      add\n      swap1\n      0x20\n      add\n      dup1\n      dup4\n      gt\n      tag_386\n      jumpi\n      dup3\n      swap1\n      sub\n      0x1f\n      and\n      dup3\n      add\n      swap2\n    tag_384:\n      pop\n      pop\n      pop\n      pop\n      pop\n      dup2\n      mstore\n      0x20\n      add\n      0x06\n      dup3\n      add\n      dup1\n      sload\n      tag_387\n      swap1\n      tag_191\n      jump\t// in\n    tag_387:\n      dup1\n      0x1f\n      add\n      0x20\n      dup1\n      swap2\n      div\n      mul\n      0x20\n      add\n      mload(0x40)\n      swap1\n      dup2\n      add\n      0x40\n      mstore\n      dup1\n      swap3\n      swap2\n      swap1\n      dup2\n      dup2\n      mstore\n      0x20\n      add\n      dup3\n      dup1\n      sload\n      tag_388\n      swap1\n      tag_191\n      jump\t// in\n    tag_388:\n      dup1\n      iszero\n      tag_389\n      jumpi\n      dup1\n      0x1f\n      lt\n      tag_390\n      jumpi\n      0x0100\n      dup1\n      dup4\n      sload\n      div\n      mul\n      dup4\n      mstore\n      swap2\n      0x20\n      add\n      swap2\n      jump(tag_389)\n    tag_390:\n      dup3\n      add\n      swap2\n      swap1\n      0x00\n      mstore\n      keccak256(0x00, 0x20)\n      swap1\n    tag_391:\n      dup2\n      sload\n      dup2\n      mstore\n      swap1\n      0x01\n      add\n      swap1\n      0x20\n      add\n      dup1\n      dup4\n      gt\n      tag_391\n      jumpi\n      dup3\n      swap1\n      sub\n      0x1f\n      and\n      dup3\n      add\n      swap2\n    tag_389:\n      pop\n      pop\n      pop\n      pop\n      pop\n      dup2\n      mstore\n      0x20\n      add\n      0x07\n      dup3\n      add\n      0x00\n      swap1\n      sload\n      swap1\n      0x0100\n      exp\n      swap1\n      div\n      0xffffffffffffffffffffffffffffffffffffffff\n      and\n      0xffffffffffffffffffffffffffffffffffffffff\n      and\n      0xffffffffffffffffffffffffffffffffffffffff\n      and\n      dup2\n      mstore\n      0x20\n      add\n      0x08\n      dup3\n      add\n      sload\n      dup2\n      mstore\n      pop\n      pop\n      swap1\n      pop\n        /* \"Record.sol\":10170:10171  d */\n      dup1\n        /* \"Record.sol\":10170:10176  d.date */\n      0x0100\n      add\n      mload\n        /* \"Record.sol\":10162:10177  return (d.date) */\n      swap2\n      pop\n      pop\n        /* \"Record.sol\":10023:10185  function searchDoctorDate(address  _address) public view returns(uint) {... */\n      swap2\n      swap1\n      pop\n      jump\t// out\n        /* \"Record.sol\":1522:1552  uint256 public doctorCount = 0 */\n    tag_94:\n      sload(0x0c)\n      dup2\n      jump\t// out\n        /* \"Record.sol\":10617:10709  function getDoctorCount() public view returns(uint256) {... */\n    tag_97:\n        /* \"Record.sol\":10663:10670  uint256 */\n      0x00\n        /* \"Record.sol\":10690:10701  doctorCount */\n      sload(0x0c)\n        /* \"Record.sol\":10683:10701  return doctorCount */\n      swap1\n      pop\n        /* \"Record.sol\":10617:10709  function getDoctorCount() public view returns(uint256) {... */\n      swap1\n      jump\t// out\n        /* \"Record.sol\":1816:2868  function setDetails(string memory _ic, string memory _name, string memory _phone, string memory _gender, string memory _dob, string memory _height, string memory _weight, string memory _houseaddr, string memory _bloodgroup, string memory _allergies, string memory _medication) public {... */\n    tag_102:\n        /* \"Record.sol\":2120:2129  isPatient */\n      0x08\n        /* \"Record.sol\":2120:2141  isPatient[msg.sender] */\n      0x00\n        /* \"Record.sol\":2130:2140  msg.sender */\n      caller\n        /* \"Record.sol\":2120:2141  isPatient[msg.sender] */\n      0xffffffffffffffffffffffffffffffffffffffff\n      and\n      0xffffffffffffffffffffffffffffffffffffffff\n      and\n      dup2\n      mstore\n      0x20\n      add\n      swap1\n      dup2\n      mstore\n      0x20\n      add\n      0x00\n      keccak256\n      0x00\n      swap1\n      sload\n      swap1\n      0x0100\n      exp\n      swap1\n      div\n      0xff\n      and\n        /* \"Record.sol\":2119:2141  !isPatient[msg.sender] */\n      iszero\n        /* \"Record.sol\":2111:2142  require(!isPatient[msg.sender]) */\n      tag_394\n      jumpi\n      0x00\n      dup1\n      revert\n    tag_394:\n        /* \"Record.sol\":2153:2171  Patients storage p */\n      0x00\n        /* \"Record.sol\":2174:2182  patients */\n      0x04\n        /* \"Record.sol\":2174:2194  patients[msg.sender] */\n      0x00\n        /* \"Record.sol\":2183:2193  msg.sender */\n      caller\n        /* \"Record.sol\":2174:2194  patients[msg.sender] */\n      0xffffffffffffffffffffffffffffffffffffffff\n      and\n      0xffffffffffffffffffffffffffffffffffffffff\n      and\n      dup2\n      mstore\n      0x20\n      add\n      swap1\n      dup2\n      mstore\n      0x20\n      add\n      0x00\n      keccak256\n        /* \"Record.sol\":2153:2194  Patients storage p = patients[msg.sender] */\n      swap1\n      pop\n        /* \"Record.sol\":2222:2225  _ic */\n      dup12\n        /* \"Record.sol\":2215:2216  p */\n      dup2\n        /* \"Record.sol\":2215:2219  p.ic */\n      0x00\n      add\n        /* \"Record.sol\":2215:2225  p.ic = _ic */\n      swap1\n      dup2\n      tag_395\n      swap2\n      swap1\n      tag_168\n      jump\t// in\n    tag_395:\n      pop\n        /* \"Record.sol\":2245:2250  _name */\n      dup11\n        /* \"Record.sol\":2236:2237  p */\n      dup2\n        /* \"Record.sol\":2236:2242  p.name */\n      0x01\n      add\n        /* \"Record.sol\":2236:2250  p.name = _name */\n      swap1\n      dup2\n      tag_396\n      swap2\n      swap1\n      tag_168\n      jump\t// in\n    tag_396:\n      pop\n        /* \"Record.sol\":2271:2277  _phone */\n      dup10\n        /* \"Record.sol\":2261:2262  p */\n      dup2\n        /* \"Record.sol\":2261:2268  p.phone */\n      0x02\n      add\n        /* \"Record.sol\":2261:2277  p.phone = _phone */\n      swap1\n      dup2\n      tag_397\n      swap2\n      swap1\n      tag_168\n      jump\t// in\n    tag_397:\n      pop\n        /* \"Record.sol\":2299:2306  _gender */\n      dup9\n        /* \"Record.sol\":2288:2289  p */\n      dup2\n        /* \"Record.sol\":2288:2296  p.gender */\n      0x03\n      add\n        /* \"Record.sol\":2288:2306  p.gender = _gender */\n      swap1\n      dup2\n      tag_398\n      swap2\n      swap1\n      tag_168\n      jump\t// in\n    tag_398:\n      pop\n        /* \"Record.sol\":2325:2329  _dob */\n      dup8\n        /* \"Record.sol\":2317:2318  p */\n      dup2\n        /* \"Record.sol\":2317:2322  p.dob */\n      0x04\n      add\n        /* \"Record.sol\":2317:2329  p.dob = _dob */\n      swap1\n      dup2\n      tag_399\n      swap2\n      swap1\n      tag_168\n      jump\t// in\n    tag_399:\n      pop\n        /* \"Record.sol\":2351:2358  _height */\n      dup7\n        /* \"Record.sol\":2340:2341  p */\n      dup2\n        /* \"Record.sol\":2340:2348  p.height */\n      0x05\n      add\n        /* \"Record.sol\":2340:2358  p.height = _height */\n      swap1\n      dup2\n      tag_400\n      swap2\n      swap1\n      tag_168\n      jump\t// in\n    tag_400:\n      pop\n        /* \"Record.sol\":2381:2388  _weight */\n      dup6\n        /* \"Record.sol\":2370:2371  p */\n      dup2\n        /* \"Record.sol\":2370:2378  p.weight */\n      0x06\n      add\n        /* \"Record.sol\":2370:2388  p.weight = _weight */\n      swap1\n      dup2\n      tag_401\n      swap2\n      swap1\n      tag_168\n      jump\t// in\n    tag_401:\n      pop\n        /* \"Record.sol\":2413:2423  _houseaddr */\n      dup5\n        /* \"Record.sol\":2399:2400  p */\n      dup2\n        /* \"Record.sol\":2399:2410  p.houseaddr */\n      0x07\n      add\n        /* \"Record.sol\":2399:2423  p.houseaddr = _houseaddr */\n      swap1\n      dup2\n      tag_402\n      swap2\n      swap1\n      tag_168\n      jump\t// in\n    tag_402:\n      pop\n        /* \"Record.sol\":2449:2460  _bloodgroup */\n      dup4\n        /* \"Record.sol\":2434:2435  p */\n      dup2\n        /* \"Record.sol\":2434:2446  p.bloodgroup */\n      0x08\n      add\n        /* \"Record.sol\":2434:2460  p.bloodgroup = _bloodgroup */\n      swap1\n      dup2\n      tag_403\n      swap2\n      swap1\n      tag_168\n      jump\t// in\n    tag_403:\n      pop\n        /* \"Record.sol\":2485:2495  _allergies */\n      dup3\n        /* \"Record.sol\":2471:2472  p */\n      dup2\n        /* \"Record.sol\":2471:2482  p.allergies */\n      0x09\n      add\n        /* \"Record.sol\":2471:2495  p.allergies = _allergies */\n      swap1\n      dup2\n      tag_404\n      swap2\n      swap1\n      tag_168\n      jump\t// in\n    tag_404:\n      pop\n        /* \"Record.sol\":2521:2532  _medication */\n      dup2\n        /* \"Record.sol\":2506:2507  p */\n      dup2\n        /* \"Record.sol\":2506:2518  p.medication */\n      0x0a\n      add\n        /* \"Record.sol\":2506:2532  p.medication = _medication */\n      swap1\n      dup2\n      tag_405\n      swap2\n      swap1\n      tag_168\n      jump\t// in\n    tag_405:\n      pop\n        /* \"Record.sol\":2650:2660  msg.sender */\n      caller\n        /* \"Record.sol\":2641:2642  p */\n      dup2\n        /* \"Record.sol\":2641:2647  p.addr */\n      0x0d\n      add\n      0x00\n        /* \"Record.sol\":2641:2660  p.addr = msg.sender */\n      0x0100\n      exp\n      dup2\n      sload\n      dup2\n      0xffffffffffffffffffffffffffffffffffffffff\n      mul\n      not\n      and\n      swap1\n      dup4\n      0xffffffffffffffffffffffffffffffffffffffff\n      and\n      mul\n      or\n      swap1\n      sstore\n      pop\n        /* \"Record.sol\":2680:2695  block.timestamp */\n      timestamp\n        /* \"Record.sol\":2671:2672  p */\n      dup2\n        /* \"Record.sol\":2671:2677  p.date */\n      0x0e\n      add\n        /* \"Record.sol\":2671:2695  p.date = block.timestamp */\n      dup2\n      swap1\n      sstore\n      pop\n        /* \"Record.sol\":2716:2727  patientList */\n      0x01\n        /* \"Record.sol\":2733:2743  msg.sender */\n      caller\n        /* \"Record.sol\":2716:2744  patientList.push(msg.sender) */\n      swap1\n      dup1\n      0x01\n      dup2\n      sload\n      add\n      dup1\n      dup3\n      sstore\n      dup1\n      swap2\n      pop\n      pop\n      0x01\n      swap1\n      sub\n      swap1\n      0x00\n      mstore\n      keccak256(0x00, 0x20)\n      add\n      0x00\n      swap1\n      swap2\n      swap1\n      swap2\n      swap1\n      swap2\n      0x0100\n      exp\n      dup2\n      sload\n      dup2\n      0xffffffffffffffffffffffffffffffffffffffff\n      mul\n      not\n      and\n      swap1\n      dup4\n      0xffffffffffffffffffffffffffffffffffffffff\n      and\n      mul\n      or\n      swap1\n      sstore\n      pop\n        /* \"Record.sol\":2779:2783  true */\n      0x01\n        /* \"Record.sol\":2755:2764  isPatient */\n      0x08\n        /* \"Record.sol\":2755:2776  isPatient[msg.sender] */\n      0x00\n        /* \"Record.sol\":2765:2775  msg.sender */\n      caller\n        /* \"Record.sol\":2755:2776  isPatient[msg.sender] */\n      0xffffffffffffffffffffffffffffffffffffffff\n      and\n      0xffffffffffffffffffffffffffffffffffffffff\n      and\n      dup2\n      mstore\n      0x20\n      add\n      swap1\n      dup2\n      mstore\n      0x20\n      add\n      0x00\n      keccak256\n      0x00\n        /* \"Record.sol\":2755:2783  isPatient[msg.sender] = true */\n      0x0100\n      exp\n      dup2\n      sload\n      dup2\n      0xff\n      mul\n      not\n      and\n      swap1\n      dup4\n      iszero\n      iszero\n      mul\n      or\n      swap1\n      sstore\n      pop\n        /* \"Record.sol\":2831:2835  true */\n      0x01\n        /* \"Record.sol\":2794:2804  isApproved */\n      0x07\n        /* \"Record.sol\":2794:2816  isApproved[msg.sender] */\n      0x00\n        /* \"Record.sol\":2805:2815  msg.sender */\n      caller\n        /* \"Record.sol\":2794:2816  isApproved[msg.sender] */\n      0xffffffffffffffffffffffffffffffffffffffff\n      and\n      0xffffffffffffffffffffffffffffffffffffffff\n      and\n      dup2\n      mstore\n      0x20\n      add\n      swap1\n      dup2\n      mstore\n      0x20\n      add\n      0x00\n      keccak256\n        /* \"Record.sol\":2794:2828  isApproved[msg.sender][msg.sender] */\n      0x00\n        /* \"Record.sol\":2817:2827  msg.sender */\n      caller\n        /* \"Record.sol\":2794:2828  isApproved[msg.sender][msg.sender] */\n      0xffffffffffffffffffffffffffffffffffffffff\n      and\n      0xffffffffffffffffffffffffffffffffffffffff\n      and\n      dup2\n      mstore\n      0x20\n      add\n      swap1\n      dup2\n      mstore\n      0x20\n      add\n      0x00\n      keccak256\n      0x00\n        /* \"Record.sol\":2794:2835  isApproved[msg.sender][msg.sender] = true */\n      0x0100\n      exp\n      dup2\n      sload\n      dup2\n      0xff\n      mul\n      not\n      and\n      swap1\n      dup4\n      iszero\n      iszero\n      mul\n      or\n      swap1\n      sstore\n      pop\n        /* \"Record.sol\":2846:2858  patientCount */\n      0x0b\n      0x00\n        /* \"Record.sol\":2846:2860  patientCount++ */\n      dup2\n      sload\n      dup1\n      swap3\n      swap2\n      swap1\n      tag_407\n      swap1\n      tag_176\n      jump\t// in\n    tag_407:\n      swap2\n      swap1\n      pop\n      sstore\n      pop\n        /* \"Record.sol\":2100:2868  {... */\n      pop\n        /* \"Record.sol\":1816:2868  function setDetails(string memory _ic, string memory _name, string memory _phone, string memory _gender, string memory _dob, string memory _height, string memory _weight, string memory _houseaddr, string memory _bloodgroup, string memory _allergies, string memory _medication) public {... */\n      pop\n      pop\n      pop\n      pop\n      pop\n      pop\n      pop\n      pop\n      pop\n      pop\n      pop\n      jump\t// out\n        /* \"Record.sol\":3903:4565  function setDoctor(string memory _ic, string memory _name, string memory _phone, string memory _gender, string memory _dob, string memory _qualification, string memory _major) public {... */\n    tag_106:\n        /* \"Record.sol\":4106:4114  isDoctor */\n      0x09\n        /* \"Record.sol\":4106:4126  isDoctor[msg.sender] */\n      0x00\n        /* \"Record.sol\":4115:4125  msg.sender */\n      caller\n        /* \"Record.sol\":4106:4126  isDoctor[msg.sender] */\n      0xffffffffffffffffffffffffffffffffffffffff\n      and\n      0xffffffffffffffffffffffffffffffffffffffff\n      and\n      dup2\n      mstore\n      0x20\n      add\n      swap1\n      dup2\n      mstore\n      0x20\n      add\n      0x00\n      keccak256\n      0x00\n      swap1\n      sload\n      swap1\n      0x0100\n      exp\n      swap1\n      div\n      0xff\n      and\n        /* \"Record.sol\":4105:4126  !isDoctor[msg.sender] */\n      iszero\n        /* \"Record.sol\":4097:4127  require(!isDoctor[msg.sender]) */\n      tag_409\n      jumpi\n      0x00\n      dup1\n      revert\n    tag_409:\n        /* \"Record.sol\":4138:4155  Doctors storage d */\n      0x00\n        /* \"Record.sol\":4158:4165  doctors */\n      0x05\n        /* \"Record.sol\":4158:4177  doctors[msg.sender] */\n      0x00\n        /* \"Record.sol\":4166:4176  msg.sender */\n      caller\n        /* \"Record.sol\":4158:4177  doctors[msg.sender] */\n      0xffffffffffffffffffffffffffffffffffffffff\n      and\n      0xffffffffffffffffffffffffffffffffffffffff\n      and\n      dup2\n      mstore\n      0x20\n      add\n      swap1\n      dup2\n      mstore\n      0x20\n      add\n      0x00\n      keccak256\n        /* \"Record.sol\":4138:4177  Doctors storage d = doctors[msg.sender] */\n      swap1\n      pop\n        /* \"Record.sol\":4205:4208  _ic */\n      dup8\n        /* \"Record.sol\":4198:4199  d */\n      dup2\n        /* \"Record.sol\":4198:4202  d.ic */\n      0x00\n      add\n        /* \"Record.sol\":4198:4208  d.ic = _ic */\n      swap1\n      dup2\n      tag_410\n      swap2\n      swap1\n      tag_168\n      jump\t// in\n    tag_410:\n      pop\n        /* \"Record.sol\":4228:4233  _name */\n      dup7\n        /* \"Record.sol\":4219:4220  d */\n      dup2\n        /* \"Record.sol\":4219:4225  d.name */\n      0x01\n      add\n        /* \"Record.sol\":4219:4233  d.name = _name */\n      swap1\n      dup2\n      tag_411\n      swap2\n      swap1\n      tag_168\n      jump\t// in\n    tag_411:\n      pop\n        /* \"Record.sol\":4254:4260  _phone */\n      dup6\n        /* \"Record.sol\":4244:4245  d */\n      dup2\n        /* \"Record.sol\":4244:4251  d.phone */\n      0x02\n      add\n        /* \"Record.sol\":4244:4260  d.phone = _phone */\n      swap1\n      dup2\n      tag_412\n      swap2\n      swap1\n      tag_168\n      jump\t// in\n    tag_412:\n      pop\n        /* \"Record.sol\":4282:4289  _gender */\n      dup5\n        /* \"Record.sol\":4271:4272  d */\n      dup2\n        /* \"Record.sol\":4271:4279  d.gender */\n      0x03\n      add\n        /* \"Record.sol\":4271:4289  d.gender = _gender */\n      swap1\n      dup2\n      tag_413\n      swap2\n      swap1\n      tag_168\n      jump\t// in\n    tag_413:\n      pop\n        /* \"Record.sol\":4308:4312  _dob */\n      dup4\n        /* \"Record.sol\":4300:4301  d */\n      dup2\n        /* \"Record.sol\":4300:4305  d.dob */\n      0x04\n      add\n        /* \"Record.sol\":4300:4312  d.dob = _dob */\n      swap1\n      dup2\n      tag_414\n      swap2\n      swap1\n      tag_168\n      jump\t// in\n    tag_414:\n      pop\n        /* \"Record.sol\":4341:4355  _qualification */\n      dup3\n        /* \"Record.sol\":4323:4324  d */\n      dup2\n        /* \"Record.sol\":4323:4338  d.qualification */\n      0x05\n      add\n        /* \"Record.sol\":4323:4355  d.qualification = _qualification */\n      swap1\n      dup2\n      tag_415\n      swap2\n      swap1\n      tag_168\n      jump\t// in\n    tag_415:\n      pop\n        /* \"Record.sol\":4376:4382  _major */\n      dup2\n        /* \"Record.sol\":4366:4367  d */\n      dup2\n        /* \"Record.sol\":4366:4373  d.major */\n      0x06\n      add\n        /* \"Record.sol\":4366:4382  d.major = _major */\n      swap1\n      dup2\n      tag_416\n      swap2\n      swap1\n      tag_168\n      jump\t// in\n    tag_416:\n      pop\n        /* \"Record.sol\":4402:4412  msg.sender */\n      caller\n        /* \"Record.sol\":4393:4394  d */\n      dup2\n        /* \"Record.sol\":4393:4399  d.addr */\n      0x07\n      add\n      0x00\n        /* \"Record.sol\":4393:4412  d.addr = msg.sender */\n      0x0100\n      exp\n      dup2\n      sload\n      dup2\n      0xffffffffffffffffffffffffffffffffffffffff\n      mul\n      not\n      and\n      swap1\n      dup4\n      0xffffffffffffffffffffffffffffffffffffffff\n      and\n      mul\n      or\n      swap1\n      sstore\n      pop\n        /* \"Record.sol\":4432:4447  block.timestamp */\n      timestamp\n        /* \"Record.sol\":4423:4424  d */\n      dup2\n        /* \"Record.sol\":4423:4429  d.date */\n      0x08\n      add\n        /* \"Record.sol\":4423:4447  d.date = block.timestamp */\n      dup2\n      swap1\n      sstore\n      pop\n        /* \"Record.sol\":4468:4478  doctorList */\n      0x02\n        /* \"Record.sol\":4484:4494  msg.sender */\n      caller\n        /* \"Record.sol\":4468:4495  doctorList.push(msg.sender) */\n      swap1\n      dup1\n      0x01\n      dup2\n      sload\n      add\n      dup1\n      dup3\n      sstore\n      dup1\n      swap2\n      pop\n      pop\n      0x01\n      swap1\n      sub\n      swap1\n      0x00\n      mstore\n      keccak256(0x00, 0x20)\n      add\n      0x00\n      swap1\n      swap2\n      swap1\n      swap2\n      swap1\n      swap2\n      0x0100\n      exp\n      dup2\n      sload\n      dup2\n      0xffffffffffffffffffffffffffffffffffffffff\n      mul\n      not\n      and\n      swap1\n      dup4\n      0xffffffffffffffffffffffffffffffffffffffff\n      and\n      mul\n      or\n      swap1\n      sstore\n      pop\n        /* \"Record.sol\":4529:4533  true */\n      0x01\n        /* \"Record.sol\":4506:4514  isDoctor */\n      0x09\n        /* \"Record.sol\":4506:4526  isDoctor[msg.sender] */\n      0x00\n        /* \"Record.sol\":4515:4525  msg.sender */\n      caller\n        /* \"Record.sol\":4506:4526  isDoctor[msg.sender] */\n      0xffffffffffffffffffffffffffffffffffffffff\n      and\n      0xffffffffffffffffffffffffffffffffffffffff\n      and\n      dup2\n      mstore\n      0x20\n      add\n      swap1\n      dup2\n      mstore\n      0x20\n      add\n      0x00\n      keccak256\n      0x00\n        /* \"Record.sol\":4506:4533  isDoctor[msg.sender] = true */\n      0x0100\n      exp\n      dup2\n      sload\n      dup2\n      0xff\n      mul\n      not\n      and\n      swap1\n      dup4\n      iszero\n      iszero\n      mul\n      or\n      swap1\n      sstore\n      pop\n        /* \"Record.sol\":4544:4555  doctorCount */\n      0x0c\n      0x00\n        /* \"Record.sol\":4544:4557  doctorCount++ */\n      dup2\n      sload\n      dup1\n      swap3\n      swap2\n      swap1\n      tag_418\n      swap1\n      tag_176\n      jump\t// in\n    tag_418:\n      swap2\n      swap1\n      pop\n      sstore\n      pop\n        /* \"Record.sol\":4086:4565  {... */\n      pop\n        /* \"Record.sol\":3903:4565  function setDoctor(string memory _ic, string memory _name, string memory _phone, string memory _gender, string memory _dob, string memory _qualification, string memory _major) public {... */\n      pop\n      pop\n      pop\n      pop\n      pop\n      pop\n      pop\n      jump\t// out\n        /* \"Record.sol\":1013:1033  address public owner */\n    tag_108:\n      0x00\n      dup1\n      sload\n      swap1\n      0x0100\n      exp\n      swap1\n      div\n      0xffffffffffffffffffffffffffffffffffffffff\n      and\n      dup2\n      jump\t// out\n        /* \"Record.sol\":9288:9697  function searchAppointment(address  _address) public view returns(address , string memory, string memory, string memory, string memory, string memory, string memory, string memory) {... */\n    tag_112:\n        /* \"Record.sol\":9354:9361  address */\n      0x00\n        /* \"Record.sol\":9364:9377  string memory */\n      0x60\n        /* \"Record.sol\":9379:9392  string memory */\n      dup1\n        /* \"Record.sol\":9394:9407  string memory */\n      0x60\n        /* \"Record.sol\":9409:9422  string memory */\n      dup1\n        /* \"Record.sol\":9424:9437  string memory */\n      0x60\n        /* \"Record.sol\":9439:9452  string memory */\n      dup1\n        /* \"Record.sol\":9454:9467  string memory */\n      0x60\n        /* \"Record.sol\":9480:9501  Appointments memory a */\n      0x00\n        /* \"Record.sol\":9504:9516  appointments */\n      0x06\n        /* \"Record.sol\":9504:9526  appointments[_address] */\n      0x00\n        /* \"Record.sol\":9517:9525  _address */\n      dup12\n        /* \"Record.sol\":9504:9526  appointments[_address] */\n      0xffffffffffffffffffffffffffffffffffffffff\n      and\n      0xffffffffffffffffffffffffffffffffffffffff\n      and\n      dup2\n      mstore\n      0x20\n      add\n      swap1\n      dup2\n      mstore\n      0x20\n      add\n      0x00\n      keccak256\n        /* \"Record.sol\":9480:9526  Appointments memory a = appointments[_address] */\n      mload(0x40)\n      dup1\n      0x0120\n      add\n      0x40\n      mstore\n      swap1\n      dup2\n      0x00\n      dup3\n      add\n      0x00\n      swap1\n      sload\n      swap1\n      0x0100\n      exp\n      swap1\n      div\n      0xffffffffffffffffffffffffffffffffffffffff\n      and\n      0xffffffffffffffffffffffffffffffffffffffff\n      and\n      0xffffffffffffffffffffffffffffffffffffffff\n      and\n      dup2\n      mstore\n      0x20\n      add\n      0x01\n      dup3\n      add\n      0x00\n      swap1\n      sload\n      swap1\n      0x0100\n      exp\n      swap1\n      div\n      0xffffffffffffffffffffffffffffffffffffffff\n      and\n      0xffffffffffffffffffffffffffffffffffffffff\n      and\n      0xffffffffffffffffffffffffffffffffffffffff\n      and\n      dup2\n      mstore\n      0x20\n      add\n      0x02\n      dup3\n      add\n      dup1\n      sload\n      tag_420\n      swap1\n      tag_191\n      jump\t// in\n    tag_420:\n      dup1\n      0x1f\n      add\n      0x20\n      dup1\n      swap2\n      div\n      mul\n      0x20\n      add\n      mload(0x40)\n      swap1\n      dup2\n      add\n      0x40\n      mstore\n      dup1\n      swap3\n      swap2\n      swap1\n      dup2\n      dup2\n      mstore\n      0x20\n      add\n      dup3\n      dup1\n      sload\n      tag_421\n      swap1\n      tag_191\n      jump\t// in\n    tag_421:\n      dup1\n      iszero\n      tag_422\n      jumpi\n      dup1\n      0x1f\n      lt\n      tag_423\n      jumpi\n      0x0100\n      dup1\n      dup4\n      sload\n      div\n      mul\n      dup4\n      mstore\n      swap2\n      0x20\n      add\n      swap2\n      jump(tag_422)\n    tag_423:\n      dup3\n      add\n      swap2\n      swap1\n      0x00\n      mstore\n      keccak256(0x00, 0x20)\n      swap1\n    tag_424:\n      dup2\n      sload\n      dup2\n      mstore\n      swap1\n      0x01\n      add\n      swap1\n      0x20\n      add\n      dup1\n      dup4\n      gt\n      tag_424\n      jumpi\n      dup3\n      swap1\n      sub\n      0x1f\n      and\n      dup3\n      add\n      swap2\n    tag_422:\n      pop\n      pop\n      pop\n      pop\n      pop\n      dup2\n      mstore\n      0x20\n      add\n      0x03\n      dup3\n      add\n      dup1\n      sload\n      tag_425\n      swap1\n      tag_191\n      jump\t// in\n    tag_425:\n      dup1\n      0x1f\n      add\n      0x20\n      dup1\n      swap2\n      div\n      mul\n      0x20\n      add\n      mload(0x40)\n      swap1\n      dup2\n      add\n      0x40\n      mstore\n      dup1\n      swap3\n      swap2\n      swap1\n      dup2\n      dup2\n      mstore\n      0x20\n      add\n      dup3\n      dup1\n      sload\n      tag_426\n      swap1\n      tag_191\n      jump\t// in\n    tag_426:\n      dup1\n      iszero\n      tag_427\n      jumpi\n      dup1\n      0x1f\n      lt\n      tag_428\n      jumpi\n      0x0100\n      dup1\n      dup4\n      sload\n      div\n      mul\n      dup4\n      mstore\n      swap2\n      0x20\n      add\n      swap2\n      jump(tag_427)\n    tag_428:\n      dup3\n      add\n      swap2\n      swap1\n      0x00\n      mstore\n      keccak256(0x00, 0x20)\n      swap1\n    tag_429:\n      dup2\n      sload\n      dup2\n      mstore\n      swap1\n      0x01\n      add\n      swap1\n      0x20\n      add\n      dup1\n      dup4\n      gt\n      tag_429\n      jumpi\n      dup3\n      swap1\n      sub\n      0x1f\n      and\n      dup3\n      add\n      swap2\n    tag_427:\n      pop\n      pop\n      pop\n      pop\n      pop\n      dup2\n      mstore\n      0x20\n      add\n      0x04\n      dup3\n      add\n      dup1\n      sload\n      tag_430\n      swap1\n      tag_191\n      jump\t// in\n    tag_430:\n      dup1\n      0x1f\n      add\n      0x20\n      dup1\n      swap2\n      div\n      mul\n      0x20\n      add\n      mload(0x40)\n      swap1\n      dup2\n      add\n      0x40\n      mstore\n      dup1\n      swap3\n      swap2\n      swap1\n      dup2\n      dup2\n      mstore\n      0x20\n      add\n      dup3\n      dup1\n      sload\n      tag_431\n      swap1\n      tag_191\n      jump\t// in\n    tag_431:\n      dup1\n      iszero\n      tag_432\n      jumpi\n      dup1\n      0x1f\n      lt\n      tag_433\n      jumpi\n      0x0100\n      dup1\n      dup4\n      sload\n      div\n      mul\n      dup4\n      mstore\n      swap2\n      0x20\n      add\n      swap2\n      jump(tag_432)\n    tag_433:\n      dup3\n      add\n      swap2\n      swap1\n      0x00\n      mstore\n      keccak256(0x00, 0x20)\n      swap1\n    tag_434:\n      dup2\n      sload\n      dup2\n      mstore\n      swap1\n      0x01\n      add\n      swap1\n      0x20\n      add\n      dup1\n      dup4\n      gt\n      tag_434\n      jumpi\n      dup3\n      swap1\n      sub\n      0x1f\n      and\n      dup3\n      add\n      swap2\n    tag_432:\n      pop\n      pop\n      pop\n      pop\n      pop\n      dup2\n      mstore\n      0x20\n      add\n      0x05\n      dup3\n      add\n      dup1\n      sload\n      tag_435\n      swap1\n      tag_191\n      jump\t// in\n    tag_435:\n      dup1\n      0x1f\n      add\n      0x20\n      dup1\n      swap2\n      div\n      mul\n      0x20\n      add\n      mload(0x40)\n      swap1\n      dup2\n      add\n      0x40\n      mstore\n      dup1\n      swap3\n      swap2\n      swap1\n      dup2\n      dup2\n      mstore\n      0x20\n      add\n      dup3\n      dup1\n      sload\n      tag_436\n      swap1\n      tag_191\n      jump\t// in\n    tag_436:\n      dup1\n      iszero\n      tag_437\n      jumpi\n      dup1\n      0x1f\n      lt\n      tag_438\n      jumpi\n      0x0100\n      dup1\n      dup4\n      sload\n      div\n      mul\n      dup4\n      mstore\n      swap2\n      0x20\n      add\n      swap2\n      jump(tag_437)\n    tag_438:\n      dup3\n      add\n      swap2\n      swap1\n      0x00\n      mstore\n      keccak256(0x00, 0x20)\n      swap1\n    tag_439:\n      dup2\n      sload\n      dup2\n      mstore\n      swap1\n      0x01\n      add\n      swap1\n      0x20\n      add\n      dup1\n      dup4\n      gt\n      tag_439\n      jumpi\n      dup3\n      swap1\n      sub\n      0x1f\n      and\n      dup3\n      add\n      swap2\n    tag_437:\n      pop\n      pop\n      pop\n      pop\n      pop\n      dup2\n      mstore\n      0x20\n      add\n      0x06\n      dup3\n      add\n      dup1\n      sload\n      tag_440\n      swap1\n      tag_191\n      jump\t// in\n    tag_440:\n      dup1\n      0x1f\n      add\n      0x20\n      dup1\n      swap2\n      div\n      mul\n      0x20\n      add\n      mload(0x40)\n      swap1\n      dup2\n      add\n      0x40\n      mstore\n      dup1\n      swap3\n      swap2\n      swap1\n      dup2\n      dup2\n      mstore\n      0x20\n      add\n      dup3\n      dup1\n      sload\n      tag_441\n      swap1\n      tag_191\n      jump\t// in\n    tag_441:\n      dup1\n      iszero\n      tag_442\n      jumpi\n      dup1\n      0x1f\n      lt\n      tag_443\n      jumpi\n      0x0100\n      dup1\n      dup4\n      sload\n      div\n      mul\n      dup4\n      mstore\n      swap2\n      0x20\n      add\n      swap2\n      jump(tag_442)\n    tag_443:\n      dup3\n      add\n      swap2\n      swap1\n      0x00\n      mstore\n      keccak256(0x00, 0x20)\n      swap1\n    tag_444:\n      dup2\n      sload\n      dup2\n      mstore\n      swap1\n      0x01\n      add\n      swap1\n      0x20\n      add\n      dup1\n      dup4\n      gt\n      tag_444\n      jumpi\n      dup3\n      swap1\n      sub\n      0x1f\n      and\n      dup3\n      add\n      swap2\n    tag_442:\n      pop\n      pop\n      pop\n      pop\n      pop\n      dup2\n      mstore\n      0x20\n      add\n      0x07\n      dup3\n      add\n      dup1\n      sload\n      tag_445\n      swap1\n      tag_191\n      jump\t// in\n    tag_445:\n      dup1\n      0x1f\n      add\n      0x20\n      dup1\n      swap2\n      div\n      mul\n      0x20\n      add\n      mload(0x40)\n      swap1\n      dup2\n      add\n      0x40\n      mstore\n      dup1\n      swap3\n      swap2\n      swap1\n      dup2\n      dup2\n      mstore\n      0x20\n      add\n      dup3\n      dup1\n      sload\n      tag_446\n      swap1\n      tag_191\n      jump\t// in\n    tag_446:\n      dup1\n      iszero\n      tag_447\n      jumpi\n      dup1\n      0x1f\n      lt\n      tag_448\n      jumpi\n      0x0100\n      dup1\n      dup4\n      sload\n      div\n      mul\n      dup4\n      mstore\n      swap2\n      0x20\n      add\n      swap2\n      jump(tag_447)\n    tag_448:\n      dup3\n      add\n      swap2\n      swap1\n      0x00\n      mstore\n      keccak256(0x00, 0x20)\n      swap1\n    tag_449:\n      dup2\n      sload\n      dup2\n      mstore\n      swap1\n      0x01\n      add\n      swap1\n      0x20\n      add\n      dup1\n      dup4\n      gt\n      tag_449\n      jumpi\n      dup3\n      swap1\n      sub\n      0x1f\n      and\n      dup3\n      add\n      swap2\n    tag_447:\n      pop\n      pop\n      pop\n      pop\n      pop\n      dup2\n      mstore\n      0x20\n      add\n      0x08\n      dup3\n      add\n      sload\n      dup2\n      mstore\n      pop\n      pop\n      swap1\n      pop\n        /* \"Record.sol\":9537:9553  Doctors memory d */\n      0x00\n        /* \"Record.sol\":9556:9563  doctors */\n      0x05\n        /* \"Record.sol\":9556:9577  doctors[a.doctoraddr] */\n      0x00\n        /* \"Record.sol\":9564:9565  a */\n      dup4\n        /* \"Record.sol\":9564:9576  a.doctoraddr */\n      0x00\n      add\n      mload\n        /* \"Record.sol\":9556:9577  doctors[a.doctoraddr] */\n      0xffffffffffffffffffffffffffffffffffffffff\n      and\n      0xffffffffffffffffffffffffffffffffffffffff\n      and\n      dup2\n      mstore\n      0x20\n      add\n      swap1\n      dup2\n      mstore\n      0x20\n      add\n      0x00\n      keccak256\n        /* \"Record.sol\":9537:9577  Doctors memory d = doctors[a.doctoraddr] */\n      mload(0x40)\n      dup1\n      0x0120\n      add\n      0x40\n      mstore\n      swap1\n      dup2\n      0x00\n      dup3\n      add\n      dup1\n      sload\n      tag_450\n      swap1\n      tag_191\n      jump\t// in\n    tag_450:\n      dup1\n      0x1f\n      add\n      0x20\n      dup1\n      swap2\n      div\n      mul\n      0x20\n      add\n      mload(0x40)\n      swap1\n      dup2\n      add\n      0x40\n      mstore\n      dup1\n      swap3\n      swap2\n      swap1\n      dup2\n      dup2\n      mstore\n      0x20\n      add\n      dup3\n      dup1\n      sload\n      tag_451\n      swap1\n      tag_191\n      jump\t// in\n    tag_451:\n      dup1\n      iszero\n      tag_452\n      jumpi\n      dup1\n      0x1f\n      lt\n      tag_453\n      jumpi\n      0x0100\n      dup1\n      dup4\n      sload\n      div\n      mul\n      dup4\n      mstore\n      swap2\n      0x20\n      add\n      swap2\n      jump(tag_452)\n    tag_453:\n      dup3\n      add\n      swap2\n      swap1\n      0x00\n      mstore\n      keccak256(0x00, 0x20)\n      swap1\n    tag_454:\n      dup2\n      sload\n      dup2\n      mstore\n      swap1\n      0x01\n      add\n      swap1\n      0x20\n      add\n      dup1\n      dup4\n      gt\n      tag_454\n      jumpi\n      dup3\n      swap1\n      sub\n      0x1f\n      and\n      dup3\n      add\n      swap2\n    tag_452:\n      pop\n      pop\n      pop\n      pop\n      pop\n      dup2\n      mstore\n      0x20\n      add\n      0x01\n      dup3\n      add\n      dup1\n      sload\n      tag_455\n      swap1\n      tag_191\n      jump\t// in\n    tag_455:\n      dup1\n      0x1f\n      add\n      0x20\n      dup1\n      swap2\n      div\n      mul\n      0x20\n      add\n      mload(0x40)\n      swap1\n      dup2\n      add\n      0x40\n      mstore\n      dup1\n      swap3\n      swap2\n      swap1\n      dup2\n      dup2\n      mstore\n      0x20\n      add\n      dup3\n      dup1\n      sload\n      tag_456\n      swap1\n      tag_191\n      jump\t// in\n    tag_456:\n      dup1\n      iszero\n      tag_457\n      jumpi\n      dup1\n      0x1f\n      lt\n      tag_458\n      jumpi\n      0x0100\n      dup1\n      dup4\n      sload\n      div\n      mul\n      dup4\n      mstore\n      swap2\n      0x20\n      add\n      swap2\n      jump(tag_457)\n    tag_458:\n      dup3\n      add\n      swap2\n      swap1\n      0x00\n      mstore\n      keccak256(0x00, 0x20)\n      swap1\n    tag_459:\n      dup2\n      sload\n      dup2\n      mstore\n      swap1\n      0x01\n      add\n      swap1\n      0x20\n      add\n      dup1\n      dup4\n      gt\n      tag_459\n      jumpi\n      dup3\n      swap1\n      sub\n      0x1f\n      and\n      dup3\n      add\n      swap2\n    tag_457:\n      pop\n      pop\n      pop\n      pop\n      pop\n      dup2\n      mstore\n      0x20\n      add\n      0x02\n      dup3\n      add\n      dup1\n      sload\n      tag_460\n      swap1\n      tag_191\n      jump\t// in\n    tag_460:\n      dup1\n      0x1f\n      add\n      0x20\n      dup1\n      swap2\n      div\n      mul\n      0x20\n      add\n      mload(0x40)\n      swap1\n      dup2\n      add\n      0x40\n      mstore\n      dup1\n      swap3\n      swap2\n      swap1\n      dup2\n      dup2\n      mstore\n      0x20\n      add\n      dup3\n      dup1\n      sload\n      tag_461\n      swap1\n      tag_191\n      jump\t// in\n    tag_461:\n      dup1\n      iszero\n      tag_462\n      jumpi\n      dup1\n      0x1f\n      lt\n      tag_463\n      jumpi\n      0x0100\n      dup1\n      dup4\n      sload\n      div\n      mul\n      dup4\n      mstore\n      swap2\n      0x20\n      add\n      swap2\n      jump(tag_462)\n    tag_463:\n      dup3\n      add\n      swap2\n      swap1\n      0x00\n      mstore\n      keccak256(0x00, 0x20)\n      swap1\n    tag_464:\n      dup2\n      sload\n      dup2\n      mstore\n      swap1\n      0x01\n      add\n      swap1\n      0x20\n      add\n      dup1\n      dup4\n      gt\n      tag_464\n      jumpi\n      dup3\n      swap1\n      sub\n      0x1f\n      and\n      dup3\n      add\n      swap2\n    tag_462:\n      pop\n      pop\n      pop\n      pop\n      pop\n      dup2\n      mstore\n      0x20\n      add\n      0x03\n      dup3\n      add\n      dup1\n      sload\n      tag_465\n      swap1\n      tag_191\n      jump\t// in\n    tag_465:\n      dup1\n      0x1f\n      add\n      0x20\n      dup1\n      swap2\n      div\n      mul\n      0x20\n      add\n      mload(0x40)\n      swap1\n      dup2\n      add\n      0x40\n      mstore\n      dup1\n      swap3\n      swap2\n      swap1\n      dup2\n      dup2\n      mstore\n      0x20\n      add\n      dup3\n      dup1\n      sload\n      tag_466\n      swap1\n      tag_191\n      jump\t// in\n    tag_466:\n      dup1\n      iszero\n      tag_467\n      jumpi\n      dup1\n      0x1f\n      lt\n      tag_468\n      jumpi\n      0x0100\n      dup1\n      dup4\n      sload\n      div\n      mul\n      dup4\n      mstore\n      swap2\n      0x20\n      add\n      swap2\n      jump(tag_467)\n    tag_468:\n      dup3\n      add\n      swap2\n      swap1\n      0x00\n      mstore\n      keccak256(0x00, 0x20)\n      swap1\n    tag_469:\n      dup2\n      sload\n      dup2\n      mstore\n      swap1\n      0x01\n      add\n      swap1\n      0x20\n      add\n      dup1\n      dup4\n      gt\n      tag_469\n      jumpi\n      dup3\n      swap1\n      sub\n      0x1f\n      and\n      dup3\n      add\n      swap2\n    tag_467:\n      pop\n      pop\n      pop\n      pop\n      pop\n      dup2\n      mstore\n      0x20\n      add\n      0x04\n      dup3\n      add\n      dup1\n      sload\n      tag_470\n      swap1\n      tag_191\n      jump\t// in\n    tag_470:\n      dup1\n      0x1f\n      add\n      0x20\n      dup1\n      swap2\n      div\n      mul\n      0x20\n      add\n      mload(0x40)\n      swap1\n      dup2\n      add\n      0x40\n      mstore\n      dup1\n      swap3\n      swap2\n      swap1\n      dup2\n      dup2\n      mstore\n      0x20\n      add\n      dup3\n      dup1\n      sload\n      tag_471\n      swap1\n      tag_191\n      jump\t// in\n    tag_471:\n      dup1\n      iszero\n      tag_472\n      jumpi\n      dup1\n      0x1f\n      lt\n      tag_473\n      jumpi\n      0x0100\n      dup1\n      dup4\n      sload\n      div\n      mul\n      dup4\n      mstore\n      swap2\n      0x20\n      add\n      swap2\n      jump(tag_472)\n    tag_473:\n      dup3\n      add\n      swap2\n      swap1\n      0x00\n      mstore\n      keccak256(0x00, 0x20)\n      swap1\n    tag_474:\n      dup2\n      sload\n      dup2\n      mstore\n      swap1\n      0x01\n      add\n      swap1\n      0x20\n      add\n      dup1\n      dup4\n      gt\n      tag_474\n      jumpi\n      dup3\n      swap1\n      sub\n      0x1f\n      and\n      dup3\n      add\n      swap2\n    tag_472:\n      pop\n      pop\n      pop\n      pop\n      pop\n      dup2\n      mstore\n      0x20\n      add\n      0x05\n      dup3\n      add\n      dup1\n      sload\n      tag_475\n      swap1\n      tag_191\n      jump\t// in\n    tag_475:\n      dup1\n      0x1f\n      add\n      0x20\n      dup1\n      swap2\n      div\n      mul\n      0x20\n      add\n      mload(0x40)\n      swap1\n      dup2\n      add\n      0x40\n      mstore\n      dup1\n      swap3\n      swap2\n      swap1\n      dup2\n      dup2\n      mstore\n      0x20\n      add\n      dup3\n      dup1\n      sload\n      tag_476\n      swap1\n      tag_191\n      jump\t// in\n    tag_476:\n      dup1\n      iszero\n      tag_477\n      jumpi\n      dup1\n      0x1f\n      lt\n      tag_478\n      jumpi\n      0x0100\n      dup1\n      dup4\n      sload\n      div\n      mul\n      dup4\n      mstore\n      swap2\n      0x20\n      add\n      swap2\n      jump(tag_477)\n    tag_478:\n      dup3\n      add\n      swap2\n      swap1\n      0x00\n      mstore\n      keccak256(0x00, 0x20)\n      swap1\n    tag_479:\n      dup2\n      sload\n      dup2\n      mstore\n      swap1\n      0x01\n      add\n      swap1\n      0x20\n      add\n      dup1\n      dup4\n      gt\n      tag_479\n      jumpi\n      dup3\n      swap1\n      sub\n      0x1f\n      and\n      dup3\n      add\n      swap2\n    tag_477:\n      pop\n      pop\n      pop\n      pop\n      pop\n      dup2\n      mstore\n      0x20\n      add\n      0x06\n      dup3\n      add\n      dup1\n      sload\n      tag_480\n      swap1\n      tag_191\n      jump\t// in\n    tag_480:\n      dup1\n      0x1f\n      add\n      0x20\n      dup1\n      swap2\n      div\n      mul\n      0x20\n      add\n      mload(0x40)\n      swap1\n      dup2\n      add\n      0x40\n      mstore\n      dup1\n      swap3\n      swap2\n      swap1\n      dup2\n      dup2\n      mstore\n      0x20\n      add\n      dup3\n      dup1\n      sload\n      tag_481\n      swap1\n      tag_191\n      jump\t// in\n    tag_481:\n      dup1\n      iszero\n      tag_482\n      jumpi\n      dup1\n      0x1f\n      lt\n      tag_483\n      jumpi\n      0x0100\n      dup1\n      dup4\n      sload\n      div\n      mul\n      dup4\n      mstore\n      swap2\n      0x20\n      add\n      swap2\n      jump(tag_482)\n    tag_483:\n      dup3\n      add\n      swap2\n      swap1\n      0x00\n      mstore\n      keccak256(0x00, 0x20)\n      swap1\n    tag_484:\n      dup2\n      sload\n      dup2\n      mstore\n      swap1\n      0x01\n      add\n      swap1\n      0x20\n      add\n      dup1\n      dup4\n      gt\n      tag_484\n      jumpi\n      dup3\n      swap1\n      sub\n      0x1f\n      and\n      dup3\n      add\n      swap2\n    tag_482:\n      pop\n      pop\n      pop\n      pop\n      pop\n      dup2\n      mstore\n      0x20\n      add\n      0x07\n      dup3\n      add\n      0x00\n      swap1\n      sload\n      swap1\n      0x0100\n      exp\n      swap1\n      div\n      0xffffffffffffffffffffffffffffffffffffffff\n      and\n      0xffffffffffffffffffffffffffffffffffffffff\n      and\n      0xffffffffffffffffffffffffffffffffffffffff\n      and\n      dup2\n      mstore\n      0x20\n      add\n      0x08\n      dup3\n      add\n      sload\n      dup2\n      mstore\n      pop\n      pop\n      swap1\n      pop\n        /* \"Record.sol\":9598:9599  a */\n      dup2\n        /* \"Record.sol\":9598:9610  a.doctoraddr */\n      0x00\n      add\n      mload\n        /* \"Record.sol\":9612:9613  d */\n      dup2\n        /* \"Record.sol\":9612:9618  d.name */\n      0x20\n      add\n      mload\n        /* \"Record.sol\":9620:9621  a */\n      dup4\n        /* \"Record.sol\":9620:9626  a.date */\n      0x40\n      add\n      mload\n        /* \"Record.sol\":9628:9629  a */\n      dup5\n        /* \"Record.sol\":9628:9634  a.time */\n      0x60\n      add\n      mload\n        /* \"Record.sol\":9636:9637  a */\n      dup6\n        /* \"Record.sol\":9636:9647  a.diagnosis */\n      0xc0\n      add\n      mload\n        /* \"Record.sol\":9649:9650  a */\n      dup7\n        /* \"Record.sol\":9649:9663  a.prescription */\n      0x80\n      add\n      mload\n        /* \"Record.sol\":9665:9666  a */\n      dup8\n        /* \"Record.sol\":9665:9678  a.description */\n      0xa0\n      add\n      mload\n        /* \"Record.sol\":9680:9681  a */\n      dup9\n        /* \"Record.sol\":9680:9688  a.status */\n      0xe0\n      add\n      mload\n        /* \"Record.sol\":9590:9689  return (a.doctoraddr, d.name, a.date, a.time, a.diagnosis, a.prescription, a.description, a.status) */\n      swap10\n      pop\n      swap10\n      pop\n      swap10\n      pop\n      swap10\n      pop\n      swap10\n      pop\n      swap10\n      pop\n      swap10\n      pop\n      swap10\n      pop\n      pop\n      pop\n        /* \"Record.sol\":9288:9697  function searchAppointment(address  _address) public view returns(address , string memory, string memory, string memory, string memory, string memory, string memory, string memory) {... */\n      swap2\n      swap4\n      swap6\n      swap8\n      pop\n      swap2\n      swap4\n      swap6\n      swap8\n      jump\t// out\n        /* \"Record.sol\":7570:7676  function getAppointments() public view returns(address[] memory) {... */\n    tag_116:\n        /* \"Record.sol\":7617:7633  address[] memory */\n      0x60\n        /* \"Record.sol\":7653:7668  appointmentList */\n      0x03\n        /* \"Record.sol\":7646:7668  return appointmentList */\n      dup1\n      sload\n      dup1\n      0x20\n      mul\n      0x20\n      add\n      mload(0x40)\n      swap1\n      dup2\n      add\n      0x40\n      mstore\n      dup1\n      swap3\n      swap2\n      swap1\n      dup2\n      dup2\n      mstore\n      0x20\n      add\n      dup3\n      dup1\n      sload\n      dup1\n      iszero\n      tag_486\n      jumpi\n      0x20\n      mul\n      dup3\n      add\n      swap2\n      swap1\n      0x00\n      mstore\n      keccak256(0x00, 0x20)\n      swap1\n    tag_487:\n      dup2\n      0x00\n      swap1\n      sload\n      swap1\n      0x0100\n      exp\n      swap1\n      div\n      0xffffffffffffffffffffffffffffffffffffffff\n      and\n      0xffffffffffffffffffffffffffffffffffffffff\n      and\n      dup2\n      mstore\n      0x20\n      add\n      swap1\n      0x01\n      add\n      swap1\n      dup1\n      dup4\n      gt\n      tag_487\n      jumpi\n    tag_486:\n      pop\n      pop\n      pop\n      pop\n      pop\n      swap1\n      pop\n        /* \"Record.sol\":7570:7676  function getAppointments() public view returns(address[] memory) {... */\n      swap1\n      jump\t// out\n        /* \"Record.sol\":1484:1515  uint256 public patientCount = 0 */\n    tag_119:\n      sload(0x0b)\n      dup2\n      jump\t// out\n        /* \"Record.sol\":4626:5143  function editDoctor(string memory _ic, string memory _name, string memory _phone, string memory _gender, string memory _dob, string memory _qualification, string memory _major) public {... */\n    tag_123:\n        /* \"Record.sol\":4829:4837  isDoctor */\n      0x09\n        /* \"Record.sol\":4829:4849  isDoctor[msg.sender] */\n      0x00\n        /* \"Record.sol\":4838:4848  msg.sender */\n      caller\n        /* \"Record.sol\":4829:4849  isDoctor[msg.sender] */\n      0xffffffffffffffffffffffffffffffffffffffff\n      and\n      0xffffffffffffffffffffffffffffffffffffffff\n      and\n      dup2\n      mstore\n      0x20\n      add\n      swap1\n      dup2\n      mstore\n      0x20\n      add\n      0x00\n      keccak256\n      0x00\n      swap1\n      sload\n      swap1\n      0x0100\n      exp\n      swap1\n      div\n      0xff\n      and\n        /* \"Record.sol\":4821:4850  require(isDoctor[msg.sender]) */\n      tag_489\n      jumpi\n      0x00\n      dup1\n      revert\n    tag_489:\n        /* \"Record.sol\":4861:4878  Doctors storage d */\n      0x00\n        /* \"Record.sol\":4881:4888  doctors */\n      0x05\n        /* \"Record.sol\":4881:4900  doctors[msg.sender] */\n      0x00\n        /* \"Record.sol\":4889:4899  msg.sender */\n      caller\n        /* \"Record.sol\":4881:4900  doctors[msg.sender] */\n      0xffffffffffffffffffffffffffffffffffffffff\n      and\n      0xffffffffffffffffffffffffffffffffffffffff\n      and\n      dup2\n      mstore\n      0x20\n      add\n      swap1\n      dup2\n      mstore\n      0x20\n      add\n      0x00\n      keccak256\n        /* \"Record.sol\":4861:4900  Doctors storage d = doctors[msg.sender] */\n      swap1\n      pop\n        /* \"Record.sol\":4928:4931  _ic */\n      dup8\n        /* \"Record.sol\":4921:4922  d */\n      dup2\n        /* \"Record.sol\":4921:4925  d.ic */\n      0x00\n      add\n        /* \"Record.sol\":4921:4931  d.ic = _ic */\n      swap1\n      dup2\n      tag_490\n      swap2\n      swap1\n      tag_168\n      jump\t// in\n    tag_490:\n      pop\n        /* \"Record.sol\":4951:4956  _name */\n      dup7\n        /* \"Record.sol\":4942:4943  d */\n      dup2\n        /* \"Record.sol\":4942:4948  d.name */\n      0x01\n      add\n        /* \"Record.sol\":4942:4956  d.name = _name */\n      swap1\n      dup2\n      tag_491\n      swap2\n      swap1\n      tag_168\n      jump\t// in\n    tag_491:\n      pop\n        /* \"Record.sol\":4977:4983  _phone */\n      dup6\n        /* \"Record.sol\":4967:4968  d */\n      dup2\n        /* \"Record.sol\":4967:4974  d.phone */\n      0x02\n      add\n        /* \"Record.sol\":4967:4983  d.phone = _phone */\n      swap1\n      dup2\n      tag_492\n      swap2\n      swap1\n      tag_168\n      jump\t// in\n    tag_492:\n      pop\n        /* \"Record.sol\":5005:5012  _gender */\n      dup5\n        /* \"Record.sol\":4994:4995  d */\n      dup2\n        /* \"Record.sol\":4994:5002  d.gender */\n      0x03\n      add\n        /* \"Record.sol\":4994:5012  d.gender = _gender */\n      swap1\n      dup2\n      tag_493\n      swap2\n      swap1\n      tag_168\n      jump\t// in\n    tag_493:\n      pop\n        /* \"Record.sol\":5031:5035  _dob */\n      dup4\n        /* \"Record.sol\":5023:5024  d */\n      dup2\n        /* \"Record.sol\":5023:5028  d.dob */\n      0x04\n      add\n        /* \"Record.sol\":5023:5035  d.dob = _dob */\n      swap1\n      dup2\n      tag_494\n      swap2\n      swap1\n      tag_168\n      jump\t// in\n    tag_494:\n      pop\n        /* \"Record.sol\":5064:5078  _qualification */\n      dup3\n        /* \"Record.sol\":5046:5047  d */\n      dup2\n        /* \"Record.sol\":5046:5061  d.qualification */\n      0x05\n      add\n        /* \"Record.sol\":5046:5078  d.qualification = _qualification */\n      swap1\n      dup2\n      tag_495\n      swap2\n      swap1\n      tag_168\n      jump\t// in\n    tag_495:\n      pop\n        /* \"Record.sol\":5099:5105  _major */\n      dup2\n        /* \"Record.sol\":5089:5090  d */\n      dup2\n        /* \"Record.sol\":5089:5096  d.major */\n      0x06\n      add\n        /* \"Record.sol\":5089:5105  d.major = _major */\n      swap1\n      dup2\n      tag_496\n      swap2\n      swap1\n      tag_168\n      jump\t// in\n    tag_496:\n      pop\n        /* \"Record.sol\":5125:5135  msg.sender */\n      caller\n        /* \"Record.sol\":5116:5117  d */\n      dup2\n        /* \"Record.sol\":5116:5122  d.addr */\n      0x07\n      add\n      0x00\n        /* \"Record.sol\":5116:5135  d.addr = msg.sender */\n      0x0100\n      exp\n      dup2\n      sload\n      dup2\n      0xffffffffffffffffffffffffffffffffffffffff\n      mul\n      not\n      and\n      swap1\n      dup4\n      0xffffffffffffffffffffffffffffffffffffffff\n      and\n      mul\n      or\n      swap1\n      sstore\n      pop\n        /* \"Record.sol\":4810:5143  {... */\n      pop\n        /* \"Record.sol\":4626:5143  function editDoctor(string memory _ic, string memory _name, string memory _phone, string memory _gender, string memory _dob, string memory _qualification, string memory _major) public {... */\n      pop\n      pop\n      pop\n      pop\n      pop\n      pop\n      pop\n      jump\t// out\n        /* \"Record.sol\":7415:7511  function getDoctors() public view returns(address[] memory) {... */\n    tag_125:\n        /* \"Record.sol\":7457:7473  address[] memory */\n      0x60\n        /* \"Record.sol\":7493:7503  doctorList */\n      0x02\n        /* \"Record.sol\":7486:7503  return doctorList */\n      dup1\n      sload\n      dup1\n      0x20\n      mul\n      0x20\n      add\n      mload(0x40)\n      swap1\n      dup2\n      add\n      0x40\n      mstore\n      dup1\n      swap3\n      swap2\n      swap1\n      dup2\n      dup2\n      mstore\n      0x20\n      add\n      dup3\n      dup1\n      sload\n      dup1\n      iszero\n      tag_498\n      jumpi\n      0x20\n      mul\n      dup3\n      add\n      swap2\n      swap1\n      0x00\n      mstore\n      keccak256(0x00, 0x20)\n      swap1\n    tag_499:\n      dup2\n      0x00\n      swap1\n      sload\n      swap1\n      0x0100\n      exp\n      swap1\n      div\n      0xffffffffffffffffffffffffffffffffffffffff\n      and\n      0xffffffffffffffffffffffffffffffffffffffff\n      and\n      dup2\n      mstore\n      0x20\n      add\n      swap1\n      0x01\n      add\n      swap1\n      dup1\n      dup4\n      gt\n      tag_499\n      jumpi\n    tag_498:\n      pop\n      pop\n      pop\n      pop\n      pop\n      swap1\n      pop\n        /* \"Record.sol\":7415:7511  function getDoctors() public view returns(address[] memory) {... */\n      swap1\n      jump\t// out\n        /* \"Record.sol\":2935:3791  function editDetails(string memory _ic, string memory _name, string memory _phone, string memory _gender, string memory _dob, string memory _height, string memory _weight, string memory _houseaddr, string memory _bloodgroup, string memory _allergies, string memory _medication) public {... */\n    tag_129:\n        /* \"Record.sol\":3239:3248  isPatient */\n      0x08\n        /* \"Record.sol\":3239:3260  isPatient[msg.sender] */\n      0x00\n        /* \"Record.sol\":3249:3259  msg.sender */\n      caller\n        /* \"Record.sol\":3239:3260  isPatient[msg.sender] */\n      0xffffffffffffffffffffffffffffffffffffffff\n      and\n      0xffffffffffffffffffffffffffffffffffffffff\n      and\n      dup2\n      mstore\n      0x20\n      add\n      swap1\n      dup2\n      mstore\n      0x20\n      add\n      0x00\n      keccak256\n      0x00\n      swap1\n      sload\n      swap1\n      0x0100\n      exp\n      swap1\n      div\n      0xff\n      and\n        /* \"Record.sol\":3231:3261  require(isPatient[msg.sender]) */\n      tag_501\n      jumpi\n      0x00\n      dup1\n      revert\n    tag_501:\n        /* \"Record.sol\":3272:3290  Patients storage p */\n      0x00\n        /* \"Record.sol\":3293:3301  patients */\n      0x04\n        /* \"Record.sol\":3293:3313  patients[msg.sender] */\n      0x00\n        /* \"Record.sol\":3302:3312  msg.sender */\n      caller\n        /* \"Record.sol\":3293:3313  patients[msg.sender] */\n      0xffffffffffffffffffffffffffffffffffffffff\n      and\n      0xffffffffffffffffffffffffffffffffffffffff\n      and\n      dup2\n      mstore\n      0x20\n      add\n      swap1\n      dup2\n      mstore\n      0x20\n      add\n      0x00\n      keccak256\n        /* \"Record.sol\":3272:3313  Patients storage p = patients[msg.sender] */\n      swap1\n      pop\n        /* \"Record.sol\":3341:3344  _ic */\n      dup12\n        /* \"Record.sol\":3334:3335  p */\n      dup2\n        /* \"Record.sol\":3334:3338  p.ic */\n      0x00\n      add\n        /* \"Record.sol\":3334:3344  p.ic = _ic */\n      swap1\n      dup2\n      tag_502\n      swap2\n      swap1\n      tag_168\n      jump\t// in\n    tag_502:\n      pop\n        /* \"Record.sol\":3364:3369  _name */\n      dup11\n        /* \"Record.sol\":3355:3356  p */\n      dup2\n        /* \"Record.sol\":3355:3361  p.name */\n      0x01\n      add\n        /* \"Record.sol\":3355:3369  p.name = _name */\n      swap1\n      dup2\n      tag_503\n      swap2\n      swap1\n      tag_168\n      jump\t// in\n    tag_503:\n      pop\n        /* \"Record.sol\":3390:3396  _phone */\n      dup10\n        /* \"Record.sol\":3380:3381  p */\n      dup2\n        /* \"Record.sol\":3380:3387  p.phone */\n      0x02\n      add\n        /* \"Record.sol\":3380:3396  p.phone = _phone */\n      swap1\n      dup2\n      tag_504\n      swap2\n      swap1\n      tag_168\n      jump\t// in\n    tag_504:\n      pop\n        /* \"Record.sol\":3418:3425  _gender */\n      dup9\n        /* \"Record.sol\":3407:3408  p */\n      dup2\n        /* \"Record.sol\":3407:3415  p.gender */\n      0x03\n      add\n        /* \"Record.sol\":3407:3425  p.gender = _gender */\n      swap1\n      dup2\n      tag_505\n      swap2\n      swap1\n      tag_168\n      jump\t// in\n    tag_505:\n      pop\n        /* \"Record.sol\":3444:3448  _dob */\n      dup8\n        /* \"Record.sol\":3436:3437  p */\n      dup2\n        /* \"Record.sol\":3436:3441  p.dob */\n      0x04\n      add\n        /* \"Record.sol\":3436:3448  p.dob = _dob */\n      swap1\n      dup2\n      tag_506\n      swap2\n      swap1\n      tag_168\n      jump\t// in\n    tag_506:\n      pop\n        /* \"Record.sol\":3470:3477  _height */\n      dup7\n        /* \"Record.sol\":3459:3460  p */\n      dup2\n        /* \"Record.sol\":3459:3467  p.height */\n      0x05\n      add\n        /* \"Record.sol\":3459:3477  p.height = _height */\n      swap1\n      dup2\n      tag_507\n      swap2\n      swap1\n      tag_168\n      jump\t// in\n    tag_507:\n      pop\n        /* \"Record.sol\":3500:3507  _weight */\n      dup6\n        /* \"Record.sol\":3489:3490  p */\n      dup2\n        /* \"Record.sol\":3489:3497  p.weight */\n      0x06\n      add\n        /* \"Record.sol\":3489:3507  p.weight = _weight */\n      swap1\n      dup2\n      tag_508\n      swap2\n      swap1\n      tag_168\n      jump\t// in\n    tag_508:\n      pop\n        /* \"Record.sol\":3532:3542  _houseaddr */\n      dup5\n        /* \"Record.sol\":3518:3519  p */\n      dup2\n        /* \"Record.sol\":3518:3529  p.houseaddr */\n      0x07\n      add\n        /* \"Record.sol\":3518:3542  p.houseaddr = _houseaddr */\n      swap1\n      dup2\n      tag_509\n      swap2\n      swap1\n      tag_168\n      jump\t// in\n    tag_509:\n      pop\n        /* \"Record.sol\":3568:3579  _bloodgroup */\n      dup4\n        /* \"Record.sol\":3553:3554  p */\n      dup2\n        /* \"Record.sol\":3553:3565  p.bloodgroup */\n      0x08\n      add\n        /* \"Record.sol\":3553:3579  p.bloodgroup = _bloodgroup */\n      swap1\n      dup2\n      tag_510\n      swap2\n      swap1\n      tag_168\n      jump\t// in\n    tag_510:\n      pop\n        /* \"Record.sol\":3604:3614  _allergies */\n      dup3\n        /* \"Record.sol\":3590:3591  p */\n      dup2\n        /* \"Record.sol\":3590:3601  p.allergies */\n      0x09\n      add\n        /* \"Record.sol\":3590:3614  p.allergies = _allergies */\n      swap1\n      dup2\n      tag_511\n      swap2\n      swap1\n      tag_168\n      jump\t// in\n    tag_511:\n      pop\n        /* \"Record.sol\":3640:3651  _medication */\n      dup2\n        /* \"Record.sol\":3625:3626  p */\n      dup2\n        /* \"Record.sol\":3625:3637  p.medication */\n      0x0a\n      add\n        /* \"Record.sol\":3625:3651  p.medication = _medication */\n      swap1\n      dup2\n      tag_512\n      swap2\n      swap1\n      tag_168\n      jump\t// in\n    tag_512:\n      pop\n        /* \"Record.sol\":3769:3779  msg.sender */\n      caller\n        /* \"Record.sol\":3760:3761  p */\n      dup2\n        /* \"Record.sol\":3760:3766  p.addr */\n      0x0d\n      add\n      0x00\n        /* \"Record.sol\":3760:3779  p.addr = msg.sender */\n      0x0100\n      exp\n      dup2\n      sload\n      dup2\n      0xffffffffffffffffffffffffffffffffffffffff\n      mul\n      not\n      and\n      swap1\n      dup4\n      0xffffffffffffffffffffffffffffffffffffffff\n      and\n      mul\n      or\n      swap1\n      sstore\n      pop\n        /* \"Record.sol\":3220:3791  {... */\n      pop\n        /* \"Record.sol\":2935:3791  function editDetails(string memory _ic, string memory _name, string memory _phone, string memory _gender, string memory _dob, string memory _height, string memory _weight, string memory _houseaddr, string memory _bloodgroup, string memory _allergies, string memory _medication) public {... */\n      pop\n      pop\n      pop\n      pop\n      pop\n      pop\n      pop\n      pop\n      pop\n      pop\n      pop\n      jump\t// out\n        /* \"Record.sol\":1040:1068  address[] public patientList */\n    tag_132:\n      0x01\n      dup2\n      dup2\n      sload\n      dup2\n      lt\n      tag_513\n      jumpi\n      0x00\n      dup1\n      revert\n    tag_513:\n      swap1\n      0x00\n      mstore\n      keccak256(0x00, 0x20)\n      add\n      0x00\n      swap2\n      pop\n      sload\n      swap1\n      0x0100\n      exp\n      swap1\n      div\n      0xffffffffffffffffffffffffffffffffffffffff\n      and\n      dup2\n      jump\t// out\n        /* \"Record.sol\":9778:9942  function searchRecordDate(address  _address) public view returns(uint) {... */\n    tag_136:\n        /* \"Record.sol\":9843:9847  uint */\n      0x00\n        /* \"Record.sol\":9860:9877  Patients memory p */\n      dup1\n        /* \"Record.sol\":9880:9888  patients */\n      0x04\n        /* \"Record.sol\":9880:9898  patients[_address] */\n      0x00\n        /* \"Record.sol\":9889:9897  _address */\n      dup5\n        /* \"Record.sol\":9880:9898  patients[_address] */\n      0xffffffffffffffffffffffffffffffffffffffff\n      and\n      0xffffffffffffffffffffffffffffffffffffffff\n      and\n      dup2\n      mstore\n      0x20\n      add\n      swap1\n      dup2\n      mstore\n      0x20\n      add\n      0x00\n      keccak256\n        /* \"Record.sol\":9860:9898  Patients memory p = patients[_address] */\n      mload(0x40)\n      dup1\n      0x01e0\n      add\n      0x40\n      mstore\n      swap1\n      dup2\n      0x00\n      dup3\n      add\n      dup1\n      sload\n      tag_516\n      swap1\n      tag_191\n      jump\t// in\n    tag_516:\n      dup1\n      0x1f\n      add\n      0x20\n      dup1\n      swap2\n      div\n      mul\n      0x20\n      add\n      mload(0x40)\n      swap1\n      dup2\n      add\n      0x40\n      mstore\n      dup1\n      swap3\n      swap2\n      swap1\n      dup2\n      dup2\n      mstore\n      0x20\n      add\n      dup3\n      dup1\n      sload\n      tag_517\n      swap1\n      tag_191\n      jump\t// in\n    tag_517:\n      dup1\n      iszero\n      tag_518\n      jumpi\n      dup1\n      0x1f\n      lt\n      tag_519\n      jumpi\n      0x0100\n      dup1\n      dup4\n      sload\n      div\n      mul\n      dup4\n      mstore\n      swap2\n      0x20\n      add\n      swap2\n      jump(tag_518)\n    tag_519:\n      dup3\n      add\n      swap2\n      swap1\n      0x00\n      mstore\n      keccak256(0x00, 0x20)\n      swap1\n    tag_520:\n      dup2\n      sload\n      dup2\n      mstore\n      swap1\n      0x01\n      add\n      swap1\n      0x20\n      add\n      dup1\n      dup4\n      gt\n      tag_520\n      jumpi\n      dup3\n      swap1\n      sub\n      0x1f\n      and\n      dup3\n      add\n      swap2\n    tag_518:\n      pop\n      pop\n      pop\n      pop\n      pop\n      dup2\n      mstore\n      0x20\n      add\n      0x01\n      dup3\n      add\n      dup1\n      sload\n      tag_521\n      swap1\n      tag_191\n      jump\t// in\n    tag_521:\n      dup1\n      0x1f\n      add\n      0x20\n      dup1\n      swap2\n      div\n      mul\n      0x20\n      add\n      mload(0x40)\n      swap1\n      dup2\n      add\n      0x40\n      mstore\n      dup1\n      swap3\n      swap2\n      swap1\n      dup2\n      dup2\n      mstore\n      0x20\n      add\n      dup3\n      dup1\n      sload\n      tag_522\n      swap1\n      tag_191\n      jump\t// in\n    tag_522:\n      dup1\n      iszero\n      tag_523\n      jumpi\n      dup1\n      0x1f\n      lt\n      tag_524\n      jumpi\n      0x0100\n      dup1\n      dup4\n      sload\n      div\n      mul\n      dup4\n      mstore\n      swap2\n      0x20\n      add\n      swap2\n      jump(tag_523)\n    tag_524:\n      dup3\n      add\n      swap2\n      swap1\n      0x00\n      mstore\n      keccak256(0x00, 0x20)\n      swap1\n    tag_525:\n      dup2\n      sload\n      dup2\n      mstore\n      swap1\n      0x01\n      add\n      swap1\n      0x20\n      add\n      dup1\n      dup4\n      gt\n      tag_525\n      jumpi\n      dup3\n      swap1\n      sub\n      0x1f\n      and\n      dup3\n      add\n      swap2\n    tag_523:\n      pop\n      pop\n      pop\n      pop\n      pop\n      dup2\n      mstore\n      0x20\n      add\n      0x02\n      dup3\n      add\n      dup1\n      sload\n      tag_526\n      swap1\n      tag_191\n      jump\t// in\n    tag_526:\n      dup1\n      0x1f\n      add\n      0x20\n      dup1\n      swap2\n      div\n      mul\n      0x20\n      add\n      mload(0x40)\n      swap1\n      dup2\n      add\n      0x40\n      mstore\n      dup1\n      swap3\n      swap2\n      swap1\n      dup2\n      dup2\n      mstore\n      0x20\n      add\n      dup3\n      dup1\n      sload\n      tag_527\n      swap1\n      tag_191\n      jump\t// in\n    tag_527:\n      dup1\n      iszero\n      tag_528\n      jumpi\n      dup1\n      0x1f\n      lt\n      tag_529\n      jumpi\n      0x0100\n      dup1\n      dup4\n      sload\n      div\n      mul\n      dup4\n      mstore\n      swap2\n      0x20\n      add\n      swap2\n      jump(tag_528)\n    tag_529:\n      dup3\n      add\n      swap2\n      swap1\n      0x00\n      mstore\n      keccak256(0x00, 0x20)\n      swap1\n    tag_530:\n      dup2\n      sload\n      dup2\n      mstore\n      swap1\n      0x01\n      add\n      swap1\n      0x20\n      add\n      dup1\n      dup4\n      gt\n      tag_530\n      jumpi\n      dup3\n      swap1\n      sub\n      0x1f\n      and\n      dup3\n      add\n      swap2\n    tag_528:\n      pop\n      pop\n      pop\n      pop\n      pop\n      dup2\n      mstore\n      0x20\n      add\n      0x03\n      dup3\n      add\n      dup1\n      sload\n      tag_531\n      swap1\n      tag_191\n      jump\t// in\n    tag_531:\n      dup1\n      0x1f\n      add\n      0x20\n      dup1\n      swap2\n      div\n      mul\n      0x20\n      add\n      mload(0x40)\n      swap1\n      dup2\n      add\n      0x40\n      mstore\n      dup1\n      swap3\n      swap2\n      swap1\n      dup2\n      dup2\n      mstore\n      0x20\n      add\n      dup3\n      dup1\n      sload\n      tag_532\n      swap1\n      tag_191\n      jump\t// in\n    tag_532:\n      dup1\n      iszero\n      tag_533\n      jumpi\n      dup1\n      0x1f\n      lt\n      tag_534\n      jumpi\n      0x0100\n      dup1\n      dup4\n      sload\n      div\n      mul\n      dup4\n      mstore\n      swap2\n      0x20\n      add\n      swap2\n      jump(tag_533)\n    tag_534:\n      dup3\n      add\n      swap2\n      swap1\n      0x00\n      mstore\n      keccak256(0x00, 0x20)\n      swap1\n    tag_535:\n      dup2\n      sload\n      dup2\n      mstore\n      swap1\n      0x01\n      add\n      swap1\n      0x20\n      add\n      dup1\n      dup4\n      gt\n      tag_535\n      jumpi\n      dup3\n      swap1\n      sub\n      0x1f\n      and\n      dup3\n      add\n      swap2\n    tag_533:\n      pop\n      pop\n      pop\n      pop\n      pop\n      dup2\n      mstore\n      0x20\n      add\n      0x04\n      dup3\n      add\n      dup1\n      sload\n      tag_536\n      swap1\n      tag_191\n      jump\t// in\n    tag_536:\n      dup1\n      0x1f\n      add\n      0x20\n      dup1\n      swap2\n      div\n      mul\n      0x20\n      add\n      mload(0x40)\n      swap1\n      dup2\n      add\n      0x40\n      mstore\n      dup1\n      swap3\n      swap2\n      swap1\n      dup2\n      dup2\n      mstore\n      0x20\n      add\n      dup3\n      dup1\n      sload\n      tag_537\n      swap1\n      tag_191\n      jump\t// in\n    tag_537:\n      dup1\n      iszero\n      tag_538\n      jumpi\n      dup1\n      0x1f\n      lt\n      tag_539\n      jumpi\n      0x0100\n      dup1\n      dup4\n      sload\n      div\n      mul\n      dup4\n      mstore\n      swap2\n      0x20\n      add\n      swap2\n      jump(tag_538)\n    tag_539:\n      dup3\n      add\n      swap2\n      swap1\n      0x00\n      mstore\n      keccak256(0x00, 0x20)\n      swap1\n    tag_540:\n      dup2\n      sload\n      dup2\n      mstore\n      swap1\n      0x01\n      add\n      swap1\n      0x20\n      add\n      dup1\n      dup4\n      gt\n      tag_540\n      jumpi\n      dup3\n      swap1\n      sub\n      0x1f\n      and\n      dup3\n      add\n      swap2\n    tag_538:\n      pop\n      pop\n      pop\n      pop\n      pop\n      dup2\n      mstore\n      0x20\n      add\n      0x05\n      dup3\n      add\n      dup1\n      sload\n      tag_541\n      swap1\n      tag_191\n      jump\t// in\n    tag_541:\n      dup1\n      0x1f\n      add\n      0x20\n      dup1\n      swap2\n      div\n      mul\n      0x20\n      add\n      mload(0x40)\n      swap1\n      dup2\n      add\n      0x40\n      mstore\n      dup1\n      swap3\n      swap2\n      swap1\n      dup2\n      dup2\n      mstore\n      0x20\n      add\n      dup3\n      dup1\n      sload\n      tag_542\n      swap1\n      tag_191\n      jump\t// in\n    tag_542:\n      dup1\n      iszero\n      tag_543\n      jumpi\n      dup1\n      0x1f\n      lt\n      tag_544\n      jumpi\n      0x0100\n      dup1\n      dup4\n      sload\n      div\n      mul\n      dup4\n      mstore\n      swap2\n      0x20\n      add\n      swap2\n      jump(tag_543)\n    tag_544:\n      dup3\n      add\n      swap2\n      swap1\n      0x00\n      mstore\n      keccak256(0x00, 0x20)\n      swap1\n    tag_545:\n      dup2\n      sload\n      dup2\n      mstore\n      swap1\n      0x01\n      add\n      swap1\n      0x20\n      add\n      dup1\n      dup4\n      gt\n      tag_545\n      jumpi\n      dup3\n      swap1\n      sub\n      0x1f\n      and\n      dup3\n      add\n      swap2\n    tag_543:\n      pop\n      pop\n      pop\n      pop\n      pop\n      dup2\n      mstore\n      0x20\n      add\n      0x06\n      dup3\n      add\n      dup1\n      sload\n      tag_546\n      swap1\n      tag_191\n      jump\t// in\n    tag_546:\n      dup1\n      0x1f\n      add\n      0x20\n      dup1\n      swap2\n      div\n      mul\n      0x20\n      add\n      mload(0x40)\n      swap1\n      dup2\n      add\n      0x40\n      mstore\n      dup1\n      swap3\n      swap2\n      swap1\n      dup2\n      dup2\n      mstore\n      0x20\n      add\n      dup3\n      dup1\n      sload\n      tag_547\n      swap1\n      tag_191\n      jump\t// in\n    tag_547:\n      dup1\n      iszero\n      tag_548\n      jumpi\n      dup1\n      0x1f\n      lt\n      tag_549\n      jumpi\n      0x0100\n      dup1\n      dup4\n      sload\n      div\n      mul\n      dup4\n      mstore\n      swap2\n      0x20\n      add\n      swap2\n      jump(tag_548)\n    tag_549:\n      dup3\n      add\n      swap2\n      swap1\n      0x00\n      mstore\n      keccak256(0x00, 0x20)\n      swap1\n    tag_550:\n      dup2\n      sload\n      dup2\n      mstore\n      swap1\n      0x01\n      add\n      swap1\n      0x20\n      add\n      dup1\n      dup4\n      gt\n      tag_550\n      jumpi\n      dup3\n      swap1\n      sub\n      0x1f\n      and\n      dup3\n      add\n      swap2\n    tag_548:\n      pop\n      pop\n      pop\n      pop\n      pop\n      dup2\n      mstore\n      0x20\n      add\n      0x07\n      dup3\n      add\n      dup1\n      sload\n      tag_551\n      swap1\n      tag_191\n      jump\t// in\n    tag_551:\n      dup1\n      0x1f\n      add\n      0x20\n      dup1\n      swap2\n      div\n      mul\n      0x20\n      add\n      mload(0x40)\n      swap1\n      dup2\n      add\n      0x40\n      mstore\n      dup1\n      swap3\n      swap2\n      swap1\n      dup2\n      dup2\n      mstore\n      0x20\n      add\n      dup3\n      dup1\n      sload\n      tag_552\n      swap1\n      tag_191\n      jump\t// in\n    tag_552:\n      dup1\n      iszero\n      tag_553\n      jumpi\n      dup1\n      0x1f\n      lt\n      tag_554\n      jumpi\n      0x0100\n      dup1\n      dup4\n      sload\n      div\n      mul\n      dup4\n      mstore\n      swap2\n      0x20\n      add\n      swap2\n      jump(tag_553)\n    tag_554:\n      dup3\n      add\n      swap2\n      swap1\n      0x00\n      mstore\n      keccak256(0x00, 0x20)\n      swap1\n    tag_555:\n      dup2\n      sload\n      dup2\n      mstore\n      swap1\n      0x01\n      add\n      swap1\n      0x20\n      add\n      dup1\n      dup4\n      gt\n      tag_555\n      jumpi\n      dup3\n      swap1\n      sub\n      0x1f\n      and\n      dup3\n      add\n      swap2\n    tag_553:\n      pop\n      pop\n      pop\n      pop\n      pop\n      dup2\n      mstore\n      0x20\n      add\n      0x08\n      dup3\n      add\n      dup1\n      sload\n      tag_556\n      swap1\n      tag_191\n      jump\t// in\n    tag_556:\n      dup1\n      0x1f\n      add\n      0x20\n      dup1\n      swap2\n      div\n      mul\n      0x20\n      add\n      mload(0x40)\n      swap1\n      dup2\n      add\n      0x40\n      mstore\n      dup1\n      swap3\n      swap2\n      swap1\n      dup2\n      dup2\n      mstore\n      0x20\n      add\n      dup3\n      dup1\n      sload\n      tag_557\n      swap1\n      tag_191\n      jump\t// in\n    tag_557:\n      dup1\n      iszero\n      tag_558\n      jumpi\n      dup1\n      0x1f\n      lt\n      tag_559\n      jumpi\n      0x0100\n      dup1\n      dup4\n      sload\n      div\n      mul\n      dup4\n      mstore\n      swap2\n      0x20\n      add\n      swap2\n      jump(tag_558)\n    tag_559:\n      dup3\n      add\n      swap2\n      swap1\n      0x00\n      mstore\n      keccak256(0x00, 0x20)\n      swap1\n    tag_560:\n      dup2\n      sload\n      dup2\n      mstore\n      swap1\n      0x01\n      add\n      swap1\n      0x20\n      add\n      dup1\n      dup4\n      gt\n      tag_560\n      jumpi\n      dup3\n      swap1\n      sub\n      0x1f\n      and\n      dup3\n      add\n      swap2\n    tag_558:\n      pop\n      pop\n      pop\n      pop\n      pop\n      dup2\n      mstore\n      0x20\n      add\n      0x09\n      dup3\n      add\n      dup1\n      sload\n      tag_561\n      swap1\n      tag_191\n      jump\t// in\n    tag_561:\n      dup1\n      0x1f\n      add\n      0x20\n      dup1\n      swap2\n      div\n      mul\n      0x20\n      add\n      mload(0x40)\n      swap1\n      dup2\n      add\n      0x40\n      mstore\n      dup1\n      swap3\n      swap2\n      swap1\n      dup2\n      dup2\n      mstore\n      0x20\n      add\n      dup3\n      dup1\n      sload\n      tag_562\n      swap1\n      tag_191\n      jump\t// in\n    tag_562:\n      dup1\n      iszero\n      tag_563\n      jumpi\n      dup1\n      0x1f\n      lt\n      tag_564\n      jumpi\n      0x0100\n      dup1\n      dup4\n      sload\n      div\n      mul\n      dup4\n      mstore\n      swap2\n      0x20\n      add\n      swap2\n      jump(tag_563)\n    tag_564:\n      dup3\n      add\n      swap2\n      swap1\n      0x00\n      mstore\n      keccak256(0x00, 0x20)\n      swap1\n    tag_565:\n      dup2\n      sload\n      dup2\n      mstore\n      swap1\n      0x01\n      add\n      swap1\n      0x20\n      add\n      dup1\n      dup4\n      gt\n      tag_565\n      jumpi\n      dup3\n      swap1\n      sub\n      0x1f\n      and\n      dup3\n      add\n      swap2\n    tag_563:\n      pop\n      pop\n      pop\n      pop\n      pop\n      dup2\n      mstore\n      0x20\n      add\n      0x0a\n      dup3\n      add\n      dup1\n      sload\n      tag_566\n      swap1\n      tag_191\n      jump\t// in\n    tag_566:\n      dup1\n      0x1f\n      add\n      0x20\n      dup1\n      swap2\n      div\n      mul\n      0x20\n      add\n      mload(0x40)\n      swap1\n      dup2\n      add\n      0x40\n      mstore\n      dup1\n      swap3\n      swap2\n      swap1\n      dup2\n      dup2\n      mstore\n      0x20\n      add\n      dup3\n      dup1\n      sload\n      tag_567\n      swap1\n      tag_191\n      jump\t// in\n    tag_567:\n      dup1\n      iszero\n      tag_568\n      jumpi\n      dup1\n      0x1f\n      lt\n      tag_569\n      jumpi\n      0x0100\n      dup1\n      dup4\n      sload\n      div\n      mul\n      dup4\n      mstore\n      swap2\n      0x20\n      add\n      swap2\n      jump(tag_568)\n    tag_569:\n      dup3\n      add\n      swap2\n      swap1\n      0x00\n      mstore\n      keccak256(0x00, 0x20)\n      swap1\n    tag_570:\n      dup2\n      sload\n      dup2\n      mstore\n      swap1\n      0x01\n      add\n      swap1\n      0x20\n      add\n      dup1\n      dup4\n      gt\n      tag_570\n      jumpi\n      dup3\n      swap1\n      sub\n      0x1f\n      and\n      dup3\n      add\n      swap2\n    tag_568:\n      pop\n      pop\n      pop\n      pop\n      pop\n      dup2\n      mstore\n      0x20\n      add\n      0x0b\n      dup3\n      add\n      dup1\n      sload\n      tag_571\n      swap1\n      tag_191\n      jump\t// in\n    tag_571:\n      dup1\n      0x1f\n      add\n      0x20\n      dup1\n      swap2\n      div\n      mul\n      0x20\n      add\n      mload(0x40)\n      swap1\n      dup2\n      add\n      0x40\n      mstore\n      dup1\n      swap3\n      swap2\n      swap1\n      dup2\n      dup2\n      mstore\n      0x20\n      add\n      dup3\n      dup1\n      sload\n      tag_572\n      swap1\n      tag_191\n      jump\t// in\n    tag_572:\n      dup1\n      iszero\n      tag_573\n      jumpi\n      dup1\n      0x1f\n      lt\n      tag_574\n      jumpi\n      0x0100\n      dup1\n      dup4\n      sload\n      div\n      mul\n      dup4\n      mstore\n      swap2\n      0x20\n      add\n      swap2\n      jump(tag_573)\n    tag_574:\n      dup3\n      add\n      swap2\n      swap1\n      0x00\n      mstore\n      keccak256(0x00, 0x20)\n      swap1\n    tag_575:\n      dup2\n      sload\n      dup2\n      mstore\n      swap1\n      0x01\n      add\n      swap1\n      0x20\n      add\n      dup1\n      dup4\n      gt\n      tag_575\n      jumpi\n      dup3\n      swap1\n      sub\n      0x1f\n      and\n      dup3\n      add\n      swap2\n    tag_573:\n      pop\n      pop\n      pop\n      pop\n      pop\n      dup2\n      mstore\n      0x20\n      add\n      0x0c\n      dup3\n      add\n      dup1\n      sload\n      tag_576\n      swap1\n      tag_191\n      jump\t// in\n    tag_576:\n      dup1\n      0x1f\n      add\n      0x20\n      dup1\n      swap2\n      div\n      mul\n      0x20\n      add\n      mload(0x40)\n      swap1\n      dup2\n      add\n      0x40\n      mstore\n      dup1\n      swap3\n      swap2\n      swap1\n      dup2\n      dup2\n      mstore\n      0x20\n      add\n      dup3\n      dup1\n      sload\n      tag_577\n      swap1\n      tag_191\n      jump\t// in\n    tag_577:\n      dup1\n      iszero\n      tag_578\n      jumpi\n      dup1\n      0x1f\n      lt\n      tag_579\n      jumpi\n      0x0100\n      dup1\n      dup4\n      sload\n      div\n      mul\n      dup4\n      mstore\n      swap2\n      0x20\n      add\n      swap2\n      jump(tag_578)\n    tag_579:\n      dup3\n      add\n      swap2\n      swap1\n      0x00\n      mstore\n      keccak256(0x00, 0x20)\n      swap1\n    tag_580:\n      dup2\n      sload\n      dup2\n      mstore\n      swap1\n      0x01\n      add\n      swap1\n      0x20\n      add\n      dup1\n      dup4\n      gt\n      tag_580\n      jumpi\n      dup3\n      swap1\n      sub\n      0x1f\n      and\n      dup3\n      add\n      swap2\n    tag_578:\n      pop\n      pop\n      pop\n      pop\n      pop\n      dup2\n      mstore\n      0x20\n      add\n      0x0d\n      dup3\n      add\n      0x00\n      swap1\n      sload\n      swap1\n      0x0100\n      exp\n      swap1\n      div\n      0xffffffffffffffffffffffffffffffffffffffff\n      and\n      0xffffffffffffffffffffffffffffffffffffffff\n      and\n      0xffffffffffffffffffffffffffffffffffffffff\n      and\n      dup2\n      mstore\n      0x20\n      add\n      0x0e\n      dup3\n      add\n      sload\n      dup2\n      mstore\n      pop\n      pop\n      swap1\n      pop\n        /* \"Record.sol\":9927:9928  p */\n      dup1\n        /* \"Record.sol\":9927:9933  p.date */\n      0x01c0\n      add\n      mload\n        /* \"Record.sol\":9919:9934  return (p.date) */\n      swap2\n      pop\n      pop\n        /* \"Record.sol\":9778:9942  function searchRecordDate(address  _address) public view returns(uint) {... */\n      swap2\n      swap1\n      pop\n      jump\t// out\n        /* \"Record.sol\":1601:1642  uint256 public permissionGrantedCount = 0 */\n    tag_139:\n      sload(0x0e)\n      dup2\n      jump\t// out\n        /* \"Record.sol\":10486:10580  function getPatientCount() public view returns(uint256) {... */\n    tag_142:\n        /* \"Record.sol\":10533:10540  uint256 */\n      0x00\n        /* \"Record.sol\":10560:10572  patientCount */\n      sload(0x0b)\n        /* \"Record.sol\":10553:10572  return patientCount */\n      swap1\n      pop\n        /* \"Record.sol\":10486:10580  function getPatientCount() public view returns(uint256) {... */\n      swap1\n      jump\t// out\n        /* \"Record.sol\":8849:9212  function searchDoctor(address  _address) public view returns(string memory, string memory, string memory, string memory, string memory, string memory, string memory) {... */\n    tag_146:\n        /* \"Record.sol\":8910:8923  string memory */\n      0x60\n        /* \"Record.sol\":8925:8938  string memory */\n      dup1\n        /* \"Record.sol\":8940:8953  string memory */\n      0x60\n        /* \"Record.sol\":8955:8968  string memory */\n      dup1\n        /* \"Record.sol\":8970:8983  string memory */\n      0x60\n        /* \"Record.sol\":8985:8998  string memory */\n      dup1\n        /* \"Record.sol\":9000:9013  string memory */\n      0x60\n        /* \"Record.sol\":9034:9042  isDoctor */\n      0x09\n        /* \"Record.sol\":9034:9052  isDoctor[_address] */\n      0x00\n        /* \"Record.sol\":9043:9051  _address */\n      dup10\n        /* \"Record.sol\":9034:9052  isDoctor[_address] */\n      0xffffffffffffffffffffffffffffffffffffffff\n      and\n      0xffffffffffffffffffffffffffffffffffffffff\n      and\n      dup2\n      mstore\n      0x20\n      add\n      swap1\n      dup2\n      mstore\n      0x20\n      add\n      0x00\n      keccak256\n      0x00\n      swap1\n      sload\n      swap1\n      0x0100\n      exp\n      swap1\n      div\n      0xff\n      and\n        /* \"Record.sol\":9026:9053  require(isDoctor[_address]) */\n      tag_583\n      jumpi\n      0x00\n      dup1\n      revert\n    tag_583:\n        /* \"Record.sol\":9074:9090  Doctors memory d */\n      0x00\n        /* \"Record.sol\":9093:9100  doctors */\n      0x05\n        /* \"Record.sol\":9093:9110  doctors[_address] */\n      0x00\n        /* \"Record.sol\":9101:9109  _address */\n      dup11\n        /* \"Record.sol\":9093:9110  doctors[_address] */\n      0xffffffffffffffffffffffffffffffffffffffff\n      and\n      0xffffffffffffffffffffffffffffffffffffffff\n      and\n      dup2\n      mstore\n      0x20\n      add\n      swap1\n      dup2\n      mstore\n      0x20\n      add\n      0x00\n      keccak256\n        /* \"Record.sol\":9074:9110  Doctors memory d = doctors[_address] */\n      mload(0x40)\n      dup1\n      0x0120\n      add\n      0x40\n      mstore\n      swap1\n      dup2\n      0x00\n      dup3\n      add\n      dup1\n      sload\n      tag_584\n      swap1\n      tag_191\n      jump\t// in\n    tag_584:\n      dup1\n      0x1f\n      add\n      0x20\n      dup1\n      swap2\n      div\n      mul\n      0x20\n      add\n      mload(0x40)\n      swap1\n      dup2\n      add\n      0x40\n      mstore\n      dup1\n      swap3\n      swap2\n      swap1\n      dup2\n      dup2\n      mstore\n      0x20\n      add\n      dup3\n      dup1\n      sload\n      tag_585\n      swap1\n      tag_191\n      jump\t// in\n    tag_585:\n      dup1\n      iszero\n      tag_586\n      jumpi\n      dup1\n      0x1f\n      lt\n      tag_587\n      jumpi\n      0x0100\n      dup1\n      dup4\n      sload\n      div\n      mul\n      dup4\n      mstore\n      swap2\n      0x20\n      add\n      swap2\n      jump(tag_586)\n    tag_587:\n      dup3\n      add\n      swap2\n      swap1\n      0x00\n      mstore\n      keccak256(0x00, 0x20)\n      swap1\n    tag_588:\n      dup2\n      sload\n      dup2\n      mstore\n      swap1\n      0x01\n      add\n      swap1\n      0x20\n      add\n      dup1\n      dup4\n      gt\n      tag_588\n      jumpi\n      dup3\n      swap1\n      sub\n      0x1f\n      and\n      dup3\n      add\n      swap2\n    tag_586:\n      pop\n      pop\n      pop\n      pop\n      pop\n      dup2\n      mstore\n      0x20\n      add\n      0x01\n      dup3\n      add\n      dup1\n      sload\n      tag_589\n      swap1\n      tag_191\n      jump\t// in\n    tag_589:\n      dup1\n      0x1f\n      add\n      0x20\n      dup1\n      swap2\n      div\n      mul\n      0x20\n      add\n      mload(0x40)\n      swap1\n      dup2\n      add\n      0x40\n      mstore\n      dup1\n      swap3\n      swap2\n      swap1\n      dup2\n      dup2\n      mstore\n      0x20\n      add\n      dup3\n      dup1\n      sload\n      tag_590\n      swap1\n      tag_191\n      jump\t// in\n    tag_590:\n      dup1\n      iszero\n      tag_591\n      jumpi\n      dup1\n      0x1f\n      lt\n      tag_592\n      jumpi\n      0x0100\n      dup1\n      dup4\n      sload\n      div\n      mul\n      dup4\n      mstore\n      swap2\n      0x20\n      add\n      swap2\n      jump(tag_591)\n    tag_592:\n      dup3\n      add\n      swap2\n      swap1\n      0x00\n      mstore\n      keccak256(0x00, 0x20)\n      swap1\n    tag_593:\n      dup2\n      sload\n      dup2\n      mstore\n      swap1\n      0x01\n      add\n      swap1\n      0x20\n      add\n      dup1\n      dup4\n      gt\n      tag_593\n      jumpi\n      dup3\n      swap1\n      sub\n      0x1f\n      and\n      dup3\n      add\n      swap2\n    tag_591:\n      pop\n      pop\n      pop\n      pop\n      pop\n      dup2\n      mstore\n      0x20\n      add\n      0x02\n      dup3\n      add\n      dup1\n      sload\n      tag_594\n      swap1\n      tag_191\n      jump\t// in\n    tag_594:\n      dup1\n      0x1f\n      add\n      0x20\n      dup1\n      swap2\n      div\n      mul\n      0x20\n      add\n      mload(0x40)\n      swap1\n      dup2\n      add\n      0x40\n      mstore\n      dup1\n      swap3\n      swap2\n      swap1\n      dup2\n      dup2\n      mstore\n      0x20\n      add\n      dup3\n      dup1\n      sload\n      tag_595\n      swap1\n      tag_191\n      jump\t// in\n    tag_595:\n      dup1\n      iszero\n      tag_596\n      jumpi\n      dup1\n      0x1f\n      lt\n      tag_597\n      jumpi\n      0x0100\n      dup1\n      dup4\n      sload\n      div\n      mul\n      dup4\n      mstore\n      swap2\n      0x20\n      add\n      swap2\n      jump(tag_596)\n    tag_597:\n      dup3\n      add\n      swap2\n      swap1\n      0x00\n      mstore\n      keccak256(0x00, 0x20)\n      swap1\n    tag_598:\n      dup2\n      sload\n      dup2\n      mstore\n      swap1\n      0x01\n      add\n      swap1\n      0x20\n      add\n      dup1\n      dup4\n      gt\n      tag_598\n      jumpi\n      dup3\n      swap1\n      sub\n      0x1f\n      and\n      dup3\n      add\n      swap2\n    tag_596:\n      pop\n      pop\n      pop\n      pop\n      pop\n      dup2\n      mstore\n      0x20\n      add\n      0x03\n      dup3\n      add\n      dup1\n      sload\n      tag_599\n      swap1\n      tag_191\n      jump\t// in\n    tag_599:\n      dup1\n      0x1f\n      add\n      0x20\n      dup1\n      swap2\n      div\n      mul\n      0x20\n      add\n      mload(0x40)\n      swap1\n      dup2\n      add\n      0x40\n      mstore\n      dup1\n      swap3\n      swap2\n      swap1\n      dup2\n      dup2\n      mstore\n      0x20\n      add\n      dup3\n      dup1\n      sload\n      tag_600\n      swap1\n      tag_191\n      jump\t// in\n    tag_600:\n      dup1\n      iszero\n      tag_601\n      jumpi\n      dup1\n      0x1f\n      lt\n      tag_602\n      jumpi\n      0x0100\n      dup1\n      dup4\n      sload\n      div\n      mul\n      dup4\n      mstore\n      swap2\n      0x20\n      add\n      swap2\n      jump(tag_601)\n    tag_602:\n      dup3\n      add\n      swap2\n      swap1\n      0x00\n      mstore\n      keccak256(0x00, 0x20)\n      swap1\n    tag_603:\n      dup2\n      sload\n      dup2\n      mstore\n      swap1\n      0x01\n      add\n      swap1\n      0x20\n      add\n      dup1\n      dup4\n      gt\n      tag_603\n      jumpi\n      dup3\n      swap1\n      sub\n      0x1f\n      and\n      dup3\n      add\n      swap2\n    tag_601:\n      pop\n      pop\n      pop\n      pop\n      pop\n      dup2\n      mstore\n      0x20\n      add\n      0x04\n      dup3\n      add\n      dup1\n      sload\n      tag_604\n      swap1\n      tag_191\n      jump\t// in\n    tag_604:\n      dup1\n      0x1f\n      add\n      0x20\n      dup1\n      swap2\n      div\n      mul\n      0x20\n      add\n      mload(0x40)\n      swap1\n      dup2\n      add\n      0x40\n      mstore\n      dup1\n      swap3\n      swap2\n      swap1\n      dup2\n      dup2\n      mstore\n      0x20\n      add\n      dup3\n      dup1\n      sload\n      tag_605\n      swap1\n      tag_191\n      jump\t// in\n    tag_605:\n      dup1\n      iszero\n      tag_606\n      jumpi\n      dup1\n      0x1f\n      lt\n      tag_607\n      jumpi\n      0x0100\n      dup1\n      dup4\n      sload\n      div\n      mul\n      dup4\n      mstore\n      swap2\n      0x20\n      add\n      swap2\n      jump(tag_606)\n    tag_607:\n      dup3\n      add\n      swap2\n      swap1\n      0x00\n      mstore\n      keccak256(0x00, 0x20)\n      swap1\n    tag_608:\n      dup2\n      sload\n      dup2\n      mstore\n      swap1\n      0x01\n      add\n      swap1\n      0x20\n      add\n      dup1\n      dup4\n      gt\n      tag_608\n      jumpi\n      dup3\n      swap1\n      sub\n      0x1f\n      and\n      dup3\n      add\n      swap2\n    tag_606:\n      pop\n      pop\n      pop\n      pop\n      pop\n      dup2\n      mstore\n      0x20\n      add\n      0x05\n      dup3\n      add\n      dup1\n      sload\n      tag_609\n      swap1\n      tag_191\n      jump\t// in\n    tag_609:\n      dup1\n      0x1f\n      add\n      0x20\n      dup1\n      swap2\n      div\n      mul\n      0x20\n      add\n      mload(0x40)\n      swap1\n      dup2\n      add\n      0x40\n      mstore\n      dup1\n      swap3\n      swap2\n      swap1\n      dup2\n      dup2\n      mstore\n      0x20\n      add\n      dup3\n      dup1\n      sload\n      tag_610\n      swap1\n      tag_191\n      jump\t// in\n    tag_610:\n      dup1\n      iszero\n      tag_611\n      jumpi\n      dup1\n      0x1f\n      lt\n      tag_612\n      jumpi\n      0x0100\n      dup1\n      dup4\n      sload\n      div\n      mul\n      dup4\n      mstore\n      swap2\n      0x20\n      add\n      swap2\n      jump(tag_611)\n    tag_612:\n      dup3\n      add\n      swap2\n      swap1\n      0x00\n      mstore\n      keccak256(0x00, 0x20)\n      swap1\n    tag_613:\n      dup2\n      sload\n      dup2\n      mstore\n      swap1\n      0x01\n      add\n      swap1\n      0x20\n      add\n      dup1\n      dup4\n      gt\n      tag_613\n      jumpi\n      dup3\n      swap1\n      sub\n      0x1f\n      and\n      dup3\n      add\n      swap2\n    tag_611:\n      pop\n      pop\n      pop\n      pop\n      pop\n      dup2\n      mstore\n      0x20\n      add\n      0x06\n      dup3\n      add\n      dup1\n      sload\n      tag_614\n      swap1\n      tag_191\n      jump\t// in\n    tag_614:\n      dup1\n      0x1f\n      add\n      0x20\n      dup1\n      swap2\n      div\n      mul\n      0x20\n      add\n      mload(0x40)\n      swap1\n      dup2\n      add\n      0x40\n      mstore\n      dup1\n      swap3\n      swap2\n      swap1\n      dup2\n      dup2\n      mstore\n      0x20\n      add\n      dup3\n      dup1\n      sload\n      tag_615\n      swap1\n      tag_191\n      jump\t// in\n    tag_615:\n      dup1\n      iszero\n      tag_616\n      jumpi\n      dup1\n      0x1f\n      lt\n      tag_617\n      jumpi\n      0x0100\n      dup1\n      dup4\n      sload\n      div\n      mul\n      dup4\n      mstore\n      swap2\n      0x20\n      add\n      swap2\n      jump(tag_616)\n    tag_617:\n      dup3\n      add\n      swap2\n      swap1\n      0x00\n      mstore\n      keccak256(0x00, 0x20)\n      swap1\n    tag_618:\n      dup2\n      sload\n      dup2\n      mstore\n      swap1\n      0x01\n      add\n      swap1\n      0x20\n      add\n      dup1\n      dup4\n      gt\n      tag_618\n      jumpi\n      dup3\n      swap1\n      sub\n      0x1f\n      and\n      dup3\n      add\n      swap2\n    tag_616:\n      pop\n      pop\n      pop\n      pop\n      pop\n      dup2\n      mstore\n      0x20\n      add\n      0x07\n      dup3\n      add\n      0x00\n      swap1\n      sload\n      swap1\n      0x0100\n      exp\n      swap1\n      div\n      0xffffffffffffffffffffffffffffffffffffffff\n      and\n      0xffffffffffffffffffffffffffffffffffffffff\n      and\n      0xffffffffffffffffffffffffffffffffffffffff\n      and\n      dup2\n      mstore\n      0x20\n      add\n      0x08\n      dup3\n      add\n      sload\n      dup2\n      mstore\n      pop\n      pop\n      swap1\n      pop\n        /* \"Record.sol\":9139:9140  d */\n      dup1\n        /* \"Record.sol\":9139:9143  d.ic */\n      0x00\n      add\n      mload\n        /* \"Record.sol\":9145:9146  d */\n      dup2\n        /* \"Record.sol\":9145:9151  d.name */\n      0x20\n      add\n      mload\n        /* \"Record.sol\":9153:9154  d */\n      dup3\n        /* \"Record.sol\":9153:9160  d.phone */\n      0x40\n      add\n      mload\n        /* \"Record.sol\":9162:9163  d */\n      dup4\n        /* \"Record.sol\":9162:9170  d.gender */\n      0x60\n      add\n      mload\n        /* \"Record.sol\":9172:9173  d */\n      dup5\n        /* \"Record.sol\":9172:9177  d.dob */\n      0x80\n      add\n      mload\n        /* \"Record.sol\":9179:9180  d */\n      dup6\n        /* \"Record.sol\":9179:9194  d.qualification */\n      0xa0\n      add\n      mload\n        /* \"Record.sol\":9196:9197  d */\n      dup7\n        /* \"Record.sol\":9196:9203  d.major */\n      0xc0\n      add\n      mload\n        /* \"Record.sol\":9131:9204  return (d.ic, d.name, d.phone, d.gender, d.dob, d.qualification, d.major) */\n      swap8\n      pop\n      swap8\n      pop\n      swap8\n      pop\n      swap8\n      pop\n      swap8\n      pop\n      swap8\n      pop\n      swap8\n      pop\n      pop\n        /* \"Record.sol\":8849:9212  function searchDoctor(address  _address) public view returns(string memory, string memory, string memory, string memory, string memory, string memory, string memory) {... */\n      swap2\n      swap4\n      swap6\n      swap8\n      swap1\n      swap3\n      swap5\n      swap7\n      pop\n      jump\t// out\n        /* \"Record.sol\":1109:1141  address[] public appointmentList */\n    tag_150:\n      0x03\n      dup2\n      dup2\n      sload\n      dup2\n      lt\n      tag_619\n      jumpi\n      0x00\n      dup1\n      revert\n    tag_619:\n      swap1\n      0x00\n      mstore\n      keccak256(0x00, 0x20)\n      add\n      0x00\n      swap2\n      pop\n      sload\n      swap1\n      0x0100\n      exp\n      swap1\n      div\n      0xffffffffffffffffffffffffffffffffffffffff\n      and\n      dup2\n      jump\t// out\n        /* \"Record.sol\":11065:11204  function getAppointmentPerPatient(address  _address) public view returns(uint256) {... */\n    tag_154:\n        /* \"Record.sol\":11138:11145  uint256 */\n      0x00\n        /* \"Record.sol\":11165:11186  AppointmentPerPatient */\n      0x0a\n        /* \"Record.sol\":11165:11196  AppointmentPerPatient[_address] */\n      0x00\n        /* \"Record.sol\":11187:11195  _address */\n      dup4\n        /* \"Record.sol\":11165:11196  AppointmentPerPatient[_address] */\n      0xffffffffffffffffffffffffffffffffffffffff\n      and\n      0xffffffffffffffffffffffffffffffffffffffff\n      and\n      dup2\n      mstore\n      0x20\n      add\n      swap1\n      dup2\n      mstore\n      0x20\n      add\n      0x00\n      keccak256\n      sload\n        /* \"Record.sol\":11158:11196  return AppointmentPerPatient[_address] */\n      swap1\n      pop\n        /* \"Record.sol\":11065:11204  function getAppointmentPerPatient(address  _address) public view returns(uint256) {... */\n      swap2\n      swap1\n      pop\n      jump\t// out\n        /* \"Record.sol\":1559:1594  uint256 public appointmentCount = 0 */\n    tag_157:\n      sload(0x0d)\n      dup2\n      jump\t// out\n        /* \"#utility.yul\":7:82   */\n    tag_622:\n        /* \"#utility.yul\":40:46   */\n      0x00\n        /* \"#utility.yul\":73:75   */\n      0x40\n        /* \"#utility.yul\":67:76   */\n      mload\n        /* \"#utility.yul\":57:76   */\n      swap1\n      pop\n        /* \"#utility.yul\":7:82   */\n      swap1\n      jump\t// out\n        /* \"#utility.yul\":88:205   */\n    tag_623:\n        /* \"#utility.yul\":197:198   */\n      0x00\n        /* \"#utility.yul\":194:195   */\n      dup1\n        /* \"#utility.yul\":187:199   */\n      revert\n        /* \"#utility.yul\":211:328   */\n    tag_624:\n        /* \"#utility.yul\":320:321   */\n      0x00\n        /* \"#utility.yul\":317:318   */\n      dup1\n        /* \"#utility.yul\":310:322   */\n      revert\n        /* \"#utility.yul\":334:460   */\n    tag_625:\n        /* \"#utility.yul\":371:378   */\n      0x00\n        /* \"#utility.yul\":411:453   */\n      0xffffffffffffffffffffffffffffffffffffffff\n        /* \"#utility.yul\":404:409   */\n      dup3\n        /* \"#utility.yul\":400:454   */\n      and\n        /* \"#utility.yul\":389:454   */\n      swap1\n      pop\n        /* \"#utility.yul\":334:460   */\n      swap2\n      swap1\n      pop\n      jump\t// out\n        /* \"#utility.yul\":466:562   */\n    tag_626:\n        /* \"#utility.yul\":503:510   */\n      0x00\n        /* \"#utility.yul\":532:556   */\n      tag_680\n        /* \"#utility.yul\":550:555   */\n      dup3\n        /* \"#utility.yul\":532:556   */\n      tag_625\n      jump\t// in\n    tag_680:\n        /* \"#utility.yul\":521:556   */\n      swap1\n      pop\n        /* \"#utility.yul\":466:562   */\n      swap2\n      swap1\n      pop\n      jump\t// out\n        /* \"#utility.yul\":568:690   */\n    tag_627:\n        /* \"#utility.yul\":641:665   */\n      tag_682\n        /* \"#utility.yul\":659:664   */\n      dup2\n        /* \"#utility.yul\":641:665   */\n      tag_626\n      jump\t// in\n    tag_682:\n        /* \"#utility.yul\":634:639   */\n      dup2\n        /* \"#utility.yul\":631:666   */\n      eq\n        /* \"#utility.yul\":621:684   */\n      tag_683\n      jumpi\n        /* \"#utility.yul\":680:681   */\n      0x00\n        /* \"#utility.yul\":677:678   */\n      dup1\n        /* \"#utility.yul\":670:682   */\n      revert\n        /* \"#utility.yul\":621:684   */\n    tag_683:\n        /* \"#utility.yul\":568:690   */\n      pop\n      jump\t// out\n        /* \"#utility.yul\":696:835   */\n    tag_628:\n        /* \"#utility.yul\":742:747   */\n      0x00\n        /* \"#utility.yul\":780:786   */\n      dup2\n        /* \"#utility.yul\":767:787   */\n      calldataload\n        /* \"#utility.yul\":758:787   */\n      swap1\n      pop\n        /* \"#utility.yul\":796:829   */\n      tag_685\n        /* \"#utility.yul\":823:828   */\n      dup2\n        /* \"#utility.yul\":796:829   */\n      tag_627\n      jump\t// in\n    tag_685:\n        /* \"#utility.yul\":696:835   */\n      swap3\n      swap2\n      pop\n      pop\n      jump\t// out\n        /* \"#utility.yul\":841:1170   */\n    tag_43:\n        /* \"#utility.yul\":900:906   */\n      0x00\n        /* \"#utility.yul\":949:951   */\n      0x20\n        /* \"#utility.yul\":937:946   */\n      dup3\n        /* \"#utility.yul\":928:935   */\n      dup5\n        /* \"#utility.yul\":924:947   */\n      sub\n        /* \"#utility.yul\":920:952   */\n      slt\n        /* \"#utility.yul\":917:1036   */\n      iszero\n      tag_687\n      jumpi\n        /* \"#utility.yul\":955:1034   */\n      tag_688\n      tag_623\n      jump\t// in\n    tag_688:\n        /* \"#utility.yul\":917:1036   */\n    tag_687:\n        /* \"#utility.yul\":1075:1076   */\n      0x00\n        /* \"#utility.yul\":1100:1153   */\n      tag_689\n        /* \"#utility.yul\":1145:1152   */\n      dup5\n        /* \"#utility.yul\":1136:1142   */\n      dup3\n        /* \"#utility.yul\":1125:1134   */\n      dup6\n        /* \"#utility.yul\":1121:1143   */\n      add\n        /* \"#utility.yul\":1100:1153   */\n      tag_628\n      jump\t// in\n    tag_689:\n        /* \"#utility.yul\":1090:1153   */\n      swap2\n      pop\n        /* \"#utility.yul\":1046:1163   */\n      pop\n        /* \"#utility.yul\":841:1170   */\n      swap3\n      swap2\n      pop\n      pop\n      jump\t// out\n        /* \"#utility.yul\":1176:1266   */\n    tag_629:\n        /* \"#utility.yul\":1210:1217   */\n      0x00\n        /* \"#utility.yul\":1253:1258   */\n      dup2\n        /* \"#utility.yul\":1246:1259   */\n      iszero\n        /* \"#utility.yul\":1239:1260   */\n      iszero\n        /* \"#utility.yul\":1228:1260   */\n      swap1\n      pop\n        /* \"#utility.yul\":1176:1266   */\n      swap2\n      swap1\n      pop\n      jump\t// out\n        /* \"#utility.yul\":1272:1381   */\n    tag_630:\n        /* \"#utility.yul\":1353:1374   */\n      tag_692\n        /* \"#utility.yul\":1368:1373   */\n      dup2\n        /* \"#utility.yul\":1353:1374   */\n      tag_629\n      jump\t// in\n    tag_692:\n        /* \"#utility.yul\":1348:1351   */\n      dup3\n        /* \"#utility.yul\":1341:1375   */\n      mstore\n        /* \"#utility.yul\":1272:1381   */\n      pop\n      pop\n      jump\t// out\n        /* \"#utility.yul\":1387:1597   */\n    tag_46:\n        /* \"#utility.yul\":1474:1478   */\n      0x00\n        /* \"#utility.yul\":1512:1514   */\n      0x20\n        /* \"#utility.yul\":1501:1510   */\n      dup3\n        /* \"#utility.yul\":1497:1515   */\n      add\n        /* \"#utility.yul\":1489:1515   */\n      swap1\n      pop\n        /* \"#utility.yul\":1525:1590   */\n      tag_694\n        /* \"#utility.yul\":1587:1588   */\n      0x00\n        /* \"#utility.yul\":1576:1585   */\n      dup4\n        /* \"#utility.yul\":1572:1589   */\n      add\n        /* \"#utility.yul\":1563:1569   */\n      dup5\n        /* \"#utility.yul\":1525:1590   */\n      tag_630\n      jump\t// in\n    tag_694:\n        /* \"#utility.yul\":1387:1597   */\n      swap3\n      swap2\n      pop\n      pop\n      jump\t// out\n        /* \"#utility.yul\":1603:1680   */\n    tag_631:\n        /* \"#utility.yul\":1640:1647   */\n      0x00\n        /* \"#utility.yul\":1669:1674   */\n      dup2\n        /* \"#utility.yul\":1658:1674   */\n      swap1\n      pop\n        /* \"#utility.yul\":1603:1680   */\n      swap2\n      swap1\n      pop\n      jump\t// out\n        /* \"#utility.yul\":1686:1808   */\n    tag_632:\n        /* \"#utility.yul\":1759:1783   */\n      tag_697\n        /* \"#utility.yul\":1777:1782   */\n      dup2\n        /* \"#utility.yul\":1759:1783   */\n      tag_631\n      jump\t// in\n    tag_697:\n        /* \"#utility.yul\":1752:1757   */\n      dup2\n        /* \"#utility.yul\":1749:1784   */\n      eq\n        /* \"#utility.yul\":1739:1802   */\n      tag_698\n      jumpi\n        /* \"#utility.yul\":1798:1799   */\n      0x00\n        /* \"#utility.yul\":1795:1796   */\n      dup1\n        /* \"#utility.yul\":1788:1800   */\n      revert\n        /* \"#utility.yul\":1739:1802   */\n    tag_698:\n        /* \"#utility.yul\":1686:1808   */\n      pop\n      jump\t// out\n        /* \"#utility.yul\":1814:1953   */\n    tag_633:\n        /* \"#utility.yul\":1860:1865   */\n      0x00\n        /* \"#utility.yul\":1898:1904   */\n      dup2\n        /* \"#utility.yul\":1885:1905   */\n      calldataload\n        /* \"#utility.yul\":1876:1905   */\n      swap1\n      pop\n        /* \"#utility.yul\":1914:1947   */\n      tag_700\n        /* \"#utility.yul\":1941:1946   */\n      dup2\n        /* \"#utility.yul\":1914:1947   */\n      tag_632\n      jump\t// in\n    tag_700:\n        /* \"#utility.yul\":1814:1953   */\n      swap3\n      swap2\n      pop\n      pop\n      jump\t// out\n        /* \"#utility.yul\":1959:2288   */\n    tag_49:\n        /* \"#utility.yul\":2018:2024   */\n      0x00\n        /* \"#utility.yul\":2067:2069   */\n      0x20\n        /* \"#utility.yul\":2055:2064   */\n      dup3\n        /* \"#utility.yul\":2046:2053   */\n      dup5\n        /* \"#utility.yul\":2042:2065   */\n      sub\n        /* \"#utility.yul\":2038:2070   */\n      slt\n        /* \"#utility.yul\":2035:2154   */\n      iszero\n      tag_702\n      jumpi\n        /* \"#utility.yul\":2073:2152   */\n      tag_703\n      tag_623\n      jump\t// in\n    tag_703:\n        /* \"#utility.yul\":2035:2154   */\n    tag_702:\n        /* \"#utility.yul\":2193:2194   */\n      0x00\n        /* \"#utility.yul\":2218:2271   */\n      tag_704\n        /* \"#utility.yul\":2263:2270   */\n      dup5\n        /* \"#utility.yul\":2254:2260   */\n      dup3\n        /* \"#utility.yul\":2243:2252   */\n      dup6\n        /* \"#utility.yul\":2239:2261   */\n      add\n        /* \"#utility.yul\":2218:2271   */\n      tag_633\n      jump\t// in\n    tag_704:\n        /* \"#utility.yul\":2208:2271   */\n      swap2\n      pop\n        /* \"#utility.yul\":2164:2281   */\n      pop\n        /* \"#utility.yul\":1959:2288   */\n      swap3\n      swap2\n      pop\n      pop\n      jump\t// out\n        /* \"#utility.yul\":2294:2412   */\n    tag_634:\n        /* \"#utility.yul\":2381:2405   */\n      tag_706\n        /* \"#utility.yul\":2399:2404   */\n      dup2\n        /* \"#utility.yul\":2381:2405   */\n      tag_626\n      jump\t// in\n    tag_706:\n        /* \"#utility.yul\":2376:2379   */\n      dup3\n        /* \"#utility.yul\":2369:2406   */\n      mstore\n        /* \"#utility.yul\":2294:2412   */\n      pop\n      pop\n      jump\t// out\n        /* \"#utility.yul\":2418:2640   */\n    tag_52:\n        /* \"#utility.yul\":2511:2515   */\n      0x00\n        /* \"#utility.yul\":2549:2551   */\n      0x20\n        /* \"#utility.yul\":2538:2547   */\n      dup3\n        /* \"#utility.yul\":2534:2552   */\n      add\n        /* \"#utility.yul\":2526:2552   */\n      swap1\n      pop\n        /* \"#utility.yul\":2562:2633   */\n      tag_708\n        /* \"#utility.yul\":2630:2631   */\n      0x00\n        /* \"#utility.yul\":2619:2628   */\n      dup4\n        /* \"#utility.yul\":2615:2632   */\n      add\n        /* \"#utility.yul\":2606:2612   */\n      dup5\n        /* \"#utility.yul\":2562:2633   */\n      tag_634\n      jump\t// in\n    tag_708:\n        /* \"#utility.yul\":2418:2640   */\n      swap3\n      swap2\n      pop\n      pop\n      jump\t// out\n        /* \"#utility.yul\":2646:2760   */\n    tag_635:\n        /* \"#utility.yul\":2713:2719   */\n      0x00\n        /* \"#utility.yul\":2747:2752   */\n      dup2\n        /* \"#utility.yul\":2741:2753   */\n      mload\n        /* \"#utility.yul\":2731:2753   */\n      swap1\n      pop\n        /* \"#utility.yul\":2646:2760   */\n      swap2\n      swap1\n      pop\n      jump\t// out\n        /* \"#utility.yul\":2766:2950   */\n    tag_636:\n        /* \"#utility.yul\":2865:2876   */\n      0x00\n        /* \"#utility.yul\":2899:2905   */\n      dup3\n        /* \"#utility.yul\":2894:2897   */\n      dup3\n        /* \"#utility.yul\":2887:2906   */\n      mstore\n        /* \"#utility.yul\":2939:2943   */\n      0x20\n        /* \"#utility.yul\":2934:2937   */\n      dup3\n        /* \"#utility.yul\":2930:2944   */\n      add\n        /* \"#utility.yul\":2915:2944   */\n      swap1\n      pop\n        /* \"#utility.yul\":2766:2950   */\n      swap3\n      swap2\n      pop\n      pop\n      jump\t// out\n        /* \"#utility.yul\":2956:3088   */\n    tag_637:\n        /* \"#utility.yul\":3023:3027   */\n      0x00\n        /* \"#utility.yul\":3046:3049   */\n      dup2\n        /* \"#utility.yul\":3038:3049   */\n      swap1\n      pop\n        /* \"#utility.yul\":3076:3080   */\n      0x20\n        /* \"#utility.yul\":3071:3074   */\n      dup3\n        /* \"#utility.yul\":3067:3081   */\n      add\n        /* \"#utility.yul\":3059:3081   */\n      swap1\n      pop\n        /* \"#utility.yul\":2956:3088   */\n      swap2\n      swap1\n      pop\n      jump\t// out\n        /* \"#utility.yul\":3094:3202   */\n    tag_638:\n        /* \"#utility.yul\":3171:3195   */\n      tag_713\n        /* \"#utility.yul\":3189:3194   */\n      dup2\n        /* \"#utility.yul\":3171:3195   */\n      tag_626\n      jump\t// in\n    tag_713:\n        /* \"#utility.yul\":3166:3169   */\n      dup3\n        /* \"#utility.yul\":3159:3196   */\n      mstore\n        /* \"#utility.yul\":3094:3202   */\n      pop\n      pop\n      jump\t// out\n        /* \"#utility.yul\":3208:3387   */\n    tag_639:\n        /* \"#utility.yul\":3277:3287   */\n      0x00\n        /* \"#utility.yul\":3298:3344   */\n      tag_715\n        /* \"#utility.yul\":3340:3343   */\n      dup4\n        /* \"#utility.yul\":3332:3338   */\n      dup4\n        /* \"#utility.yul\":3298:3344   */\n      tag_638\n      jump\t// in\n    tag_715:\n        /* \"#utility.yul\":3376:3380   */\n      0x20\n        /* \"#utility.yul\":3371:3374   */\n      dup4\n        /* \"#utility.yul\":3367:3381   */\n      add\n        /* \"#utility.yul\":3353:3381   */\n      swap1\n      pop\n        /* \"#utility.yul\":3208:3387   */\n      swap3\n      swap2\n      pop\n      pop\n      jump\t// out\n        /* \"#utility.yul\":3393:3506   */\n    tag_640:\n        /* \"#utility.yul\":3463:3467   */\n      0x00\n        /* \"#utility.yul\":3495:3499   */\n      0x20\n        /* \"#utility.yul\":3490:3493   */\n      dup3\n        /* \"#utility.yul\":3486:3500   */\n      add\n        /* \"#utility.yul\":3478:3500   */\n      swap1\n      pop\n        /* \"#utility.yul\":3393:3506   */\n      swap2\n      swap1\n      pop\n      jump\t// out\n        /* \"#utility.yul\":3542:4274   */\n    tag_641:\n        /* \"#utility.yul\":3661:3664   */\n      0x00\n        /* \"#utility.yul\":3690:3744   */\n      tag_718\n        /* \"#utility.yul\":3738:3743   */\n      dup3\n        /* \"#utility.yul\":3690:3744   */\n      tag_635\n      jump\t// in\n    tag_718:\n        /* \"#utility.yul\":3760:3846   */\n      tag_719\n        /* \"#utility.yul\":3839:3845   */\n      dup2\n        /* \"#utility.yul\":3834:3837   */\n      dup6\n        /* \"#utility.yul\":3760:3846   */\n      tag_636\n      jump\t// in\n    tag_719:\n        /* \"#utility.yul\":3753:3846   */\n      swap4\n      pop\n        /* \"#utility.yul\":3870:3926   */\n      tag_720\n        /* \"#utility.yul\":3920:3925   */\n      dup4\n        /* \"#utility.yul\":3870:3926   */\n      tag_637\n      jump\t// in\n    tag_720:\n        /* \"#utility.yul\":3949:3956   */\n      dup1\n        /* \"#utility.yul\":3980:3981   */\n      0x00\n        /* \"#utility.yul\":3965:4249   */\n    tag_721:\n        /* \"#utility.yul\":3990:3996   */\n      dup4\n        /* \"#utility.yul\":3987:3988   */\n      dup2\n        /* \"#utility.yul\":3984:3997   */\n      lt\n        /* \"#utility.yul\":3965:4249   */\n      iszero\n      tag_723\n      jumpi\n        /* \"#utility.yul\":4066:4072   */\n      dup2\n        /* \"#utility.yul\":4060:4073   */\n      mload\n        /* \"#utility.yul\":4093:4156   */\n      tag_724\n        /* \"#utility.yul\":4152:4155   */\n      dup9\n        /* \"#utility.yul\":4137:4150   */\n      dup3\n        /* \"#utility.yul\":4093:4156   */\n      tag_639\n      jump\t// in\n    tag_724:\n        /* \"#utility.yul\":4086:4156   */\n      swap8\n      pop\n        /* \"#utility.yul\":4179:4239   */\n      tag_725\n        /* \"#utility.yul\":4232:4238   */\n      dup4\n        /* \"#utility.yul\":4179:4239   */\n      tag_640\n      jump\t// in\n    tag_725:\n        /* \"#utility.yul\":4169:4239   */\n      swap3\n      pop\n        /* \"#utility.yul\":4025:4249   */\n      pop\n        /* \"#utility.yul\":4012:4013   */\n      0x01\n        /* \"#utility.yul\":4009:4010   */\n      dup2\n        /* \"#utility.yul\":4005:4014   */\n      add\n        /* \"#utility.yul\":4000:4014   */\n      swap1\n      pop\n        /* \"#utility.yul\":3965:4249   */\n      jump(tag_721)\n    tag_723:\n        /* \"#utility.yul\":3969:3983   */\n      pop\n        /* \"#utility.yul\":4265:4268   */\n      dup6\n        /* \"#utility.yul\":4258:4268   */\n      swap4\n      pop\n        /* \"#utility.yul\":3666:4274   */\n      pop\n      pop\n      pop\n        /* \"#utility.yul\":3542:4274   */\n      swap3\n      swap2\n      pop\n      pop\n      jump\t// out\n        /* \"#utility.yul\":4280:4653   */\n    tag_56:\n        /* \"#utility.yul\":4423:4427   */\n      0x00\n        /* \"#utility.yul\":4461:4463   */\n      0x20\n        /* \"#utility.yul\":4450:4459   */\n      dup3\n        /* \"#utility.yul\":4446:4464   */\n      add\n        /* \"#utility.yul\":4438:4464   */\n      swap1\n      pop\n        /* \"#utility.yul\":4510:4519   */\n      dup2\n        /* \"#utility.yul\":4504:4508   */\n      dup2\n        /* \"#utility.yul\":4500:4520   */\n      sub\n        /* \"#utility.yul\":4496:4497   */\n      0x00\n        /* \"#utility.yul\":4485:4494   */\n      dup4\n        /* \"#utility.yul\":4481:4498   */\n      add\n        /* \"#utility.yul\":4474:4521   */\n      mstore\n        /* \"#utility.yul\":4538:4646   */\n      tag_727\n        /* \"#utility.yul\":4641:4645   */\n      dup2\n        /* \"#utility.yul\":4632:4638   */\n      dup5\n        /* \"#utility.yul\":4538:4646   */\n      tag_641\n      jump\t// in\n    tag_727:\n        /* \"#utility.yul\":4530:4646   */\n      swap1\n      pop\n        /* \"#utility.yul\":4280:4653   */\n      swap3\n      swap2\n      pop\n      pop\n      jump\t// out\n        /* \"#utility.yul\":4659:4776   */\n    tag_642:\n        /* \"#utility.yul\":4768:4769   */\n      0x00\n        /* \"#utility.yul\":4765:4766   */\n      dup1\n        /* \"#utility.yul\":4758:4770   */\n      revert\n        /* \"#utility.yul\":4782:4899   */\n    tag_643:\n        /* \"#utility.yul\":4891:4892   */\n      0x00\n        /* \"#utility.yul\":4888:4889   */\n      dup1\n        /* \"#utility.yul\":4881:4893   */\n      revert\n        /* \"#utility.yul\":4905:5007   */\n    tag_644:\n        /* \"#utility.yul\":4946:4952   */\n      0x00\n        /* \"#utility.yul\":4997:4999   */\n      0x1f\n        /* \"#utility.yul\":4993:5000   */\n      not\n        /* \"#utility.yul\":4988:4990   */\n      0x1f\n        /* \"#utility.yul\":4981:4986   */\n      dup4\n        /* \"#utility.yul\":4977:4991   */\n      add\n        /* \"#utility.yul\":4973:5001   */\n      and\n        /* \"#utility.yul\":4963:5001   */\n      swap1\n      pop\n        /* \"#utility.yul\":4905:5007   */\n      swap2\n      swap1\n      pop\n      jump\t// out\n        /* \"#utility.yul\":5013:5193   */\n    tag_645:\n        /* \"#utility.yul\":5061:5138   */\n      0x4e487b7100000000000000000000000000000000000000000000000000000000\n        /* \"#utility.yul\":5058:5059   */\n      0x00\n        /* \"#utility.yul\":5051:5139   */\n      mstore\n        /* \"#utility.yul\":5158:5162   */\n      0x41\n        /* \"#utility.yul\":5155:5156   */\n      0x04\n        /* \"#utility.yul\":5148:5163   */\n      mstore\n        /* \"#utility.yul\":5182:5186   */\n      0x24\n        /* \"#utility.yul\":5179:5180   */\n      0x00\n        /* \"#utility.yul\":5172:5187   */\n      revert\n        /* \"#utility.yul\":5199:5480   */\n    tag_646:\n        /* \"#utility.yul\":5282:5309   */\n      tag_733\n        /* \"#utility.yul\":5304:5308   */\n      dup3\n        /* \"#utility.yul\":5282:5309   */\n      tag_644\n      jump\t// in\n    tag_733:\n        /* \"#utility.yul\":5274:5280   */\n      dup2\n        /* \"#utility.yul\":5270:5310   */\n      add\n        /* \"#utility.yul\":5412:5418   */\n      dup2\n        /* \"#utility.yul\":5400:5410   */\n      dup2\n        /* \"#utility.yul\":5397:5419   */\n      lt\n        /* \"#utility.yul\":5376:5394   */\n      0xffffffffffffffff\n        /* \"#utility.yul\":5364:5374   */\n      dup3\n        /* \"#utility.yul\":5361:5395   */\n      gt\n        /* \"#utility.yul\":5358:5420   */\n      or\n        /* \"#utility.yul\":5355:5443   */\n      iszero\n      tag_734\n      jumpi\n        /* \"#utility.yul\":5423:5441   */\n      tag_735\n      tag_645\n      jump\t// in\n    tag_735:\n        /* \"#utility.yul\":5355:5443   */\n    tag_734:\n        /* \"#utility.yul\":5463:5473   */\n      dup1\n        /* \"#utility.yul\":5459:5461   */\n      0x40\n        /* \"#utility.yul\":5452:5474   */\n      mstore\n        /* \"#utility.yul\":5242:5480   */\n      pop\n        /* \"#utility.yul\":5199:5480   */\n      pop\n      pop\n      jump\t// out\n        /* \"#utility.yul\":5486:5615   */\n    tag_647:\n        /* \"#utility.yul\":5520:5526   */\n      0x00\n        /* \"#utility.yul\":5547:5567   */\n      tag_737\n      tag_622\n      jump\t// in\n    tag_737:\n        /* \"#utility.yul\":5537:5567   */\n      swap1\n      pop\n        /* \"#utility.yul\":5576:5609   */\n      tag_738\n        /* \"#utility.yul\":5604:5608   */\n      dup3\n        /* \"#utility.yul\":5596:5602   */\n      dup3\n        /* \"#utility.yul\":5576:5609   */\n      tag_646\n      jump\t// in\n    tag_738:\n        /* \"#utility.yul\":5486:5615   */\n      swap2\n      swap1\n      pop\n      jump\t// out\n        /* \"#utility.yul\":5621:5929   */\n    tag_648:\n        /* \"#utility.yul\":5683:5687   */\n      0x00\n        /* \"#utility.yul\":5773:5791   */\n      0xffffffffffffffff\n        /* \"#utility.yul\":5765:5771   */\n      dup3\n        /* \"#utility.yul\":5762:5792   */\n      gt\n        /* \"#utility.yul\":5759:5815   */\n      iszero\n      tag_740\n      jumpi\n        /* \"#utility.yul\":5795:5813   */\n      tag_741\n      tag_645\n      jump\t// in\n    tag_741:\n        /* \"#utility.yul\":5759:5815   */\n    tag_740:\n        /* \"#utility.yul\":5833:5862   */\n      tag_742\n        /* \"#utility.yul\":5855:5861   */\n      dup3\n        /* \"#utility.yul\":5833:5862   */\n      tag_644\n      jump\t// in\n    tag_742:\n        /* \"#utility.yul\":5825:5862   */\n      swap1\n      pop\n        /* \"#utility.yul\":5917:5921   */\n      0x20\n        /* \"#utility.yul\":5911:5915   */\n      dup2\n        /* \"#utility.yul\":5907:5922   */\n      add\n        /* \"#utility.yul\":5899:5922   */\n      swap1\n      pop\n        /* \"#utility.yul\":5621:5929   */\n      swap2\n      swap1\n      pop\n      jump\t// out\n        /* \"#utility.yul\":5935:6081   */\n    tag_649:\n        /* \"#utility.yul\":6032:6038   */\n      dup3\n        /* \"#utility.yul\":6027:6030   */\n      dup2\n        /* \"#utility.yul\":6022:6025   */\n      dup4\n        /* \"#utility.yul\":6009:6039   */\n      calldatacopy\n        /* \"#utility.yul\":6073:6074   */\n      0x00\n        /* \"#utility.yul\":6064:6070   */\n      dup4\n        /* \"#utility.yul\":6059:6062   */\n      dup4\n        /* \"#utility.yul\":6055:6071   */\n      add\n        /* \"#utility.yul\":6048:6075   */\n      mstore\n        /* \"#utility.yul\":5935:6081   */\n      pop\n      pop\n      pop\n      jump\t// out\n        /* \"#utility.yul\":6087:6512   */\n    tag_650:\n        /* \"#utility.yul\":6165:6170   */\n      0x00\n        /* \"#utility.yul\":6190:6256   */\n      tag_745\n        /* \"#utility.yul\":6206:6255   */\n      tag_746\n        /* \"#utility.yul\":6248:6254   */\n      dup5\n        /* \"#utility.yul\":6206:6255   */\n      tag_648\n      jump\t// in\n    tag_746:\n        /* \"#utility.yul\":6190:6256   */\n      tag_647\n      jump\t// in\n    tag_745:\n        /* \"#utility.yul\":6181:6256   */\n      swap1\n      pop\n        /* \"#utility.yul\":6279:6285   */\n      dup3\n        /* \"#utility.yul\":6272:6277   */\n      dup2\n        /* \"#utility.yul\":6265:6286   */\n      mstore\n        /* \"#utility.yul\":6317:6321   */\n      0x20\n        /* \"#utility.yul\":6310:6315   */\n      dup2\n        /* \"#utility.yul\":6306:6322   */\n      add\n        /* \"#utility.yul\":6355:6358   */\n      dup5\n        /* \"#utility.yul\":6346:6352   */\n      dup5\n        /* \"#utility.yul\":6341:6344   */\n      dup5\n        /* \"#utility.yul\":6337:6353   */\n      add\n        /* \"#utility.yul\":6334:6359   */\n      gt\n        /* \"#utility.yul\":6331:6443   */\n      iszero\n      tag_747\n      jumpi\n        /* \"#utility.yul\":6362:6441   */\n      tag_748\n      tag_643\n      jump\t// in\n    tag_748:\n        /* \"#utility.yul\":6331:6443   */\n    tag_747:\n        /* \"#utility.yul\":6452:6506   */\n      tag_749\n        /* \"#utility.yul\":6499:6505   */\n      dup5\n        /* \"#utility.yul\":6494:6497   */\n      dup3\n        /* \"#utility.yul\":6489:6492   */\n      dup6\n        /* \"#utility.yul\":6452:6506   */\n      tag_649\n      jump\t// in\n    tag_749:\n        /* \"#utility.yul\":6171:6512   */\n      pop\n        /* \"#utility.yul\":6087:6512   */\n      swap4\n      swap3\n      pop\n      pop\n      pop\n      jump\t// out\n        /* \"#utility.yul\":6532:6872   */\n    tag_651:\n        /* \"#utility.yul\":6588:6593   */\n      0x00\n        /* \"#utility.yul\":6637:6640   */\n      dup3\n        /* \"#utility.yul\":6630:6634   */\n      0x1f\n        /* \"#utility.yul\":6622:6628   */\n      dup4\n        /* \"#utility.yul\":6618:6635   */\n      add\n        /* \"#utility.yul\":6614:6641   */\n      slt\n        /* \"#utility.yul\":6604:6726   */\n      tag_751\n      jumpi\n        /* \"#utility.yul\":6645:6724   */\n      tag_752\n      tag_642\n      jump\t// in\n    tag_752:\n        /* \"#utility.yul\":6604:6726   */\n    tag_751:\n        /* \"#utility.yul\":6762:6768   */\n      dup2\n        /* \"#utility.yul\":6749:6769   */\n      calldataload\n        /* \"#utility.yul\":6787:6866   */\n      tag_753\n        /* \"#utility.yul\":6862:6865   */\n      dup5\n        /* \"#utility.yul\":6854:6860   */\n      dup3\n        /* \"#utility.yul\":6847:6851   */\n      0x20\n        /* \"#utility.yul\":6839:6845   */\n      dup7\n        /* \"#utility.yul\":6835:6852   */\n      add\n        /* \"#utility.yul\":6787:6866   */\n      tag_650\n      jump\t// in\n    tag_753:\n        /* \"#utility.yul\":6778:6866   */\n      swap2\n      pop\n        /* \"#utility.yul\":6594:6872   */\n      pop\n        /* \"#utility.yul\":6532:6872   */\n      swap3\n      swap2\n      pop\n      pop\n      jump\t// out\n        /* \"#utility.yul\":6878:9161   */\n    tag_59:\n        /* \"#utility.yul\":7051:7057   */\n      0x00\n        /* \"#utility.yul\":7059:7065   */\n      dup1\n        /* \"#utility.yul\":7067:7073   */\n      0x00\n        /* \"#utility.yul\":7075:7081   */\n      dup1\n        /* \"#utility.yul\":7083:7089   */\n      0x00\n        /* \"#utility.yul\":7091:7097   */\n      dup1\n        /* \"#utility.yul\":7099:7105   */\n      0x00\n        /* \"#utility.yul\":7148:7151   */\n      0xe0\n        /* \"#utility.yul\":7136:7145   */\n      dup9\n        /* \"#utility.yul\":7127:7134   */\n      dup11\n        /* \"#utility.yul\":7123:7146   */\n      sub\n        /* \"#utility.yul\":7119:7152   */\n      slt\n        /* \"#utility.yul\":7116:7236   */\n      iszero\n      tag_755\n      jumpi\n        /* \"#utility.yul\":7155:7234   */\n      tag_756\n      tag_623\n      jump\t// in\n    tag_756:\n        /* \"#utility.yul\":7116:7236   */\n    tag_755:\n        /* \"#utility.yul\":7275:7276   */\n      0x00\n        /* \"#utility.yul\":7300:7353   */\n      tag_757\n        /* \"#utility.yul\":7345:7352   */\n      dup11\n        /* \"#utility.yul\":7336:7342   */\n      dup3\n        /* \"#utility.yul\":7325:7334   */\n      dup12\n        /* \"#utility.yul\":7321:7343   */\n      add\n        /* \"#utility.yul\":7300:7353   */\n      tag_628\n      jump\t// in\n    tag_757:\n        /* \"#utility.yul\":7290:7353   */\n      swap8\n      pop\n        /* \"#utility.yul\":7246:7363   */\n      pop\n        /* \"#utility.yul\":7430:7432   */\n      0x20\n        /* \"#utility.yul\":7419:7428   */\n      dup9\n        /* \"#utility.yul\":7415:7433   */\n      add\n        /* \"#utility.yul\":7402:7434   */\n      calldataload\n        /* \"#utility.yul\":7461:7479   */\n      0xffffffffffffffff\n        /* \"#utility.yul\":7453:7459   */\n      dup2\n        /* \"#utility.yul\":7450:7480   */\n      gt\n        /* \"#utility.yul\":7447:7564   */\n      iszero\n      tag_758\n      jumpi\n        /* \"#utility.yul\":7483:7562   */\n      tag_759\n      tag_624\n      jump\t// in\n    tag_759:\n        /* \"#utility.yul\":7447:7564   */\n    tag_758:\n        /* \"#utility.yul\":7588:7651   */\n      tag_760\n        /* \"#utility.yul\":7643:7650   */\n      dup11\n        /* \"#utility.yul\":7634:7640   */\n      dup3\n        /* \"#utility.yul\":7623:7632   */\n      dup12\n        /* \"#utility.yul\":7619:7641   */\n      add\n        /* \"#utility.yul\":7588:7651   */\n      tag_651\n      jump\t// in\n    tag_760:\n        /* \"#utility.yul\":7578:7651   */\n      swap7\n      pop\n        /* \"#utility.yul\":7373:7661   */\n      pop\n        /* \"#utility.yul\":7728:7730   */\n      0x40\n        /* \"#utility.yul\":7717:7726   */\n      dup9\n        /* \"#utility.yul\":7713:7731   */\n      add\n        /* \"#utility.yul\":7700:7732   */\n      calldataload\n        /* \"#utility.yul\":7759:7777   */\n      0xffffffffffffffff\n        /* \"#utility.yul\":7751:7757   */\n      dup2\n        /* \"#utility.yul\":7748:7778   */\n      gt\n        /* \"#utility.yul\":7745:7862   */\n      iszero\n      tag_761\n      jumpi\n        /* \"#utility.yul\":7781:7860   */\n      tag_762\n      tag_624\n      jump\t// in\n    tag_762:\n        /* \"#utility.yul\":7745:7862   */\n    tag_761:\n        /* \"#utility.yul\":7886:7949   */\n      tag_763\n        /* \"#utility.yul\":7941:7948   */\n      dup11\n        /* \"#utility.yul\":7932:7938   */\n      dup3\n        /* \"#utility.yul\":7921:7930   */\n      dup12\n        /* \"#utility.yul\":7917:7939   */\n      add\n        /* \"#utility.yul\":7886:7949   */\n      tag_651\n      jump\t// in\n    tag_763:\n        /* \"#utility.yul\":7876:7949   */\n      swap6\n      pop\n        /* \"#utility.yul\":7671:7959   */\n      pop\n        /* \"#utility.yul\":8026:8028   */\n      0x60\n        /* \"#utility.yul\":8015:8024   */\n      dup9\n        /* \"#utility.yul\":8011:8029   */\n      add\n        /* \"#utility.yul\":7998:8030   */\n      calldataload\n        /* \"#utility.yul\":8057:8075   */\n      0xffffffffffffffff\n        /* \"#utility.yul\":8049:8055   */\n      dup2\n        /* \"#utility.yul\":8046:8076   */\n      gt\n        /* \"#utility.yul\":8043:8160   */\n      iszero\n      tag_764\n      jumpi\n        /* \"#utility.yul\":8079:8158   */\n      tag_765\n      tag_624\n      jump\t// in\n    tag_765:\n        /* \"#utility.yul\":8043:8160   */\n    tag_764:\n        /* \"#utility.yul\":8184:8247   */\n      tag_766\n        /* \"#utility.yul\":8239:8246   */\n      dup11\n        /* \"#utility.yul\":8230:8236   */\n      dup3\n        /* \"#utility.yul\":8219:8228   */\n      dup12\n        /* \"#utility.yul\":8215:8237   */\n      add\n        /* \"#utility.yul\":8184:8247   */\n      tag_651\n      jump\t// in\n    tag_766:\n        /* \"#utility.yul\":8174:8247   */\n      swap5\n      pop\n        /* \"#utility.yul\":7969:8257   */\n      pop\n        /* \"#utility.yul\":8324:8327   */\n      0x80\n        /* \"#utility.yul\":8313:8322   */\n      dup9\n        /* \"#utility.yul\":8309:8328   */\n      add\n        /* \"#utility.yul\":8296:8329   */\n      calldataload\n        /* \"#utility.yul\":8356:8374   */\n      0xffffffffffffffff\n        /* \"#utility.yul\":8348:8354   */\n      dup2\n        /* \"#utility.yul\":8345:8375   */\n      gt\n        /* \"#utility.yul\":8342:8459   */\n      iszero\n      tag_767\n      jumpi\n        /* \"#utility.yul\":8378:8457   */\n      tag_768\n      tag_624\n      jump\t// in\n    tag_768:\n        /* \"#utility.yul\":8342:8459   */\n    tag_767:\n        /* \"#utility.yul\":8483:8546   */\n      tag_769\n        /* \"#utility.yul\":8538:8545   */\n      dup11\n        /* \"#utility.yul\":8529:8535   */\n      dup3\n        /* \"#utility.yul\":8518:8527   */\n      dup12\n        /* \"#utility.yul\":8514:8536   */\n      add\n        /* \"#utility.yul\":8483:8546   */\n      tag_651\n      jump\t// in\n    tag_769:\n        /* \"#utility.yul\":8473:8546   */\n      swap4\n      pop\n        /* \"#utility.yul\":8267:8556   */\n      pop\n        /* \"#utility.yul\":8623:8626   */\n      0xa0\n        /* \"#utility.yul\":8612:8621   */\n      dup9\n        /* \"#utility.yul\":8608:8627   */\n      add\n        /* \"#utility.yul\":8595:8628   */\n      calldataload\n        /* \"#utility.yul\":8655:8673   */\n      0xffffffffffffffff\n        /* \"#utility.yul\":8647:8653   */\n      dup2\n        /* \"#utility.yul\":8644:8674   */\n      gt\n        /* \"#utility.yul\":8641:8758   */\n      iszero\n      tag_770\n      jumpi\n        /* \"#utility.yul\":8677:8756   */\n      tag_771\n      tag_624\n      jump\t// in\n    tag_771:\n        /* \"#utility.yul\":8641:8758   */\n    tag_770:\n        /* \"#utility.yul\":8782:8845   */\n      tag_772\n        /* \"#utility.yul\":8837:8844   */\n      dup11\n        /* \"#utility.yul\":8828:8834   */\n      dup3\n        /* \"#utility.yul\":8817:8826   */\n      dup12\n        /* \"#utility.yul\":8813:8835   */\n      add\n        /* \"#utility.yul\":8782:8845   */\n      tag_651\n      jump\t// in\n    tag_772:\n        /* \"#utility.yul\":8772:8845   */\n      swap3\n      pop\n        /* \"#utility.yul\":8566:8855   */\n      pop\n        /* \"#utility.yul\":8922:8925   */\n      0xc0\n        /* \"#utility.yul\":8911:8920   */\n      dup9\n        /* \"#utility.yul\":8907:8926   */\n      add\n        /* \"#utility.yul\":8894:8927   */\n      calldataload\n        /* \"#utility.yul\":8954:8972   */\n      0xffffffffffffffff\n        /* \"#utility.yul\":8946:8952   */\n      dup2\n        /* \"#utility.yul\":8943:8973   */\n      gt\n        /* \"#utility.yul\":8940:9057   */\n      iszero\n      tag_773\n      jumpi\n        /* \"#utility.yul\":8976:9055   */\n      tag_774\n      tag_624\n      jump\t// in\n    tag_774:\n        /* \"#utility.yul\":8940:9057   */\n    tag_773:\n        /* \"#utility.yul\":9081:9144   */\n      tag_775\n        /* \"#utility.yul\":9136:9143   */\n      dup11\n        /* \"#utility.yul\":9127:9133   */\n      dup3\n        /* \"#utility.yul\":9116:9125   */\n      dup12\n        /* \"#utility.yul\":9112:9134   */\n      add\n        /* \"#utility.yul\":9081:9144   */\n      tag_651\n      jump\t// in\n    tag_775:\n        /* \"#utility.yul\":9071:9144   */\n      swap2\n      pop\n        /* \"#utility.yul\":8865:9154   */\n      pop\n        /* \"#utility.yul\":6878:9161   */\n      swap3\n      swap6\n      swap9\n      swap2\n      swap5\n      swap8\n      pop\n      swap3\n      swap6\n      pop\n      jump\t// out\n        /* \"#utility.yul\":9167:9285   */\n    tag_652:\n        /* \"#utility.yul\":9254:9278   */\n      tag_777\n        /* \"#utility.yul\":9272:9277   */\n      dup2\n        /* \"#utility.yul\":9254:9278   */\n      tag_631\n      jump\t// in\n    tag_777:\n        /* \"#utility.yul\":9249:9252   */\n      dup3\n        /* \"#utility.yul\":9242:9279   */\n      mstore\n        /* \"#utility.yul\":9167:9285   */\n      pop\n      pop\n      jump\t// out\n        /* \"#utility.yul\":9291:9513   */\n    tag_64:\n        /* \"#utility.yul\":9384:9388   */\n      0x00\n        /* \"#utility.yul\":9422:9424   */\n      0x20\n        /* \"#utility.yul\":9411:9420   */\n      dup3\n        /* \"#utility.yul\":9407:9425   */\n      add\n        /* \"#utility.yul\":9399:9425   */\n      swap1\n      pop\n        /* \"#utility.yul\":9435:9506   */\n      tag_779\n        /* \"#utility.yul\":9503:9504   */\n      0x00\n        /* \"#utility.yul\":9492:9501   */\n      dup4\n        /* \"#utility.yul\":9488:9505   */\n      add\n        /* \"#utility.yul\":9479:9485   */\n      dup5\n        /* \"#utility.yul\":9435:9506   */\n      tag_652\n      jump\t// in\n    tag_779:\n        /* \"#utility.yul\":9291:9513   */\n      swap3\n      swap2\n      pop\n      pop\n      jump\t// out\n        /* \"#utility.yul\":9519:9618   */\n    tag_653:\n        /* \"#utility.yul\":9571:9577   */\n      0x00\n        /* \"#utility.yul\":9605:9610   */\n      dup2\n        /* \"#utility.yul\":9599:9611   */\n      mload\n        /* \"#utility.yul\":9589:9611   */\n      swap1\n      pop\n        /* \"#utility.yul\":9519:9618   */\n      swap2\n      swap1\n      pop\n      jump\t// out\n        /* \"#utility.yul\":9624:9793   */\n    tag_654:\n        /* \"#utility.yul\":9708:9719   */\n      0x00\n        /* \"#utility.yul\":9742:9748   */\n      dup3\n        /* \"#utility.yul\":9737:9740   */\n      dup3\n        /* \"#utility.yul\":9730:9749   */\n      mstore\n        /* \"#utility.yul\":9782:9786   */\n      0x20\n        /* \"#utility.yul\":9777:9780   */\n      dup3\n        /* \"#utility.yul\":9773:9787   */\n      add\n        /* \"#utility.yul\":9758:9787   */\n      swap1\n      pop\n        /* \"#utility.yul\":9624:9793   */\n      swap3\n      swap2\n      pop\n      pop\n      jump\t// out\n        /* \"#utility.yul\":9799:10045   */\n    tag_655:\n        /* \"#utility.yul\":9880:9881   */\n      0x00\n        /* \"#utility.yul\":9890:10003   */\n    tag_783:\n        /* \"#utility.yul\":9904:9910   */\n      dup4\n        /* \"#utility.yul\":9901:9902   */\n      dup2\n        /* \"#utility.yul\":9898:9911   */\n      lt\n        /* \"#utility.yul\":9890:10003   */\n      iszero\n      tag_785\n      jumpi\n        /* \"#utility.yul\":9989:9990   */\n      dup1\n        /* \"#utility.yul\":9984:9987   */\n      dup3\n        /* \"#utility.yul\":9980:9991   */\n      add\n        /* \"#utility.yul\":9974:9992   */\n      mload\n        /* \"#utility.yul\":9970:9971   */\n      dup2\n        /* \"#utility.yul\":9965:9968   */\n      dup5\n        /* \"#utility.yul\":9961:9972   */\n      add\n        /* \"#utility.yul\":9954:9993   */\n      mstore\n        /* \"#utility.yul\":9926:9928   */\n      0x20\n        /* \"#utility.yul\":9923:9924   */\n      dup2\n        /* \"#utility.yul\":9919:9929   */\n      add\n        /* \"#utility.yul\":9914:9929   */\n      swap1\n      pop\n        /* \"#utility.yul\":9890:10003   */\n      jump(tag_783)\n    tag_785:\n        /* \"#utility.yul\":10037:10038   */\n      0x00\n        /* \"#utility.yul\":10028:10034   */\n      dup5\n        /* \"#utility.yul\":10023:10026   */\n      dup5\n        /* \"#utility.yul\":10019:10035   */\n      add\n        /* \"#utility.yul\":10012:10039   */\n      mstore\n        /* \"#utility.yul\":9861:10045   */\n      pop\n        /* \"#utility.yul\":9799:10045   */\n      pop\n      pop\n      pop\n      jump\t// out\n        /* \"#utility.yul\":10051:10428   */\n    tag_656:\n        /* \"#utility.yul\":10139:10142   */\n      0x00\n        /* \"#utility.yul\":10167:10206   */\n      tag_787\n        /* \"#utility.yul\":10200:10205   */\n      dup3\n        /* \"#utility.yul\":10167:10206   */\n      tag_653\n      jump\t// in\n    tag_787:\n        /* \"#utility.yul\":10222:10293   */\n      tag_788\n        /* \"#utility.yul\":10286:10292   */\n      dup2\n        /* \"#utility.yul\":10281:10284   */\n      dup6\n        /* \"#utility.yul\":10222:10293   */\n      tag_654\n      jump\t// in\n    tag_788:\n        /* \"#utility.yul\":10215:10293   */\n      swap4\n      pop\n        /* \"#utility.yul\":10302:10367   */\n      tag_789\n        /* \"#utility.yul\":10360:10366   */\n      dup2\n        /* \"#utility.yul\":10355:10358   */\n      dup6\n        /* \"#utility.yul\":10348:10352   */\n      0x20\n        /* \"#utility.yul\":10341:10346   */\n      dup7\n        /* \"#utility.yul\":10337:10353   */\n      add\n        /* \"#utility.yul\":10302:10367   */\n      tag_655\n      jump\t// in\n    tag_789:\n        /* \"#utility.yul\":10392:10421   */\n      tag_790\n        /* \"#utility.yul\":10414:10420   */\n      dup2\n        /* \"#utility.yul\":10392:10421   */\n      tag_644\n      jump\t// in\n    tag_790:\n        /* \"#utility.yul\":10387:10390   */\n      dup5\n        /* \"#utility.yul\":10383:10422   */\n      add\n        /* \"#utility.yul\":10376:10422   */\n      swap2\n      pop\n        /* \"#utility.yul\":10143:10428   */\n      pop\n        /* \"#utility.yul\":10051:10428   */\n      swap3\n      swap2\n      pop\n      pop\n      jump\t// out\n        /* \"#utility.yul\":10434:11755   */\n    tag_75:\n        /* \"#utility.yul\":10787:10791   */\n      0x00\n        /* \"#utility.yul\":10825:10828   */\n      0xc0\n        /* \"#utility.yul\":10814:10823   */\n      dup3\n        /* \"#utility.yul\":10810:10829   */\n      add\n        /* \"#utility.yul\":10802:10829   */\n      swap1\n      pop\n        /* \"#utility.yul\":10875:10884   */\n      dup2\n        /* \"#utility.yul\":10869:10873   */\n      dup2\n        /* \"#utility.yul\":10865:10885   */\n      sub\n        /* \"#utility.yul\":10861:10862   */\n      0x00\n        /* \"#utility.yul\":10850:10859   */\n      dup4\n        /* \"#utility.yul\":10846:10863   */\n      add\n        /* \"#utility.yul\":10839:10886   */\n      mstore\n        /* \"#utility.yul\":10903:10981   */\n      tag_792\n        /* \"#utility.yul\":10976:10980   */\n      dup2\n        /* \"#utility.yul\":10967:10973   */\n      dup10\n        /* \"#utility.yul\":10903:10981   */\n      tag_656\n      jump\t// in\n    tag_792:\n        /* \"#utility.yul\":10895:10981   */\n      swap1\n      pop\n        /* \"#utility.yul\":11028:11037   */\n      dup2\n        /* \"#utility.yul\":11022:11026   */\n      dup2\n        /* \"#utility.yul\":11018:11038   */\n      sub\n        /* \"#utility.yul\":11013:11015   */\n      0x20\n        /* \"#utility.yul\":11002:11011   */\n      dup4\n        /* \"#utility.yul\":10998:11016   */\n      add\n        /* \"#utility.yul\":10991:11039   */\n      mstore\n        /* \"#utility.yul\":11056:11134   */\n      tag_793\n        /* \"#utility.yul\":11129:11133   */\n      dup2\n        /* \"#utility.yul\":11120:11126   */\n      dup9\n        /* \"#utility.yul\":11056:11134   */\n      tag_656\n      jump\t// in\n    tag_793:\n        /* \"#utility.yul\":11048:11134   */\n      swap1\n      pop\n        /* \"#utility.yul\":11181:11190   */\n      dup2\n        /* \"#utility.yul\":11175:11179   */\n      dup2\n        /* \"#utility.yul\":11171:11191   */\n      sub\n        /* \"#utility.yul\":11166:11168   */\n      0x40\n        /* \"#utility.yul\":11155:11164   */\n      dup4\n        /* \"#utility.yul\":11151:11169   */\n      add\n        /* \"#utility.yul\":11144:11192   */\n      mstore\n        /* \"#utility.yul\":11209:11287   */\n      tag_794\n        /* \"#utility.yul\":11282:11286   */\n      dup2\n        /* \"#utility.yul\":11273:11279   */\n      dup8\n        /* \"#utility.yul\":11209:11287   */\n      tag_656\n      jump\t// in\n    tag_794:\n        /* \"#utility.yul\":11201:11287   */\n      swap1\n      pop\n        /* \"#utility.yul\":11334:11343   */\n      dup2\n        /* \"#utility.yul\":11328:11332   */\n      dup2\n        /* \"#utility.yul\":11324:11344   */\n      sub\n        /* \"#utility.yul\":11319:11321   */\n      0x60\n        /* \"#utility.yul\":11308:11317   */\n      dup4\n        /* \"#utility.yul\":11304:11322   */\n      add\n        /* \"#utility.yul\":11297:11345   */\n      mstore\n        /* \"#utility.yul\":11362:11440   */\n      tag_795\n        /* \"#utility.yul\":11435:11439   */\n      dup2\n        /* \"#utility.yul\":11426:11432   */\n      dup7\n        /* \"#utility.yul\":11362:11440   */\n      tag_656\n      jump\t// in\n    tag_795:\n        /* \"#utility.yul\":11354:11440   */\n      swap1\n      pop\n        /* \"#utility.yul\":11488:11497   */\n      dup2\n        /* \"#utility.yul\":11482:11486   */\n      dup2\n        /* \"#utility.yul\":11478:11498   */\n      sub\n        /* \"#utility.yul\":11472:11475   */\n      0x80\n        /* \"#utility.yul\":11461:11470   */\n      dup4\n        /* \"#utility.yul\":11457:11476   */\n      add\n        /* \"#utility.yul\":11450:11499   */\n      mstore\n        /* \"#utility.yul\":11516:11594   */\n      tag_796\n        /* \"#utility.yul\":11589:11593   */\n      dup2\n        /* \"#utility.yul\":11580:11586   */\n      dup6\n        /* \"#utility.yul\":11516:11594   */\n      tag_656\n      jump\t// in\n    tag_796:\n        /* \"#utility.yul\":11508:11594   */\n      swap1\n      pop\n        /* \"#utility.yul\":11642:11651   */\n      dup2\n        /* \"#utility.yul\":11636:11640   */\n      dup2\n        /* \"#utility.yul\":11632:11652   */\n      sub\n        /* \"#utility.yul\":11626:11629   */\n      0xa0\n        /* \"#utility.yul\":11615:11624   */\n      dup4\n        /* \"#utility.yul\":11611:11630   */\n      add\n        /* \"#utility.yul\":11604:11653   */\n      mstore\n        /* \"#utility.yul\":11670:11748   */\n      tag_797\n        /* \"#utility.yul\":11743:11747   */\n      dup2\n        /* \"#utility.yul\":11734:11740   */\n      dup5\n        /* \"#utility.yul\":11670:11748   */\n      tag_656\n      jump\t// in\n    tag_797:\n        /* \"#utility.yul\":11662:11748   */\n      swap1\n      pop\n        /* \"#utility.yul\":10434:11755   */\n      swap8\n      swap7\n      pop\n      pop\n      pop\n      pop\n      pop\n      pop\n      pop\n      jump\t// out\n        /* \"#utility.yul\":11761:13284   */\n    tag_80:\n        /* \"#utility.yul\":12162:12166   */\n      0x00\n        /* \"#utility.yul\":12200:12203   */\n      0xe0\n        /* \"#utility.yul\":12189:12198   */\n      dup3\n        /* \"#utility.yul\":12185:12204   */\n      add\n        /* \"#utility.yul\":12177:12204   */\n      swap1\n      pop\n        /* \"#utility.yul\":12250:12259   */\n      dup2\n        /* \"#utility.yul\":12244:12248   */\n      dup2\n        /* \"#utility.yul\":12240:12260   */\n      sub\n        /* \"#utility.yul\":12236:12237   */\n      0x00\n        /* \"#utility.yul\":12225:12234   */\n      dup4\n        /* \"#utility.yul\":12221:12238   */\n      add\n        /* \"#utility.yul\":12214:12261   */\n      mstore\n        /* \"#utility.yul\":12278:12356   */\n      tag_799\n        /* \"#utility.yul\":12351:12355   */\n      dup2\n        /* \"#utility.yul\":12342:12348   */\n      dup11\n        /* \"#utility.yul\":12278:12356   */\n      tag_656\n      jump\t// in\n    tag_799:\n        /* \"#utility.yul\":12270:12356   */\n      swap1\n      pop\n        /* \"#utility.yul\":12403:12412   */\n      dup2\n        /* \"#utility.yul\":12397:12401   */\n      dup2\n        /* \"#utility.yul\":12393:12413   */\n      sub\n        /* \"#utility.yul\":12388:12390   */\n      0x20\n        /* \"#utility.yul\":12377:12386   */\n      dup4\n        /* \"#utility.yul\":12373:12391   */\n      add\n        /* \"#utility.yul\":12366:12414   */\n      mstore\n        /* \"#utility.yul\":12431:12509   */\n      tag_800\n        /* \"#utility.yul\":12504:12508   */\n      dup2\n        /* \"#utility.yul\":12495:12501   */\n      dup10\n        /* \"#utility.yul\":12431:12509   */\n      tag_656\n      jump\t// in\n    tag_800:\n        /* \"#utility.yul\":12423:12509   */\n      swap1\n      pop\n        /* \"#utility.yul\":12556:12565   */\n      dup2\n        /* \"#utility.yul\":12550:12554   */\n      dup2\n        /* \"#utility.yul\":12546:12566   */\n      sub\n        /* \"#utility.yul\":12541:12543   */\n      0x40\n        /* \"#utility.yul\":12530:12539   */\n      dup4\n        /* \"#utility.yul\":12526:12544   */\n      add\n        /* \"#utility.yul\":12519:12567   */\n      mstore\n        /* \"#utility.yul\":12584:12662   */\n      tag_801\n        /* \"#utility.yul\":12657:12661   */\n      dup2\n        /* \"#utility.yul\":12648:12654   */\n      dup9\n        /* \"#utility.yul\":12584:12662   */\n      tag_656\n      jump\t// in\n    tag_801:\n        /* \"#utility.yul\":12576:12662   */\n      swap1\n      pop\n        /* \"#utility.yul\":12709:12718   */\n      dup2\n        /* \"#utility.yul\":12703:12707   */\n      dup2\n        /* \"#utility.yul\":12699:12719   */\n      sub\n        /* \"#utility.yul\":12694:12696   */\n      0x60\n        /* \"#utility.yul\":12683:12692   */\n      dup4\n        /* \"#utility.yul\":12679:12697   */\n      add\n        /* \"#utility.yul\":12672:12720   */\n      mstore\n        /* \"#utility.yul\":12737:12815   */\n      tag_802\n        /* \"#utility.yul\":12810:12814   */\n      dup2\n        /* \"#utility.yul\":12801:12807   */\n      dup8\n        /* \"#utility.yul\":12737:12815   */\n      tag_656\n      jump\t// in\n    tag_802:\n        /* \"#utility.yul\":12729:12815   */\n      swap1\n      pop\n        /* \"#utility.yul\":12863:12872   */\n      dup2\n        /* \"#utility.yul\":12857:12861   */\n      dup2\n        /* \"#utility.yul\":12853:12873   */\n      sub\n        /* \"#utility.yul\":12847:12850   */\n      0x80\n        /* \"#utility.yul\":12836:12845   */\n      dup4\n        /* \"#utility.yul\":12832:12851   */\n      add\n        /* \"#utility.yul\":12825:12874   */\n      mstore\n        /* \"#utility.yul\":12891:12969   */\n      tag_803\n        /* \"#utility.yul\":12964:12968   */\n      dup2\n        /* \"#utility.yul\":12955:12961   */\n      dup7\n        /* \"#utility.yul\":12891:12969   */\n      tag_656\n      jump\t// in\n    tag_803:\n        /* \"#utility.yul\":12883:12969   */\n      swap1\n      pop\n        /* \"#utility.yul\":13017:13026   */\n      dup2\n        /* \"#utility.yul\":13011:13015   */\n      dup2\n        /* \"#utility.yul\":13007:13027   */\n      sub\n        /* \"#utility.yul\":13001:13004   */\n      0xa0\n        /* \"#utility.yul\":12990:12999   */\n      dup4\n        /* \"#utility.yul\":12986:13005   */\n      add\n        /* \"#utility.yul\":12979:13028   */\n      mstore\n        /* \"#utility.yul\":13045:13123   */\n      tag_804\n        /* \"#utility.yul\":13118:13122   */\n      dup2\n        /* \"#utility.yul\":13109:13115   */\n      dup6\n        /* \"#utility.yul\":13045:13123   */\n      tag_656\n      jump\t// in\n    tag_804:\n        /* \"#utility.yul\":13037:13123   */\n      swap1\n      pop\n        /* \"#utility.yul\":13171:13180   */\n      dup2\n        /* \"#utility.yul\":13165:13169   */\n      dup2\n        /* \"#utility.yul\":13161:13181   */\n      sub\n        /* \"#utility.yul\":13155:13158   */\n      0xc0\n        /* \"#utility.yul\":13144:13153   */\n      dup4\n        /* \"#utility.yul\":13140:13159   */\n      add\n        /* \"#utility.yul\":13133:13182   */\n      mstore\n        /* \"#utility.yul\":13199:13277   */\n      tag_805\n        /* \"#utility.yul\":13272:13276   */\n      dup2\n        /* \"#utility.yul\":13263:13269   */\n      dup5\n        /* \"#utility.yul\":13199:13277   */\n      tag_656\n      jump\t// in\n    tag_805:\n        /* \"#utility.yul\":13191:13277   */\n      swap1\n      pop\n        /* \"#utility.yul\":11761:13284   */\n      swap9\n      swap8\n      pop\n      pop\n      pop\n      pop\n      pop\n      pop\n      pop\n      pop\n      jump\t// out\n        /* \"#utility.yul\":13290:17059   */\n    tag_101:\n        /* \"#utility.yul\":13549:13555   */\n      0x00\n        /* \"#utility.yul\":13557:13563   */\n      dup1\n        /* \"#utility.yul\":13565:13571   */\n      0x00\n        /* \"#utility.yul\":13573:13579   */\n      dup1\n        /* \"#utility.yul\":13581:13587   */\n      0x00\n        /* \"#utility.yul\":13589:13595   */\n      dup1\n        /* \"#utility.yul\":13597:13603   */\n      0x00\n        /* \"#utility.yul\":13605:13611   */\n      dup1\n        /* \"#utility.yul\":13613:13619   */\n      0x00\n        /* \"#utility.yul\":13621:13627   */\n      dup1\n        /* \"#utility.yul\":13629:13636   */\n      0x00\n        /* \"#utility.yul\":13679:13682   */\n      0x0160\n        /* \"#utility.yul\":13667:13676   */\n      dup13\n        /* \"#utility.yul\":13658:13665   */\n      dup15\n        /* \"#utility.yul\":13654:13677   */\n      sub\n        /* \"#utility.yul\":13650:13683   */\n      slt\n        /* \"#utility.yul\":13647:13767   */\n      iszero\n      tag_807\n      jumpi\n        /* \"#utility.yul\":13686:13765   */\n      tag_808\n      tag_623\n      jump\t// in\n    tag_808:\n        /* \"#utility.yul\":13647:13767   */\n    tag_807:\n        /* \"#utility.yul\":13834:13835   */\n      0x00\n        /* \"#utility.yul\":13823:13832   */\n      dup13\n        /* \"#utility.yul\":13819:13836   */\n      add\n        /* \"#utility.yul\":13806:13837   */\n      calldataload\n        /* \"#utility.yul\":13864:13882   */\n      0xffffffffffffffff\n        /* \"#utility.yul\":13856:13862   */\n      dup2\n        /* \"#utility.yul\":13853:13883   */\n      gt\n        /* \"#utility.yul\":13850:13967   */\n      iszero\n      tag_809\n      jumpi\n        /* \"#utility.yul\":13886:13965   */\n      tag_810\n      tag_624\n      jump\t// in\n    tag_810:\n        /* \"#utility.yul\":13850:13967   */\n    tag_809:\n        /* \"#utility.yul\":13991:14054   */\n      tag_811\n        /* \"#utility.yul\":14046:14053   */\n      dup15\n        /* \"#utility.yul\":14037:14043   */\n      dup3\n        /* \"#utility.yul\":14026:14035   */\n      dup16\n        /* \"#utility.yul\":14022:14044   */\n      add\n        /* \"#utility.yul\":13991:14054   */\n      tag_651\n      jump\t// in\n    tag_811:\n        /* \"#utility.yul\":13981:14054   */\n      swap12\n      pop\n        /* \"#utility.yul\":13777:14064   */\n      pop\n        /* \"#utility.yul\":14131:14133   */\n      0x20\n        /* \"#utility.yul\":14120:14129   */\n      dup13\n        /* \"#utility.yul\":14116:14134   */\n      add\n        /* \"#utility.yul\":14103:14135   */\n      calldataload\n        /* \"#utility.yul\":14162:14180   */\n      0xffffffffffffffff\n        /* \"#utility.yul\":14154:14160   */\n      dup2\n        /* \"#utility.yul\":14151:14181   */\n      gt\n        /* \"#utility.yul\":14148:14265   */\n      iszero\n      tag_812\n      jumpi\n        /* \"#utility.yul\":14184:14263   */\n      tag_813\n      tag_624\n      jump\t// in\n    tag_813:\n        /* \"#utility.yul\":14148:14265   */\n    tag_812:\n        /* \"#utility.yul\":14289:14352   */\n      tag_814\n        /* \"#utility.yul\":14344:14351   */\n      dup15\n        /* \"#utility.yul\":14335:14341   */\n      dup3\n        /* \"#utility.yul\":14324:14333   */\n      dup16\n        /* \"#utility.yul\":14320:14342   */\n      add\n        /* \"#utility.yul\":14289:14352   */\n      tag_651\n      jump\t// in\n    tag_814:\n        /* \"#utility.yul\":14279:14352   */\n      swap11\n      pop\n        /* \"#utility.yul\":14074:14362   */\n      pop\n        /* \"#utility.yul\":14429:14431   */\n      0x40\n        /* \"#utility.yul\":14418:14427   */\n      dup13\n        /* \"#utility.yul\":14414:14432   */\n      add\n        /* \"#utility.yul\":14401:14433   */\n      calldataload\n        /* \"#utility.yul\":14460:14478   */\n      0xffffffffffffffff\n        /* \"#utility.yul\":14452:14458   */\n      dup2\n        /* \"#utility.yul\":14449:14479   */\n      gt\n        /* \"#utility.yul\":14446:14563   */\n      iszero\n      tag_815\n      jumpi\n        /* \"#utility.yul\":14482:14561   */\n      tag_816\n      tag_624\n      jump\t// in\n    tag_816:\n        /* \"#utility.yul\":14446:14563   */\n    tag_815:\n        /* \"#utility.yul\":14587:14650   */\n      tag_817\n        /* \"#utility.yul\":14642:14649   */\n      dup15\n        /* \"#utility.yul\":14633:14639   */\n      dup3\n        /* \"#utility.yul\":14622:14631   */\n      dup16\n        /* \"#utility.yul\":14618:14640   */\n      add\n        /* \"#utility.yul\":14587:14650   */\n      tag_651\n      jump\t// in\n    tag_817:\n        /* \"#utility.yul\":14577:14650   */\n      swap10\n      pop\n        /* \"#utility.yul\":14372:14660   */\n      pop\n        /* \"#utility.yul\":14727:14729   */\n      0x60\n        /* \"#utility.yul\":14716:14725   */\n      dup13\n        /* \"#utility.yul\":14712:14730   */\n      add\n        /* \"#utility.yul\":14699:14731   */\n      calldataload\n        /* \"#utility.yul\":14758:14776   */\n      0xffffffffffffffff\n        /* \"#utility.yul\":14750:14756   */\n      dup2\n        /* \"#utility.yul\":14747:14777   */\n      gt\n        /* \"#utility.yul\":14744:14861   */\n      iszero\n      tag_818\n      jumpi\n        /* \"#utility.yul\":14780:14859   */\n      tag_819\n      tag_624\n      jump\t// in\n    tag_819:\n        /* \"#utility.yul\":14744:14861   */\n    tag_818:\n        /* \"#utility.yul\":14885:14948   */\n      tag_820\n        /* \"#utility.yul\":14940:14947   */\n      dup15\n        /* \"#utility.yul\":14931:14937   */\n      dup3\n        /* \"#utility.yul\":14920:14929   */\n      dup16\n        /* \"#utility.yul\":14916:14938   */\n      add\n        /* \"#utility.yul\":14885:14948   */\n      tag_651\n      jump\t// in\n    tag_820:\n        /* \"#utility.yul\":14875:14948   */\n      swap9\n      pop\n        /* \"#utility.yul\":14670:14958   */\n      pop\n        /* \"#utility.yul\":15025:15028   */\n      0x80\n        /* \"#utility.yul\":15014:15023   */\n      dup13\n        /* \"#utility.yul\":15010:15029   */\n      add\n        /* \"#utility.yul\":14997:15030   */\n      calldataload\n        /* \"#utility.yul\":15057:15075   */\n      0xffffffffffffffff\n        /* \"#utility.yul\":15049:15055   */\n      dup2\n        /* \"#utility.yul\":15046:15076   */\n      gt\n        /* \"#utility.yul\":15043:15160   */\n      iszero\n      tag_821\n      jumpi\n        /* \"#utility.yul\":15079:15158   */\n      tag_822\n      tag_624\n      jump\t// in\n    tag_822:\n        /* \"#utility.yul\":15043:15160   */\n    tag_821:\n        /* \"#utility.yul\":15184:15247   */\n      tag_823\n        /* \"#utility.yul\":15239:15246   */\n      dup15\n        /* \"#utility.yul\":15230:15236   */\n      dup3\n        /* \"#utility.yul\":15219:15228   */\n      dup16\n        /* \"#utility.yul\":15215:15237   */\n      add\n        /* \"#utility.yul\":15184:15247   */\n      tag_651\n      jump\t// in\n    tag_823:\n        /* \"#utility.yul\":15174:15247   */\n      swap8\n      pop\n        /* \"#utility.yul\":14968:15257   */\n      pop\n        /* \"#utility.yul\":15324:15327   */\n      0xa0\n        /* \"#utility.yul\":15313:15322   */\n      dup13\n        /* \"#utility.yul\":15309:15328   */\n      add\n        /* \"#utility.yul\":15296:15329   */\n      calldataload\n        /* \"#utility.yul\":15356:15374   */\n      0xffffffffffffffff\n        /* \"#utility.yul\":15348:15354   */\n      dup2\n        /* \"#utility.yul\":15345:15375   */\n      gt\n        /* \"#utility.yul\":15342:15459   */\n      iszero\n      tag_824\n      jumpi\n        /* \"#utility.yul\":15378:15457   */\n      tag_825\n      tag_624\n      jump\t// in\n    tag_825:\n        /* \"#utility.yul\":15342:15459   */\n    tag_824:\n        /* \"#utility.yul\":15483:15546   */\n      tag_826\n        /* \"#utility.yul\":15538:15545   */\n      dup15\n        /* \"#utility.yul\":15529:15535   */\n      dup3\n        /* \"#utility.yul\":15518:15527   */\n      dup16\n        /* \"#utility.yul\":15514:15536   */\n      add\n        /* \"#utility.yul\":15483:15546   */\n      tag_651\n      jump\t// in\n    tag_826:\n        /* \"#utility.yul\":15473:15546   */\n      swap7\n      pop\n        /* \"#utility.yul\":15267:15556   */\n      pop\n        /* \"#utility.yul\":15623:15626   */\n      0xc0\n        /* \"#utility.yul\":15612:15621   */\n      dup13\n        /* \"#utility.yul\":15608:15627   */\n      add\n        /* \"#utility.yul\":15595:15628   */\n      calldataload\n        /* \"#utility.yul\":15655:15673   */\n      0xffffffffffffffff\n        /* \"#utility.yul\":15647:15653   */\n      dup2\n        /* \"#utility.yul\":15644:15674   */\n      gt\n        /* \"#utility.yul\":15641:15758   */\n      iszero\n      tag_827\n      jumpi\n        /* \"#utility.yul\":15677:15756   */\n      tag_828\n      tag_624\n      jump\t// in\n    tag_828:\n        /* \"#utility.yul\":15641:15758   */\n    tag_827:\n        /* \"#utility.yul\":15782:15845   */\n      tag_829\n        /* \"#utility.yul\":15837:15844   */\n      dup15\n        /* \"#utility.yul\":15828:15834   */\n      dup3\n        /* \"#utility.yul\":15817:15826   */\n      dup16\n        /* \"#utility.yul\":15813:15835   */\n      add\n        /* \"#utility.yul\":15782:15845   */\n      tag_651\n      jump\t// in\n    tag_829:\n        /* \"#utility.yul\":15772:15845   */\n      swap6\n      pop\n        /* \"#utility.yul\":15566:15855   */\n      pop\n        /* \"#utility.yul\":15922:15925   */\n      0xe0\n        /* \"#utility.yul\":15911:15920   */\n      dup13\n        /* \"#utility.yul\":15907:15926   */\n      add\n        /* \"#utility.yul\":15894:15927   */\n      calldataload\n        /* \"#utility.yul\":15954:15972   */\n      0xffffffffffffffff\n        /* \"#utility.yul\":15946:15952   */\n      dup2\n        /* \"#utility.yul\":15943:15973   */\n      gt\n        /* \"#utility.yul\":15940:16057   */\n      iszero\n      tag_830\n      jumpi\n        /* \"#utility.yul\":15976:16055   */\n      tag_831\n      tag_624\n      jump\t// in\n    tag_831:\n        /* \"#utility.yul\":15940:16057   */\n    tag_830:\n        /* \"#utility.yul\":16081:16144   */\n      tag_832\n        /* \"#utility.yul\":16136:16143   */\n      dup15\n        /* \"#utility.yul\":16127:16133   */\n      dup3\n        /* \"#utility.yul\":16116:16125   */\n      dup16\n        /* \"#utility.yul\":16112:16134   */\n      add\n        /* \"#utility.yul\":16081:16144   */\n      tag_651\n      jump\t// in\n    tag_832:\n        /* \"#utility.yul\":16071:16144   */\n      swap5\n      pop\n        /* \"#utility.yul\":15865:16154   */\n      pop\n        /* \"#utility.yul\":16221:16224   */\n      0x0100\n        /* \"#utility.yul\":16210:16219   */\n      dup13\n        /* \"#utility.yul\":16206:16225   */\n      add\n        /* \"#utility.yul\":16193:16226   */\n      calldataload\n        /* \"#utility.yul\":16253:16271   */\n      0xffffffffffffffff\n        /* \"#utility.yul\":16245:16251   */\n      dup2\n        /* \"#utility.yul\":16242:16272   */\n      gt\n        /* \"#utility.yul\":16239:16356   */\n      iszero\n      tag_833\n      jumpi\n        /* \"#utility.yul\":16275:16354   */\n      tag_834\n      tag_624\n      jump\t// in\n    tag_834:\n        /* \"#utility.yul\":16239:16356   */\n    tag_833:\n        /* \"#utility.yul\":16380:16443   */\n      tag_835\n        /* \"#utility.yul\":16435:16442   */\n      dup15\n        /* \"#utility.yul\":16426:16432   */\n      dup3\n        /* \"#utility.yul\":16415:16424   */\n      dup16\n        /* \"#utility.yul\":16411:16433   */\n      add\n        /* \"#utility.yul\":16380:16443   */\n      tag_651\n      jump\t// in\n    tag_835:\n        /* \"#utility.yul\":16370:16443   */\n      swap4\n      pop\n        /* \"#utility.yul\":16164:16453   */\n      pop\n        /* \"#utility.yul\":16520:16523   */\n      0x0120\n        /* \"#utility.yul\":16509:16518   */\n      dup13\n        /* \"#utility.yul\":16505:16524   */\n      add\n        /* \"#utility.yul\":16492:16525   */\n      calldataload\n        /* \"#utility.yul\":16552:16570   */\n      0xffffffffffffffff\n        /* \"#utility.yul\":16544:16550   */\n      dup2\n        /* \"#utility.yul\":16541:16571   */\n      gt\n        /* \"#utility.yul\":16538:16655   */\n      iszero\n      tag_836\n      jumpi\n        /* \"#utility.yul\":16574:16653   */\n      tag_837\n      tag_624\n      jump\t// in\n    tag_837:\n        /* \"#utility.yul\":16538:16655   */\n    tag_836:\n        /* \"#utility.yul\":16679:16742   */\n      tag_838\n        /* \"#utility.yul\":16734:16741   */\n      dup15\n        /* \"#utility.yul\":16725:16731   */\n      dup3\n        /* \"#utility.yul\":16714:16723   */\n      dup16\n        /* \"#utility.yul\":16710:16732   */\n      add\n        /* \"#utility.yul\":16679:16742   */\n      tag_651\n      jump\t// in\n    tag_838:\n        /* \"#utility.yul\":16669:16742   */\n      swap3\n      pop\n        /* \"#utility.yul\":16463:16752   */\n      pop\n        /* \"#utility.yul\":16819:16822   */\n      0x0140\n        /* \"#utility.yul\":16808:16817   */\n      dup13\n        /* \"#utility.yul\":16804:16823   */\n      add\n        /* \"#utility.yul\":16791:16824   */\n      calldataload\n        /* \"#utility.yul\":16851:16869   */\n      0xffffffffffffffff\n        /* \"#utility.yul\":16843:16849   */\n      dup2\n        /* \"#utility.yul\":16840:16870   */\n      gt\n        /* \"#utility.yul\":16837:16954   */\n      iszero\n      tag_839\n      jumpi\n        /* \"#utility.yul\":16873:16952   */\n      tag_840\n      tag_624\n      jump\t// in\n    tag_840:\n        /* \"#utility.yul\":16837:16954   */\n    tag_839:\n        /* \"#utility.yul\":16979:17042   */\n      tag_841\n        /* \"#utility.yul\":17034:17041   */\n      dup15\n        /* \"#utility.yul\":17025:17031   */\n      dup3\n        /* \"#utility.yul\":17014:17023   */\n      dup16\n        /* \"#utility.yul\":17010:17032   */\n      add\n        /* \"#utility.yul\":16979:17042   */\n      tag_651\n      jump\t// in\n    tag_841:\n        /* \"#utility.yul\":16968:17042   */\n      swap2\n      pop\n        /* \"#utility.yul\":16762:17052   */\n      pop\n        /* \"#utility.yul\":13290:17059   */\n      swap3\n      swap6\n      swap9\n      swap12\n      pop\n      swap3\n      swap6\n      swap9\n      swap12\n      swap1\n      swap4\n      swap7\n      swap10\n      pop\n      jump\t// out\n        /* \"#utility.yul\":17065:19528   */\n    tag_105:\n        /* \"#utility.yul\":17248:17254   */\n      0x00\n        /* \"#utility.yul\":17256:17262   */\n      dup1\n        /* \"#utility.yul\":17264:17270   */\n      0x00\n        /* \"#utility.yul\":17272:17278   */\n      dup1\n        /* \"#utility.yul\":17280:17286   */\n      0x00\n        /* \"#utility.yul\":17288:17294   */\n      dup1\n        /* \"#utility.yul\":17296:17302   */\n      0x00\n        /* \"#utility.yul\":17345:17348   */\n      0xe0\n        /* \"#utility.yul\":17333:17342   */\n      dup9\n        /* \"#utility.yul\":17324:17331   */\n      dup11\n        /* \"#utility.yul\":17320:17343   */\n      sub\n        /* \"#utility.yul\":17316:17349   */\n      slt\n        /* \"#utility.yul\":17313:17433   */\n      iszero\n      tag_843\n      jumpi\n        /* \"#utility.yul\":17352:17431   */\n      tag_844\n      tag_623\n      jump\t// in\n    tag_844:\n        /* \"#utility.yul\":17313:17433   */\n    tag_843:\n        /* \"#utility.yul\":17500:17501   */\n      0x00\n        /* \"#utility.yul\":17489:17498   */\n      dup9\n        /* \"#utility.yul\":17485:17502   */\n      add\n        /* \"#utility.yul\":17472:17503   */\n      calldataload\n        /* \"#utility.yul\":17530:17548   */\n      0xffffffffffffffff\n        /* \"#utility.yul\":17522:17528   */\n      dup2\n        /* \"#utility.yul\":17519:17549   */\n      gt\n        /* \"#utility.yul\":17516:17633   */\n      iszero\n      tag_845\n      jumpi\n        /* \"#utility.yul\":17552:17631   */\n      tag_846\n      tag_624\n      jump\t// in\n    tag_846:\n        /* \"#utility.yul\":17516:17633   */\n    tag_845:\n        /* \"#utility.yul\":17657:17720   */\n      tag_847\n        /* \"#utility.yul\":17712:17719   */\n      dup11\n        /* \"#utility.yul\":17703:17709   */\n      dup3\n        /* \"#utility.yul\":17692:17701   */\n      dup12\n        /* \"#utility.yul\":17688:17710   */\n      add\n        /* \"#utility.yul\":17657:17720   */\n      tag_651\n      jump\t// in\n    tag_847:\n        /* \"#utility.yul\":17647:17720   */\n      swap8\n      pop\n        /* \"#utility.yul\":17443:17730   */\n      pop\n        /* \"#utility.yul\":17797:17799   */\n      0x20\n        /* \"#utility.yul\":17786:17795   */\n      dup9\n        /* \"#utility.yul\":17782:17800   */\n      add\n        /* \"#utility.yul\":17769:17801   */\n      calldataload\n        /* \"#utility.yul\":17828:17846   */\n      0xffffffffffffffff\n        /* \"#utility.yul\":17820:17826   */\n      dup2\n        /* \"#utility.yul\":17817:17847   */\n      gt\n        /* \"#utility.yul\":17814:17931   */\n      iszero\n      tag_848\n      jumpi\n        /* \"#utility.yul\":17850:17929   */\n      tag_849\n      tag_624\n      jump\t// in\n    tag_849:\n        /* \"#utility.yul\":17814:17931   */\n    tag_848:\n        /* \"#utility.yul\":17955:18018   */\n      tag_850\n        /* \"#utility.yul\":18010:18017   */\n      dup11\n        /* \"#utility.yul\":18001:18007   */\n      dup3\n        /* \"#utility.yul\":17990:17999   */\n      dup12\n        /* \"#utility.yul\":17986:18008   */\n      add\n        /* \"#utility.yul\":17955:18018   */\n      tag_651\n      jump\t// in\n    tag_850:\n        /* \"#utility.yul\":17945:18018   */\n      swap7\n      pop\n        /* \"#utility.yul\":17740:18028   */\n      pop\n        /* \"#utility.yul\":18095:18097   */\n      0x40\n        /* \"#utility.yul\":18084:18093   */\n      dup9\n        /* \"#utility.yul\":18080:18098   */\n      add\n        /* \"#utility.yul\":18067:18099   */\n      calldataload\n        /* \"#utility.yul\":18126:18144   */\n      0xffffffffffffffff\n        /* \"#utility.yul\":18118:18124   */\n      dup2\n        /* \"#utility.yul\":18115:18145   */\n      gt\n        /* \"#utility.yul\":18112:18229   */\n      iszero\n      tag_851\n      jumpi\n        /* \"#utility.yul\":18148:18227   */\n      tag_852\n      tag_624\n      jump\t// in\n    tag_852:\n        /* \"#utility.yul\":18112:18229   */\n    tag_851:\n        /* \"#utility.yul\":18253:18316   */\n      tag_853\n        /* \"#utility.yul\":18308:18315   */\n      dup11\n        /* \"#utility.yul\":18299:18305   */\n      dup3\n        /* \"#utility.yul\":18288:18297   */\n      dup12\n        /* \"#utility.yul\":18284:18306   */\n      add\n        /* \"#utility.yul\":18253:18316   */\n      tag_651\n      jump\t// in\n    tag_853:\n        /* \"#utility.yul\":18243:18316   */\n      swap6\n      pop\n        /* \"#utility.yul\":18038:18326   */\n      pop\n        /* \"#utility.yul\":18393:18395   */\n      0x60\n        /* \"#utility.yul\":18382:18391   */\n      dup9\n        /* \"#utility.yul\":18378:18396   */\n      add\n        /* \"#utility.yul\":18365:18397   */\n      calldataload\n        /* \"#utility.yul\":18424:18442   */\n      0xffffffffffffffff\n        /* \"#utility.yul\":18416:18422   */\n      dup2\n        /* \"#utility.yul\":18413:18443   */\n      gt\n        /* \"#utility.yul\":18410:18527   */\n      iszero\n      tag_854\n      jumpi\n        /* \"#utility.yul\":18446:18525   */\n      tag_855\n      tag_624\n      jump\t// in\n    tag_855:\n        /* \"#utility.yul\":18410:18527   */\n    tag_854:\n        /* \"#utility.yul\":18551:18614   */\n      tag_856\n        /* \"#utility.yul\":18606:18613   */\n      dup11\n        /* \"#utility.yul\":18597:18603   */\n      dup3\n        /* \"#utility.yul\":18586:18595   */\n      dup12\n        /* \"#utility.yul\":18582:18604   */\n      add\n        /* \"#utility.yul\":18551:18614   */\n      tag_651\n      jump\t// in\n    tag_856:\n        /* \"#utility.yul\":18541:18614   */\n      swap5\n      pop\n        /* \"#utility.yul\":18336:18624   */\n      pop\n        /* \"#utility.yul\":18691:18694   */\n      0x80\n        /* \"#utility.yul\":18680:18689   */\n      dup9\n        /* \"#utility.yul\":18676:18695   */\n      add\n        /* \"#utility.yul\":18663:18696   */\n      calldataload\n        /* \"#utility.yul\":18723:18741   */\n      0xffffffffffffffff\n        /* \"#utility.yul\":18715:18721   */\n      dup2\n        /* \"#utility.yul\":18712:18742   */\n      gt\n        /* \"#utility.yul\":18709:18826   */\n      iszero\n      tag_857\n      jumpi\n        /* \"#utility.yul\":18745:18824   */\n      tag_858\n      tag_624\n      jump\t// in\n    tag_858:\n        /* \"#utility.yul\":18709:18826   */\n    tag_857:\n        /* \"#utility.yul\":18850:18913   */\n      tag_859\n        /* \"#utility.yul\":18905:18912   */\n      dup11\n        /* \"#utility.yul\":18896:18902   */\n      dup3\n        /* \"#utility.yul\":18885:18894   */\n      dup12\n        /* \"#utility.yul\":18881:18903   */\n      add\n        /* \"#utility.yul\":18850:18913   */\n      tag_651\n      jump\t// in\n    tag_859:\n        /* \"#utility.yul\":18840:18913   */\n      swap4\n      pop\n        /* \"#utility.yul\":18634:18923   */\n      pop\n        /* \"#utility.yul\":18990:18993   */\n      0xa0\n        /* \"#utility.yul\":18979:18988   */\n      dup9\n        /* \"#utility.yul\":18975:18994   */\n      add\n        /* \"#utility.yul\":18962:18995   */\n      calldataload\n        /* \"#utility.yul\":19022:19040   */\n      0xffffffffffffffff\n        /* \"#utility.yul\":19014:19020   */\n      dup2\n        /* \"#utility.yul\":19011:19041   */\n      gt\n        /* \"#utility.yul\":19008:19125   */\n      iszero\n      tag_860\n      jumpi\n        /* \"#utility.yul\":19044:19123   */\n      tag_861\n      tag_624\n      jump\t// in\n    tag_861:\n        /* \"#utility.yul\":19008:19125   */\n    tag_860:\n        /* \"#utility.yul\":19149:19212   */\n      tag_862\n        /* \"#utility.yul\":19204:19211   */\n      dup11\n        /* \"#utility.yul\":19195:19201   */\n      dup3\n        /* \"#utility.yul\":19184:19193   */\n      dup12\n        /* \"#utility.yul\":19180:19202   */\n      add\n        /* \"#utility.yul\":19149:19212   */\n      tag_651\n      jump\t// in\n    tag_862:\n        /* \"#utility.yul\":19139:19212   */\n      swap3\n      pop\n        /* \"#utility.yul\":18933:19222   */\n      pop\n        /* \"#utility.yul\":19289:19292   */\n      0xc0\n        /* \"#utility.yul\":19278:19287   */\n      dup9\n        /* \"#utility.yul\":19274:19293   */\n      add\n        /* \"#utility.yul\":19261:19294   */\n      calldataload\n        /* \"#utility.yul\":19321:19339   */\n      0xffffffffffffffff\n        /* \"#utility.yul\":19313:19319   */\n      dup2\n        /* \"#utility.yul\":19310:19340   */\n      gt\n        /* \"#utility.yul\":19307:19424   */\n      iszero\n      tag_863\n      jumpi\n        /* \"#utility.yul\":19343:19422   */\n      tag_864\n      tag_624\n      jump\t// in\n    tag_864:\n        /* \"#utility.yul\":19307:19424   */\n    tag_863:\n        /* \"#utility.yul\":19448:19511   */\n      tag_865\n        /* \"#utility.yul\":19503:19510   */\n      dup11\n        /* \"#utility.yul\":19494:19500   */\n      dup3\n        /* \"#utility.yul\":19483:19492   */\n      dup12\n        /* \"#utility.yul\":19479:19501   */\n      add\n        /* \"#utility.yul\":19448:19511   */\n      tag_651\n      jump\t// in\n    tag_865:\n        /* \"#utility.yul\":19438:19511   */\n      swap2\n      pop\n        /* \"#utility.yul\":19232:19521   */\n      pop\n        /* \"#utility.yul\":17065:19528   */\n      swap3\n      swap6\n      swap9\n      swap2\n      swap5\n      swap8\n      pop\n      swap3\n      swap6\n      pop\n      jump\t// out\n        /* \"#utility.yul\":19534:21168   */\n    tag_114:\n        /* \"#utility.yul\":19963:19967   */\n      0x00\n        /* \"#utility.yul\":20001:20004   */\n      0x0100\n        /* \"#utility.yul\":19990:19999   */\n      dup3\n        /* \"#utility.yul\":19986:20005   */\n      add\n        /* \"#utility.yul\":19978:20005   */\n      swap1\n      pop\n        /* \"#utility.yul\":20015:20086   */\n      tag_867\n        /* \"#utility.yul\":20083:20084   */\n      0x00\n        /* \"#utility.yul\":20072:20081   */\n      dup4\n        /* \"#utility.yul\":20068:20085   */\n      add\n        /* \"#utility.yul\":20059:20065   */\n      dup12\n        /* \"#utility.yul\":20015:20086   */\n      tag_634\n      jump\t// in\n    tag_867:\n        /* \"#utility.yul\":20133:20142   */\n      dup2\n        /* \"#utility.yul\":20127:20131   */\n      dup2\n        /* \"#utility.yul\":20123:20143   */\n      sub\n        /* \"#utility.yul\":20118:20120   */\n      0x20\n        /* \"#utility.yul\":20107:20116   */\n      dup4\n        /* \"#utility.yul\":20103:20121   */\n      add\n        /* \"#utility.yul\":20096:20144   */\n      mstore\n        /* \"#utility.yul\":20161:20239   */\n      tag_868\n        /* \"#utility.yul\":20234:20238   */\n      dup2\n        /* \"#utility.yul\":20225:20231   */\n      dup11\n        /* \"#utility.yul\":20161:20239   */\n      tag_656\n      jump\t// in\n    tag_868:\n        /* \"#utility.yul\":20153:20239   */\n      swap1\n      pop\n        /* \"#utility.yul\":20286:20295   */\n      dup2\n        /* \"#utility.yul\":20280:20284   */\n      dup2\n        /* \"#utility.yul\":20276:20296   */\n      sub\n        /* \"#utility.yul\":20271:20273   */\n      0x40\n        /* \"#utility.yul\":20260:20269   */\n      dup4\n        /* \"#utility.yul\":20256:20274   */\n      add\n        /* \"#utility.yul\":20249:20297   */\n      mstore\n        /* \"#utility.yul\":20314:20392   */\n      tag_869\n        /* \"#utility.yul\":20387:20391   */\n      dup2\n        /* \"#utility.yul\":20378:20384   */\n      dup10\n        /* \"#utility.yul\":20314:20392   */\n      tag_656\n      jump\t// in\n    tag_869:\n        /* \"#utility.yul\":20306:20392   */\n      swap1\n      pop\n        /* \"#utility.yul\":20439:20448   */\n      dup2\n        /* \"#utility.yul\":20433:20437   */\n      dup2\n        /* \"#utility.yul\":20429:20449   */\n      sub\n        /* \"#utility.yul\":20424:20426   */\n      0x60\n        /* \"#utility.yul\":20413:20422   */\n      dup4\n        /* \"#utility.yul\":20409:20427   */\n      add\n        /* \"#utility.yul\":20402:20450   */\n      mstore\n        /* \"#utility.yul\":20467:20545   */\n      tag_870\n        /* \"#utility.yul\":20540:20544   */\n      dup2\n        /* \"#utility.yul\":20531:20537   */\n      dup9\n        /* \"#utility.yul\":20467:20545   */\n      tag_656\n      jump\t// in\n    tag_870:\n        /* \"#utility.yul\":20459:20545   */\n      swap1\n      pop\n        /* \"#utility.yul\":20593:20602   */\n      dup2\n        /* \"#utility.yul\":20587:20591   */\n      dup2\n        /* \"#utility.yul\":20583:20603   */\n      sub\n        /* \"#utility.yul\":20577:20580   */\n      0x80\n        /* \"#utility.yul\":20566:20575   */\n      dup4\n        /* \"#utility.yul\":20562:20581   */\n      add\n        /* \"#utility.yul\":20555:20604   */\n      mstore\n        /* \"#utility.yul\":20621:20699   */\n      tag_871\n        /* \"#utility.yul\":20694:20698   */\n      dup2\n        /* \"#utility.yul\":20685:20691   */\n      dup8\n        /* \"#utility.yul\":20621:20699   */\n      tag_656\n      jump\t// in\n    tag_871:\n        /* \"#utility.yul\":20613:20699   */\n      swap1\n      pop\n        /* \"#utility.yul\":20747:20756   */\n      dup2\n        /* \"#utility.yul\":20741:20745   */\n      dup2\n        /* \"#utility.yul\":20737:20757   */\n      sub\n        /* \"#utility.yul\":20731:20734   */\n      0xa0\n        /* \"#utility.yul\":20720:20729   */\n      dup4\n        /* \"#utility.yul\":20716:20735   */\n      add\n        /* \"#utility.yul\":20709:20758   */\n      mstore\n        /* \"#utility.yul\":20775:20853   */\n      tag_872\n        /* \"#utility.yul\":20848:20852   */\n      dup2\n        /* \"#utility.yul\":20839:20845   */\n      dup7\n        /* \"#utility.yul\":20775:20853   */\n      tag_656\n      jump\t// in\n    tag_872:\n        /* \"#utility.yul\":20767:20853   */\n      swap1\n      pop\n        /* \"#utility.yul\":20901:20910   */\n      dup2\n        /* \"#utility.yul\":20895:20899   */\n      dup2\n        /* \"#utility.yul\":20891:20911   */\n      sub\n        /* \"#utility.yul\":20885:20888   */\n      0xc0\n        /* \"#utility.yul\":20874:20883   */\n      dup4\n        /* \"#utility.yul\":20870:20889   */\n      add\n        /* \"#utility.yul\":20863:20912   */\n      mstore\n        /* \"#utility.yul\":20929:21007   */\n      tag_873\n        /* \"#utility.yul\":21002:21006   */\n      dup2\n        /* \"#utility.yul\":20993:20999   */\n      dup6\n        /* \"#utility.yul\":20929:21007   */\n      tag_656\n      jump\t// in\n    tag_873:\n        /* \"#utility.yul\":20921:21007   */\n      swap1\n      pop\n        /* \"#utility.yul\":21055:21064   */\n      dup2\n        /* \"#utility.yul\":21049:21053   */\n      dup2\n        /* \"#utility.yul\":21045:21065   */\n      sub\n        /* \"#utility.yul\":21039:21042   */\n      0xe0\n        /* \"#utility.yul\":21028:21037   */\n      dup4\n        /* \"#utility.yul\":21024:21043   */\n      add\n        /* \"#utility.yul\":21017:21066   */\n      mstore\n        /* \"#utility.yul\":21083:21161   */\n      tag_874\n        /* \"#utility.yul\":21156:21160   */\n      dup2\n        /* \"#utility.yul\":21147:21153   */\n      dup5\n        /* \"#utility.yul\":21083:21161   */\n      tag_656\n      jump\t// in\n    tag_874:\n        /* \"#utility.yul\":21075:21161   */\n      swap1\n      pop\n        /* \"#utility.yul\":19534:21168   */\n      swap10\n      swap9\n      pop\n      pop\n      pop\n      pop\n      pop\n      pop\n      pop\n      pop\n      pop\n      jump\t// out\n        /* \"#utility.yul\":21174:21354   */\n    tag_657:\n        /* \"#utility.yul\":21222:21299   */\n      0x4e487b7100000000000000000000000000000000000000000000000000000000\n        /* \"#utility.yul\":21219:21220   */\n      0x00\n        /* \"#utility.yul\":21212:21300   */\n      mstore\n        /* \"#utility.yul\":21319:21323   */\n      0x22\n        /* \"#utility.yul\":21316:21317   */\n      0x04\n        /* \"#utility.yul\":21309:21324   */\n      mstore\n        /* \"#utility.yul\":21343:21347   */\n      0x24\n        /* \"#utility.yul\":21340:21341   */\n      0x00\n        /* \"#utility.yul\":21333:21348   */\n      revert\n        /* \"#utility.yul\":21360:21680   */\n    tag_191:\n        /* \"#utility.yul\":21404:21410   */\n      0x00\n        /* \"#utility.yul\":21441:21442   */\n      0x02\n        /* \"#utility.yul\":21435:21439   */\n      dup3\n        /* \"#utility.yul\":21431:21443   */\n      div\n        /* \"#utility.yul\":21421:21443   */\n      swap1\n      pop\n        /* \"#utility.yul\":21488:21489   */\n      0x01\n        /* \"#utility.yul\":21482:21486   */\n      dup3\n        /* \"#utility.yul\":21478:21490   */\n      and\n        /* \"#utility.yul\":21509:21527   */\n      dup1\n        /* \"#utility.yul\":21499:21580   */\n      tag_877\n      jumpi\n        /* \"#utility.yul\":21565:21569   */\n      0x7f\n        /* \"#utility.yul\":21557:21563   */\n      dup3\n        /* \"#utility.yul\":21553:21570   */\n      and\n        /* \"#utility.yul\":21543:21570   */\n      swap2\n      pop\n        /* \"#utility.yul\":21499:21580   */\n    tag_877:\n        /* \"#utility.yul\":21627:21629   */\n      0x20\n        /* \"#utility.yul\":21619:21625   */\n      dup3\n        /* \"#utility.yul\":21616:21630   */\n      lt\n        /* \"#utility.yul\":21596:21614   */\n      dup2\n        /* \"#utility.yul\":21593:21631   */\n      sub\n        /* \"#utility.yul\":21590:21674   */\n      tag_878\n      jumpi\n        /* \"#utility.yul\":21646:21664   */\n      tag_879\n      tag_657\n      jump\t// in\n    tag_879:\n        /* \"#utility.yul\":21590:21674   */\n    tag_878:\n        /* \"#utility.yul\":21411:21680   */\n      pop\n        /* \"#utility.yul\":21360:21680   */\n      swap2\n      swap1\n      pop\n      jump\t// out\n        /* \"#utility.yul\":21686:21827   */\n    tag_658:\n        /* \"#utility.yul\":21735:21739   */\n      0x00\n        /* \"#utility.yul\":21758:21761   */\n      dup2\n        /* \"#utility.yul\":21750:21761   */\n      swap1\n      pop\n        /* \"#utility.yul\":21781:21784   */\n      dup2\n        /* \"#utility.yul\":21778:21779   */\n      0x00\n        /* \"#utility.yul\":21771:21785   */\n      mstore\n        /* \"#utility.yul\":21815:21819   */\n      0x20\n        /* \"#utility.yul\":21812:21813   */\n      0x00\n        /* \"#utility.yul\":21802:21820   */\n      keccak256\n        /* \"#utility.yul\":21794:21820   */\n      swap1\n      pop\n        /* \"#utility.yul\":21686:21827   */\n      swap2\n      swap1\n      pop\n      jump\t// out\n        /* \"#utility.yul\":21833:21926   */\n    tag_659:\n        /* \"#utility.yul\":21870:21876   */\n      0x00\n        /* \"#utility.yul\":21917:21919   */\n      0x20\n        /* \"#utility.yul\":21912:21914   */\n      0x1f\n        /* \"#utility.yul\":21905:21910   */\n      dup4\n        /* \"#utility.yul\":21901:21915   */\n      add\n        /* \"#utility.yul\":21897:21920   */\n      div\n        /* \"#utility.yul\":21887:21920   */\n      swap1\n      pop\n        /* \"#utility.yul\":21833:21926   */\n      swap2\n      swap1\n      pop\n      jump\t// out\n        /* \"#utility.yul\":21932:22039   */\n    tag_660:\n        /* \"#utility.yul\":21976:21984   */\n      0x00\n        /* \"#utility.yul\":22026:22031   */\n      dup3\n        /* \"#utility.yul\":22020:22024   */\n      dup3\n        /* \"#utility.yul\":22016:22032   */\n      shl\n        /* \"#utility.yul\":21995:22032   */\n      swap1\n      pop\n        /* \"#utility.yul\":21932:22039   */\n      swap3\n      swap2\n      pop\n      pop\n      jump\t// out\n        /* \"#utility.yul\":22045:22438   */\n    tag_661:\n        /* \"#utility.yul\":22114:22120   */\n      0x00\n        /* \"#utility.yul\":22164:22165   */\n      0x08\n        /* \"#utility.yul\":22152:22162   */\n      dup4\n        /* \"#utility.yul\":22148:22166   */\n      mul\n        /* \"#utility.yul\":22187:22284   */\n      tag_884\n        /* \"#utility.yul\":22217:22283   */\n      0xffffffffffffffffffffffffffffffffffffffffffffffffffffffffffffffff\n        /* \"#utility.yul\":22206:22215   */\n      dup3\n        /* \"#utility.yul\":22187:22284   */\n      tag_660\n      jump\t// in\n    tag_884:\n        /* \"#utility.yul\":22305:22344   */\n      tag_885\n        /* \"#utility.yul\":22335:22343   */\n      dup7\n        /* \"#utility.yul\":22324:22333   */\n      dup4\n        /* \"#utility.yul\":22305:22344   */\n      tag_660\n      jump\t// in\n    tag_885:\n        /* \"#utility.yul\":22293:22344   */\n      swap6\n      pop\n        /* \"#utility.yul\":22377:22381   */\n      dup1\n        /* \"#utility.yul\":22373:22382   */\n      not\n        /* \"#utility.yul\":22366:22371   */\n      dup5\n        /* \"#utility.yul\":22362:22383   */\n      and\n        /* \"#utility.yul\":22353:22383   */\n      swap4\n      pop\n        /* \"#utility.yul\":22426:22430   */\n      dup1\n        /* \"#utility.yul\":22416:22424   */\n      dup7\n        /* \"#utility.yul\":22412:22431   */\n      and\n        /* \"#utility.yul\":22405:22410   */\n      dup5\n        /* \"#utility.yul\":22402:22432   */\n      or\n        /* \"#utility.yul\":22392:22432   */\n      swap3\n      pop\n        /* \"#utility.yul\":22121:22438   */\n      pop\n      pop\n        /* \"#utility.yul\":22045:22438   */\n      swap4\n      swap3\n      pop\n      pop\n      pop\n      jump\t// out\n        /* \"#utility.yul\":22444:22504   */\n    tag_662:\n        /* \"#utility.yul\":22472:22475   */\n      0x00\n        /* \"#utility.yul\":22493:22498   */\n      dup2\n        /* \"#utility.yul\":22486:22498   */\n      swap1\n      pop\n        /* \"#utility.yul\":22444:22504   */\n      swap2\n      swap1\n      pop\n      jump\t// out\n        /* \"#utility.yul\":22510:22652   */\n    tag_663:\n        /* \"#utility.yul\":22560:22569   */\n      0x00\n        /* \"#utility.yul\":22593:22646   */\n      tag_888\n        /* \"#utility.yul\":22611:22645   */\n      tag_889\n        /* \"#utility.yul\":22620:22644   */\n      tag_890\n        /* \"#utility.yul\":22638:22643   */\n      dup5\n        /* \"#utility.yul\":22620:22644   */\n      tag_631\n      jump\t// in\n    tag_890:\n        /* \"#utility.yul\":22611:22645   */\n      tag_662\n      jump\t// in\n    tag_889:\n        /* \"#utility.yul\":22593:22646   */\n      tag_631\n      jump\t// in\n    tag_888:\n        /* \"#utility.yul\":22580:22646   */\n      swap1\n      pop\n        /* \"#utility.yul\":22510:22652   */\n      swap2\n      swap1\n      pop\n      jump\t// out\n        /* \"#utility.yul\":22658:22733   */\n    tag_664:\n        /* \"#utility.yul\":22701:22704   */\n      0x00\n        /* \"#utility.yul\":22722:22727   */\n      dup2\n        /* \"#utility.yul\":22715:22727   */\n      swap1\n      pop\n        /* \"#utility.yul\":22658:22733   */\n      swap2\n      swap1\n      pop\n      jump\t// out\n        /* \"#utility.yul\":22739:23008   */\n    tag_665:\n        /* \"#utility.yul\":22849:22888   */\n      tag_893\n        /* \"#utility.yul\":22880:22887   */\n      dup4\n        /* \"#utility.yul\":22849:22888   */\n      tag_663\n      jump\t// in\n    tag_893:\n        /* \"#utility.yul\":22910:23001   */\n      tag_894\n        /* \"#utility.yul\":22959:23000   */\n      tag_895\n        /* \"#utility.yul\":22983:22999   */\n      dup3\n        /* \"#utility.yul\":22959:23000   */\n      tag_664\n      jump\t// in\n    tag_895:\n        /* \"#utility.yul\":22951:22957   */\n      dup5\n        /* \"#utility.yul\":22944:22948   */\n      dup5\n        /* \"#utility.yul\":22938:22949   */\n      sload\n        /* \"#utility.yul\":22910:23001   */\n      tag_661\n      jump\t// in\n    tag_894:\n        /* \"#utility.yul\":22904:22908   */\n      dup3\n        /* \"#utility.yul\":22897:23002   */\n      sstore\n        /* \"#utility.yul\":22815:23008   */\n      pop\n        /* \"#utility.yul\":22739:23008   */\n      pop\n      pop\n      pop\n      jump\t// out\n        /* \"#utility.yul\":23014:23087   */\n    tag_666:\n        /* \"#utility.yul\":23059:23062   */\n      0x00\n        /* \"#utility.yul\":23014:23087   */\n      swap1\n      jump\t// out\n        /* \"#utility.yul\":23093:23282   */\n    tag_667:\n        /* \"#utility.yul\":23170:23202   */\n      tag_898\n      tag_666\n      jump\t// in\n    tag_898:\n        /* \"#utility.yul\":23211:23276   */\n      tag_899\n        /* \"#utility.yul\":23269:23275   */\n      dup2\n        /* \"#utility.yul\":23261:23267   */\n      dup5\n        /* \"#utility.yul\":23255:23259   */\n      dup5\n        /* \"#utility.yul\":23211:23276   */\n      tag_665\n      jump\t// in\n    tag_899:\n        /* \"#utility.yul\":23146:23282   */\n      pop\n        /* \"#utility.yul\":23093:23282   */\n      pop\n      pop\n      jump\t// out\n        /* \"#utility.yul\":23288:23474   */\n    tag_668:\n        /* \"#utility.yul\":23348:23468   */\n    tag_901:\n        /* \"#utility.yul\":23365:23368   */\n      dup2\n        /* \"#utility.yul\":23358:23363   */\n      dup2\n        /* \"#utility.yul\":23355:23369   */\n      lt\n        /* \"#utility.yul\":23348:23468   */\n      iszero\n      tag_903\n      jumpi\n        /* \"#utility.yul\":23419:23458   */\n      tag_904\n        /* \"#utility.yul\":23456:23457   */\n      0x00\n        /* \"#utility.yul\":23449:23454   */\n      dup3\n        /* \"#utility.yul\":23419:23458   */\n      tag_667\n      jump\t// in\n    tag_904:\n        /* \"#utility.yul\":23392:23393   */\n      0x01\n        /* \"#utility.yul\":23385:23390   */\n      dup2\n        /* \"#utility.yul\":23381:23394   */\n      add\n        /* \"#utility.yul\":23372:23394   */\n      swap1\n      pop\n        /* \"#utility.yul\":23348:23468   */\n      jump(tag_901)\n    tag_903:\n        /* \"#utility.yul\":23288:23474   */\n      pop\n      pop\n      jump\t// out\n        /* \"#utility.yul\":23480:24023   */\n    tag_669:\n        /* \"#utility.yul\":23581:23583   */\n      0x1f\n        /* \"#utility.yul\":23576:23579   */\n      dup3\n        /* \"#utility.yul\":23573:23584   */\n      gt\n        /* \"#utility.yul\":23570:24016   */\n      iszero\n      tag_906\n      jumpi\n        /* \"#utility.yul\":23615:23653   */\n      tag_907\n        /* \"#utility.yul\":23647:23652   */\n      dup2\n        /* \"#utility.yul\":23615:23653   */\n      tag_658\n      jump\t// in\n    tag_907:\n        /* \"#utility.yul\":23699:23728   */\n      tag_908\n        /* \"#utility.yul\":23717:23727   */\n      dup5\n        /* \"#utility.yul\":23699:23728   */\n      tag_659\n      jump\t// in\n    tag_908:\n        /* \"#utility.yul\":23689:23697   */\n      dup2\n        /* \"#utility.yul\":23685:23729   */\n      add\n        /* \"#utility.yul\":23882:23884   */\n      0x20\n        /* \"#utility.yul\":23870:23880   */\n      dup6\n        /* \"#utility.yul\":23867:23885   */\n      lt\n        /* \"#utility.yul\":23864:23913   */\n      iszero\n      tag_909\n      jumpi\n        /* \"#utility.yul\":23903:23911   */\n      dup2\n        /* \"#utility.yul\":23888:23911   */\n      swap1\n      pop\n        /* \"#utility.yul\":23864:23913   */\n    tag_909:\n        /* \"#utility.yul\":23926:24006   */\n      tag_910\n        /* \"#utility.yul\":23982:24004   */\n      tag_911\n        /* \"#utility.yul\":24000:24003   */\n      dup6\n        /* \"#utility.yul\":23982:24004   */\n      tag_659\n      jump\t// in\n    tag_911:\n        /* \"#utility.yul\":23972:23980   */\n      dup4\n        /* \"#utility.yul\":23968:24005   */\n      add\n        /* \"#utility.yul\":23955:23966   */\n      dup3\n        /* \"#utility.yul\":23926:24006   */\n      tag_668\n      jump\t// in\n    tag_910:\n        /* \"#utility.yul\":23585:24016   */\n      pop\n      pop\n        /* \"#utility.yul\":23570:24016   */\n    tag_906:\n        /* \"#utility.yul\":23480:24023   */\n      pop\n      pop\n      pop\n      jump\t// out\n        /* \"#utility.yul\":24029:24146   */\n    tag_670:\n        /* \"#utility.yul\":24083:24091   */\n      0x00\n        /* \"#utility.yul\":24133:24138   */\n      dup3\n        /* \"#utility.yul\":24127:24131   */\n      dup3\n        /* \"#utility.yul\":24123:24139   */\n      shr\n        /* \"#utility.yul\":24102:24139   */\n      swap1\n      pop\n        /* \"#utility.yul\":24029:24146   */\n      swap3\n      swap2\n      pop\n      pop\n      jump\t// out\n        /* \"#utility.yul\":24152:24321   */\n    tag_671:\n        /* \"#utility.yul\":24196:24202   */\n      0x00\n        /* \"#utility.yul\":24229:24280   */\n      tag_914\n        /* \"#utility.yul\":24277:24278   */\n      0x00\n        /* \"#utility.yul\":24273:24279   */\n      not\n        /* \"#utility.yul\":24265:24270   */\n      dup5\n        /* \"#utility.yul\":24262:24263   */\n      0x08\n        /* \"#utility.yul\":24258:24271   */\n      mul\n        /* \"#utility.yul\":24229:24280   */\n      tag_670\n      jump\t// in\n    tag_914:\n        /* \"#utility.yul\":24225:24281   */\n      not\n        /* \"#utility.yul\":24310:24314   */\n      dup1\n        /* \"#utility.yul\":24304:24308   */\n      dup4\n        /* \"#utility.yul\":24300:24315   */\n      and\n        /* \"#utility.yul\":24290:24315   */\n      swap2\n      pop\n        /* \"#utility.yul\":24203:24321   */\n      pop\n        /* \"#utility.yul\":24152:24321   */\n      swap3\n      swap2\n      pop\n      pop\n      jump\t// out\n        /* \"#utility.yul\":24326:24621   */\n    tag_672:\n        /* \"#utility.yul\":24402:24406   */\n      0x00\n        /* \"#utility.yul\":24548:24577   */\n      tag_916\n        /* \"#utility.yul\":24573:24576   */\n      dup4\n        /* \"#utility.yul\":24567:24571   */\n      dup4\n        /* \"#utility.yul\":24548:24577   */\n      tag_671\n      jump\t// in\n    tag_916:\n        /* \"#utility.yul\":24540:24577   */\n      swap2\n      pop\n        /* \"#utility.yul\":24610:24613   */\n      dup3\n        /* \"#utility.yul\":24607:24608   */\n      0x02\n        /* \"#utility.yul\":24603:24614   */\n      mul\n        /* \"#utility.yul\":24597:24601   */\n      dup3\n        /* \"#utility.yul\":24594:24615   */\n      or\n        /* \"#utility.yul\":24586:24615   */\n      swap1\n      pop\n        /* \"#utility.yul\":24326:24621   */\n      swap3\n      swap2\n      pop\n      pop\n      jump\t// out\n        /* \"#utility.yul\":24626:26021   */\n    tag_168:\n        /* \"#utility.yul\":24743:24780   */\n      tag_918\n        /* \"#utility.yul\":24776:24779   */\n      dup3\n        /* \"#utility.yul\":24743:24780   */\n      tag_653\n      jump\t// in\n    tag_918:\n        /* \"#utility.yul\":24845:24863   */\n      0xffffffffffffffff\n        /* \"#utility.yul\":24837:24843   */\n      dup2\n        /* \"#utility.yul\":24834:24864   */\n      gt\n        /* \"#utility.yul\":24831:24887   */\n      iszero\n      tag_919\n      jumpi\n        /* \"#utility.yul\":24867:24885   */\n      tag_920\n      tag_645\n      jump\t// in\n    tag_920:\n        /* \"#utility.yul\":24831:24887   */\n    tag_919:\n        /* \"#utility.yul\":24911:24949   */\n      tag_921\n        /* \"#utility.yul\":24943:24947   */\n      dup3\n        /* \"#utility.yul\":24937:24948   */\n      sload\n        /* \"#utility.yul\":24911:24949   */\n      tag_191\n      jump\t// in\n    tag_921:\n        /* \"#utility.yul\":24996:25063   */\n      tag_922\n        /* \"#utility.yul\":25056:25062   */\n      dup3\n        /* \"#utility.yul\":25048:25054   */\n      dup3\n        /* \"#utility.yul\":25042:25046   */\n      dup6\n        /* \"#utility.yul\":24996:25063   */\n      tag_669\n      jump\t// in\n    tag_922:\n        /* \"#utility.yul\":25090:25091   */\n      0x00\n        /* \"#utility.yul\":25114:25118   */\n      0x20\n        /* \"#utility.yul\":25101:25118   */\n      swap1\n      pop\n        /* \"#utility.yul\":25146:25148   */\n      0x1f\n        /* \"#utility.yul\":25138:25144   */\n      dup4\n        /* \"#utility.yul\":25135:25149   */\n      gt\n        /* \"#utility.yul\":25163:25164   */\n      0x01\n        /* \"#utility.yul\":25158:25776   */\n      dup2\n      eq\n      tag_924\n      jumpi\n        /* \"#utility.yul\":25820:25821   */\n      0x00\n        /* \"#utility.yul\":25837:25843   */\n      dup5\n        /* \"#utility.yul\":25834:25911   */\n      iszero\n      tag_925\n      jumpi\n        /* \"#utility.yul\":25886:25895   */\n      dup3\n        /* \"#utility.yul\":25881:25884   */\n      dup8\n        /* \"#utility.yul\":25877:25896   */\n      add\n        /* \"#utility.yul\":25871:25897   */\n      mload\n        /* \"#utility.yul\":25862:25897   */\n      swap1\n      pop\n        /* \"#utility.yul\":25834:25911   */\n    tag_925:\n        /* \"#utility.yul\":25937:26004   */\n      tag_926\n        /* \"#utility.yul\":25997:26003   */\n      dup6\n        /* \"#utility.yul\":25990:25995   */\n      dup3\n        /* \"#utility.yul\":25937:26004   */\n      tag_672\n      jump\t// in\n    tag_926:\n        /* \"#utility.yul\":25931:25935   */\n      dup7\n        /* \"#utility.yul\":25924:26005   */\n      sstore\n        /* \"#utility.yul\":25793:26015   */\n      pop\n        /* \"#utility.yul\":25128:26015   */\n      jump(tag_923)\n        /* \"#utility.yul\":25158:25776   */\n    tag_924:\n        /* \"#utility.yul\":25210:25214   */\n      0x1f\n        /* \"#utility.yul\":25206:25215   */\n      not\n        /* \"#utility.yul\":25198:25204   */\n      dup5\n        /* \"#utility.yul\":25194:25216   */\n      and\n        /* \"#utility.yul\":25244:25281   */\n      tag_927\n        /* \"#utility.yul\":25276:25280   */\n      dup7\n        /* \"#utility.yul\":25244:25281   */\n      tag_658\n      jump\t// in\n    tag_927:\n        /* \"#utility.yul\":25303:25304   */\n      0x00\n        /* \"#utility.yul\":25317:25525   */\n    tag_928:\n        /* \"#utility.yul\":25331:25338   */\n      dup3\n        /* \"#utility.yul\":25328:25329   */\n      dup2\n        /* \"#utility.yul\":25325:25339   */\n      lt\n        /* \"#utility.yul\":25317:25525   */\n      iszero\n      tag_930\n      jumpi\n        /* \"#utility.yul\":25410:25419   */\n      dup5\n        /* \"#utility.yul\":25405:25408   */\n      dup10\n        /* \"#utility.yul\":25401:25420   */\n      add\n        /* \"#utility.yul\":25395:25421   */\n      mload\n        /* \"#utility.yul\":25387:25393   */\n      dup3\n        /* \"#utility.yul\":25380:25422   */\n      sstore\n        /* \"#utility.yul\":25461:25462   */\n      0x01\n        /* \"#utility.yul\":25453:25459   */\n      dup3\n        /* \"#utility.yul\":25449:25463   */\n      add\n        /* \"#utility.yul\":25439:25463   */\n      swap2\n      pop\n        /* \"#utility.yul\":25508:25510   */\n      0x20\n        /* \"#utility.yul\":25497:25506   */\n      dup6\n        /* \"#utility.yul\":25493:25511   */\n      add\n        /* \"#utility.yul\":25480:25511   */\n      swap5\n      pop\n        /* \"#utility.yul\":25354:25358   */\n      0x20\n        /* \"#utility.yul\":25351:25352   */\n      dup2\n        /* \"#utility.yul\":25347:25359   */\n      add\n        /* \"#utility.yul\":25342:25359   */\n      swap1\n      pop\n        /* \"#utility.yul\":25317:25525   */\n      jump(tag_928)\n    tag_930:\n        /* \"#utility.yul\":25553:25559   */\n      dup7\n        /* \"#utility.yul\":25544:25551   */\n      dup4\n        /* \"#utility.yul\":25541:25560   */\n      lt\n        /* \"#utility.yul\":25538:25717   */\n      iszero\n      tag_931\n      jumpi\n        /* \"#utility.yul\":25611:25620   */\n      dup5\n        /* \"#utility.yul\":25606:25609   */\n      dup10\n        /* \"#utility.yul\":25602:25621   */\n      add\n        /* \"#utility.yul\":25596:25622   */\n      mload\n        /* \"#utility.yul\":25654:25702   */\n      tag_932\n        /* \"#utility.yul\":25696:25700   */\n      0x1f\n        /* \"#utility.yul\":25688:25694   */\n      dup10\n        /* \"#utility.yul\":25684:25701   */\n      and\n        /* \"#utility.yul\":25673:25682   */\n      dup3\n        /* \"#utility.yul\":25654:25702   */\n      tag_671\n      jump\t// in\n    tag_932:\n        /* \"#utility.yul\":25646:25652   */\n      dup4\n        /* \"#utility.yul\":25639:25703   */\n      sstore\n        /* \"#utility.yul\":25561:25717   */\n      pop\n        /* \"#utility.yul\":25538:25717   */\n    tag_931:\n        /* \"#utility.yul\":25763:25764   */\n      0x01\n        /* \"#utility.yul\":25759:25760   */\n      0x02\n        /* \"#utility.yul\":25751:25757   */\n      dup9\n        /* \"#utility.yul\":25747:25761   */\n      mul\n        /* \"#utility.yul\":25743:25765   */\n      add\n        /* \"#utility.yul\":25737:25741   */\n      dup9\n        /* \"#utility.yul\":25730:25766   */\n      sstore\n        /* \"#utility.yul\":25165:25776   */\n      pop\n      pop\n      pop\n        /* \"#utility.yul\":25128:26015   */\n    tag_923:\n      pop\n        /* \"#utility.yul\":24718:26021   */\n      pop\n      pop\n      pop\n        /* \"#utility.yul\":24626:26021   */\n      pop\n      pop\n      jump\t// out\n        /* \"#utility.yul\":26027:26207   */\n    tag_673:\n        /* \"#utility.yul\":26075:26152   */\n      0x4e487b7100000000000000000000000000000000000000000000000000000000\n        /* \"#utility.yul\":26072:26073   */\n      0x00\n        /* \"#utility.yul\":26065:26153   */\n      mstore\n        /* \"#utility.yul\":26172:26176   */\n      0x11\n        /* \"#utility.yul\":26169:26170   */\n      0x04\n        /* \"#utility.yul\":26162:26177   */\n      mstore\n        /* \"#utility.yul\":26196:26200   */\n      0x24\n        /* \"#utility.yul\":26193:26194   */\n      0x00\n        /* \"#utility.yul\":26186:26201   */\n      revert\n        /* \"#utility.yul\":26213:26446   */\n    tag_176:\n        /* \"#utility.yul\":26252:26255   */\n      0x00\n        /* \"#utility.yul\":26275:26299   */\n      tag_935\n        /* \"#utility.yul\":26293:26298   */\n      dup3\n        /* \"#utility.yul\":26275:26299   */\n      tag_631\n      jump\t// in\n    tag_935:\n        /* \"#utility.yul\":26266:26299   */\n      swap2\n      pop\n        /* \"#utility.yul\":26321:26387   */\n      0xffffffffffffffffffffffffffffffffffffffffffffffffffffffffffffffff\n        /* \"#utility.yul\":26314:26319   */\n      dup3\n        /* \"#utility.yul\":26311:26388   */\n      sub\n        /* \"#utility.yul\":26308:26411   */\n      tag_936\n      jumpi\n        /* \"#utility.yul\":26391:26409   */\n      tag_937\n      tag_673\n      jump\t// in\n    tag_937:\n        /* \"#utility.yul\":26308:26411   */\n    tag_936:\n        /* \"#utility.yul\":26438:26439   */\n      0x01\n        /* \"#utility.yul\":26431:26436   */\n      dup3\n        /* \"#utility.yul\":26427:26440   */\n      add\n        /* \"#utility.yul\":26420:26440   */\n      swap1\n      pop\n        /* \"#utility.yul\":26213:26446   */\n      swap2\n      swap1\n      pop\n      jump\t// out\n\n    auxdata: 0xa26469706673582212204e86158779267e4e27727f1c51b6c4336c9d1289d1298e4b5e77e0b9b398608064736f6c63430008110033\n}\n","bytecode":{"linkReferences":{},"object":"60806040526000600b556000600c556000600d556000600e5534801561002457600080fd5b50336000806101000a81548173ffffffffffffffffffffffffffffffffffffffff021916908373ffffffffffffffffffffffffffffffffffffffff1602179055506157da80620000756000396000f3fe608060405234801561001057600080fd5b50600436106101e55760003560e01c80638b945c6d1161010f578063babb1d41116100a2578063caee6c8511610071578063caee6c85146105ce578063e6fce0d214610604578063e93a15b914610634578063eebc3fb214610664576101e5565b8063babb1d4114610532578063bd6f972b14610562578063c0cb24ba14610592578063c190665b146105b0576101e5565b8063a0303c41116100de578063a0303c41146104be578063a5aca8bc146104dc578063b13d5d94146104f8578063b6b477f314610516576101e5565b80638b945c6d1461042f5780638da5cb5b1461044b578063920419821461046957806396b80d08146104a0576101e5565b80632a825ba011610187578063625961fc11610156578063625961fc146103a757806378522bc4146103d757806379111c1c146103f557806380b76b2614610413576101e5565b80632a825ba0146102dc5780633bc98280146103115780633d391f70146103475780634c14b38d14610377576101e5565b8063245f9686116101c3578063245f96861461026857806324c24b2b14610284578063261b73f3146102a257806329e4afbb146102be576101e5565b806302516abd146101ea578063127ca4b41461021a57806312ad1c371461024a575b600080fd5b61020460048036038101906101ff91906149de565b610682565b6040516102119190614a26565b60405180910390f35b610234600480360381019061022f9190614a77565b610721565b6040516102419190614ab3565b60405180910390f35b610252610760565b60405161025f9190614b8c565b60405180910390f35b610282600480360381019061027d9190614cf4565b6107ee565b005b61028c610a5c565b6040516102999190614e4d565b60405180910390f35b6102bc60048036038101906102b79190614cf4565b610a66565b005b6102c6610bfb565b6040516102d39190614e4d565b60405180910390f35b6102f660048036038101906102f191906149de565b610c05565b60405161030896959493929190614ee7565b60405180910390f35b61032b600480360381019061032691906149de565b6114f3565b60405161033e9796959493929190614f72565b60405180910390f35b610361600480360381019061035c91906149de565b611de7565b60405161036e9190614a26565b60405180910390f35b610391600480360381019061038c91906149de565b611e9f565b60405161039e9190614e4d565b60405180910390f35b6103c160048036038101906103bc91906149de565b61231f565b6040516103ce9190614e4d565b60405180910390f35b6103df6127db565b6040516103ec9190614e4d565b60405180910390f35b6103fd6127e1565b60405161040a9190614e4d565b60405180910390f35b61042d60048036038101906104289190615012565b6127eb565b005b6104496004803603810190610444919061523a565b612b0d565b005b610453612d4e565b6040516104609190614ab3565b60405180910390f35b610483600480360381019061047e91906149de565b612d72565b6040516104979897969594939291906153a0565b60405180910390f35b6104a86136e6565b6040516104b59190614b8c565b60405180910390f35b6104c6613774565b6040516104d39190614e4d565b60405180910390f35b6104f660048036038101906104f1919061523a565b61377a565b005b6105006138de565b60405161050d9190614b8c565b60405180910390f35b610530600480360381019061052b9190615012565b61396c565b005b61054c60048036038101906105479190614a77565b613b1c565b6040516105599190614ab3565b60405180910390f35b61057c600480360381019061057791906149de565b613b5b565b6040516105899190614e4d565b60405180910390f35b61059a614383565b6040516105a79190614e4d565b60405180910390f35b6105b8614389565b6040516105c59190614e4d565b60405180910390f35b6105e860048036038101906105e391906149de565b614393565b6040516105fb9796959493929190614f72565b60405180910390f35b61061e60048036038101906106199190614a77565b6148de565b60405161062b9190614ab3565b60405180910390f35b61064e600480360381019061064991906149de565b61491d565b60405161065b9190614e4d565b60405180910390f35b61066c614966565b6040516106799190614e4d565b60405180910390f35b600080600760003373ffffffffffffffffffffffffffffffffffffffff1673ffffffffffffffffffffffffffffffffffffffff16815260200190815260200160002060008473ffffffffffffffffffffffffffffffffffffffff1673ffffffffffffffffffffffffffffffffffffffff16815260200190815260200160002060006101000a81548160ff02191690831515021790555060019050919050565b6002818154811061073157600080fd5b906000526020600020016000915054906101000a900473ffffffffffffffffffffffffffffffffffffffff1681565b606060018054806020026020016040519081016040528092919081815260200182805480156107e457602002820191906000526020600020905b8160009054906101000a900473ffffffffffffffffffffffffffffffffffffffff1673ffffffffffffffffffffffffffffffffffffffff168152602001906001019080831161079a575b5050505050905090565b600960003373ffffffffffffffffffffffffffffffffffffffff1673ffffffffffffffffffffffffffffffffffffffff16815260200190815260200160002060009054906101000a900460ff1661084457600080fd5b6000600660008973ffffffffffffffffffffffffffffffffffffffff1673ffffffffffffffffffffffffffffffffffffffff1681526020019081526020016000209050338160000160006101000a81548173ffffffffffffffffffffffffffffffffffffffff021916908373ffffffffffffffffffffffffffffffffffffffff160217905550878160010160006101000a81548173ffffffffffffffffffffffffffffffffffffffff021916908373ffffffffffffffffffffffffffffffffffffffff1602179055508681600201908161091e919061565b565b5085816003019081610930919061565b565b5084816006019081610942919061565b565b5083816004019081610954919061565b565b5082816005019081610966919061565b565b5081816007019081610978919061565b565b504281600801819055506003889080600181540180825580915050600190039060005260206000200160009091909190916101000a81548173ffffffffffffffffffffffffffffffffffffffff021916908373ffffffffffffffffffffffffffffffffffffffff160217905550600d60008154809291906109f89061575c565b9190505550600a60008973ffffffffffffffffffffffffffffffffffffffff1673ffffffffffffffffffffffffffffffffffffffff1681526020019081526020016000206000815480929190610a4d9061575c565b91905055505050505050505050565b6000600e54905090565b600960003373ffffffffffffffffffffffffffffffffffffffff1673ffffffffffffffffffffffffffffffffffffffff16815260200190815260200160002060009054906101000a900460ff16610abc57600080fd5b6000600660008973ffffffffffffffffffffffffffffffffffffffff1673ffffffffffffffffffffffffffffffffffffffff1681526020019081526020016000209050338160000160006101000a81548173ffffffffffffffffffffffffffffffffffffffff021916908373ffffffffffffffffffffffffffffffffffffffff160217905550878160010160006101000a81548173ffffffffffffffffffffffffffffffffffffffff021916908373ffffffffffffffffffffffffffffffffffffffff16021790555086816002019081610b96919061565b565b5085816003019081610ba8919061565b565b5084816006019081610bba919061565b565b5083816004019081610bcc919061565b565b5082816005019081610bde919061565b565b5081816007019081610bf0919061565b565b505050505050505050565b6000600d54905090565b606080606080606080600760008873ffffffffffffffffffffffffffffffffffffffff1673ffffffffffffffffffffffffffffffffffffffff16815260200190815260200160002060003373ffffffffffffffffffffffffffffffffffffffff1673ffffffffffffffffffffffffffffffffffffffff16815260200190815260200160002060009054906101000a900460ff16610ca157600080fd5b6000600460008973ffffffffffffffffffffffffffffffffffffffff1673ffffffffffffffffffffffffffffffffffffffff168152602001908152602001600020604051806101e0016040529081600082018054610cfe9061547e565b80601f0160208091040260200160405190810160405280929190818152602001828054610d2a9061547e565b8015610d775780601f10610d4c57610100808354040283529160200191610d77565b820191906000526020600020905b815481529060010190602001808311610d5a57829003601f168201915b50505050508152602001600182018054610d909061547e565b80601f0160208091040260200160405190810160405280929190818152602001828054610dbc9061547e565b8015610e095780601f10610dde57610100808354040283529160200191610e09565b820191906000526020600020905b815481529060010190602001808311610dec57829003601f168201915b50505050508152602001600282018054610e229061547e565b80601f0160208091040260200160405190810160405280929190818152602001828054610e4e9061547e565b8015610e9b5780601f10610e7057610100808354040283529160200191610e9b565b820191906000526020600020905b815481529060010190602001808311610e7e57829003601f168201915b50505050508152602001600382018054610eb49061547e565b80601f0160208091040260200160405190810160405280929190818152602001828054610ee09061547e565b8015610f2d5780601f10610f0257610100808354040283529160200191610f2d565b820191906000526020600020905b815481529060010190602001808311610f1057829003601f168201915b50505050508152602001600482018054610f469061547e565b80601f0160208091040260200160405190810160405280929190818152602001828054610f729061547e565b8015610fbf5780601f10610f9457610100808354040283529160200191610fbf565b820191906000526020600020905b815481529060010190602001808311610fa257829003601f168201915b50505050508152602001600582018054610fd89061547e565b80601f01602080910402602001604051908101604052809291908181526020018280546110049061547e565b80156110515780601f1061102657610100808354040283529160200191611051565b820191906000526020600020905b81548152906001019060200180831161103457829003601f168201915b5050505050815260200160068201805461106a9061547e565b80601f01602080910402602001604051908101604052809291908181526020018280546110969061547e565b80156110e35780601f106110b8576101008083540402835291602001916110e3565b820191906000526020600020905b8154815290600101906020018083116110c657829003601f168201915b505050505081526020016007820180546110fc9061547e565b80601f01602080910402602001604051908101604052809291908181526020018280546111289061547e565b80156111755780601f1061114a57610100808354040283529160200191611175565b820191906000526020600020905b81548152906001019060200180831161115857829003601f168201915b5050505050815260200160088201805461118e9061547e565b80601f01602080910402602001604051908101604052809291908181526020018280546111ba9061547e565b80156112075780601f106111dc57610100808354040283529160200191611207565b820191906000526020600020905b8154815290600101906020018083116111ea57829003601f168201915b505050505081526020016009820180546112209061547e565b80601f016020809104026020016040519081016040528092919081815260200182805461124c9061547e565b80156112995780601f1061126e57610100808354040283529160200191611299565b820191906000526020600020905b81548152906001019060200180831161127c57829003601f168201915b50505050508152602001600a820180546112b29061547e565b80601f01602080910402602001604051908101604052809291908181526020018280546112de9061547e565b801561132b5780601f106113005761010080835404028352916020019161132b565b820191906000526020600020905b81548152906001019060200180831161130e57829003601f168201915b50505050508152602001600b820180546113449061547e565b80601f01602080910402602001604051908101604052809291908181526020018280546113709061547e565b80156113bd5780601f10611392576101008083540402835291602001916113bd565b820191906000526020600020905b8154815290600101906020018083116113a057829003601f168201915b50505050508152602001600c820180546113d69061547e565b80601f01602080910402602001604051908101604052809291908181526020018280546114029061547e565b801561144f5780601f106114245761010080835404028352916020019161144f565b820191906000526020600020905b81548152906001019060200180831161143257829003601f168201915b50505050508152602001600d820160009054906101000a900473ffffffffffffffffffffffffffffffffffffffff1673ffffffffffffffffffffffffffffffffffffffff1673ffffffffffffffffffffffffffffffffffffffff168152602001600e8201548152505090508060e001518161010001518261012001518361014001518461016001518561018001519650965096509650965096505091939550919395565b6060806060806060806060600760008973ffffffffffffffffffffffffffffffffffffffff1673ffffffffffffffffffffffffffffffffffffffff16815260200190815260200160002060003373ffffffffffffffffffffffffffffffffffffffff1673ffffffffffffffffffffffffffffffffffffffff16815260200190815260200160002060009054906101000a900460ff1661159157600080fd5b6000600460008a73ffffffffffffffffffffffffffffffffffffffff1673ffffffffffffffffffffffffffffffffffffffff168152602001908152602001600020604051806101e00160405290816000820180546115ee9061547e565b80601f016020809104026020016040519081016040528092919081815260200182805461161a9061547e565b80156116675780601f1061163c57610100808354040283529160200191611667565b820191906000526020600020905b81548152906001019060200180831161164a57829003601f168201915b505050505081526020016001820180546116809061547e565b80601f01602080910402602001604051908101604052809291908181526020018280546116ac9061547e565b80156116f95780601f106116ce576101008083540402835291602001916116f9565b820191906000526020600020905b8154815290600101906020018083116116dc57829003601f168201915b505050505081526020016002820180546117129061547e565b80601f016020809104026020016040519081016040528092919081815260200182805461173e9061547e565b801561178b5780601f106117605761010080835404028352916020019161178b565b820191906000526020600020905b81548152906001019060200180831161176e57829003601f168201915b505050505081526020016003820180546117a49061547e565b80601f01602080910402602001604051908101604052809291908181526020018280546117d09061547e565b801561181d5780601f106117f25761010080835404028352916020019161181d565b820191906000526020600020905b81548152906001019060200180831161180057829003601f168201915b505050505081526020016004820180546118369061547e565b80601f01602080910402602001604051908101604052809291908181526020018280546118629061547e565b80156118af5780601f10611884576101008083540402835291602001916118af565b820191906000526020600020905b81548152906001019060200180831161189257829003601f168201915b505050505081526020016005820180546118c89061547e565b80601f01602080910402602001604051908101604052809291908181526020018280546118f49061547e565b80156119415780601f1061191657610100808354040283529160200191611941565b820191906000526020600020905b81548152906001019060200180831161192457829003601f168201915b5050505050815260200160068201805461195a9061547e565b80601f01602080910402602001604051908101604052809291908181526020018280546119869061547e565b80156119d35780601f106119a8576101008083540402835291602001916119d3565b820191906000526020600020905b8154815290600101906020018083116119b657829003601f168201915b505050505081526020016007820180546119ec9061547e565b80601f0160208091040260200160405190810160405280929190818152602001828054611a189061547e565b8015611a655780601f10611a3a57610100808354040283529160200191611a65565b820191906000526020600020905b815481529060010190602001808311611a4857829003601f168201915b50505050508152602001600882018054611a7e9061547e565b80601f0160208091040260200160405190810160405280929190818152602001828054611aaa9061547e565b8015611af75780601f10611acc57610100808354040283529160200191611af7565b820191906000526020600020905b815481529060010190602001808311611ada57829003601f168201915b50505050508152602001600982018054611b109061547e565b80601f0160208091040260200160405190810160405280929190818152602001828054611b3c9061547e565b8015611b895780601f10611b5e57610100808354040283529160200191611b89565b820191906000526020600020905b815481529060010190602001808311611b6c57829003601f168201915b50505050508152602001600a82018054611ba29061547e565b80601f0160208091040260200160405190810160405280929190818152602001828054611bce9061547e565b8015611c1b5780601f10611bf057610100808354040283529160200191611c1b565b820191906000526020600020905b815481529060010190602001808311611bfe57829003601f168201915b50505050508152602001600b82018054611c349061547e565b80601f0160208091040260200160405190810160405280929190818152602001828054611c609061547e565b8015611cad5780601f10611c8257610100808354040283529160200191611cad565b820191906000526020600020905b815481529060010190602001808311611c9057829003601f168201915b50505050508152602001600c82018054611cc69061547e565b80601f0160208091040260200160405190810160405280929190818152602001828054611cf29061547e565b8015611d3f5780601f10611d1457610100808354040283529160200191611d3f565b820191906000526020600020905b815481529060010190602001808311611d2257829003601f168201915b50505050508152602001600d820160009054906101000a900473ffffffffffffffffffffffffffffffffffffffff1673ffffffffffffffffffffffffffffffffffffffff1673ffffffffffffffffffffffffffffffffffffffff168152602001600e820154815250509050806000015181602001518260400151836060015184608001518560a001518660c00151975097509750975097509750975050919395979092949650565b60006001600760003373ffffffffffffffffffffffffffffffffffffffff1673ffffffffffffffffffffffffffffffffffffffff16815260200190815260200160002060008473ffffffffffffffffffffffffffffffffffffffff1673ffffffffffffffffffffffffffffffffffffffff16815260200190815260200160002060006101000a81548160ff021916908315150217905550600e6000815480929190611e919061575c565b919050555060019050919050565b600080600660008473ffffffffffffffffffffffffffffffffffffffff1673ffffffffffffffffffffffffffffffffffffffff168152602001908152602001600020604051806101200160405290816000820160009054906101000a900473ffffffffffffffffffffffffffffffffffffffff1673ffffffffffffffffffffffffffffffffffffffff1673ffffffffffffffffffffffffffffffffffffffff1681526020016001820160009054906101000a900473ffffffffffffffffffffffffffffffffffffffff1673ffffffffffffffffffffffffffffffffffffffff1673ffffffffffffffffffffffffffffffffffffffff168152602001600282018054611fa99061547e565b80601f0160208091040260200160405190810160405280929190818152602001828054611fd59061547e565b80156120225780601f10611ff757610100808354040283529160200191612022565b820191906000526020600020905b81548152906001019060200180831161200557829003601f168201915b5050505050815260200160038201805461203b9061547e565b80601f01602080910402602001604051908101604052809291908181526020018280546120679061547e565b80156120b45780601f10612089576101008083540402835291602001916120b4565b820191906000526020600020905b81548152906001019060200180831161209757829003601f168201915b505050505081526020016004820180546120cd9061547e565b80601f01602080910402602001604051908101604052809291908181526020018280546120f99061547e565b80156121465780601f1061211b57610100808354040283529160200191612146565b820191906000526020600020905b81548152906001019060200180831161212957829003601f168201915b5050505050815260200160058201805461215f9061547e565b80601f016020809104026020016040519081016040528092919081815260200182805461218b9061547e565b80156121d85780601f106121ad576101008083540402835291602001916121d8565b820191906000526020600020905b8154815290600101906020018083116121bb57829003601f168201915b505050505081526020016006820180546121f19061547e565b80601f016020809104026020016040519081016040528092919081815260200182805461221d9061547e565b801561226a5780601f1061223f5761010080835404028352916020019161226a565b820191906000526020600020905b81548152906001019060200180831161224d57829003601f168201915b505050505081526020016007820180546122839061547e565b80601f01602080910402602001604051908101604052809291908181526020018280546122af9061547e565b80156122fc5780601f106122d1576101008083540402835291602001916122fc565b820191906000526020600020905b8154815290600101906020018083116122df57829003601f168201915b505050505081526020016008820154815250509050806101000151915050919050565b600080600560008473ffffffffffffffffffffffffffffffffffffffff1673ffffffffffffffffffffffffffffffffffffffff1681526020019081526020016000206040518061012001604052908160008201805461237d9061547e565b80601f01602080910402602001604051908101604052809291908181526020018280546123a99061547e565b80156123f65780601f106123cb576101008083540402835291602001916123f6565b820191906000526020600020905b8154815290600101906020018083116123d957829003601f168201915b5050505050815260200160018201805461240f9061547e565b80601f016020809104026020016040519081016040528092919081815260200182805461243b9061547e565b80156124885780601f1061245d57610100808354040283529160200191612488565b820191906000526020600020905b81548152906001019060200180831161246b57829003601f168201915b505050505081526020016002820180546124a19061547e565b80601f01602080910402602001604051908101604052809291908181526020018280546124cd9061547e565b801561251a5780601f106124ef5761010080835404028352916020019161251a565b820191906000526020600020905b8154815290600101906020018083116124fd57829003601f168201915b505050505081526020016003820180546125339061547e565b80601f016020809104026020016040519081016040528092919081815260200182805461255f9061547e565b80156125ac5780601f10612581576101008083540402835291602001916125ac565b820191906000526020600020905b81548152906001019060200180831161258f57829003601f168201915b505050505081526020016004820180546125c59061547e565b80601f01602080910402602001604051908101604052809291908181526020018280546125f19061547e565b801561263e5780601f106126135761010080835404028352916020019161263e565b820191906000526020600020905b81548152906001019060200180831161262157829003601f168201915b505050505081526020016005820180546126579061547e565b80601f01602080910402602001604051908101604052809291908181526020018280546126839061547e565b80156126d05780601f106126a5576101008083540402835291602001916126d0565b820191906000526020600020905b8154815290600101906020018083116126b357829003601f168201915b505050505081526020016006820180546126e99061547e565b80601f01602080910402602001604051908101604052809291908181526020018280546127159061547e565b80156127625780601f1061273757610100808354040283529160200191612762565b820191906000526020600020905b81548152906001019060200180831161274557829003601f168201915b505050505081526020016007820160009054906101000a900473ffffffffffffffffffffffffffffffffffffffff1673ffffffffffffffffffffffffffffffffffffffff1673ffffffffffffffffffffffffffffffffffffffff1681526020016008820154815250509050806101000151915050919050565b600c5481565b6000600c54905090565b600860003373ffffffffffffffffffffffffffffffffffffffff1673ffffffffffffffffffffffffffffffffffffffff16815260200190815260200160002060009054906101000a900460ff161561284257600080fd5b6000600460003373ffffffffffffffffffffffffffffffffffffffff1673ffffffffffffffffffffffffffffffffffffffff16815260200190815260200160002090508b816000019081612896919061565b565b508a8160010190816128a8919061565b565b50898160020190816128ba919061565b565b50888160030190816128cc919061565b565b50878160040190816128de919061565b565b50868160050190816128f0919061565b565b5085816006019081612902919061565b565b5084816007019081612914919061565b565b5083816008019081612926919061565b565b5082816009019081612938919061565b565b508181600a01908161294a919061565b565b503381600d0160006101000a81548173ffffffffffffffffffffffffffffffffffffffff021916908373ffffffffffffffffffffffffffffffffffffffff1602179055504281600e01819055506001339080600181540180825580915050600190039060005260206000200160009091909190916101000a81548173ffffffffffffffffffffffffffffffffffffffff021916908373ffffffffffffffffffffffffffffffffffffffff1602179055506001600860003373ffffffffffffffffffffffffffffffffffffffff1673ffffffffffffffffffffffffffffffffffffffff16815260200190815260200160002060006101000a81548160ff0219169083151502179055506001600760003373ffffffffffffffffffffffffffffffffffffffff1673ffffffffffffffffffffffffffffffffffffffff16815260200190815260200160002060003373ffffffffffffffffffffffffffffffffffffffff1673ffffffffffffffffffffffffffffffffffffffff16815260200190815260200160002060006101000a81548160ff021916908315150217905550600b6000815480929190612afa9061575c565b9190505550505050505050505050505050565b600960003373ffffffffffffffffffffffffffffffffffffffff1673ffffffffffffffffffffffffffffffffffffffff16815260200190815260200160002060009054906101000a900460ff1615612b6457600080fd5b6000600560003373ffffffffffffffffffffffffffffffffffffffff1673ffffffffffffffffffffffffffffffffffffffff168152602001908152602001600020905087816000019081612bb8919061565b565b5086816001019081612bca919061565b565b5085816002019081612bdc919061565b565b5084816003019081612bee919061565b565b5083816004019081612c00919061565b565b5082816005019081612c12919061565b565b5081816006019081612c24919061565b565b50338160070160006101000a81548173ffffffffffffffffffffffffffffffffffffffff021916908373ffffffffffffffffffffffffffffffffffffffff1602179055504281600801819055506002339080600181540180825580915050600190039060005260206000200160009091909190916101000a81548173ffffffffffffffffffffffffffffffffffffffff021916908373ffffffffffffffffffffffffffffffffffffffff1602179055506001600960003373ffffffffffffffffffffffffffffffffffffffff1673ffffffffffffffffffffffffffffffffffffffff16815260200190815260200160002060006101000a81548160ff021916908315150217905550600c6000815480929190612d3f9061575c565b91905055505050505050505050565b60008054906101000a900473ffffffffffffffffffffffffffffffffffffffff1681565b600060608060608060608060606000600660008b73ffffffffffffffffffffffffffffffffffffffff1673ffffffffffffffffffffffffffffffffffffffff168152602001908152602001600020604051806101200160405290816000820160009054906101000a900473ffffffffffffffffffffffffffffffffffffffff1673ffffffffffffffffffffffffffffffffffffffff1673ffffffffffffffffffffffffffffffffffffffff1681526020016001820160009054906101000a900473ffffffffffffffffffffffffffffffffffffffff1673ffffffffffffffffffffffffffffffffffffffff1673ffffffffffffffffffffffffffffffffffffffff168152602001600282018054612e889061547e565b80601f0160208091040260200160405190810160405280929190818152602001828054612eb49061547e565b8015612f015780601f10612ed657610100808354040283529160200191612f01565b820191906000526020600020905b815481529060010190602001808311612ee457829003601f168201915b50505050508152602001600382018054612f1a9061547e565b80601f0160208091040260200160405190810160405280929190818152602001828054612f469061547e565b8015612f935780601f10612f6857610100808354040283529160200191612f93565b820191906000526020600020905b815481529060010190602001808311612f7657829003601f168201915b50505050508152602001600482018054612fac9061547e565b80601f0160208091040260200160405190810160405280929190818152602001828054612fd89061547e565b80156130255780601f10612ffa57610100808354040283529160200191613025565b820191906000526020600020905b81548152906001019060200180831161300857829003601f168201915b5050505050815260200160058201805461303e9061547e565b80601f016020809104026020016040519081016040528092919081815260200182805461306a9061547e565b80156130b75780601f1061308c576101008083540402835291602001916130b7565b820191906000526020600020905b81548152906001019060200180831161309a57829003601f168201915b505050505081526020016006820180546130d09061547e565b80601f01602080910402602001604051908101604052809291908181526020018280546130fc9061547e565b80156131495780601f1061311e57610100808354040283529160200191613149565b820191906000526020600020905b81548152906001019060200180831161312c57829003601f168201915b505050505081526020016007820180546131629061547e565b80601f016020809104026020016040519081016040528092919081815260200182805461318e9061547e565b80156131db5780601f106131b0576101008083540402835291602001916131db565b820191906000526020600020905b8154815290600101906020018083116131be57829003601f168201915b505050505081526020016008820154815250509050600060056000836000015173ffffffffffffffffffffffffffffffffffffffff1673ffffffffffffffffffffffffffffffffffffffff168152602001908152602001600020604051806101200160405290816000820180546132519061547e565b80601f016020809104026020016040519081016040528092919081815260200182805461327d9061547e565b80156132ca5780601f1061329f576101008083540402835291602001916132ca565b820191906000526020600020905b8154815290600101906020018083116132ad57829003601f168201915b505050505081526020016001820180546132e39061547e565b80601f016020809104026020016040519081016040528092919081815260200182805461330f9061547e565b801561335c5780601f106133315761010080835404028352916020019161335c565b820191906000526020600020905b81548152906001019060200180831161333f57829003601f168201915b505050505081526020016002820180546133759061547e565b80601f01602080910402602001604051908101604052809291908181526020018280546133a19061547e565b80156133ee5780601f106133c3576101008083540402835291602001916133ee565b820191906000526020600020905b8154815290600101906020018083116133d157829003601f168201915b505050505081526020016003820180546134079061547e565b80601f01602080910402602001604051908101604052809291908181526020018280546134339061547e565b80156134805780601f1061345557610100808354040283529160200191613480565b820191906000526020600020905b81548152906001019060200180831161346357829003601f168201915b505050505081526020016004820180546134999061547e565b80601f01602080910402602001604051908101604052809291908181526020018280546134c59061547e565b80156135125780601f106134e757610100808354040283529160200191613512565b820191906000526020600020905b8154815290600101906020018083116134f557829003601f168201915b5050505050815260200160058201805461352b9061547e565b80601f01602080910402602001604051908101604052809291908181526020018280546135579061547e565b80156135a45780601f10613579576101008083540402835291602001916135a4565b820191906000526020600020905b81548152906001019060200180831161358757829003601f168201915b505050505081526020016006820180546135bd9061547e565b80601f01602080910402602001604051908101604052809291908181526020018280546135e99061547e565b80156136365780601f1061360b57610100808354040283529160200191613636565b820191906000526020600020905b81548152906001019060200180831161361957829003601f168201915b505050505081526020016007820160009054906101000a900473ffffffffffffffffffffffffffffffffffffffff1673ffffffffffffffffffffffffffffffffffffffff1673ffffffffffffffffffffffffffffffffffffffff168152602001600882015481525050905081600001518160200151836040015184606001518560c0015186608001518760a001518860e00151995099509950995099509950995099505050919395975091939597565b6060600380548060200260200160405190810160405280929190818152602001828054801561376a57602002820191906000526020600020905b8160009054906101000a900473ffffffffffffffffffffffffffffffffffffffff1673ffffffffffffffffffffffffffffffffffffffff1681526020019060010190808311613720575b5050505050905090565b600b5481565b600960003373ffffffffffffffffffffffffffffffffffffffff1673ffffffffffffffffffffffffffffffffffffffff16815260200190815260200160002060009054906101000a900460ff166137d057600080fd5b6000600560003373ffffffffffffffffffffffffffffffffffffffff1673ffffffffffffffffffffffffffffffffffffffff168152602001908152602001600020905087816000019081613824919061565b565b5086816001019081613836919061565b565b5085816002019081613848919061565b565b508481600301908161385a919061565b565b508381600401908161386c919061565b565b508281600501908161387e919061565b565b5081816006019081613890919061565b565b50338160070160006101000a81548173ffffffffffffffffffffffffffffffffffffffff021916908373ffffffffffffffffffffffffffffffffffffffff1602179055505050505050505050565b6060600280548060200260200160405190810160405280929190818152602001828054801561396257602002820191906000526020600020905b8160009054906101000a900473ffffffffffffffffffffffffffffffffffffffff1673ffffffffffffffffffffffffffffffffffffffff1681526020019060010190808311613918575b5050505050905090565b600860003373ffffffffffffffffffffffffffffffffffffffff1673ffffffffffffffffffffffffffffffffffffffff16815260200190815260200160002060009054906101000a900460ff166139c257600080fd5b6000600460003373ffffffffffffffffffffffffffffffffffffffff1673ffffffffffffffffffffffffffffffffffffffff16815260200190815260200160002090508b816000019081613a16919061565b565b508a816001019081613a28919061565b565b5089816002019081613a3a919061565b565b5088816003019081613a4c919061565b565b5087816004019081613a5e919061565b565b5086816005019081613a70919061565b565b5085816006019081613a82919061565b565b5084816007019081613a94919061565b565b5083816008019081613aa6919061565b565b5082816009019081613ab8919061565b565b508181600a019081613aca919061565b565b503381600d0160006101000a81548173ffffffffffffffffffffffffffffffffffffffff021916908373ffffffffffffffffffffffffffffffffffffffff160217905550505050505050505050505050565b60018181548110613b2c57600080fd5b906000526020600020016000915054906101000a900473ffffffffffffffffffffffffffffffffffffffff1681565b600080600460008473ffffffffffffffffffffffffffffffffffffffff1673ffffffffffffffffffffffffffffffffffffffff168152602001908152602001600020604051806101e0016040529081600082018054613bb99061547e565b80601f0160208091040260200160405190810160405280929190818152602001828054613be59061547e565b8015613c325780601f10613c0757610100808354040283529160200191613c32565b820191906000526020600020905b815481529060010190602001808311613c1557829003601f168201915b50505050508152602001600182018054613c4b9061547e565b80601f0160208091040260200160405190810160405280929190818152602001828054613c779061547e565b8015613cc45780601f10613c9957610100808354040283529160200191613cc4565b820191906000526020600020905b815481529060010190602001808311613ca757829003601f168201915b50505050508152602001600282018054613cdd9061547e565b80601f0160208091040260200160405190810160405280929190818152602001828054613d099061547e565b8015613d565780601f10613d2b57610100808354040283529160200191613d56565b820191906000526020600020905b815481529060010190602001808311613d3957829003601f168201915b50505050508152602001600382018054613d6f9061547e565b80601f0160208091040260200160405190810160405280929190818152602001828054613d9b9061547e565b8015613de85780601f10613dbd57610100808354040283529160200191613de8565b820191906000526020600020905b815481529060010190602001808311613dcb57829003601f168201915b50505050508152602001600482018054613e019061547e565b80601f0160208091040260200160405190810160405280929190818152602001828054613e2d9061547e565b8015613e7a5780601f10613e4f57610100808354040283529160200191613e7a565b820191906000526020600020905b815481529060010190602001808311613e5d57829003601f168201915b50505050508152602001600582018054613e939061547e565b80601f0160208091040260200160405190810160405280929190818152602001828054613ebf9061547e565b8015613f0c5780601f10613ee157610100808354040283529160200191613f0c565b820191906000526020600020905b815481529060010190602001808311613eef57829003601f168201915b50505050508152602001600682018054613f259061547e565b80601f0160208091040260200160405190810160405280929190818152602001828054613f519061547e565b8015613f9e5780601f10613f7357610100808354040283529160200191613f9e565b820191906000526020600020905b815481529060010190602001808311613f8157829003601f168201915b50505050508152602001600782018054613fb79061547e565b80601f0160208091040260200160405190810160405280929190818152602001828054613fe39061547e565b80156140305780601f1061400557610100808354040283529160200191614030565b820191906000526020600020905b81548152906001019060200180831161401357829003601f168201915b505050505081526020016008820180546140499061547e565b80601f01602080910402602001604051908101604052809291908181526020018280546140759061547e565b80156140c25780601f10614097576101008083540402835291602001916140c2565b820191906000526020600020905b8154815290600101906020018083116140a557829003601f168201915b505050505081526020016009820180546140db9061547e565b80601f01602080910402602001604051908101604052809291908181526020018280546141079061547e565b80156141545780601f1061412957610100808354040283529160200191614154565b820191906000526020600020905b81548152906001019060200180831161413757829003601f168201915b50505050508152602001600a8201805461416d9061547e565b80601f01602080910402602001604051908101604052809291908181526020018280546141999061547e565b80156141e65780601f106141bb576101008083540402835291602001916141e6565b820191906000526020600020905b8154815290600101906020018083116141c957829003601f168201915b50505050508152602001600b820180546141ff9061547e565b80601f016020809104026020016040519081016040528092919081815260200182805461422b9061547e565b80156142785780601f1061424d57610100808354040283529160200191614278565b820191906000526020600020905b81548152906001019060200180831161425b57829003601f168201915b50505050508152602001600c820180546142919061547e565b80601f01602080910402602001604051908101604052809291908181526020018280546142bd9061547e565b801561430a5780601f106142df5761010080835404028352916020019161430a565b820191906000526020600020905b8154815290600101906020018083116142ed57829003601f168201915b50505050508152602001600d820160009054906101000a900473ffffffffffffffffffffffffffffffffffffffff1673ffffffffffffffffffffffffffffffffffffffff1673ffffffffffffffffffffffffffffffffffffffff168152602001600e820154815250509050806101c00151915050919050565b600e5481565b6000600b54905090565b6060806060806060806060600960008973ffffffffffffffffffffffffffffffffffffffff1673ffffffffffffffffffffffffffffffffffffffff16815260200190815260200160002060009054906101000a900460ff166143f457600080fd5b6000600560008a73ffffffffffffffffffffffffffffffffffffffff1673ffffffffffffffffffffffffffffffffffffffff168152602001908152602001600020604051806101200160405290816000820180546144519061547e565b80601f016020809104026020016040519081016040528092919081815260200182805461447d9061547e565b80156144ca5780601f1061449f576101008083540402835291602001916144ca565b820191906000526020600020905b8154815290600101906020018083116144ad57829003601f168201915b505050505081526020016001820180546144e39061547e565b80601f016020809104026020016040519081016040528092919081815260200182805461450f9061547e565b801561455c5780601f106145315761010080835404028352916020019161455c565b820191906000526020600020905b81548152906001019060200180831161453f57829003601f168201915b505050505081526020016002820180546145759061547e565b80601f01602080910402602001604051908101604052809291908181526020018280546145a19061547e565b80156145ee5780601f106145c3576101008083540402835291602001916145ee565b820191906000526020600020905b8154815290600101906020018083116145d157829003601f168201915b505050505081526020016003820180546146079061547e565b80601f01602080910402602001604051908101604052809291908181526020018280546146339061547e565b80156146805780601f1061465557610100808354040283529160200191614680565b820191906000526020600020905b81548152906001019060200180831161466357829003601f168201915b505050505081526020016004820180546146999061547e565b80601f01602080910402602001604051908101604052809291908181526020018280546146c59061547e565b80156147125780601f106146e757610100808354040283529160200191614712565b820191906000526020600020905b8154815290600101906020018083116146f557829003601f168201915b5050505050815260200160058201805461472b9061547e565b80601f01602080910402602001604051908101604052809291908181526020018280546147579061547e565b80156147a45780601f10614779576101008083540402835291602001916147a4565b820191906000526020600020905b81548152906001019060200180831161478757829003601f168201915b505050505081526020016006820180546147bd9061547e565b80601f01602080910402602001604051908101604052809291908181526020018280546147e99061547e565b80156148365780601f1061480b57610100808354040283529160200191614836565b820191906000526020600020905b81548152906001019060200180831161481957829003601f168201915b505050505081526020016007820160009054906101000a900473ffffffffffffffffffffffffffffffffffffffff1673ffffffffffffffffffffffffffffffffffffffff1673ffffffffffffffffffffffffffffffffffffffff1681526020016008820154815250509050806000015181602001518260400151836060015184608001518560a001518660c00151975097509750975097509750975050919395979092949650565b600381815481106148ee57600080fd5b906000526020600020016000915054906101000a900473ffffffffffffffffffffffffffffffffffffffff1681565b6000600a60008373ffffffffffffffffffffffffffffffffffffffff1673ffffffffffffffffffffffffffffffffffffffff168152602001908152602001600020549050919050565b600d5481565b6000604051905090565b600080fd5b600080fd5b600073ffffffffffffffffffffffffffffffffffffffff82169050919050565b60006149ab82614980565b9050919050565b6149bb816149a0565b81146149c657600080fd5b50565b6000813590506149d8816149b2565b92915050565b6000602082840312156149f4576149f3614976565b5b6000614a02848285016149c9565b91505092915050565b60008115159050919050565b614a2081614a0b565b82525050565b6000602082019050614a3b6000830184614a17565b92915050565b6000819050919050565b614a5481614a41565b8114614a5f57600080fd5b50565b600081359050614a7181614a4b565b92915050565b600060208284031215614a8d57614a8c614976565b5b6000614a9b84828501614a62565b91505092915050565b614aad816149a0565b82525050565b6000602082019050614ac86000830184614aa4565b92915050565b600081519050919050565b600082825260208201905092915050565b6000819050602082019050919050565b614b03816149a0565b82525050565b6000614b158383614afa565b60208301905092915050565b6000602082019050919050565b6000614b3982614ace565b614b438185614ad9565b9350614b4e83614aea565b8060005b83811015614b7f578151614b668882614b09565b9750614b7183614b21565b925050600181019050614b52565b5085935050505092915050565b60006020820190508181036000830152614ba68184614b2e565b905092915050565b600080fd5b600080fd5b6000601f19601f8301169050919050565b7f4e487b7100000000000000000000000000000000000000000000000000000000600052604160045260246000fd5b614c0182614bb8565b810181811067ffffffffffffffff82111715614c2057614c1f614bc9565b5b80604052505050565b6000614c3361496c565b9050614c3f8282614bf8565b919050565b600067ffffffffffffffff821115614c5f57614c5e614bc9565b5b614c6882614bb8565b9050602081019050919050565b82818337600083830152505050565b6000614c97614c9284614c44565b614c29565b905082815260208101848484011115614cb357614cb2614bb3565b5b614cbe848285614c75565b509392505050565b600082601f830112614cdb57614cda614bae565b5b8135614ceb848260208601614c84565b91505092915050565b600080600080600080600060e0888a031215614d1357614d12614976565b5b6000614d218a828b016149c9565b975050602088013567ffffffffffffffff811115614d4257614d4161497b565b5b614d4e8a828b01614cc6565b965050604088013567ffffffffffffffff811115614d6f57614d6e61497b565b5b614d7b8a828b01614cc6565b955050606088013567ffffffffffffffff811115614d9c57614d9b61497b565b5b614da88a828b01614cc6565b945050608088013567ffffffffffffffff811115614dc957614dc861497b565b5b614dd58a828b01614cc6565b93505060a088013567ffffffffffffffff811115614df657614df561497b565b5b614e028a828b01614cc6565b92505060c088013567ffffffffffffffff811115614e2357614e2261497b565b5b614e2f8a828b01614cc6565b91505092959891949750929550565b614e4781614a41565b82525050565b6000602082019050614e626000830184614e3e565b92915050565b600081519050919050565b600082825260208201905092915050565b60005b83811015614ea2578082015181840152602081019050614e87565b60008484015250505050565b6000614eb982614e68565b614ec38185614e73565b9350614ed3818560208601614e84565b614edc81614bb8565b840191505092915050565b600060c0820190508181036000830152614f018189614eae565b90508181036020830152614f158188614eae565b90508181036040830152614f298187614eae565b90508181036060830152614f3d8186614eae565b90508181036080830152614f518185614eae565b905081810360a0830152614f658184614eae565b9050979650505050505050565b600060e0820190508181036000830152614f8c818a614eae565b90508181036020830152614fa08189614eae565b90508181036040830152614fb48188614eae565b90508181036060830152614fc88187614eae565b90508181036080830152614fdc8186614eae565b905081810360a0830152614ff08185614eae565b905081810360c08301526150048184614eae565b905098975050505050505050565b60008060008060008060008060008060006101608c8e03121561503857615037614976565b5b60008c013567ffffffffffffffff8111156150565761505561497b565b5b6150628e828f01614cc6565b9b505060208c013567ffffffffffffffff8111156150835761508261497b565b5b61508f8e828f01614cc6565b9a505060408c013567ffffffffffffffff8111156150b0576150af61497b565b5b6150bc8e828f01614cc6565b99505060608c013567ffffffffffffffff8111156150dd576150dc61497b565b5b6150e98e828f01614cc6565b98505060808c013567ffffffffffffffff81111561510a5761510961497b565b5b6151168e828f01614cc6565b97505060a08c013567ffffffffffffffff8111156151375761513661497b565b5b6151438e828f01614cc6565b96505060c08c013567ffffffffffffffff8111156151645761516361497b565b5b6151708e828f01614cc6565b95505060e08c013567ffffffffffffffff8111156151915761519061497b565b5b61519d8e828f01614cc6565b9450506101008c013567ffffffffffffffff8111156151bf576151be61497b565b5b6151cb8e828f01614cc6565b9350506101208c013567ffffffffffffffff8111156151ed576151ec61497b565b5b6151f98e828f01614cc6565b9250506101408c013567ffffffffffffffff81111561521b5761521a61497b565b5b6152278e828f01614cc6565b9150509295989b509295989b9093969950565b600080600080600080600060e0888a03121561525957615258614976565b5b600088013567ffffffffffffffff8111156152775761527661497b565b5b6152838a828b01614cc6565b975050602088013567ffffffffffffffff8111156152a4576152a361497b565b5b6152b08a828b01614cc6565b965050604088013567ffffffffffffffff8111156152d1576152d061497b565b5b6152dd8a828b01614cc6565b955050606088013567ffffffffffffffff8111156152fe576152fd61497b565b5b61530a8a828b01614cc6565b945050608088013567ffffffffffffffff81111561532b5761532a61497b565b5b6153378a828b01614cc6565b93505060a088013567ffffffffffffffff8111156153585761535761497b565b5b6153648a828b01614cc6565b92505060c088013567ffffffffffffffff8111156153855761538461497b565b5b6153918a828b01614cc6565b91505092959891949750929550565b6000610100820190506153b6600083018b614aa4565b81810360208301526153c8818a614eae565b905081810360408301526153dc8189614eae565b905081810360608301526153f08188614eae565b905081810360808301526154048187614eae565b905081810360a08301526154188186614eae565b905081810360c083015261542c8185614eae565b905081810360e08301526154408184614eae565b90509998505050505050505050565b7f4e487b7100000000000000000000000000000000000000000000000000000000600052602260045260246000fd5b6000600282049050600182168061549657607f821691505b6020821081036154a9576154a861544f565b5b50919050565b60008190508160005260206000209050919050565b60006020601f8301049050919050565b600082821b905092915050565b6000600883026155117fffffffffffffffffffffffffffffffffffffffffffffffffffffffffffffffff826154d4565b61551b86836154d4565b95508019841693508086168417925050509392505050565b6000819050919050565b600061555861555361554e84614a41565b615533565b614a41565b9050919050565b6000819050919050565b6155728361553d565b61558661557e8261555f565b8484546154e1565b825550505050565b600090565b61559b61558e565b6155a6818484615569565b505050565b5b818110156155ca576155bf600082615593565b6001810190506155ac565b5050565b601f82111561560f576155e0816154af565b6155e9846154c4565b810160208510156155f8578190505b61560c615604856154c4565b8301826155ab565b50505b505050565b600082821c905092915050565b600061563260001984600802615614565b1980831691505092915050565b600061564b8383615621565b9150826002028217905092915050565b61566482614e68565b67ffffffffffffffff81111561567d5761567c614bc9565b5b615687825461547e565b6156928282856155ce565b600060209050601f8311600181146156c557600084156156b3578287015190505b6156bd858261563f565b865550615725565b601f1984166156d3866154af565b60005b828110156156fb578489015182556001820191506020850194506020810190506156d6565b868310156157185784890151615714601f891682615621565b8355505b6001600288020188555050505b505050505050565b7f4e487b7100000000000000000000000000000000000000000000000000000000600052601160045260246000fd5b600061576782614a41565b91507fffffffffffffffffffffffffffffffffffffffffffffffffffffffffffffffff82036157995761579861572d565b5b60018201905091905056fea26469706673582212204e86158779267e4e27727f1c51b6c4336c9d1289d1298e4b5e77e0b9b398608064736f6c63430008110033","opcodes":"PUSH1 0x80 PUSH1 0x40 MSTORE PUSH1 0x0 PUSH1 0xB SSTORE PUSH1 0x0 PUSH1 0xC SSTORE PUSH1 0x0 PUSH1 0xD SSTORE PUSH1 0x0 PUSH1 0xE SSTORE CALLVALUE DUP1 ISZERO PUSH2 0x24 JUMPI PUSH1 0x0 DUP1 REVERT JUMPDEST POP CALLER PUSH1 0x0 DUP1 PUSH2 0x100 EXP DUP2 SLOAD DUP2 PUSH20 0xFFFFFFFFFFFFFFFFFFFFFFFFFFFFFFFFFFFFFFFF MUL NOT AND SWAP1 DUP4 PUSH20 0xFFFFFFFFFFFFFFFFFFFFFFFFFFFFFFFFFFFFFFFF AND MUL OR SWAP1 SSTORE POP PUSH2 0x57DA DUP1 PUSH3 0x75 PUSH1 0x0 CODECOPY PUSH1 0x0 RETURN INVALID PUSH1 0x80 PUSH1 0x40 MSTORE CALLVALUE DUP1 ISZERO PUSH2 0x10 JUMPI PUSH1 0x0 DUP1 REVERT JUMPDEST POP PUSH1 0x4 CALLDATASIZE LT PUSH2 0x1E5 JUMPI PUSH1 0x0 CALLDATALOAD PUSH1 0xE0 SHR DUP1 PUSH4 0x8B945C6D GT PUSH2 0x10F JUMPI DUP1 PUSH4 0xBABB1D41 GT PUSH2 0xA2 JUMPI DUP1 PUSH4 0xCAEE6C85 GT PUSH2 0x71 JUMPI DUP1 PUSH4 0xCAEE6C85 EQ PUSH2 0x5CE JUMPI DUP1 PUSH4 0xE6FCE0D2 EQ PUSH2 0x604 JUMPI DUP1 PUSH4 0xE93A15B9 EQ PUSH2 0x634 JUMPI DUP1 PUSH4 0xEEBC3FB2 EQ PUSH2 0x664 JUMPI PUSH2 0x1E5 JUMP JUMPDEST DUP1 PUSH4 0xBABB1D41 EQ PUSH2 0x532 JUMPI DUP1 PUSH4 0xBD6F972B EQ PUSH2 0x562 JUMPI DUP1 PUSH4 0xC0CB24BA EQ PUSH2 0x592 JUMPI DUP1 PUSH4 0xC190665B EQ PUSH2 0x5B0 JUMPI PUSH2 0x1E5 JUMP JUMPDEST DUP1 PUSH4 0xA0303C41 GT PUSH2 0xDE JUMPI DUP1 PUSH4 0xA0303C41 EQ PUSH2 0x4BE JUMPI DUP1 PUSH4 0xA5ACA8BC EQ PUSH2 0x4DC JUMPI DUP1 PUSH4 0xB13D5D94 EQ PUSH2 0x4F8 JUMPI DUP1 PUSH4 0xB6B477F3 EQ PUSH2 0x516 JUMPI PUSH2 0x1E5 JUMP JUMPDEST DUP1 PUSH4 0x8B945C6D EQ PUSH2 0x42F JUMPI DUP1 PUSH4 0x8DA5CB5B EQ PUSH2 0x44B JUMPI DUP1 PUSH4 0x92041982 EQ PUSH2 0x469 JUMPI DUP1 PUSH4 0x96B80D08 EQ PUSH2 0x4A0 JUMPI PUSH2 0x1E5 JUMP JUMPDEST DUP1 PUSH4 0x2A825BA0 GT PUSH2 0x187 JUMPI DUP1 PUSH4 0x625961FC GT PUSH2 0x156 JUMPI DUP1 PUSH4 0x625961FC EQ PUSH2 0x3A7 JUMPI DUP1 PUSH4 0x78522BC4 EQ PUSH2 0x3D7 JUMPI DUP1 PUSH4 0x79111C1C EQ PUSH2 0x3F5 JUMPI DUP1 PUSH4 0x80B76B26 EQ PUSH2 0x413 JUMPI PUSH2 0x1E5 JUMP JUMPDEST DUP1 PUSH4 0x2A825BA0 EQ PUSH2 0x2DC JUMPI DUP1 PUSH4 0x3BC98280 EQ PUSH2 0x311 JUMPI DUP1 PUSH4 0x3D391F70 EQ PUSH2 0x347 JUMPI DUP1 PUSH4 0x4C14B38D EQ PUSH2 0x377 JUMPI PUSH2 0x1E5 JUMP JUMPDEST DUP1 PUSH4 0x245F9686 GT PUSH2 0x1C3 JUMPI DUP1 PUSH4 0x245F9686 EQ PUSH2 0x268 JUMPI DUP1 PUSH4 0x24C24B2B EQ PUSH2 0x284 JUMPI DUP1 PUSH4 0x261B73F3 EQ PUSH2 0x2A2 JUMPI DUP1 PUSH4 0x29E4AFBB EQ PUSH2 0x2BE JUMPI PUSH2 0x1E5 JUMP JUMPDEST DUP1 PUSH4 0x2516ABD EQ PUSH2 0x1EA JUMPI DUP1 PUSH4 0x127CA4B4 EQ PUSH2 0x21A JUMPI DUP1 PUSH4 0x12AD1C37 EQ PUSH2 0x24A JUMPI JUMPDEST PUSH1 0x0 DUP1 REVERT JUMPDEST PUSH2 0x204 PUSH1 0x4 DUP1 CALLDATASIZE SUB DUP2 ADD SWAP1 PUSH2 0x1FF SWAP2 SWAP1 PUSH2 0x49DE JUMP JUMPDEST PUSH2 0x682 JUMP JUMPDEST PUSH1 0x40 MLOAD PUSH2 0x211 SWAP2 SWAP1 PUSH2 0x4A26 JUMP JUMPDEST PUSH1 0x40 MLOAD DUP1 SWAP2 SUB SWAP1 RETURN JUMPDEST PUSH2 0x234 PUSH1 0x4 DUP1 CALLDATASIZE SUB DUP2 ADD SWAP1 PUSH2 0x22F SWAP2 SWAP1 PUSH2 0x4A77 JUMP JUMPDEST PUSH2 0x721 JUMP JUMPDEST PUSH1 0x40 MLOAD PUSH2 0x241 SWAP2 SWAP1 PUSH2 0x4AB3 JUMP JUMPDEST PUSH1 0x40 MLOAD DUP1 SWAP2 SUB SWAP1 RETURN JUMPDEST PUSH2 0x252 PUSH2 0x760 JUMP JUMPDEST PUSH1 0x40 MLOAD PUSH2 0x25F SWAP2 SWAP1 PUSH2 0x4B8C JUMP JUMPDEST PUSH1 0x40 MLOAD DUP1 SWAP2 SUB SWAP1 RETURN JUMPDEST PUSH2 0x282 PUSH1 0x4 DUP1 CALLDATASIZE SUB DUP2 ADD SWAP1 PUSH2 0x27D SWAP2 SWAP1 PUSH2 0x4CF4 JUMP JUMPDEST PUSH2 0x7EE JUMP JUMPDEST STOP JUMPDEST PUSH2 0x28C PUSH2 0xA5C JUMP JUMPDEST PUSH1 0x40 MLOAD PUSH2 0x299 SWAP2 SWAP1 PUSH2 0x4E4D JUMP JUMPDEST PUSH1 0x40 MLOAD DUP1 SWAP2 SUB SWAP1 RETURN JUMPDEST PUSH2 0x2BC PUSH1 0x4 DUP1 CALLDATASIZE SUB DUP2 ADD SWAP1 PUSH2 0x2B7 SWAP2 SWAP1 PUSH2 0x4CF4 JUMP JUMPDEST PUSH2 0xA66 JUMP JUMPDEST STOP JUMPDEST PUSH2 0x2C6 PUSH2 0xBFB JUMP JUMPDEST PUSH1 0x40 MLOAD PUSH2 0x2D3 SWAP2 SWAP1 PUSH2 0x4E4D JUMP JUMPDEST PUSH1 0x40 MLOAD DUP1 SWAP2 SUB SWAP1 RETURN JUMPDEST PUSH2 0x2F6 PUSH1 0x4 DUP1 CALLDATASIZE SUB DUP2 ADD SWAP1 PUSH2 0x2F1 SWAP2 SWAP1 PUSH2 0x49DE JUMP JUMPDEST PUSH2 0xC05 JUMP JUMPDEST PUSH1 0x40 MLOAD PUSH2 0x308 SWAP7 SWAP6 SWAP5 SWAP4 SWAP3 SWAP2 SWAP1 PUSH2 0x4EE7 JUMP JUMPDEST PUSH1 0x40 MLOAD DUP1 SWAP2 SUB SWAP1 RETURN JUMPDEST PUSH2 0x32B PUSH1 0x4 DUP1 CALLDATASIZE SUB DUP2 ADD SWAP1 PUSH2 0x326 SWAP2 SWAP1 PUSH2 0x49DE JUMP JUMPDEST PUSH2 0x14F3 JUMP JUMPDEST PUSH1 0x40 MLOAD PUSH2 0x33E SWAP8 SWAP7 SWAP6 SWAP5 SWAP4 SWAP3 SWAP2 SWAP1 PUSH2 0x4F72 JUMP JUMPDEST PUSH1 0x40 MLOAD DUP1 SWAP2 SUB SWAP1 RETURN JUMPDEST PUSH2 0x361 PUSH1 0x4 DUP1 CALLDATASIZE SUB DUP2 ADD SWAP1 PUSH2 0x35C SWAP2 SWAP1 PUSH2 0x49DE JUMP JUMPDEST PUSH2 0x1DE7 JUMP JUMPDEST PUSH1 0x40 MLOAD PUSH2 0x36E SWAP2 SWAP1 PUSH2 0x4A26 JUMP JUMPDEST PUSH1 0x40 MLOAD DUP1 SWAP2 SUB SWAP1 RETURN JUMPDEST PUSH2 0x391 PUSH1 0x4 DUP1 CALLDATASIZE SUB DUP2 ADD SWAP1 PUSH2 0x38C SWAP2 SWAP1 PUSH2 0x49DE JUMP JUMPDEST PUSH2 0x1E9F JUMP JUMPDEST PUSH1 0x40 MLOAD PUSH2 0x39E SWAP2 SWAP1 PUSH2 0x4E4D JUMP JUMPDEST PUSH1 0x40 MLOAD DUP1 SWAP2 SUB SWAP1 RETURN JUMPDEST PUSH2 0x3C1 PUSH1 0x4 DUP1 CALLDATASIZE SUB DUP2 ADD SWAP1 PUSH2 0x3BC SWAP2 SWAP1 PUSH2 0x49DE JUMP JUMPDEST PUSH2 0x231F JUMP JUMPDEST PUSH1 0x40 MLOAD PUSH2 0x3CE SWAP2 SWAP1 PUSH2 0x4E4D JUMP JUMPDEST PUSH1 0x40 MLOAD DUP1 SWAP2 SUB SWAP1 RETURN JUMPDEST PUSH2 0x3DF PUSH2 0x27DB JUMP JUMPDEST PUSH1 0x40 MLOAD PUSH2 0x3EC SWAP2 SWAP1 PUSH2 0x4E4D JUMP JUMPDEST PUSH1 0x40 MLOAD DUP1 SWAP2 SUB SWAP1 RETURN JUMPDEST PUSH2 0x3FD PUSH2 0x27E1 JUMP JUMPDEST PUSH1 0x40 MLOAD PUSH2 0x40A SWAP2 SWAP1 PUSH2 0x4E4D JUMP JUMPDEST PUSH1 0x40 MLOAD DUP1 SWAP2 SUB SWAP1 RETURN JUMPDEST PUSH2 0x42D PUSH1 0x4 DUP1 CALLDATASIZE SUB DUP2 ADD SWAP1 PUSH2 0x428 SWAP2 SWAP1 PUSH2 0x5012 JUMP JUMPDEST PUSH2 0x27EB JUMP JUMPDEST STOP JUMPDEST PUSH2 0x449 PUSH1 0x4 DUP1 CALLDATASIZE SUB DUP2 ADD SWAP1 PUSH2 0x444 SWAP2 SWAP1 PUSH2 0x523A JUMP JUMPDEST PUSH2 0x2B0D JUMP JUMPDEST STOP JUMPDEST PUSH2 0x453 PUSH2 0x2D4E JUMP JUMPDEST PUSH1 0x40 MLOAD PUSH2 0x460 SWAP2 SWAP1 PUSH2 0x4AB3 JUMP JUMPDEST PUSH1 0x40 MLOAD DUP1 SWAP2 SUB SWAP1 RETURN JUMPDEST PUSH2 0x483 PUSH1 0x4 DUP1 CALLDATASIZE SUB DUP2 ADD SWAP1 PUSH2 0x47E SWAP2 SWAP1 PUSH2 0x49DE JUMP JUMPDEST PUSH2 0x2D72 JUMP JUMPDEST PUSH1 0x40 MLOAD PUSH2 0x497 SWAP9 SWAP8 SWAP7 SWAP6 SWAP5 SWAP4 SWAP3 SWAP2 SWAP1 PUSH2 0x53A0 JUMP JUMPDEST PUSH1 0x40 MLOAD DUP1 SWAP2 SUB SWAP1 RETURN JUMPDEST PUSH2 0x4A8 PUSH2 0x36E6 JUMP JUMPDEST PUSH1 0x40 MLOAD PUSH2 0x4B5 SWAP2 SWAP1 PUSH2 0x4B8C JUMP JUMPDEST PUSH1 0x40 MLOAD DUP1 SWAP2 SUB SWAP1 RETURN JUMPDEST PUSH2 0x4C6 PUSH2 0x3774 JUMP JUMPDEST PUSH1 0x40 MLOAD PUSH2 0x4D3 SWAP2 SWAP1 PUSH2 0x4E4D JUMP JUMPDEST PUSH1 0x40 MLOAD DUP1 SWAP2 SUB SWAP1 RETURN JUMPDEST PUSH2 0x4F6 PUSH1 0x4 DUP1 CALLDATASIZE SUB DUP2 ADD SWAP1 PUSH2 0x4F1 SWAP2 SWAP1 PUSH2 0x523A JUMP JUMPDEST PUSH2 0x377A JUMP JUMPDEST STOP JUMPDEST PUSH2 0x500 PUSH2 0x38DE JUMP JUMPDEST PUSH1 0x40 MLOAD PUSH2 0x50D SWAP2 SWAP1 PUSH2 0x4B8C JUMP JUMPDEST PUSH1 0x40 MLOAD DUP1 SWAP2 SUB SWAP1 RETURN JUMPDEST PUSH2 0x530 PUSH1 0x4 DUP1 CALLDATASIZE SUB DUP2 ADD SWAP1 PUSH2 0x52B SWAP2 SWAP1 PUSH2 0x5012 JUMP JUMPDEST PUSH2 0x396C JUMP JUMPDEST STOP JUMPDEST PUSH2 0x54C PUSH1 0x4 DUP1 CALLDATASIZE SUB DUP2 ADD SWAP1 PUSH2 0x547 SWAP2 SWAP1 PUSH2 0x4A77 JUMP JUMPDEST PUSH2 0x3B1C JUMP JUMPDEST PUSH1 0x40 MLOAD PUSH2 0x559 SWAP2 SWAP1 PUSH2 0x4AB3 JUMP JUMPDEST PUSH1 0x40 MLOAD DUP1 SWAP2 SUB SWAP1 RETURN JUMPDEST PUSH2 0x57C PUSH1 0x4 DUP1 CALLDATASIZE SUB DUP2 ADD SWAP1 PUSH2 0x577 SWAP2 SWAP1 PUSH2 0x49DE JUMP JUMPDEST PUSH2 0x3B5B JUMP JUMPDEST PUSH1 0x40 MLOAD PUSH2 0x589 SWAP2 SWAP1 PUSH2 0x4E4D JUMP JUMPDEST PUSH1 0x40 MLOAD DUP1 SWAP2 SUB SWAP1 RETURN JUMPDEST PUSH2 0x59A PUSH2 0x4383 JUMP JUMPDEST PUSH1 0x40 MLOAD PUSH2 0x5A7 SWAP2 SWAP1 PUSH2 0x4E4D JUMP JUMPDEST PUSH1 0x40 MLOAD DUP1 SWAP2 SUB SWAP1 RETURN JUMPDEST PUSH2 0x5B8 PUSH2 0x4389 JUMP JUMPDEST PUSH1 0x40 MLOAD PUSH2 0x5C5 SWAP2 SWAP1 PUSH2 0x4E4D JUMP JUMPDEST PUSH1 0x40 MLOAD DUP1 SWAP2 SUB SWAP1 RETURN JUMPDEST PUSH2 0x5E8 PUSH1 0x4 DUP1 CALLDATASIZE SUB DUP2 ADD SWAP1 PUSH2 0x5E3 SWAP2 SWAP1 PUSH2 0x49DE JUMP JUMPDEST PUSH2 0x4393 JUMP JUMPDEST PUSH1 0x40 MLOAD PUSH2 0x5FB SWAP8 SWAP7 SWAP6 SWAP5 SWAP4 SWAP3 SWAP2 SWAP1 PUSH2 0x4F72 JUMP JUMPDEST PUSH1 0x40 MLOAD DUP1 SWAP2 SUB SWAP1 RETURN JUMPDEST PUSH2 0x61E PUSH1 0x4 DUP1 CALLDATASIZE SUB DUP2 ADD SWAP1 PUSH2 0x619 SWAP2 SWAP1 PUSH2 0x4A77 JUMP JUMPDEST PUSH2 0x48DE JUMP JUMPDEST PUSH1 0x40 MLOAD PUSH2 0x62B SWAP2 SWAP1 PUSH2 0x4AB3 JUMP JUMPDEST PUSH1 0x40 MLOAD DUP1 SWAP2 SUB SWAP1 RETURN JUMPDEST PUSH2 0x64E PUSH1 0x4 DUP1 CALLDATASIZE SUB DUP2 ADD SWAP1 PUSH2 0x649 SWAP2 SWAP1 PUSH2 0x49DE JUMP JUMPDEST PUSH2 0x491D JUMP JUMPDEST PUSH1 0x40 MLOAD PUSH2 0x65B SWAP2 SWAP1 PUSH2 0x4E4D JUMP JUMPDEST PUSH1 0x40 MLOAD DUP1 SWAP2 SUB SWAP1 RETURN JUMPDEST PUSH2 0x66C PUSH2 0x4966 JUMP JUMPDEST PUSH1 0x40 MLOAD PUSH2 0x679 SWAP2 SWAP1 PUSH2 0x4E4D JUMP JUMPDEST PUSH1 0x40 MLOAD DUP1 SWAP2 SUB SWAP1 RETURN JUMPDEST PUSH1 0x0 DUP1 PUSH1 0x7 PUSH1 0x0 CALLER PUSH20 0xFFFFFFFFFFFFFFFFFFFFFFFFFFFFFFFFFFFFFFFF AND PUSH20 0xFFFFFFFFFFFFFFFFFFFFFFFFFFFFFFFFFFFFFFFF AND DUP2 MSTORE PUSH1 0x20 ADD SWAP1 DUP2 MSTORE PUSH1 0x20 ADD PUSH1 0x0 KECCAK256 PUSH1 0x0 DUP5 PUSH20 0xFFFFFFFFFFFFFFFFFFFFFFFFFFFFFFFFFFFFFFFF AND PUSH20 0xFFFFFFFFFFFFFFFFFFFFFFFFFFFFFFFFFFFFFFFF AND DUP2 MSTORE PUSH1 0x20 ADD SWAP1 DUP2 MSTORE PUSH1 0x20 ADD PUSH1 0x0 KECCAK256 PUSH1 0x0 PUSH2 0x100 EXP DUP2 SLOAD DUP2 PUSH1 0xFF MUL NOT AND SWAP1 DUP4 ISZERO ISZERO MUL OR SWAP1 SSTORE POP PUSH1 0x1 SWAP1 POP SWAP2 SWAP1 POP JUMP JUMPDEST PUSH1 0x2 DUP2 DUP2 SLOAD DUP2 LT PUSH2 0x731 JUMPI PUSH1 0x0 DUP1 REVERT JUMPDEST SWAP1 PUSH1 0x0 MSTORE PUSH1 0x20 PUSH1 0x0 KECCAK256 ADD PUSH1 0x0 SWAP2 POP SLOAD SWAP1 PUSH2 0x100 EXP SWAP1 DIV PUSH20 0xFFFFFFFFFFFFFFFFFFFFFFFFFFFFFFFFFFFFFFFF AND DUP2 JUMP JUMPDEST PUSH1 0x60 PUSH1 0x1 DUP1 SLOAD DUP1 PUSH1 0x20 MUL PUSH1 0x20 ADD PUSH1 0x40 MLOAD SWAP1 DUP2 ADD PUSH1 0x40 MSTORE DUP1 SWAP3 SWAP2 SWAP1 DUP2 DUP2 MSTORE PUSH1 0x20 ADD DUP3 DUP1 SLOAD DUP1 ISZERO PUSH2 0x7E4 JUMPI PUSH1 0x20 MUL DUP3 ADD SWAP2 SWAP1 PUSH1 0x0 MSTORE PUSH1 0x20 PUSH1 0x0 KECCAK256 SWAP1 JUMPDEST DUP2 PUSH1 0x0 SWAP1 SLOAD SWAP1 PUSH2 0x100 EXP SWAP1 DIV PUSH20 0xFFFFFFFFFFFFFFFFFFFFFFFFFFFFFFFFFFFFFFFF AND PUSH20 0xFFFFFFFFFFFFFFFFFFFFFFFFFFFFFFFFFFFFFFFF AND DUP2 MSTORE PUSH1 0x20 ADD SWAP1 PUSH1 0x1 ADD SWAP1 DUP1 DUP4 GT PUSH2 0x79A JUMPI JUMPDEST POP POP POP POP POP SWAP1 POP SWAP1 JUMP JUMPDEST PUSH1 0x9 PUSH1 0x0 CALLER PUSH20 0xFFFFFFFFFFFFFFFFFFFFFFFFFFFFFFFFFFFFFFFF AND PUSH20 0xFFFFFFFFFFFFFFFFFFFFFFFFFFFFFFFFFFFFFFFF AND DUP2 MSTORE PUSH1 0x20 ADD SWAP1 DUP2 MSTORE PUSH1 0x20 ADD PUSH1 0x0 KECCAK256 PUSH1 0x0 SWAP1 SLOAD SWAP1 PUSH2 0x100 EXP SWAP1 DIV PUSH1 0xFF AND PUSH2 0x844 JUMPI PUSH1 0x0 DUP1 REVERT JUMPDEST PUSH1 0x0 PUSH1 0x6 PUSH1 0x0 DUP10 PUSH20 0xFFFFFFFFFFFFFFFFFFFFFFFFFFFFFFFFFFFFFFFF AND PUSH20 0xFFFFFFFFFFFFFFFFFFFFFFFFFFFFFFFFFFFFFFFF AND DUP2 MSTORE PUSH1 0x20 ADD SWAP1 DUP2 MSTORE PUSH1 0x20 ADD PUSH1 0x0 KECCAK256 SWAP1 POP CALLER DUP2 PUSH1 0x0 ADD PUSH1 0x0 PUSH2 0x100 EXP DUP2 SLOAD DUP2 PUSH20 0xFFFFFFFFFFFFFFFFFFFFFFFFFFFFFFFFFFFFFFFF MUL NOT AND SWAP1 DUP4 PUSH20 0xFFFFFFFFFFFFFFFFFFFFFFFFFFFFFFFFFFFFFFFF AND MUL OR SWAP1 SSTORE POP DUP8 DUP2 PUSH1 0x1 ADD PUSH1 0x0 PUSH2 0x100 EXP DUP2 SLOAD DUP2 PUSH20 0xFFFFFFFFFFFFFFFFFFFFFFFFFFFFFFFFFFFFFFFF MUL NOT AND SWAP1 DUP4 PUSH20 0xFFFFFFFFFFFFFFFFFFFFFFFFFFFFFFFFFFFFFFFF AND MUL OR SWAP1 SSTORE POP DUP7 DUP2 PUSH1 0x2 ADD SWAP1 DUP2 PUSH2 0x91E SWAP2 SWAP1 PUSH2 0x565B JUMP JUMPDEST POP DUP6 DUP2 PUSH1 0x3 ADD SWAP1 DUP2 PUSH2 0x930 SWAP2 SWAP1 PUSH2 0x565B JUMP JUMPDEST POP DUP5 DUP2 PUSH1 0x6 ADD SWAP1 DUP2 PUSH2 0x942 SWAP2 SWAP1 PUSH2 0x565B JUMP JUMPDEST POP DUP4 DUP2 PUSH1 0x4 ADD SWAP1 DUP2 PUSH2 0x954 SWAP2 SWAP1 PUSH2 0x565B JUMP JUMPDEST POP DUP3 DUP2 PUSH1 0x5 ADD SWAP1 DUP2 PUSH2 0x966 SWAP2 SWAP1 PUSH2 0x565B JUMP JUMPDEST POP DUP2 DUP2 PUSH1 0x7 ADD SWAP1 DUP2 PUSH2 0x978 SWAP2 SWAP1 PUSH2 0x565B JUMP JUMPDEST POP TIMESTAMP DUP2 PUSH1 0x8 ADD DUP2 SWAP1 SSTORE POP PUSH1 0x3 DUP9 SWAP1 DUP1 PUSH1 0x1 DUP2 SLOAD ADD DUP1 DUP3 SSTORE DUP1 SWAP2 POP POP PUSH1 0x1 SWAP1 SUB SWAP1 PUSH1 0x0 MSTORE PUSH1 0x20 PUSH1 0x0 KECCAK256 ADD PUSH1 0x0 SWAP1 SWAP2 SWAP1 SWAP2 SWAP1 SWAP2 PUSH2 0x100 EXP DUP2 SLOAD DUP2 PUSH20 0xFFFFFFFFFFFFFFFFFFFFFFFFFFFFFFFFFFFFFFFF MUL NOT AND SWAP1 DUP4 PUSH20 0xFFFFFFFFFFFFFFFFFFFFFFFFFFFFFFFFFFFFFFFF AND MUL OR SWAP1 SSTORE POP PUSH1 0xD PUSH1 0x0 DUP2 SLOAD DUP1 SWAP3 SWAP2 SWAP1 PUSH2 0x9F8 SWAP1 PUSH2 0x575C JUMP JUMPDEST SWAP2 SWAP1 POP SSTORE POP PUSH1 0xA PUSH1 0x0 DUP10 PUSH20 0xFFFFFFFFFFFFFFFFFFFFFFFFFFFFFFFFFFFFFFFF AND PUSH20 0xFFFFFFFFFFFFFFFFFFFFFFFFFFFFFFFFFFFFFFFF AND DUP2 MSTORE PUSH1 0x20 ADD SWAP1 DUP2 MSTORE PUSH1 0x20 ADD PUSH1 0x0 KECCAK256 PUSH1 0x0 DUP2 SLOAD DUP1 SWAP3 SWAP2 SWAP1 PUSH2 0xA4D SWAP1 PUSH2 0x575C JUMP JUMPDEST SWAP2 SWAP1 POP SSTORE POP POP POP POP POP POP POP POP POP JUMP JUMPDEST PUSH1 0x0 PUSH1 0xE SLOAD SWAP1 POP SWAP1 JUMP JUMPDEST PUSH1 0x9 PUSH1 0x0 CALLER PUSH20 0xFFFFFFFFFFFFFFFFFFFFFFFFFFFFFFFFFFFFFFFF AND PUSH20 0xFFFFFFFFFFFFFFFFFFFFFFFFFFFFFFFFFFFFFFFF AND DUP2 MSTORE PUSH1 0x20 ADD SWAP1 DUP2 MSTORE PUSH1 0x20 ADD PUSH1 0x0 KECCAK256 PUSH1 0x0 SWAP1 SLOAD SWAP1 PUSH2 0x100 EXP SWAP1 DIV PUSH1 0xFF AND PUSH2 0xABC JUMPI PUSH1 0x0 DUP1 REVERT JUMPDEST PUSH1 0x0 PUSH1 0x6 PUSH1 0x0 DUP10 PUSH20 0xFFFFFFFFFFFFFFFFFFFFFFFFFFFFFFFFFFFFFFFF AND PUSH20 0xFFFFFFFFFFFFFFFFFFFFFFFFFFFFFFFFFFFFFFFF AND DUP2 MSTORE PUSH1 0x20 ADD SWAP1 DUP2 MSTORE PUSH1 0x20 ADD PUSH1 0x0 KECCAK256 SWAP1 POP CALLER DUP2 PUSH1 0x0 ADD PUSH1 0x0 PUSH2 0x100 EXP DUP2 SLOAD DUP2 PUSH20 0xFFFFFFFFFFFFFFFFFFFFFFFFFFFFFFFFFFFFFFFF MUL NOT AND SWAP1 DUP4 PUSH20 0xFFFFFFFFFFFFFFFFFFFFFFFFFFFFFFFFFFFFFFFF AND MUL OR SWAP1 SSTORE POP DUP8 DUP2 PUSH1 0x1 ADD PUSH1 0x0 PUSH2 0x100 EXP DUP2 SLOAD DUP2 PUSH20 0xFFFFFFFFFFFFFFFFFFFFFFFFFFFFFFFFFFFFFFFF MUL NOT AND SWAP1 DUP4 PUSH20 0xFFFFFFFFFFFFFFFFFFFFFFFFFFFFFFFFFFFFFFFF AND MUL OR SWAP1 SSTORE POP DUP7 DUP2 PUSH1 0x2 ADD SWAP1 DUP2 PUSH2 0xB96 SWAP2 SWAP1 PUSH2 0x565B JUMP JUMPDEST POP DUP6 DUP2 PUSH1 0x3 ADD SWAP1 DUP2 PUSH2 0xBA8 SWAP2 SWAP1 PUSH2 0x565B JUMP JUMPDEST POP DUP5 DUP2 PUSH1 0x6 ADD SWAP1 DUP2 PUSH2 0xBBA SWAP2 SWAP1 PUSH2 0x565B JUMP JUMPDEST POP DUP4 DUP2 PUSH1 0x4 ADD SWAP1 DUP2 PUSH2 0xBCC SWAP2 SWAP1 PUSH2 0x565B JUMP JUMPDEST POP DUP3 DUP2 PUSH1 0x5 ADD SWAP1 DUP2 PUSH2 0xBDE SWAP2 SWAP1 PUSH2 0x565B JUMP JUMPDEST POP DUP2 DUP2 PUSH1 0x7 ADD SWAP1 DUP2 PUSH2 0xBF0 SWAP2 SWAP1 PUSH2 0x565B JUMP JUMPDEST POP POP POP POP POP POP POP POP POP JUMP JUMPDEST PUSH1 0x0 PUSH1 0xD SLOAD SWAP1 POP SWAP1 JUMP JUMPDEST PUSH1 0x60 DUP1 PUSH1 0x60 DUP1 PUSH1 0x60 DUP1 PUSH1 0x7 PUSH1 0x0 DUP9 PUSH20 0xFFFFFFFFFFFFFFFFFFFFFFFFFFFFFFFFFFFFFFFF AND PUSH20 0xFFFFFFFFFFFFFFFFFFFFFFFFFFFFFFFFFFFFFFFF AND DUP2 MSTORE PUSH1 0x20 ADD SWAP1 DUP2 MSTORE PUSH1 0x20 ADD PUSH1 0x0 KECCAK256 PUSH1 0x0 CALLER PUSH20 0xFFFFFFFFFFFFFFFFFFFFFFFFFFFFFFFFFFFFFFFF AND PUSH20 0xFFFFFFFFFFFFFFFFFFFFFFFFFFFFFFFFFFFFFFFF AND DUP2 MSTORE PUSH1 0x20 ADD SWAP1 DUP2 MSTORE PUSH1 0x20 ADD PUSH1 0x0 KECCAK256 PUSH1 0x0 SWAP1 SLOAD SWAP1 PUSH2 0x100 EXP SWAP1 DIV PUSH1 0xFF AND PUSH2 0xCA1 JUMPI PUSH1 0x0 DUP1 REVERT JUMPDEST PUSH1 0x0 PUSH1 0x4 PUSH1 0x0 DUP10 PUSH20 0xFFFFFFFFFFFFFFFFFFFFFFFFFFFFFFFFFFFFFFFF AND PUSH20 0xFFFFFFFFFFFFFFFFFFFFFFFFFFFFFFFFFFFFFFFF AND DUP2 MSTORE PUSH1 0x20 ADD SWAP1 DUP2 MSTORE PUSH1 0x20 ADD PUSH1 0x0 KECCAK256 PUSH1 0x40 MLOAD DUP1 PUSH2 0x1E0 ADD PUSH1 0x40 MSTORE SWAP1 DUP2 PUSH1 0x0 DUP3 ADD DUP1 SLOAD PUSH2 0xCFE SWAP1 PUSH2 0x547E JUMP JUMPDEST DUP1 PUSH1 0x1F ADD PUSH1 0x20 DUP1 SWAP2 DIV MUL PUSH1 0x20 ADD PUSH1 0x40 MLOAD SWAP1 DUP2 ADD PUSH1 0x40 MSTORE DUP1 SWAP3 SWAP2 SWAP1 DUP2 DUP2 MSTORE PUSH1 0x20 ADD DUP3 DUP1 SLOAD PUSH2 0xD2A SWAP1 PUSH2 0x547E JUMP JUMPDEST DUP1 ISZERO PUSH2 0xD77 JUMPI DUP1 PUSH1 0x1F LT PUSH2 0xD4C JUMPI PUSH2 0x100 DUP1 DUP4 SLOAD DIV MUL DUP4 MSTORE SWAP2 PUSH1 0x20 ADD SWAP2 PUSH2 0xD77 JUMP JUMPDEST DUP3 ADD SWAP2 SWAP1 PUSH1 0x0 MSTORE PUSH1 0x20 PUSH1 0x0 KECCAK256 SWAP1 JUMPDEST DUP2 SLOAD DUP2 MSTORE SWAP1 PUSH1 0x1 ADD SWAP1 PUSH1 0x20 ADD DUP1 DUP4 GT PUSH2 0xD5A JUMPI DUP3 SWAP1 SUB PUSH1 0x1F AND DUP3 ADD SWAP2 JUMPDEST POP POP POP POP POP DUP2 MSTORE PUSH1 0x20 ADD PUSH1 0x1 DUP3 ADD DUP1 SLOAD PUSH2 0xD90 SWAP1 PUSH2 0x547E JUMP JUMPDEST DUP1 PUSH1 0x1F ADD PUSH1 0x20 DUP1 SWAP2 DIV MUL PUSH1 0x20 ADD PUSH1 0x40 MLOAD SWAP1 DUP2 ADD PUSH1 0x40 MSTORE DUP1 SWAP3 SWAP2 SWAP1 DUP2 DUP2 MSTORE PUSH1 0x20 ADD DUP3 DUP1 SLOAD PUSH2 0xDBC SWAP1 PUSH2 0x547E JUMP JUMPDEST DUP1 ISZERO PUSH2 0xE09 JUMPI DUP1 PUSH1 0x1F LT PUSH2 0xDDE JUMPI PUSH2 0x100 DUP1 DUP4 SLOAD DIV MUL DUP4 MSTORE SWAP2 PUSH1 0x20 ADD SWAP2 PUSH2 0xE09 JUMP JUMPDEST DUP3 ADD SWAP2 SWAP1 PUSH1 0x0 MSTORE PUSH1 0x20 PUSH1 0x0 KECCAK256 SWAP1 JUMPDEST DUP2 SLOAD DUP2 MSTORE SWAP1 PUSH1 0x1 ADD SWAP1 PUSH1 0x20 ADD DUP1 DUP4 GT PUSH2 0xDEC JUMPI DUP3 SWAP1 SUB PUSH1 0x1F AND DUP3 ADD SWAP2 JUMPDEST POP POP POP POP POP DUP2 MSTORE PUSH1 0x20 ADD PUSH1 0x2 DUP3 ADD DUP1 SLOAD PUSH2 0xE22 SWAP1 PUSH2 0x547E JUMP JUMPDEST DUP1 PUSH1 0x1F ADD PUSH1 0x20 DUP1 SWAP2 DIV MUL PUSH1 0x20 ADD PUSH1 0x40 MLOAD SWAP1 DUP2 ADD PUSH1 0x40 MSTORE DUP1 SWAP3 SWAP2 SWAP1 DUP2 DUP2 MSTORE PUSH1 0x20 ADD DUP3 DUP1 SLOAD PUSH2 0xE4E SWAP1 PUSH2 0x547E JUMP JUMPDEST DUP1 ISZERO PUSH2 0xE9B JUMPI DUP1 PUSH1 0x1F LT PUSH2 0xE70 JUMPI PUSH2 0x100 DUP1 DUP4 SLOAD DIV MUL DUP4 MSTORE SWAP2 PUSH1 0x20 ADD SWAP2 PUSH2 0xE9B JUMP JUMPDEST DUP3 ADD SWAP2 SWAP1 PUSH1 0x0 MSTORE PUSH1 0x20 PUSH1 0x0 KECCAK256 SWAP1 JUMPDEST DUP2 SLOAD DUP2 MSTORE SWAP1 PUSH1 0x1 ADD SWAP1 PUSH1 0x20 ADD DUP1 DUP4 GT PUSH2 0xE7E JUMPI DUP3 SWAP1 SUB PUSH1 0x1F AND DUP3 ADD SWAP2 JUMPDEST POP POP POP POP POP DUP2 MSTORE PUSH1 0x20 ADD PUSH1 0x3 DUP3 ADD DUP1 SLOAD PUSH2 0xEB4 SWAP1 PUSH2 0x547E JUMP JUMPDEST DUP1 PUSH1 0x1F ADD PUSH1 0x20 DUP1 SWAP2 DIV MUL PUSH1 0x20 ADD PUSH1 0x40 MLOAD SWAP1 DUP2 ADD PUSH1 0x40 MSTORE DUP1 SWAP3 SWAP2 SWAP1 DUP2 DUP2 MSTORE PUSH1 0x20 ADD DUP3 DUP1 SLOAD PUSH2 0xEE0 SWAP1 PUSH2 0x547E JUMP JUMPDEST DUP1 ISZERO PUSH2 0xF2D JUMPI DUP1 PUSH1 0x1F LT PUSH2 0xF02 JUMPI PUSH2 0x100 DUP1 DUP4 SLOAD DIV MUL DUP4 MSTORE SWAP2 PUSH1 0x20 ADD SWAP2 PUSH2 0xF2D JUMP JUMPDEST DUP3 ADD SWAP2 SWAP1 PUSH1 0x0 MSTORE PUSH1 0x20 PUSH1 0x0 KECCAK256 SWAP1 JUMPDEST DUP2 SLOAD DUP2 MSTORE SWAP1 PUSH1 0x1 ADD SWAP1 PUSH1 0x20 ADD DUP1 DUP4 GT PUSH2 0xF10 JUMPI DUP3 SWAP1 SUB PUSH1 0x1F AND DUP3 ADD SWAP2 JUMPDEST POP POP POP POP POP DUP2 MSTORE PUSH1 0x20 ADD PUSH1 0x4 DUP3 ADD DUP1 SLOAD PUSH2 0xF46 SWAP1 PUSH2 0x547E JUMP JUMPDEST DUP1 PUSH1 0x1F ADD PUSH1 0x20 DUP1 SWAP2 DIV MUL PUSH1 0x20 ADD PUSH1 0x40 MLOAD SWAP1 DUP2 ADD PUSH1 0x40 MSTORE DUP1 SWAP3 SWAP2 SWAP1 DUP2 DUP2 MSTORE PUSH1 0x20 ADD DUP3 DUP1 SLOAD PUSH2 0xF72 SWAP1 PUSH2 0x547E JUMP JUMPDEST DUP1 ISZERO PUSH2 0xFBF JUMPI DUP1 PUSH1 0x1F LT PUSH2 0xF94 JUMPI PUSH2 0x100 DUP1 DUP4 SLOAD DIV MUL DUP4 MSTORE SWAP2 PUSH1 0x20 ADD SWAP2 PUSH2 0xFBF JUMP JUMPDEST DUP3 ADD SWAP2 SWAP1 PUSH1 0x0 MSTORE PUSH1 0x20 PUSH1 0x0 KECCAK256 SWAP1 JUMPDEST DUP2 SLOAD DUP2 MSTORE SWAP1 PUSH1 0x1 ADD SWAP1 PUSH1 0x20 ADD DUP1 DUP4 GT PUSH2 0xFA2 JUMPI DUP3 SWAP1 SUB PUSH1 0x1F AND DUP3 ADD SWAP2 JUMPDEST POP POP POP POP POP DUP2 MSTORE PUSH1 0x20 ADD PUSH1 0x5 DUP3 ADD DUP1 SLOAD PUSH2 0xFD8 SWAP1 PUSH2 0x547E JUMP JUMPDEST DUP1 PUSH1 0x1F ADD PUSH1 0x20 DUP1 SWAP2 DIV MUL PUSH1 0x20 ADD PUSH1 0x40 MLOAD SWAP1 DUP2 ADD PUSH1 0x40 MSTORE DUP1 SWAP3 SWAP2 SWAP1 DUP2 DUP2 MSTORE PUSH1 0x20 ADD DUP3 DUP1 SLOAD PUSH2 0x1004 SWAP1 PUSH2 0x547E JUMP JUMPDEST DUP1 ISZERO PUSH2 0x1051 JUMPI DUP1 PUSH1 0x1F LT PUSH2 0x1026 JUMPI PUSH2 0x100 DUP1 DUP4 SLOAD DIV MUL DUP4 MSTORE SWAP2 PUSH1 0x20 ADD SWAP2 PUSH2 0x1051 JUMP JUMPDEST DUP3 ADD SWAP2 SWAP1 PUSH1 0x0 MSTORE PUSH1 0x20 PUSH1 0x0 KECCAK256 SWAP1 JUMPDEST DUP2 SLOAD DUP2 MSTORE SWAP1 PUSH1 0x1 ADD SWAP1 PUSH1 0x20 ADD DUP1 DUP4 GT PUSH2 0x1034 JUMPI DUP3 SWAP1 SUB PUSH1 0x1F AND DUP3 ADD SWAP2 JUMPDEST POP POP POP POP POP DUP2 MSTORE PUSH1 0x20 ADD PUSH1 0x6 DUP3 ADD DUP1 SLOAD PUSH2 0x106A SWAP1 PUSH2 0x547E JUMP JUMPDEST DUP1 PUSH1 0x1F ADD PUSH1 0x20 DUP1 SWAP2 DIV MUL PUSH1 0x20 ADD PUSH1 0x40 MLOAD SWAP1 DUP2 ADD PUSH1 0x40 MSTORE DUP1 SWAP3 SWAP2 SWAP1 DUP2 DUP2 MSTORE PUSH1 0x20 ADD DUP3 DUP1 SLOAD PUSH2 0x1096 SWAP1 PUSH2 0x547E JUMP JUMPDEST DUP1 ISZERO PUSH2 0x10E3 JUMPI DUP1 PUSH1 0x1F LT PUSH2 0x10B8 JUMPI PUSH2 0x100 DUP1 DUP4 SLOAD DIV MUL DUP4 MSTORE SWAP2 PUSH1 0x20 ADD SWAP2 PUSH2 0x10E3 JUMP JUMPDEST DUP3 ADD SWAP2 SWAP1 PUSH1 0x0 MSTORE PUSH1 0x20 PUSH1 0x0 KECCAK256 SWAP1 JUMPDEST DUP2 SLOAD DUP2 MSTORE SWAP1 PUSH1 0x1 ADD SWAP1 PUSH1 0x20 ADD DUP1 DUP4 GT PUSH2 0x10C6 JUMPI DUP3 SWAP1 SUB PUSH1 0x1F AND DUP3 ADD SWAP2 JUMPDEST POP POP POP POP POP DUP2 MSTORE PUSH1 0x20 ADD PUSH1 0x7 DUP3 ADD DUP1 SLOAD PUSH2 0x10FC SWAP1 PUSH2 0x547E JUMP JUMPDEST DUP1 PUSH1 0x1F ADD PUSH1 0x20 DUP1 SWAP2 DIV MUL PUSH1 0x20 ADD PUSH1 0x40 MLOAD SWAP1 DUP2 ADD PUSH1 0x40 MSTORE DUP1 SWAP3 SWAP2 SWAP1 DUP2 DUP2 MSTORE PUSH1 0x20 ADD DUP3 DUP1 SLOAD PUSH2 0x1128 SWAP1 PUSH2 0x547E JUMP JUMPDEST DUP1 ISZERO PUSH2 0x1175 JUMPI DUP1 PUSH1 0x1F LT PUSH2 0x114A JUMPI PUSH2 0x100 DUP1 DUP4 SLOAD DIV MUL DUP4 MSTORE SWAP2 PUSH1 0x20 ADD SWAP2 PUSH2 0x1175 JUMP JUMPDEST DUP3 ADD SWAP2 SWAP1 PUSH1 0x0 MSTORE PUSH1 0x20 PUSH1 0x0 KECCAK256 SWAP1 JUMPDEST DUP2 SLOAD DUP2 MSTORE SWAP1 PUSH1 0x1 ADD SWAP1 PUSH1 0x20 ADD DUP1 DUP4 GT PUSH2 0x1158 JUMPI DUP3 SWAP1 SUB PUSH1 0x1F AND DUP3 ADD SWAP2 JUMPDEST POP POP POP POP POP DUP2 MSTORE PUSH1 0x20 ADD PUSH1 0x8 DUP3 ADD DUP1 SLOAD PUSH2 0x118E SWAP1 PUSH2 0x547E JUMP JUMPDEST DUP1 PUSH1 0x1F ADD PUSH1 0x20 DUP1 SWAP2 DIV MUL PUSH1 0x20 ADD PUSH1 0x40 MLOAD SWAP1 DUP2 ADD PUSH1 0x40 MSTORE DUP1 SWAP3 SWAP2 SWAP1 DUP2 DUP2 MSTORE PUSH1 0x20 ADD DUP3 DUP1 SLOAD PUSH2 0x11BA SWAP1 PUSH2 0x547E JUMP JUMPDEST DUP1 ISZERO PUSH2 0x1207 JUMPI DUP1 PUSH1 0x1F LT PUSH2 0x11DC JUMPI PUSH2 0x100 DUP1 DUP4 SLOAD DIV MUL DUP4 MSTORE SWAP2 PUSH1 0x20 ADD SWAP2 PUSH2 0x1207 JUMP JUMPDEST DUP3 ADD SWAP2 SWAP1 PUSH1 0x0 MSTORE PUSH1 0x20 PUSH1 0x0 KECCAK256 SWAP1 JUMPDEST DUP2 SLOAD DUP2 MSTORE SWAP1 PUSH1 0x1 ADD SWAP1 PUSH1 0x20 ADD DUP1 DUP4 GT PUSH2 0x11EA JUMPI DUP3 SWAP1 SUB PUSH1 0x1F AND DUP3 ADD SWAP2 JUMPDEST POP POP POP POP POP DUP2 MSTORE PUSH1 0x20 ADD PUSH1 0x9 DUP3 ADD DUP1 SLOAD PUSH2 0x1220 SWAP1 PUSH2 0x547E JUMP JUMPDEST DUP1 PUSH1 0x1F ADD PUSH1 0x20 DUP1 SWAP2 DIV MUL PUSH1 0x20 ADD PUSH1 0x40 MLOAD SWAP1 DUP2 ADD PUSH1 0x40 MSTORE DUP1 SWAP3 SWAP2 SWAP1 DUP2 DUP2 MSTORE PUSH1 0x20 ADD DUP3 DUP1 SLOAD PUSH2 0x124C SWAP1 PUSH2 0x547E JUMP JUMPDEST DUP1 ISZERO PUSH2 0x1299 JUMPI DUP1 PUSH1 0x1F LT PUSH2 0x126E JUMPI PUSH2 0x100 DUP1 DUP4 SLOAD DIV MUL DUP4 MSTORE SWAP2 PUSH1 0x20 ADD SWAP2 PUSH2 0x1299 JUMP JUMPDEST DUP3 ADD SWAP2 SWAP1 PUSH1 0x0 MSTORE PUSH1 0x20 PUSH1 0x0 KECCAK256 SWAP1 JUMPDEST DUP2 SLOAD DUP2 MSTORE SWAP1 PUSH1 0x1 ADD SWAP1 PUSH1 0x20 ADD DUP1 DUP4 GT PUSH2 0x127C JUMPI DUP3 SWAP1 SUB PUSH1 0x1F AND DUP3 ADD SWAP2 JUMPDEST POP POP POP POP POP DUP2 MSTORE PUSH1 0x20 ADD PUSH1 0xA DUP3 ADD DUP1 SLOAD PUSH2 0x12B2 SWAP1 PUSH2 0x547E JUMP JUMPDEST DUP1 PUSH1 0x1F ADD PUSH1 0x20 DUP1 SWAP2 DIV MUL PUSH1 0x20 ADD PUSH1 0x40 MLOAD SWAP1 DUP2 ADD PUSH1 0x40 MSTORE DUP1 SWAP3 SWAP2 SWAP1 DUP2 DUP2 MSTORE PUSH1 0x20 ADD DUP3 DUP1 SLOAD PUSH2 0x12DE SWAP1 PUSH2 0x547E JUMP JUMPDEST DUP1 ISZERO PUSH2 0x132B JUMPI DUP1 PUSH1 0x1F LT PUSH2 0x1300 JUMPI PUSH2 0x100 DUP1 DUP4 SLOAD DIV MUL DUP4 MSTORE SWAP2 PUSH1 0x20 ADD SWAP2 PUSH2 0x132B JUMP JUMPDEST DUP3 ADD SWAP2 SWAP1 PUSH1 0x0 MSTORE PUSH1 0x20 PUSH1 0x0 KECCAK256 SWAP1 JUMPDEST DUP2 SLOAD DUP2 MSTORE SWAP1 PUSH1 0x1 ADD SWAP1 PUSH1 0x20 ADD DUP1 DUP4 GT PUSH2 0x130E JUMPI DUP3 SWAP1 SUB PUSH1 0x1F AND DUP3 ADD SWAP2 JUMPDEST POP POP POP POP POP DUP2 MSTORE PUSH1 0x20 ADD PUSH1 0xB DUP3 ADD DUP1 SLOAD PUSH2 0x1344 SWAP1 PUSH2 0x547E JUMP JUMPDEST DUP1 PUSH1 0x1F ADD PUSH1 0x20 DUP1 SWAP2 DIV MUL PUSH1 0x20 ADD PUSH1 0x40 MLOAD SWAP1 DUP2 ADD PUSH1 0x40 MSTORE DUP1 SWAP3 SWAP2 SWAP1 DUP2 DUP2 MSTORE PUSH1 0x20 ADD DUP3 DUP1 SLOAD PUSH2 0x1370 SWAP1 PUSH2 0x547E JUMP JUMPDEST DUP1 ISZERO PUSH2 0x13BD JUMPI DUP1 PUSH1 0x1F LT PUSH2 0x1392 JUMPI PUSH2 0x100 DUP1 DUP4 SLOAD DIV MUL DUP4 MSTORE SWAP2 PUSH1 0x20 ADD SWAP2 PUSH2 0x13BD JUMP JUMPDEST DUP3 ADD SWAP2 SWAP1 PUSH1 0x0 MSTORE PUSH1 0x20 PUSH1 0x0 KECCAK256 SWAP1 JUMPDEST DUP2 SLOAD DUP2 MSTORE SWAP1 PUSH1 0x1 ADD SWAP1 PUSH1 0x20 ADD DUP1 DUP4 GT PUSH2 0x13A0 JUMPI DUP3 SWAP1 SUB PUSH1 0x1F AND DUP3 ADD SWAP2 JUMPDEST POP POP POP POP POP DUP2 MSTORE PUSH1 0x20 ADD PUSH1 0xC DUP3 ADD DUP1 SLOAD PUSH2 0x13D6 SWAP1 PUSH2 0x547E JUMP JUMPDEST DUP1 PUSH1 0x1F ADD PUSH1 0x20 DUP1 SWAP2 DIV MUL PUSH1 0x20 ADD PUSH1 0x40 MLOAD SWAP1 DUP2 ADD PUSH1 0x40 MSTORE DUP1 SWAP3 SWAP2 SWAP1 DUP2 DUP2 MSTORE PUSH1 0x20 ADD DUP3 DUP1 SLOAD PUSH2 0x1402 SWAP1 PUSH2 0x547E JUMP JUMPDEST DUP1 ISZERO PUSH2 0x144F JUMPI DUP1 PUSH1 0x1F LT PUSH2 0x1424 JUMPI PUSH2 0x100 DUP1 DUP4 SLOAD DIV MUL DUP4 MSTORE SWAP2 PUSH1 0x20 ADD SWAP2 PUSH2 0x144F JUMP JUMPDEST DUP3 ADD SWAP2 SWAP1 PUSH1 0x0 MSTORE PUSH1 0x20 PUSH1 0x0 KECCAK256 SWAP1 JUMPDEST DUP2 SLOAD DUP2 MSTORE SWAP1 PUSH1 0x1 ADD SWAP1 PUSH1 0x20 ADD DUP1 DUP4 GT PUSH2 0x1432 JUMPI DUP3 SWAP1 SUB PUSH1 0x1F AND DUP3 ADD SWAP2 JUMPDEST POP POP POP POP POP DUP2 MSTORE PUSH1 0x20 ADD PUSH1 0xD DUP3 ADD PUSH1 0x0 SWAP1 SLOAD SWAP1 PUSH2 0x100 EXP SWAP1 DIV PUSH20 0xFFFFFFFFFFFFFFFFFFFFFFFFFFFFFFFFFFFFFFFF AND PUSH20 0xFFFFFFFFFFFFFFFFFFFFFFFFFFFFFFFFFFFFFFFF AND PUSH20 0xFFFFFFFFFFFFFFFFFFFFFFFFFFFFFFFFFFFFFFFF AND DUP2 MSTORE PUSH1 0x20 ADD PUSH1 0xE DUP3 ADD SLOAD DUP2 MSTORE POP POP SWAP1 POP DUP1 PUSH1 0xE0 ADD MLOAD DUP2 PUSH2 0x100 ADD MLOAD DUP3 PUSH2 0x120 ADD MLOAD DUP4 PUSH2 0x140 ADD MLOAD DUP5 PUSH2 0x160 ADD MLOAD DUP6 PUSH2 0x180 ADD MLOAD SWAP7 POP SWAP7 POP SWAP7 POP SWAP7 POP SWAP7 POP SWAP7 POP POP SWAP2 SWAP4 SWAP6 POP SWAP2 SWAP4 SWAP6 JUMP JUMPDEST PUSH1 0x60 DUP1 PUSH1 0x60 DUP1 PUSH1 0x60 DUP1 PUSH1 0x60 PUSH1 0x7 PUSH1 0x0 DUP10 PUSH20 0xFFFFFFFFFFFFFFFFFFFFFFFFFFFFFFFFFFFFFFFF AND PUSH20 0xFFFFFFFFFFFFFFFFFFFFFFFFFFFFFFFFFFFFFFFF AND DUP2 MSTORE PUSH1 0x20 ADD SWAP1 DUP2 MSTORE PUSH1 0x20 ADD PUSH1 0x0 KECCAK256 PUSH1 0x0 CALLER PUSH20 0xFFFFFFFFFFFFFFFFFFFFFFFFFFFFFFFFFFFFFFFF AND PUSH20 0xFFFFFFFFFFFFFFFFFFFFFFFFFFFFFFFFFFFFFFFF AND DUP2 MSTORE PUSH1 0x20 ADD SWAP1 DUP2 MSTORE PUSH1 0x20 ADD PUSH1 0x0 KECCAK256 PUSH1 0x0 SWAP1 SLOAD SWAP1 PUSH2 0x100 EXP SWAP1 DIV PUSH1 0xFF AND PUSH2 0x1591 JUMPI PUSH1 0x0 DUP1 REVERT JUMPDEST PUSH1 0x0 PUSH1 0x4 PUSH1 0x0 DUP11 PUSH20 0xFFFFFFFFFFFFFFFFFFFFFFFFFFFFFFFFFFFFFFFF AND PUSH20 0xFFFFFFFFFFFFFFFFFFFFFFFFFFFFFFFFFFFFFFFF AND DUP2 MSTORE PUSH1 0x20 ADD SWAP1 DUP2 MSTORE PUSH1 0x20 ADD PUSH1 0x0 KECCAK256 PUSH1 0x40 MLOAD DUP1 PUSH2 0x1E0 ADD PUSH1 0x40 MSTORE SWAP1 DUP2 PUSH1 0x0 DUP3 ADD DUP1 SLOAD PUSH2 0x15EE SWAP1 PUSH2 0x547E JUMP JUMPDEST DUP1 PUSH1 0x1F ADD PUSH1 0x20 DUP1 SWAP2 DIV MUL PUSH1 0x20 ADD PUSH1 0x40 MLOAD SWAP1 DUP2 ADD PUSH1 0x40 MSTORE DUP1 SWAP3 SWAP2 SWAP1 DUP2 DUP2 MSTORE PUSH1 0x20 ADD DUP3 DUP1 SLOAD PUSH2 0x161A SWAP1 PUSH2 0x547E JUMP JUMPDEST DUP1 ISZERO PUSH2 0x1667 JUMPI DUP1 PUSH1 0x1F LT PUSH2 0x163C JUMPI PUSH2 0x100 DUP1 DUP4 SLOAD DIV MUL DUP4 MSTORE SWAP2 PUSH1 0x20 ADD SWAP2 PUSH2 0x1667 JUMP JUMPDEST DUP3 ADD SWAP2 SWAP1 PUSH1 0x0 MSTORE PUSH1 0x20 PUSH1 0x0 KECCAK256 SWAP1 JUMPDEST DUP2 SLOAD DUP2 MSTORE SWAP1 PUSH1 0x1 ADD SWAP1 PUSH1 0x20 ADD DUP1 DUP4 GT PUSH2 0x164A JUMPI DUP3 SWAP1 SUB PUSH1 0x1F AND DUP3 ADD SWAP2 JUMPDEST POP POP POP POP POP DUP2 MSTORE PUSH1 0x20 ADD PUSH1 0x1 DUP3 ADD DUP1 SLOAD PUSH2 0x1680 SWAP1 PUSH2 0x547E JUMP JUMPDEST DUP1 PUSH1 0x1F ADD PUSH1 0x20 DUP1 SWAP2 DIV MUL PUSH1 0x20 ADD PUSH1 0x40 MLOAD SWAP1 DUP2 ADD PUSH1 0x40 MSTORE DUP1 SWAP3 SWAP2 SWAP1 DUP2 DUP2 MSTORE PUSH1 0x20 ADD DUP3 DUP1 SLOAD PUSH2 0x16AC SWAP1 PUSH2 0x547E JUMP JUMPDEST DUP1 ISZERO PUSH2 0x16F9 JUMPI DUP1 PUSH1 0x1F LT PUSH2 0x16CE JUMPI PUSH2 0x100 DUP1 DUP4 SLOAD DIV MUL DUP4 MSTORE SWAP2 PUSH1 0x20 ADD SWAP2 PUSH2 0x16F9 JUMP JUMPDEST DUP3 ADD SWAP2 SWAP1 PUSH1 0x0 MSTORE PUSH1 0x20 PUSH1 0x0 KECCAK256 SWAP1 JUMPDEST DUP2 SLOAD DUP2 MSTORE SWAP1 PUSH1 0x1 ADD SWAP1 PUSH1 0x20 ADD DUP1 DUP4 GT PUSH2 0x16DC JUMPI DUP3 SWAP1 SUB PUSH1 0x1F AND DUP3 ADD SWAP2 JUMPDEST POP POP POP POP POP DUP2 MSTORE PUSH1 0x20 ADD PUSH1 0x2 DUP3 ADD DUP1 SLOAD PUSH2 0x1712 SWAP1 PUSH2 0x547E JUMP JUMPDEST DUP1 PUSH1 0x1F ADD PUSH1 0x20 DUP1 SWAP2 DIV MUL PUSH1 0x20 ADD PUSH1 0x40 MLOAD SWAP1 DUP2 ADD PUSH1 0x40 MSTORE DUP1 SWAP3 SWAP2 SWAP1 DUP2 DUP2 MSTORE PUSH1 0x20 ADD DUP3 DUP1 SLOAD PUSH2 0x173E SWAP1 PUSH2 0x547E JUMP JUMPDEST DUP1 ISZERO PUSH2 0x178B JUMPI DUP1 PUSH1 0x1F LT PUSH2 0x1760 JUMPI PUSH2 0x100 DUP1 DUP4 SLOAD DIV MUL DUP4 MSTORE SWAP2 PUSH1 0x20 ADD SWAP2 PUSH2 0x178B JUMP JUMPDEST DUP3 ADD SWAP2 SWAP1 PUSH1 0x0 MSTORE PUSH1 0x20 PUSH1 0x0 KECCAK256 SWAP1 JUMPDEST DUP2 SLOAD DUP2 MSTORE SWAP1 PUSH1 0x1 ADD SWAP1 PUSH1 0x20 ADD DUP1 DUP4 GT PUSH2 0x176E JUMPI DUP3 SWAP1 SUB PUSH1 0x1F AND DUP3 ADD SWAP2 JUMPDEST POP POP POP POP POP DUP2 MSTORE PUSH1 0x20 ADD PUSH1 0x3 DUP3 ADD DUP1 SLOAD PUSH2 0x17A4 SWAP1 PUSH2 0x547E JUMP JUMPDEST DUP1 PUSH1 0x1F ADD PUSH1 0x20 DUP1 SWAP2 DIV MUL PUSH1 0x20 ADD PUSH1 0x40 MLOAD SWAP1 DUP2 ADD PUSH1 0x40 MSTORE DUP1 SWAP3 SWAP2 SWAP1 DUP2 DUP2 MSTORE PUSH1 0x20 ADD DUP3 DUP1 SLOAD PUSH2 0x17D0 SWAP1 PUSH2 0x547E JUMP JUMPDEST DUP1 ISZERO PUSH2 0x181D JUMPI DUP1 PUSH1 0x1F LT PUSH2 0x17F2 JUMPI PUSH2 0x100 DUP1 DUP4 SLOAD DIV MUL DUP4 MSTORE SWAP2 PUSH1 0x20 ADD SWAP2 PUSH2 0x181D JUMP JUMPDEST DUP3 ADD SWAP2 SWAP1 PUSH1 0x0 MSTORE PUSH1 0x20 PUSH1 0x0 KECCAK256 SWAP1 JUMPDEST DUP2 SLOAD DUP2 MSTORE SWAP1 PUSH1 0x1 ADD SWAP1 PUSH1 0x20 ADD DUP1 DUP4 GT PUSH2 0x1800 JUMPI DUP3 SWAP1 SUB PUSH1 0x1F AND DUP3 ADD SWAP2 JUMPDEST POP POP POP POP POP DUP2 MSTORE PUSH1 0x20 ADD PUSH1 0x4 DUP3 ADD DUP1 SLOAD PUSH2 0x1836 SWAP1 PUSH2 0x547E JUMP JUMPDEST DUP1 PUSH1 0x1F ADD PUSH1 0x20 DUP1 SWAP2 DIV MUL PUSH1 0x20 ADD PUSH1 0x40 MLOAD SWAP1 DUP2 ADD PUSH1 0x40 MSTORE DUP1 SWAP3 SWAP2 SWAP1 DUP2 DUP2 MSTORE PUSH1 0x20 ADD DUP3 DUP1 SLOAD PUSH2 0x1862 SWAP1 PUSH2 0x547E JUMP JUMPDEST DUP1 ISZERO PUSH2 0x18AF JUMPI DUP1 PUSH1 0x1F LT PUSH2 0x1884 JUMPI PUSH2 0x100 DUP1 DUP4 SLOAD DIV MUL DUP4 MSTORE SWAP2 PUSH1 0x20 ADD SWAP2 PUSH2 0x18AF JUMP JUMPDEST DUP3 ADD SWAP2 SWAP1 PUSH1 0x0 MSTORE PUSH1 0x20 PUSH1 0x0 KECCAK256 SWAP1 JUMPDEST DUP2 SLOAD DUP2 MSTORE SWAP1 PUSH1 0x1 ADD SWAP1 PUSH1 0x20 ADD DUP1 DUP4 GT PUSH2 0x1892 JUMPI DUP3 SWAP1 SUB PUSH1 0x1F AND DUP3 ADD SWAP2 JUMPDEST POP POP POP POP POP DUP2 MSTORE PUSH1 0x20 ADD PUSH1 0x5 DUP3 ADD DUP1 SLOAD PUSH2 0x18C8 SWAP1 PUSH2 0x547E JUMP JUMPDEST DUP1 PUSH1 0x1F ADD PUSH1 0x20 DUP1 SWAP2 DIV MUL PUSH1 0x20 ADD PUSH1 0x40 MLOAD SWAP1 DUP2 ADD PUSH1 0x40 MSTORE DUP1 SWAP3 SWAP2 SWAP1 DUP2 DUP2 MSTORE PUSH1 0x20 ADD DUP3 DUP1 SLOAD PUSH2 0x18F4 SWAP1 PUSH2 0x547E JUMP JUMPDEST DUP1 ISZERO PUSH2 0x1941 JUMPI DUP1 PUSH1 0x1F LT PUSH2 0x1916 JUMPI PUSH2 0x100 DUP1 DUP4 SLOAD DIV MUL DUP4 MSTORE SWAP2 PUSH1 0x20 ADD SWAP2 PUSH2 0x1941 JUMP JUMPDEST DUP3 ADD SWAP2 SWAP1 PUSH1 0x0 MSTORE PUSH1 0x20 PUSH1 0x0 KECCAK256 SWAP1 JUMPDEST DUP2 SLOAD DUP2 MSTORE SWAP1 PUSH1 0x1 ADD SWAP1 PUSH1 0x20 ADD DUP1 DUP4 GT PUSH2 0x1924 JUMPI DUP3 SWAP1 SUB PUSH1 0x1F AND DUP3 ADD SWAP2 JUMPDEST POP POP POP POP POP DUP2 MSTORE PUSH1 0x20 ADD PUSH1 0x6 DUP3 ADD DUP1 SLOAD PUSH2 0x195A SWAP1 PUSH2 0x547E JUMP JUMPDEST DUP1 PUSH1 0x1F ADD PUSH1 0x20 DUP1 SWAP2 DIV MUL PUSH1 0x20 ADD PUSH1 0x40 MLOAD SWAP1 DUP2 ADD PUSH1 0x40 MSTORE DUP1 SWAP3 SWAP2 SWAP1 DUP2 DUP2 MSTORE PUSH1 0x20 ADD DUP3 DUP1 SLOAD PUSH2 0x1986 SWAP1 PUSH2 0x547E JUMP JUMPDEST DUP1 ISZERO PUSH2 0x19D3 JUMPI DUP1 PUSH1 0x1F LT PUSH2 0x19A8 JUMPI PUSH2 0x100 DUP1 DUP4 SLOAD DIV MUL DUP4 MSTORE SWAP2 PUSH1 0x20 ADD SWAP2 PUSH2 0x19D3 JUMP JUMPDEST DUP3 ADD SWAP2 SWAP1 PUSH1 0x0 MSTORE PUSH1 0x20 PUSH1 0x0 KECCAK256 SWAP1 JUMPDEST DUP2 SLOAD DUP2 MSTORE SWAP1 PUSH1 0x1 ADD SWAP1 PUSH1 0x20 ADD DUP1 DUP4 GT PUSH2 0x19B6 JUMPI DUP3 SWAP1 SUB PUSH1 0x1F AND DUP3 ADD SWAP2 JUMPDEST POP POP POP POP POP DUP2 MSTORE PUSH1 0x20 ADD PUSH1 0x7 DUP3 ADD DUP1 SLOAD PUSH2 0x19EC SWAP1 PUSH2 0x547E JUMP JUMPDEST DUP1 PUSH1 0x1F ADD PUSH1 0x20 DUP1 SWAP2 DIV MUL PUSH1 0x20 ADD PUSH1 0x40 MLOAD SWAP1 DUP2 ADD PUSH1 0x40 MSTORE DUP1 SWAP3 SWAP2 SWAP1 DUP2 DUP2 MSTORE PUSH1 0x20 ADD DUP3 DUP1 SLOAD PUSH2 0x1A18 SWAP1 PUSH2 0x547E JUMP JUMPDEST DUP1 ISZERO PUSH2 0x1A65 JUMPI DUP1 PUSH1 0x1F LT PUSH2 0x1A3A JUMPI PUSH2 0x100 DUP1 DUP4 SLOAD DIV MUL DUP4 MSTORE SWAP2 PUSH1 0x20 ADD SWAP2 PUSH2 0x1A65 JUMP JUMPDEST DUP3 ADD SWAP2 SWAP1 PUSH1 0x0 MSTORE PUSH1 0x20 PUSH1 0x0 KECCAK256 SWAP1 JUMPDEST DUP2 SLOAD DUP2 MSTORE SWAP1 PUSH1 0x1 ADD SWAP1 PUSH1 0x20 ADD DUP1 DUP4 GT PUSH2 0x1A48 JUMPI DUP3 SWAP1 SUB PUSH1 0x1F AND DUP3 ADD SWAP2 JUMPDEST POP POP POP POP POP DUP2 MSTORE PUSH1 0x20 ADD PUSH1 0x8 DUP3 ADD DUP1 SLOAD PUSH2 0x1A7E SWAP1 PUSH2 0x547E JUMP JUMPDEST DUP1 PUSH1 0x1F ADD PUSH1 0x20 DUP1 SWAP2 DIV MUL PUSH1 0x20 ADD PUSH1 0x40 MLOAD SWAP1 DUP2 ADD PUSH1 0x40 MSTORE DUP1 SWAP3 SWAP2 SWAP1 DUP2 DUP2 MSTORE PUSH1 0x20 ADD DUP3 DUP1 SLOAD PUSH2 0x1AAA SWAP1 PUSH2 0x547E JUMP JUMPDEST DUP1 ISZERO PUSH2 0x1AF7 JUMPI DUP1 PUSH1 0x1F LT PUSH2 0x1ACC JUMPI PUSH2 0x100 DUP1 DUP4 SLOAD DIV MUL DUP4 MSTORE SWAP2 PUSH1 0x20 ADD SWAP2 PUSH2 0x1AF7 JUMP JUMPDEST DUP3 ADD SWAP2 SWAP1 PUSH1 0x0 MSTORE PUSH1 0x20 PUSH1 0x0 KECCAK256 SWAP1 JUMPDEST DUP2 SLOAD DUP2 MSTORE SWAP1 PUSH1 0x1 ADD SWAP1 PUSH1 0x20 ADD DUP1 DUP4 GT PUSH2 0x1ADA JUMPI DUP3 SWAP1 SUB PUSH1 0x1F AND DUP3 ADD SWAP2 JUMPDEST POP POP POP POP POP DUP2 MSTORE PUSH1 0x20 ADD PUSH1 0x9 DUP3 ADD DUP1 SLOAD PUSH2 0x1B10 SWAP1 PUSH2 0x547E JUMP JUMPDEST DUP1 PUSH1 0x1F ADD PUSH1 0x20 DUP1 SWAP2 DIV MUL PUSH1 0x20 ADD PUSH1 0x40 MLOAD SWAP1 DUP2 ADD PUSH1 0x40 MSTORE DUP1 SWAP3 SWAP2 SWAP1 DUP2 DUP2 MSTORE PUSH1 0x20 ADD DUP3 DUP1 SLOAD PUSH2 0x1B3C SWAP1 PUSH2 0x547E JUMP JUMPDEST DUP1 ISZERO PUSH2 0x1B89 JUMPI DUP1 PUSH1 0x1F LT PUSH2 0x1B5E JUMPI PUSH2 0x100 DUP1 DUP4 SLOAD DIV MUL DUP4 MSTORE SWAP2 PUSH1 0x20 ADD SWAP2 PUSH2 0x1B89 JUMP JUMPDEST DUP3 ADD SWAP2 SWAP1 PUSH1 0x0 MSTORE PUSH1 0x20 PUSH1 0x0 KECCAK256 SWAP1 JUMPDEST DUP2 SLOAD DUP2 MSTORE SWAP1 PUSH1 0x1 ADD SWAP1 PUSH1 0x20 ADD DUP1 DUP4 GT PUSH2 0x1B6C JUMPI DUP3 SWAP1 SUB PUSH1 0x1F AND DUP3 ADD SWAP2 JUMPDEST POP POP POP POP POP DUP2 MSTORE PUSH1 0x20 ADD PUSH1 0xA DUP3 ADD DUP1 SLOAD PUSH2 0x1BA2 SWAP1 PUSH2 0x547E JUMP JUMPDEST DUP1 PUSH1 0x1F ADD PUSH1 0x20 DUP1 SWAP2 DIV MUL PUSH1 0x20 ADD PUSH1 0x40 MLOAD SWAP1 DUP2 ADD PUSH1 0x40 MSTORE DUP1 SWAP3 SWAP2 SWAP1 DUP2 DUP2 MSTORE PUSH1 0x20 ADD DUP3 DUP1 SLOAD PUSH2 0x1BCE SWAP1 PUSH2 0x547E JUMP JUMPDEST DUP1 ISZERO PUSH2 0x1C1B JUMPI DUP1 PUSH1 0x1F LT PUSH2 0x1BF0 JUMPI PUSH2 0x100 DUP1 DUP4 SLOAD DIV MUL DUP4 MSTORE SWAP2 PUSH1 0x20 ADD SWAP2 PUSH2 0x1C1B JUMP JUMPDEST DUP3 ADD SWAP2 SWAP1 PUSH1 0x0 MSTORE PUSH1 0x20 PUSH1 0x0 KECCAK256 SWAP1 JUMPDEST DUP2 SLOAD DUP2 MSTORE SWAP1 PUSH1 0x1 ADD SWAP1 PUSH1 0x20 ADD DUP1 DUP4 GT PUSH2 0x1BFE JUMPI DUP3 SWAP1 SUB PUSH1 0x1F AND DUP3 ADD SWAP2 JUMPDEST POP POP POP POP POP DUP2 MSTORE PUSH1 0x20 ADD PUSH1 0xB DUP3 ADD DUP1 SLOAD PUSH2 0x1C34 SWAP1 PUSH2 0x547E JUMP JUMPDEST DUP1 PUSH1 0x1F ADD PUSH1 0x20 DUP1 SWAP2 DIV MUL PUSH1 0x20 ADD PUSH1 0x40 MLOAD SWAP1 DUP2 ADD PUSH1 0x40 MSTORE DUP1 SWAP3 SWAP2 SWAP1 DUP2 DUP2 MSTORE PUSH1 0x20 ADD DUP3 DUP1 SLOAD PUSH2 0x1C60 SWAP1 PUSH2 0x547E JUMP JUMPDEST DUP1 ISZERO PUSH2 0x1CAD JUMPI DUP1 PUSH1 0x1F LT PUSH2 0x1C82 JUMPI PUSH2 0x100 DUP1 DUP4 SLOAD DIV MUL DUP4 MSTORE SWAP2 PUSH1 0x20 ADD SWAP2 PUSH2 0x1CAD JUMP JUMPDEST DUP3 ADD SWAP2 SWAP1 PUSH1 0x0 MSTORE PUSH1 0x20 PUSH1 0x0 KECCAK256 SWAP1 JUMPDEST DUP2 SLOAD DUP2 MSTORE SWAP1 PUSH1 0x1 ADD SWAP1 PUSH1 0x20 ADD DUP1 DUP4 GT PUSH2 0x1C90 JUMPI DUP3 SWAP1 SUB PUSH1 0x1F AND DUP3 ADD SWAP2 JUMPDEST POP POP POP POP POP DUP2 MSTORE PUSH1 0x20 ADD PUSH1 0xC DUP3 ADD DUP1 SLOAD PUSH2 0x1CC6 SWAP1 PUSH2 0x547E JUMP JUMPDEST DUP1 PUSH1 0x1F ADD PUSH1 0x20 DUP1 SWAP2 DIV MUL PUSH1 0x20 ADD PUSH1 0x40 MLOAD SWAP1 DUP2 ADD PUSH1 0x40 MSTORE DUP1 SWAP3 SWAP2 SWAP1 DUP2 DUP2 MSTORE PUSH1 0x20 ADD DUP3 DUP1 SLOAD PUSH2 0x1CF2 SWAP1 PUSH2 0x547E JUMP JUMPDEST DUP1 ISZERO PUSH2 0x1D3F JUMPI DUP1 PUSH1 0x1F LT PUSH2 0x1D14 JUMPI PUSH2 0x100 DUP1 DUP4 SLOAD DIV MUL DUP4 MSTORE SWAP2 PUSH1 0x20 ADD SWAP2 PUSH2 0x1D3F JUMP JUMPDEST DUP3 ADD SWAP2 SWAP1 PUSH1 0x0 MSTORE PUSH1 0x20 PUSH1 0x0 KECCAK256 SWAP1 JUMPDEST DUP2 SLOAD DUP2 MSTORE SWAP1 PUSH1 0x1 ADD SWAP1 PUSH1 0x20 ADD DUP1 DUP4 GT PUSH2 0x1D22 JUMPI DUP3 SWAP1 SUB PUSH1 0x1F AND DUP3 ADD SWAP2 JUMPDEST POP POP POP POP POP DUP2 MSTORE PUSH1 0x20 ADD PUSH1 0xD DUP3 ADD PUSH1 0x0 SWAP1 SLOAD SWAP1 PUSH2 0x100 EXP SWAP1 DIV PUSH20 0xFFFFFFFFFFFFFFFFFFFFFFFFFFFFFFFFFFFFFFFF AND PUSH20 0xFFFFFFFFFFFFFFFFFFFFFFFFFFFFFFFFFFFFFFFF AND PUSH20 0xFFFFFFFFFFFFFFFFFFFFFFFFFFFFFFFFFFFFFFFF AND DUP2 MSTORE PUSH1 0x20 ADD PUSH1 0xE DUP3 ADD SLOAD DUP2 MSTORE POP POP SWAP1 POP DUP1 PUSH1 0x0 ADD MLOAD DUP2 PUSH1 0x20 ADD MLOAD DUP3 PUSH1 0x40 ADD MLOAD DUP4 PUSH1 0x60 ADD MLOAD DUP5 PUSH1 0x80 ADD MLOAD DUP6 PUSH1 0xA0 ADD MLOAD DUP7 PUSH1 0xC0 ADD MLOAD SWAP8 POP SWAP8 POP SWAP8 POP SWAP8 POP SWAP8 POP SWAP8 POP SWAP8 POP POP SWAP2 SWAP4 SWAP6 SWAP8 SWAP1 SWAP3 SWAP5 SWAP7 POP JUMP JUMPDEST PUSH1 0x0 PUSH1 0x1 PUSH1 0x7 PUSH1 0x0 CALLER PUSH20 0xFFFFFFFFFFFFFFFFFFFFFFFFFFFFFFFFFFFFFFFF AND PUSH20 0xFFFFFFFFFFFFFFFFFFFFFFFFFFFFFFFFFFFFFFFF AND DUP2 MSTORE PUSH1 0x20 ADD SWAP1 DUP2 MSTORE PUSH1 0x20 ADD PUSH1 0x0 KECCAK256 PUSH1 0x0 DUP5 PUSH20 0xFFFFFFFFFFFFFFFFFFFFFFFFFFFFFFFFFFFFFFFF AND PUSH20 0xFFFFFFFFFFFFFFFFFFFFFFFFFFFFFFFFFFFFFFFF AND DUP2 MSTORE PUSH1 0x20 ADD SWAP1 DUP2 MSTORE PUSH1 0x20 ADD PUSH1 0x0 KECCAK256 PUSH1 0x0 PUSH2 0x100 EXP DUP2 SLOAD DUP2 PUSH1 0xFF MUL NOT AND SWAP1 DUP4 ISZERO ISZERO MUL OR SWAP1 SSTORE POP PUSH1 0xE PUSH1 0x0 DUP2 SLOAD DUP1 SWAP3 SWAP2 SWAP1 PUSH2 0x1E91 SWAP1 PUSH2 0x575C JUMP JUMPDEST SWAP2 SWAP1 POP SSTORE POP PUSH1 0x1 SWAP1 POP SWAP2 SWAP1 POP JUMP JUMPDEST PUSH1 0x0 DUP1 PUSH1 0x6 PUSH1 0x0 DUP5 PUSH20 0xFFFFFFFFFFFFFFFFFFFFFFFFFFFFFFFFFFFFFFFF AND PUSH20 0xFFFFFFFFFFFFFFFFFFFFFFFFFFFFFFFFFFFFFFFF AND DUP2 MSTORE PUSH1 0x20 ADD SWAP1 DUP2 MSTORE PUSH1 0x20 ADD PUSH1 0x0 KECCAK256 PUSH1 0x40 MLOAD DUP1 PUSH2 0x120 ADD PUSH1 0x40 MSTORE SWAP1 DUP2 PUSH1 0x0 DUP3 ADD PUSH1 0x0 SWAP1 SLOAD SWAP1 PUSH2 0x100 EXP SWAP1 DIV PUSH20 0xFFFFFFFFFFFFFFFFFFFFFFFFFFFFFFFFFFFFFFFF AND PUSH20 0xFFFFFFFFFFFFFFFFFFFFFFFFFFFFFFFFFFFFFFFF AND PUSH20 0xFFFFFFFFFFFFFFFFFFFFFFFFFFFFFFFFFFFFFFFF AND DUP2 MSTORE PUSH1 0x20 ADD PUSH1 0x1 DUP3 ADD PUSH1 0x0 SWAP1 SLOAD SWAP1 PUSH2 0x100 EXP SWAP1 DIV PUSH20 0xFFFFFFFFFFFFFFFFFFFFFFFFFFFFFFFFFFFFFFFF AND PUSH20 0xFFFFFFFFFFFFFFFFFFFFFFFFFFFFFFFFFFFFFFFF AND PUSH20 0xFFFFFFFFFFFFFFFFFFFFFFFFFFFFFFFFFFFFFFFF AND DUP2 MSTORE PUSH1 0x20 ADD PUSH1 0x2 DUP3 ADD DUP1 SLOAD PUSH2 0x1FA9 SWAP1 PUSH2 0x547E JUMP JUMPDEST DUP1 PUSH1 0x1F ADD PUSH1 0x20 DUP1 SWAP2 DIV MUL PUSH1 0x20 ADD PUSH1 0x40 MLOAD SWAP1 DUP2 ADD PUSH1 0x40 MSTORE DUP1 SWAP3 SWAP2 SWAP1 DUP2 DUP2 MSTORE PUSH1 0x20 ADD DUP3 DUP1 SLOAD PUSH2 0x1FD5 SWAP1 PUSH2 0x547E JUMP JUMPDEST DUP1 ISZERO PUSH2 0x2022 JUMPI DUP1 PUSH1 0x1F LT PUSH2 0x1FF7 JUMPI PUSH2 0x100 DUP1 DUP4 SLOAD DIV MUL DUP4 MSTORE SWAP2 PUSH1 0x20 ADD SWAP2 PUSH2 0x2022 JUMP JUMPDEST DUP3 ADD SWAP2 SWAP1 PUSH1 0x0 MSTORE PUSH1 0x20 PUSH1 0x0 KECCAK256 SWAP1 JUMPDEST DUP2 SLOAD DUP2 MSTORE SWAP1 PUSH1 0x1 ADD SWAP1 PUSH1 0x20 ADD DUP1 DUP4 GT PUSH2 0x2005 JUMPI DUP3 SWAP1 SUB PUSH1 0x1F AND DUP3 ADD SWAP2 JUMPDEST POP POP POP POP POP DUP2 MSTORE PUSH1 0x20 ADD PUSH1 0x3 DUP3 ADD DUP1 SLOAD PUSH2 0x203B SWAP1 PUSH2 0x547E JUMP JUMPDEST DUP1 PUSH1 0x1F ADD PUSH1 0x20 DUP1 SWAP2 DIV MUL PUSH1 0x20 ADD PUSH1 0x40 MLOAD SWAP1 DUP2 ADD PUSH1 0x40 MSTORE DUP1 SWAP3 SWAP2 SWAP1 DUP2 DUP2 MSTORE PUSH1 0x20 ADD DUP3 DUP1 SLOAD PUSH2 0x2067 SWAP1 PUSH2 0x547E JUMP JUMPDEST DUP1 ISZERO PUSH2 0x20B4 JUMPI DUP1 PUSH1 0x1F LT PUSH2 0x2089 JUMPI PUSH2 0x100 DUP1 DUP4 SLOAD DIV MUL DUP4 MSTORE SWAP2 PUSH1 0x20 ADD SWAP2 PUSH2 0x20B4 JUMP JUMPDEST DUP3 ADD SWAP2 SWAP1 PUSH1 0x0 MSTORE PUSH1 0x20 PUSH1 0x0 KECCAK256 SWAP1 JUMPDEST DUP2 SLOAD DUP2 MSTORE SWAP1 PUSH1 0x1 ADD SWAP1 PUSH1 0x20 ADD DUP1 DUP4 GT PUSH2 0x2097 JUMPI DUP3 SWAP1 SUB PUSH1 0x1F AND DUP3 ADD SWAP2 JUMPDEST POP POP POP POP POP DUP2 MSTORE PUSH1 0x20 ADD PUSH1 0x4 DUP3 ADD DUP1 SLOAD PUSH2 0x20CD SWAP1 PUSH2 0x547E JUMP JUMPDEST DUP1 PUSH1 0x1F ADD PUSH1 0x20 DUP1 SWAP2 DIV MUL PUSH1 0x20 ADD PUSH1 0x40 MLOAD SWAP1 DUP2 ADD PUSH1 0x40 MSTORE DUP1 SWAP3 SWAP2 SWAP1 DUP2 DUP2 MSTORE PUSH1 0x20 ADD DUP3 DUP1 SLOAD PUSH2 0x20F9 SWAP1 PUSH2 0x547E JUMP JUMPDEST DUP1 ISZERO PUSH2 0x2146 JUMPI DUP1 PUSH1 0x1F LT PUSH2 0x211B JUMPI PUSH2 0x100 DUP1 DUP4 SLOAD DIV MUL DUP4 MSTORE SWAP2 PUSH1 0x20 ADD SWAP2 PUSH2 0x2146 JUMP JUMPDEST DUP3 ADD SWAP2 SWAP1 PUSH1 0x0 MSTORE PUSH1 0x20 PUSH1 0x0 KECCAK256 SWAP1 JUMPDEST DUP2 SLOAD DUP2 MSTORE SWAP1 PUSH1 0x1 ADD SWAP1 PUSH1 0x20 ADD DUP1 DUP4 GT PUSH2 0x2129 JUMPI DUP3 SWAP1 SUB PUSH1 0x1F AND DUP3 ADD SWAP2 JUMPDEST POP POP POP POP POP DUP2 MSTORE PUSH1 0x20 ADD PUSH1 0x5 DUP3 ADD DUP1 SLOAD PUSH2 0x215F SWAP1 PUSH2 0x547E JUMP JUMPDEST DUP1 PUSH1 0x1F ADD PUSH1 0x20 DUP1 SWAP2 DIV MUL PUSH1 0x20 ADD PUSH1 0x40 MLOAD SWAP1 DUP2 ADD PUSH1 0x40 MSTORE DUP1 SWAP3 SWAP2 SWAP1 DUP2 DUP2 MSTORE PUSH1 0x20 ADD DUP3 DUP1 SLOAD PUSH2 0x218B SWAP1 PUSH2 0x547E JUMP JUMPDEST DUP1 ISZERO PUSH2 0x21D8 JUMPI DUP1 PUSH1 0x1F LT PUSH2 0x21AD JUMPI PUSH2 0x100 DUP1 DUP4 SLOAD DIV MUL DUP4 MSTORE SWAP2 PUSH1 0x20 ADD SWAP2 PUSH2 0x21D8 JUMP JUMPDEST DUP3 ADD SWAP2 SWAP1 PUSH1 0x0 MSTORE PUSH1 0x20 PUSH1 0x0 KECCAK256 SWAP1 JUMPDEST DUP2 SLOAD DUP2 MSTORE SWAP1 PUSH1 0x1 ADD SWAP1 PUSH1 0x20 ADD DUP1 DUP4 GT PUSH2 0x21BB JUMPI DUP3 SWAP1 SUB PUSH1 0x1F AND DUP3 ADD SWAP2 JUMPDEST POP POP POP POP POP DUP2 MSTORE PUSH1 0x20 ADD PUSH1 0x6 DUP3 ADD DUP1 SLOAD PUSH2 0x21F1 SWAP1 PUSH2 0x547E JUMP JUMPDEST DUP1 PUSH1 0x1F ADD PUSH1 0x20 DUP1 SWAP2 DIV MUL PUSH1 0x20 ADD PUSH1 0x40 MLOAD SWAP1 DUP2 ADD PUSH1 0x40 MSTORE DUP1 SWAP3 SWAP2 SWAP1 DUP2 DUP2 MSTORE PUSH1 0x20 ADD DUP3 DUP1 SLOAD PUSH2 0x221D SWAP1 PUSH2 0x547E JUMP JUMPDEST DUP1 ISZERO PUSH2 0x226A JUMPI DUP1 PUSH1 0x1F LT PUSH2 0x223F JUMPI PUSH2 0x100 DUP1 DUP4 SLOAD DIV MUL DUP4 MSTORE SWAP2 PUSH1 0x20 ADD SWAP2 PUSH2 0x226A JUMP JUMPDEST DUP3 ADD SWAP2 SWAP1 PUSH1 0x0 MSTORE PUSH1 0x20 PUSH1 0x0 KECCAK256 SWAP1 JUMPDEST DUP2 SLOAD DUP2 MSTORE SWAP1 PUSH1 0x1 ADD SWAP1 PUSH1 0x20 ADD DUP1 DUP4 GT PUSH2 0x224D JUMPI DUP3 SWAP1 SUB PUSH1 0x1F AND DUP3 ADD SWAP2 JUMPDEST POP POP POP POP POP DUP2 MSTORE PUSH1 0x20 ADD PUSH1 0x7 DUP3 ADD DUP1 SLOAD PUSH2 0x2283 SWAP1 PUSH2 0x547E JUMP JUMPDEST DUP1 PUSH1 0x1F ADD PUSH1 0x20 DUP1 SWAP2 DIV MUL PUSH1 0x20 ADD PUSH1 0x40 MLOAD SWAP1 DUP2 ADD PUSH1 0x40 MSTORE DUP1 SWAP3 SWAP2 SWAP1 DUP2 DUP2 MSTORE PUSH1 0x20 ADD DUP3 DUP1 SLOAD PUSH2 0x22AF SWAP1 PUSH2 0x547E JUMP JUMPDEST DUP1 ISZERO PUSH2 0x22FC JUMPI DUP1 PUSH1 0x1F LT PUSH2 0x22D1 JUMPI PUSH2 0x100 DUP1 DUP4 SLOAD DIV MUL DUP4 MSTORE SWAP2 PUSH1 0x20 ADD SWAP2 PUSH2 0x22FC JUMP JUMPDEST DUP3 ADD SWAP2 SWAP1 PUSH1 0x0 MSTORE PUSH1 0x20 PUSH1 0x0 KECCAK256 SWAP1 JUMPDEST DUP2 SLOAD DUP2 MSTORE SWAP1 PUSH1 0x1 ADD SWAP1 PUSH1 0x20 ADD DUP1 DUP4 GT PUSH2 0x22DF JUMPI DUP3 SWAP1 SUB PUSH1 0x1F AND DUP3 ADD SWAP2 JUMPDEST POP POP POP POP POP DUP2 MSTORE PUSH1 0x20 ADD PUSH1 0x8 DUP3 ADD SLOAD DUP2 MSTORE POP POP SWAP1 POP DUP1 PUSH2 0x100 ADD MLOAD SWAP2 POP POP SWAP2 SWAP1 POP JUMP JUMPDEST PUSH1 0x0 DUP1 PUSH1 0x5 PUSH1 0x0 DUP5 PUSH20 0xFFFFFFFFFFFFFFFFFFFFFFFFFFFFFFFFFFFFFFFF AND PUSH20 0xFFFFFFFFFFFFFFFFFFFFFFFFFFFFFFFFFFFFFFFF AND DUP2 MSTORE PUSH1 0x20 ADD SWAP1 DUP2 MSTORE PUSH1 0x20 ADD PUSH1 0x0 KECCAK256 PUSH1 0x40 MLOAD DUP1 PUSH2 0x120 ADD PUSH1 0x40 MSTORE SWAP1 DUP2 PUSH1 0x0 DUP3 ADD DUP1 SLOAD PUSH2 0x237D SWAP1 PUSH2 0x547E JUMP JUMPDEST DUP1 PUSH1 0x1F ADD PUSH1 0x20 DUP1 SWAP2 DIV MUL PUSH1 0x20 ADD PUSH1 0x40 MLOAD SWAP1 DUP2 ADD PUSH1 0x40 MSTORE DUP1 SWAP3 SWAP2 SWAP1 DUP2 DUP2 MSTORE PUSH1 0x20 ADD DUP3 DUP1 SLOAD PUSH2 0x23A9 SWAP1 PUSH2 0x547E JUMP JUMPDEST DUP1 ISZERO PUSH2 0x23F6 JUMPI DUP1 PUSH1 0x1F LT PUSH2 0x23CB JUMPI PUSH2 0x100 DUP1 DUP4 SLOAD DIV MUL DUP4 MSTORE SWAP2 PUSH1 0x20 ADD SWAP2 PUSH2 0x23F6 JUMP JUMPDEST DUP3 ADD SWAP2 SWAP1 PUSH1 0x0 MSTORE PUSH1 0x20 PUSH1 0x0 KECCAK256 SWAP1 JUMPDEST DUP2 SLOAD DUP2 MSTORE SWAP1 PUSH1 0x1 ADD SWAP1 PUSH1 0x20 ADD DUP1 DUP4 GT PUSH2 0x23D9 JUMPI DUP3 SWAP1 SUB PUSH1 0x1F AND DUP3 ADD SWAP2 JUMPDEST POP POP POP POP POP DUP2 MSTORE PUSH1 0x20 ADD PUSH1 0x1 DUP3 ADD DUP1 SLOAD PUSH2 0x240F SWAP1 PUSH2 0x547E JUMP JUMPDEST DUP1 PUSH1 0x1F ADD PUSH1 0x20 DUP1 SWAP2 DIV MUL PUSH1 0x20 ADD PUSH1 0x40 MLOAD SWAP1 DUP2 ADD PUSH1 0x40 MSTORE DUP1 SWAP3 SWAP2 SWAP1 DUP2 DUP2 MSTORE PUSH1 0x20 ADD DUP3 DUP1 SLOAD PUSH2 0x243B SWAP1 PUSH2 0x547E JUMP JUMPDEST DUP1 ISZERO PUSH2 0x2488 JUMPI DUP1 PUSH1 0x1F LT PUSH2 0x245D JUMPI PUSH2 0x100 DUP1 DUP4 SLOAD DIV MUL DUP4 MSTORE SWAP2 PUSH1 0x20 ADD SWAP2 PUSH2 0x2488 JUMP JUMPDEST DUP3 ADD SWAP2 SWAP1 PUSH1 0x0 MSTORE PUSH1 0x20 PUSH1 0x0 KECCAK256 SWAP1 JUMPDEST DUP2 SLOAD DUP2 MSTORE SWAP1 PUSH1 0x1 ADD SWAP1 PUSH1 0x20 ADD DUP1 DUP4 GT PUSH2 0x246B JUMPI DUP3 SWAP1 SUB PUSH1 0x1F AND DUP3 ADD SWAP2 JUMPDEST POP POP POP POP POP DUP2 MSTORE PUSH1 0x20 ADD PUSH1 0x2 DUP3 ADD DUP1 SLOAD PUSH2 0x24A1 SWAP1 PUSH2 0x547E JUMP JUMPDEST DUP1 PUSH1 0x1F ADD PUSH1 0x20 DUP1 SWAP2 DIV MUL PUSH1 0x20 ADD PUSH1 0x40 MLOAD SWAP1 DUP2 ADD PUSH1 0x40 MSTORE DUP1 SWAP3 SWAP2 SWAP1 DUP2 DUP2 MSTORE PUSH1 0x20 ADD DUP3 DUP1 SLOAD PUSH2 0x24CD SWAP1 PUSH2 0x547E JUMP JUMPDEST DUP1 ISZERO PUSH2 0x251A JUMPI DUP1 PUSH1 0x1F LT PUSH2 0x24EF JUMPI PUSH2 0x100 DUP1 DUP4 SLOAD DIV MUL DUP4 MSTORE SWAP2 PUSH1 0x20 ADD SWAP2 PUSH2 0x251A JUMP JUMPDEST DUP3 ADD SWAP2 SWAP1 PUSH1 0x0 MSTORE PUSH1 0x20 PUSH1 0x0 KECCAK256 SWAP1 JUMPDEST DUP2 SLOAD DUP2 MSTORE SWAP1 PUSH1 0x1 ADD SWAP1 PUSH1 0x20 ADD DUP1 DUP4 GT PUSH2 0x24FD JUMPI DUP3 SWAP1 SUB PUSH1 0x1F AND DUP3 ADD SWAP2 JUMPDEST POP POP POP POP POP DUP2 MSTORE PUSH1 0x20 ADD PUSH1 0x3 DUP3 ADD DUP1 SLOAD PUSH2 0x2533 SWAP1 PUSH2 0x547E JUMP JUMPDEST DUP1 PUSH1 0x1F ADD PUSH1 0x20 DUP1 SWAP2 DIV MUL PUSH1 0x20 ADD PUSH1 0x40 MLOAD SWAP1 DUP2 ADD PUSH1 0x40 MSTORE DUP1 SWAP3 SWAP2 SWAP1 DUP2 DUP2 MSTORE PUSH1 0x20 ADD DUP3 DUP1 SLOAD PUSH2 0x255F SWAP1 PUSH2 0x547E JUMP JUMPDEST DUP1 ISZERO PUSH2 0x25AC JUMPI DUP1 PUSH1 0x1F LT PUSH2 0x2581 JUMPI PUSH2 0x100 DUP1 DUP4 SLOAD DIV MUL DUP4 MSTORE SWAP2 PUSH1 0x20 ADD SWAP2 PUSH2 0x25AC JUMP JUMPDEST DUP3 ADD SWAP2 SWAP1 PUSH1 0x0 MSTORE PUSH1 0x20 PUSH1 0x0 KECCAK256 SWAP1 JUMPDEST DUP2 SLOAD DUP2 MSTORE SWAP1 PUSH1 0x1 ADD SWAP1 PUSH1 0x20 ADD DUP1 DUP4 GT PUSH2 0x258F JUMPI DUP3 SWAP1 SUB PUSH1 0x1F AND DUP3 ADD SWAP2 JUMPDEST POP POP POP POP POP DUP2 MSTORE PUSH1 0x20 ADD PUSH1 0x4 DUP3 ADD DUP1 SLOAD PUSH2 0x25C5 SWAP1 PUSH2 0x547E JUMP JUMPDEST DUP1 PUSH1 0x1F ADD PUSH1 0x20 DUP1 SWAP2 DIV MUL PUSH1 0x20 ADD PUSH1 0x40 MLOAD SWAP1 DUP2 ADD PUSH1 0x40 MSTORE DUP1 SWAP3 SWAP2 SWAP1 DUP2 DUP2 MSTORE PUSH1 0x20 ADD DUP3 DUP1 SLOAD PUSH2 0x25F1 SWAP1 PUSH2 0x547E JUMP JUMPDEST DUP1 ISZERO PUSH2 0x263E JUMPI DUP1 PUSH1 0x1F LT PUSH2 0x2613 JUMPI PUSH2 0x100 DUP1 DUP4 SLOAD DIV MUL DUP4 MSTORE SWAP2 PUSH1 0x20 ADD SWAP2 PUSH2 0x263E JUMP JUMPDEST DUP3 ADD SWAP2 SWAP1 PUSH1 0x0 MSTORE PUSH1 0x20 PUSH1 0x0 KECCAK256 SWAP1 JUMPDEST DUP2 SLOAD DUP2 MSTORE SWAP1 PUSH1 0x1 ADD SWAP1 PUSH1 0x20 ADD DUP1 DUP4 GT PUSH2 0x2621 JUMPI DUP3 SWAP1 SUB PUSH1 0x1F AND DUP3 ADD SWAP2 JUMPDEST POP POP POP POP POP DUP2 MSTORE PUSH1 0x20 ADD PUSH1 0x5 DUP3 ADD DUP1 SLOAD PUSH2 0x2657 SWAP1 PUSH2 0x547E JUMP JUMPDEST DUP1 PUSH1 0x1F ADD PUSH1 0x20 DUP1 SWAP2 DIV MUL PUSH1 0x20 ADD PUSH1 0x40 MLOAD SWAP1 DUP2 ADD PUSH1 0x40 MSTORE DUP1 SWAP3 SWAP2 SWAP1 DUP2 DUP2 MSTORE PUSH1 0x20 ADD DUP3 DUP1 SLOAD PUSH2 0x2683 SWAP1 PUSH2 0x547E JUMP JUMPDEST DUP1 ISZERO PUSH2 0x26D0 JUMPI DUP1 PUSH1 0x1F LT PUSH2 0x26A5 JUMPI PUSH2 0x100 DUP1 DUP4 SLOAD DIV MUL DUP4 MSTORE SWAP2 PUSH1 0x20 ADD SWAP2 PUSH2 0x26D0 JUMP JUMPDEST DUP3 ADD SWAP2 SWAP1 PUSH1 0x0 MSTORE PUSH1 0x20 PUSH1 0x0 KECCAK256 SWAP1 JUMPDEST DUP2 SLOAD DUP2 MSTORE SWAP1 PUSH1 0x1 ADD SWAP1 PUSH1 0x20 ADD DUP1 DUP4 GT PUSH2 0x26B3 JUMPI DUP3 SWAP1 SUB PUSH1 0x1F AND DUP3 ADD SWAP2 JUMPDEST POP POP POP POP POP DUP2 MSTORE PUSH1 0x20 ADD PUSH1 0x6 DUP3 ADD DUP1 SLOAD PUSH2 0x26E9 SWAP1 PUSH2 0x547E JUMP JUMPDEST DUP1 PUSH1 0x1F ADD PUSH1 0x20 DUP1 SWAP2 DIV MUL PUSH1 0x20 ADD PUSH1 0x40 MLOAD SWAP1 DUP2 ADD PUSH1 0x40 MSTORE DUP1 SWAP3 SWAP2 SWAP1 DUP2 DUP2 MSTORE PUSH1 0x20 ADD DUP3 DUP1 SLOAD PUSH2 0x2715 SWAP1 PUSH2 0x547E JUMP JUMPDEST DUP1 ISZERO PUSH2 0x2762 JUMPI DUP1 PUSH1 0x1F LT PUSH2 0x2737 JUMPI PUSH2 0x100 DUP1 DUP4 SLOAD DIV MUL DUP4 MSTORE SWAP2 PUSH1 0x20 ADD SWAP2 PUSH2 0x2762 JUMP JUMPDEST DUP3 ADD SWAP2 SWAP1 PUSH1 0x0 MSTORE PUSH1 0x20 PUSH1 0x0 KECCAK256 SWAP1 JUMPDEST DUP2 SLOAD DUP2 MSTORE SWAP1 PUSH1 0x1 ADD SWAP1 PUSH1 0x20 ADD DUP1 DUP4 GT PUSH2 0x2745 JUMPI DUP3 SWAP1 SUB PUSH1 0x1F AND DUP3 ADD SWAP2 JUMPDEST POP POP POP POP POP DUP2 MSTORE PUSH1 0x20 ADD PUSH1 0x7 DUP3 ADD PUSH1 0x0 SWAP1 SLOAD SWAP1 PUSH2 0x100 EXP SWAP1 DIV PUSH20 0xFFFFFFFFFFFFFFFFFFFFFFFFFFFFFFFFFFFFFFFF AND PUSH20 0xFFFFFFFFFFFFFFFFFFFFFFFFFFFFFFFFFFFFFFFF AND PUSH20 0xFFFFFFFFFFFFFFFFFFFFFFFFFFFFFFFFFFFFFFFF AND DUP2 MSTORE PUSH1 0x20 ADD PUSH1 0x8 DUP3 ADD SLOAD DUP2 MSTORE POP POP SWAP1 POP DUP1 PUSH2 0x100 ADD MLOAD SWAP2 POP POP SWAP2 SWAP1 POP JUMP JUMPDEST PUSH1 0xC SLOAD DUP2 JUMP JUMPDEST PUSH1 0x0 PUSH1 0xC SLOAD SWAP1 POP SWAP1 JUMP JUMPDEST PUSH1 0x8 PUSH1 0x0 CALLER PUSH20 0xFFFFFFFFFFFFFFFFFFFFFFFFFFFFFFFFFFFFFFFF AND PUSH20 0xFFFFFFFFFFFFFFFFFFFFFFFFFFFFFFFFFFFFFFFF AND DUP2 MSTORE PUSH1 0x20 ADD SWAP1 DUP2 MSTORE PUSH1 0x20 ADD PUSH1 0x0 KECCAK256 PUSH1 0x0 SWAP1 SLOAD SWAP1 PUSH2 0x100 EXP SWAP1 DIV PUSH1 0xFF AND ISZERO PUSH2 0x2842 JUMPI PUSH1 0x0 DUP1 REVERT JUMPDEST PUSH1 0x0 PUSH1 0x4 PUSH1 0x0 CALLER PUSH20 0xFFFFFFFFFFFFFFFFFFFFFFFFFFFFFFFFFFFFFFFF AND PUSH20 0xFFFFFFFFFFFFFFFFFFFFFFFFFFFFFFFFFFFFFFFF AND DUP2 MSTORE PUSH1 0x20 ADD SWAP1 DUP2 MSTORE PUSH1 0x20 ADD PUSH1 0x0 KECCAK256 SWAP1 POP DUP12 DUP2 PUSH1 0x0 ADD SWAP1 DUP2 PUSH2 0x2896 SWAP2 SWAP1 PUSH2 0x565B JUMP JUMPDEST POP DUP11 DUP2 PUSH1 0x1 ADD SWAP1 DUP2 PUSH2 0x28A8 SWAP2 SWAP1 PUSH2 0x565B JUMP JUMPDEST POP DUP10 DUP2 PUSH1 0x2 ADD SWAP1 DUP2 PUSH2 0x28BA SWAP2 SWAP1 PUSH2 0x565B JUMP JUMPDEST POP DUP9 DUP2 PUSH1 0x3 ADD SWAP1 DUP2 PUSH2 0x28CC SWAP2 SWAP1 PUSH2 0x565B JUMP JUMPDEST POP DUP8 DUP2 PUSH1 0x4 ADD SWAP1 DUP2 PUSH2 0x28DE SWAP2 SWAP1 PUSH2 0x565B JUMP JUMPDEST POP DUP7 DUP2 PUSH1 0x5 ADD SWAP1 DUP2 PUSH2 0x28F0 SWAP2 SWAP1 PUSH2 0x565B JUMP JUMPDEST POP DUP6 DUP2 PUSH1 0x6 ADD SWAP1 DUP2 PUSH2 0x2902 SWAP2 SWAP1 PUSH2 0x565B JUMP JUMPDEST POP DUP5 DUP2 PUSH1 0x7 ADD SWAP1 DUP2 PUSH2 0x2914 SWAP2 SWAP1 PUSH2 0x565B JUMP JUMPDEST POP DUP4 DUP2 PUSH1 0x8 ADD SWAP1 DUP2 PUSH2 0x2926 SWAP2 SWAP1 PUSH2 0x565B JUMP JUMPDEST POP DUP3 DUP2 PUSH1 0x9 ADD SWAP1 DUP2 PUSH2 0x2938 SWAP2 SWAP1 PUSH2 0x565B JUMP JUMPDEST POP DUP2 DUP2 PUSH1 0xA ADD SWAP1 DUP2 PUSH2 0x294A SWAP2 SWAP1 PUSH2 0x565B JUMP JUMPDEST POP CALLER DUP2 PUSH1 0xD ADD PUSH1 0x0 PUSH2 0x100 EXP DUP2 SLOAD DUP2 PUSH20 0xFFFFFFFFFFFFFFFFFFFFFFFFFFFFFFFFFFFFFFFF MUL NOT AND SWAP1 DUP4 PUSH20 0xFFFFFFFFFFFFFFFFFFFFFFFFFFFFFFFFFFFFFFFF AND MUL OR SWAP1 SSTORE POP TIMESTAMP DUP2 PUSH1 0xE ADD DUP2 SWAP1 SSTORE POP PUSH1 0x1 CALLER SWAP1 DUP1 PUSH1 0x1 DUP2 SLOAD ADD DUP1 DUP3 SSTORE DUP1 SWAP2 POP POP PUSH1 0x1 SWAP1 SUB SWAP1 PUSH1 0x0 MSTORE PUSH1 0x20 PUSH1 0x0 KECCAK256 ADD PUSH1 0x0 SWAP1 SWAP2 SWAP1 SWAP2 SWAP1 SWAP2 PUSH2 0x100 EXP DUP2 SLOAD DUP2 PUSH20 0xFFFFFFFFFFFFFFFFFFFFFFFFFFFFFFFFFFFFFFFF MUL NOT AND SWAP1 DUP4 PUSH20 0xFFFFFFFFFFFFFFFFFFFFFFFFFFFFFFFFFFFFFFFF AND MUL OR SWAP1 SSTORE POP PUSH1 0x1 PUSH1 0x8 PUSH1 0x0 CALLER PUSH20 0xFFFFFFFFFFFFFFFFFFFFFFFFFFFFFFFFFFFFFFFF AND PUSH20 0xFFFFFFFFFFFFFFFFFFFFFFFFFFFFFFFFFFFFFFFF AND DUP2 MSTORE PUSH1 0x20 ADD SWAP1 DUP2 MSTORE PUSH1 0x20 ADD PUSH1 0x0 KECCAK256 PUSH1 0x0 PUSH2 0x100 EXP DUP2 SLOAD DUP2 PUSH1 0xFF MUL NOT AND SWAP1 DUP4 ISZERO ISZERO MUL OR SWAP1 SSTORE POP PUSH1 0x1 PUSH1 0x7 PUSH1 0x0 CALLER PUSH20 0xFFFFFFFFFFFFFFFFFFFFFFFFFFFFFFFFFFFFFFFF AND PUSH20 0xFFFFFFFFFFFFFFFFFFFFFFFFFFFFFFFFFFFFFFFF AND DUP2 MSTORE PUSH1 0x20 ADD SWAP1 DUP2 MSTORE PUSH1 0x20 ADD PUSH1 0x0 KECCAK256 PUSH1 0x0 CALLER PUSH20 0xFFFFFFFFFFFFFFFFFFFFFFFFFFFFFFFFFFFFFFFF AND PUSH20 0xFFFFFFFFFFFFFFFFFFFFFFFFFFFFFFFFFFFFFFFF AND DUP2 MSTORE PUSH1 0x20 ADD SWAP1 DUP2 MSTORE PUSH1 0x20 ADD PUSH1 0x0 KECCAK256 PUSH1 0x0 PUSH2 0x100 EXP DUP2 SLOAD DUP2 PUSH1 0xFF MUL NOT AND SWAP1 DUP4 ISZERO ISZERO MUL OR SWAP1 SSTORE POP PUSH1 0xB PUSH1 0x0 DUP2 SLOAD DUP1 SWAP3 SWAP2 SWAP1 PUSH2 0x2AFA SWAP1 PUSH2 0x575C JUMP JUMPDEST SWAP2 SWAP1 POP SSTORE POP POP POP POP POP POP POP POP POP POP POP POP POP JUMP JUMPDEST PUSH1 0x9 PUSH1 0x0 CALLER PUSH20 0xFFFFFFFFFFFFFFFFFFFFFFFFFFFFFFFFFFFFFFFF AND PUSH20 0xFFFFFFFFFFFFFFFFFFFFFFFFFFFFFFFFFFFFFFFF AND DUP2 MSTORE PUSH1 0x20 ADD SWAP1 DUP2 MSTORE PUSH1 0x20 ADD PUSH1 0x0 KECCAK256 PUSH1 0x0 SWAP1 SLOAD SWAP1 PUSH2 0x100 EXP SWAP1 DIV PUSH1 0xFF AND ISZERO PUSH2 0x2B64 JUMPI PUSH1 0x0 DUP1 REVERT JUMPDEST PUSH1 0x0 PUSH1 0x5 PUSH1 0x0 CALLER PUSH20 0xFFFFFFFFFFFFFFFFFFFFFFFFFFFFFFFFFFFFFFFF AND PUSH20 0xFFFFFFFFFFFFFFFFFFFFFFFFFFFFFFFFFFFFFFFF AND DUP2 MSTORE PUSH1 0x20 ADD SWAP1 DUP2 MSTORE PUSH1 0x20 ADD PUSH1 0x0 KECCAK256 SWAP1 POP DUP8 DUP2 PUSH1 0x0 ADD SWAP1 DUP2 PUSH2 0x2BB8 SWAP2 SWAP1 PUSH2 0x565B JUMP JUMPDEST POP DUP7 DUP2 PUSH1 0x1 ADD SWAP1 DUP2 PUSH2 0x2BCA SWAP2 SWAP1 PUSH2 0x565B JUMP JUMPDEST POP DUP6 DUP2 PUSH1 0x2 ADD SWAP1 DUP2 PUSH2 0x2BDC SWAP2 SWAP1 PUSH2 0x565B JUMP JUMPDEST POP DUP5 DUP2 PUSH1 0x3 ADD SWAP1 DUP2 PUSH2 0x2BEE SWAP2 SWAP1 PUSH2 0x565B JUMP JUMPDEST POP DUP4 DUP2 PUSH1 0x4 ADD SWAP1 DUP2 PUSH2 0x2C00 SWAP2 SWAP1 PUSH2 0x565B JUMP JUMPDEST POP DUP3 DUP2 PUSH1 0x5 ADD SWAP1 DUP2 PUSH2 0x2C12 SWAP2 SWAP1 PUSH2 0x565B JUMP JUMPDEST POP DUP2 DUP2 PUSH1 0x6 ADD SWAP1 DUP2 PUSH2 0x2C24 SWAP2 SWAP1 PUSH2 0x565B JUMP JUMPDEST POP CALLER DUP2 PUSH1 0x7 ADD PUSH1 0x0 PUSH2 0x100 EXP DUP2 SLOAD DUP2 PUSH20 0xFFFFFFFFFFFFFFFFFFFFFFFFFFFFFFFFFFFFFFFF MUL NOT AND SWAP1 DUP4 PUSH20 0xFFFFFFFFFFFFFFFFFFFFFFFFFFFFFFFFFFFFFFFF AND MUL OR SWAP1 SSTORE POP TIMESTAMP DUP2 PUSH1 0x8 ADD DUP2 SWAP1 SSTORE POP PUSH1 0x2 CALLER SWAP1 DUP1 PUSH1 0x1 DUP2 SLOAD ADD DUP1 DUP3 SSTORE DUP1 SWAP2 POP POP PUSH1 0x1 SWAP1 SUB SWAP1 PUSH1 0x0 MSTORE PUSH1 0x20 PUSH1 0x0 KECCAK256 ADD PUSH1 0x0 SWAP1 SWAP2 SWAP1 SWAP2 SWAP1 SWAP2 PUSH2 0x100 EXP DUP2 SLOAD DUP2 PUSH20 0xFFFFFFFFFFFFFFFFFFFFFFFFFFFFFFFFFFFFFFFF MUL NOT AND SWAP1 DUP4 PUSH20 0xFFFFFFFFFFFFFFFFFFFFFFFFFFFFFFFFFFFFFFFF AND MUL OR SWAP1 SSTORE POP PUSH1 0x1 PUSH1 0x9 PUSH1 0x0 CALLER PUSH20 0xFFFFFFFFFFFFFFFFFFFFFFFFFFFFFFFFFFFFFFFF AND PUSH20 0xFFFFFFFFFFFFFFFFFFFFFFFFFFFFFFFFFFFFFFFF AND DUP2 MSTORE PUSH1 0x20 ADD SWAP1 DUP2 MSTORE PUSH1 0x20 ADD PUSH1 0x0 KECCAK256 PUSH1 0x0 PUSH2 0x100 EXP DUP2 SLOAD DUP2 PUSH1 0xFF MUL NOT AND SWAP1 DUP4 ISZERO ISZERO MUL OR SWAP1 SSTORE POP PUSH1 0xC PUSH1 0x0 DUP2 SLOAD DUP1 SWAP3 SWAP2 SWAP1 PUSH2 0x2D3F SWAP1 PUSH2 0x575C JUMP JUMPDEST SWAP2 SWAP1 POP SSTORE POP POP POP POP POP POP POP POP POP JUMP JUMPDEST PUSH1 0x0 DUP1 SLOAD SWAP1 PUSH2 0x100 EXP SWAP1 DIV PUSH20 0xFFFFFFFFFFFFFFFFFFFFFFFFFFFFFFFFFFFFFFFF AND DUP2 JUMP JUMPDEST PUSH1 0x0 PUSH1 0x60 DUP1 PUSH1 0x60 DUP1 PUSH1 0x60 DUP1 PUSH1 0x60 PUSH1 0x0 PUSH1 0x6 PUSH1 0x0 DUP12 PUSH20 0xFFFFFFFFFFFFFFFFFFFFFFFFFFFFFFFFFFFFFFFF AND PUSH20 0xFFFFFFFFFFFFFFFFFFFFFFFFFFFFFFFFFFFFFFFF AND DUP2 MSTORE PUSH1 0x20 ADD SWAP1 DUP2 MSTORE PUSH1 0x20 ADD PUSH1 0x0 KECCAK256 PUSH1 0x40 MLOAD DUP1 PUSH2 0x120 ADD PUSH1 0x40 MSTORE SWAP1 DUP2 PUSH1 0x0 DUP3 ADD PUSH1 0x0 SWAP1 SLOAD SWAP1 PUSH2 0x100 EXP SWAP1 DIV PUSH20 0xFFFFFFFFFFFFFFFFFFFFFFFFFFFFFFFFFFFFFFFF AND PUSH20 0xFFFFFFFFFFFFFFFFFFFFFFFFFFFFFFFFFFFFFFFF AND PUSH20 0xFFFFFFFFFFFFFFFFFFFFFFFFFFFFFFFFFFFFFFFF AND DUP2 MSTORE PUSH1 0x20 ADD PUSH1 0x1 DUP3 ADD PUSH1 0x0 SWAP1 SLOAD SWAP1 PUSH2 0x100 EXP SWAP1 DIV PUSH20 0xFFFFFFFFFFFFFFFFFFFFFFFFFFFFFFFFFFFFFFFF AND PUSH20 0xFFFFFFFFFFFFFFFFFFFFFFFFFFFFFFFFFFFFFFFF AND PUSH20 0xFFFFFFFFFFFFFFFFFFFFFFFFFFFFFFFFFFFFFFFF AND DUP2 MSTORE PUSH1 0x20 ADD PUSH1 0x2 DUP3 ADD DUP1 SLOAD PUSH2 0x2E88 SWAP1 PUSH2 0x547E JUMP JUMPDEST DUP1 PUSH1 0x1F ADD PUSH1 0x20 DUP1 SWAP2 DIV MUL PUSH1 0x20 ADD PUSH1 0x40 MLOAD SWAP1 DUP2 ADD PUSH1 0x40 MSTORE DUP1 SWAP3 SWAP2 SWAP1 DUP2 DUP2 MSTORE PUSH1 0x20 ADD DUP3 DUP1 SLOAD PUSH2 0x2EB4 SWAP1 PUSH2 0x547E JUMP JUMPDEST DUP1 ISZERO PUSH2 0x2F01 JUMPI DUP1 PUSH1 0x1F LT PUSH2 0x2ED6 JUMPI PUSH2 0x100 DUP1 DUP4 SLOAD DIV MUL DUP4 MSTORE SWAP2 PUSH1 0x20 ADD SWAP2 PUSH2 0x2F01 JUMP JUMPDEST DUP3 ADD SWAP2 SWAP1 PUSH1 0x0 MSTORE PUSH1 0x20 PUSH1 0x0 KECCAK256 SWAP1 JUMPDEST DUP2 SLOAD DUP2 MSTORE SWAP1 PUSH1 0x1 ADD SWAP1 PUSH1 0x20 ADD DUP1 DUP4 GT PUSH2 0x2EE4 JUMPI DUP3 SWAP1 SUB PUSH1 0x1F AND DUP3 ADD SWAP2 JUMPDEST POP POP POP POP POP DUP2 MSTORE PUSH1 0x20 ADD PUSH1 0x3 DUP3 ADD DUP1 SLOAD PUSH2 0x2F1A SWAP1 PUSH2 0x547E JUMP JUMPDEST DUP1 PUSH1 0x1F ADD PUSH1 0x20 DUP1 SWAP2 DIV MUL PUSH1 0x20 ADD PUSH1 0x40 MLOAD SWAP1 DUP2 ADD PUSH1 0x40 MSTORE DUP1 SWAP3 SWAP2 SWAP1 DUP2 DUP2 MSTORE PUSH1 0x20 ADD DUP3 DUP1 SLOAD PUSH2 0x2F46 SWAP1 PUSH2 0x547E JUMP JUMPDEST DUP1 ISZERO PUSH2 0x2F93 JUMPI DUP1 PUSH1 0x1F LT PUSH2 0x2F68 JUMPI PUSH2 0x100 DUP1 DUP4 SLOAD DIV MUL DUP4 MSTORE SWAP2 PUSH1 0x20 ADD SWAP2 PUSH2 0x2F93 JUMP JUMPDEST DUP3 ADD SWAP2 SWAP1 PUSH1 0x0 MSTORE PUSH1 0x20 PUSH1 0x0 KECCAK256 SWAP1 JUMPDEST DUP2 SLOAD DUP2 MSTORE SWAP1 PUSH1 0x1 ADD SWAP1 PUSH1 0x20 ADD DUP1 DUP4 GT PUSH2 0x2F76 JUMPI DUP3 SWAP1 SUB PUSH1 0x1F AND DUP3 ADD SWAP2 JUMPDEST POP POP POP POP POP DUP2 MSTORE PUSH1 0x20 ADD PUSH1 0x4 DUP3 ADD DUP1 SLOAD PUSH2 0x2FAC SWAP1 PUSH2 0x547E JUMP JUMPDEST DUP1 PUSH1 0x1F ADD PUSH1 0x20 DUP1 SWAP2 DIV MUL PUSH1 0x20 ADD PUSH1 0x40 MLOAD SWAP1 DUP2 ADD PUSH1 0x40 MSTORE DUP1 SWAP3 SWAP2 SWAP1 DUP2 DUP2 MSTORE PUSH1 0x20 ADD DUP3 DUP1 SLOAD PUSH2 0x2FD8 SWAP1 PUSH2 0x547E JUMP JUMPDEST DUP1 ISZERO PUSH2 0x3025 JUMPI DUP1 PUSH1 0x1F LT PUSH2 0x2FFA JUMPI PUSH2 0x100 DUP1 DUP4 SLOAD DIV MUL DUP4 MSTORE SWAP2 PUSH1 0x20 ADD SWAP2 PUSH2 0x3025 JUMP JUMPDEST DUP3 ADD SWAP2 SWAP1 PUSH1 0x0 MSTORE PUSH1 0x20 PUSH1 0x0 KECCAK256 SWAP1 JUMPDEST DUP2 SLOAD DUP2 MSTORE SWAP1 PUSH1 0x1 ADD SWAP1 PUSH1 0x20 ADD DUP1 DUP4 GT PUSH2 0x3008 JUMPI DUP3 SWAP1 SUB PUSH1 0x1F AND DUP3 ADD SWAP2 JUMPDEST POP POP POP POP POP DUP2 MSTORE PUSH1 0x20 ADD PUSH1 0x5 DUP3 ADD DUP1 SLOAD PUSH2 0x303E SWAP1 PUSH2 0x547E JUMP JUMPDEST DUP1 PUSH1 0x1F ADD PUSH1 0x20 DUP1 SWAP2 DIV MUL PUSH1 0x20 ADD PUSH1 0x40 MLOAD SWAP1 DUP2 ADD PUSH1 0x40 MSTORE DUP1 SWAP3 SWAP2 SWAP1 DUP2 DUP2 MSTORE PUSH1 0x20 ADD DUP3 DUP1 SLOAD PUSH2 0x306A SWAP1 PUSH2 0x547E JUMP JUMPDEST DUP1 ISZERO PUSH2 0x30B7 JUMPI DUP1 PUSH1 0x1F LT PUSH2 0x308C JUMPI PUSH2 0x100 DUP1 DUP4 SLOAD DIV MUL DUP4 MSTORE SWAP2 PUSH1 0x20 ADD SWAP2 PUSH2 0x30B7 JUMP JUMPDEST DUP3 ADD SWAP2 SWAP1 PUSH1 0x0 MSTORE PUSH1 0x20 PUSH1 0x0 KECCAK256 SWAP1 JUMPDEST DUP2 SLOAD DUP2 MSTORE SWAP1 PUSH1 0x1 ADD SWAP1 PUSH1 0x20 ADD DUP1 DUP4 GT PUSH2 0x309A JUMPI DUP3 SWAP1 SUB PUSH1 0x1F AND DUP3 ADD SWAP2 JUMPDEST POP POP POP POP POP DUP2 MSTORE PUSH1 0x20 ADD PUSH1 0x6 DUP3 ADD DUP1 SLOAD PUSH2 0x30D0 SWAP1 PUSH2 0x547E JUMP JUMPDEST DUP1 PUSH1 0x1F ADD PUSH1 0x20 DUP1 SWAP2 DIV MUL PUSH1 0x20 ADD PUSH1 0x40 MLOAD SWAP1 DUP2 ADD PUSH1 0x40 MSTORE DUP1 SWAP3 SWAP2 SWAP1 DUP2 DUP2 MSTORE PUSH1 0x20 ADD DUP3 DUP1 SLOAD PUSH2 0x30FC SWAP1 PUSH2 0x547E JUMP JUMPDEST DUP1 ISZERO PUSH2 0x3149 JUMPI DUP1 PUSH1 0x1F LT PUSH2 0x311E JUMPI PUSH2 0x100 DUP1 DUP4 SLOAD DIV MUL DUP4 MSTORE SWAP2 PUSH1 0x20 ADD SWAP2 PUSH2 0x3149 JUMP JUMPDEST DUP3 ADD SWAP2 SWAP1 PUSH1 0x0 MSTORE PUSH1 0x20 PUSH1 0x0 KECCAK256 SWAP1 JUMPDEST DUP2 SLOAD DUP2 MSTORE SWAP1 PUSH1 0x1 ADD SWAP1 PUSH1 0x20 ADD DUP1 DUP4 GT PUSH2 0x312C JUMPI DUP3 SWAP1 SUB PUSH1 0x1F AND DUP3 ADD SWAP2 JUMPDEST POP POP POP POP POP DUP2 MSTORE PUSH1 0x20 ADD PUSH1 0x7 DUP3 ADD DUP1 SLOAD PUSH2 0x3162 SWAP1 PUSH2 0x547E JUMP JUMPDEST DUP1 PUSH1 0x1F ADD PUSH1 0x20 DUP1 SWAP2 DIV MUL PUSH1 0x20 ADD PUSH1 0x40 MLOAD SWAP1 DUP2 ADD PUSH1 0x40 MSTORE DUP1 SWAP3 SWAP2 SWAP1 DUP2 DUP2 MSTORE PUSH1 0x20 ADD DUP3 DUP1 SLOAD PUSH2 0x318E SWAP1 PUSH2 0x547E JUMP JUMPDEST DUP1 ISZERO PUSH2 0x31DB JUMPI DUP1 PUSH1 0x1F LT PUSH2 0x31B0 JUMPI PUSH2 0x100 DUP1 DUP4 SLOAD DIV MUL DUP4 MSTORE SWAP2 PUSH1 0x20 ADD SWAP2 PUSH2 0x31DB JUMP JUMPDEST DUP3 ADD SWAP2 SWAP1 PUSH1 0x0 MSTORE PUSH1 0x20 PUSH1 0x0 KECCAK256 SWAP1 JUMPDEST DUP2 SLOAD DUP2 MSTORE SWAP1 PUSH1 0x1 ADD SWAP1 PUSH1 0x20 ADD DUP1 DUP4 GT PUSH2 0x31BE JUMPI DUP3 SWAP1 SUB PUSH1 0x1F AND DUP3 ADD SWAP2 JUMPDEST POP POP POP POP POP DUP2 MSTORE PUSH1 0x20 ADD PUSH1 0x8 DUP3 ADD SLOAD DUP2 MSTORE POP POP SWAP1 POP PUSH1 0x0 PUSH1 0x5 PUSH1 0x0 DUP4 PUSH1 0x0 ADD MLOAD PUSH20 0xFFFFFFFFFFFFFFFFFFFFFFFFFFFFFFFFFFFFFFFF AND PUSH20 0xFFFFFFFFFFFFFFFFFFFFFFFFFFFFFFFFFFFFFFFF AND DUP2 MSTORE PUSH1 0x20 ADD SWAP1 DUP2 MSTORE PUSH1 0x20 ADD PUSH1 0x0 KECCAK256 PUSH1 0x40 MLOAD DUP1 PUSH2 0x120 ADD PUSH1 0x40 MSTORE SWAP1 DUP2 PUSH1 0x0 DUP3 ADD DUP1 SLOAD PUSH2 0x3251 SWAP1 PUSH2 0x547E JUMP JUMPDEST DUP1 PUSH1 0x1F ADD PUSH1 0x20 DUP1 SWAP2 DIV MUL PUSH1 0x20 ADD PUSH1 0x40 MLOAD SWAP1 DUP2 ADD PUSH1 0x40 MSTORE DUP1 SWAP3 SWAP2 SWAP1 DUP2 DUP2 MSTORE PUSH1 0x20 ADD DUP3 DUP1 SLOAD PUSH2 0x327D SWAP1 PUSH2 0x547E JUMP JUMPDEST DUP1 ISZERO PUSH2 0x32CA JUMPI DUP1 PUSH1 0x1F LT PUSH2 0x329F JUMPI PUSH2 0x100 DUP1 DUP4 SLOAD DIV MUL DUP4 MSTORE SWAP2 PUSH1 0x20 ADD SWAP2 PUSH2 0x32CA JUMP JUMPDEST DUP3 ADD SWAP2 SWAP1 PUSH1 0x0 MSTORE PUSH1 0x20 PUSH1 0x0 KECCAK256 SWAP1 JUMPDEST DUP2 SLOAD DUP2 MSTORE SWAP1 PUSH1 0x1 ADD SWAP1 PUSH1 0x20 ADD DUP1 DUP4 GT PUSH2 0x32AD JUMPI DUP3 SWAP1 SUB PUSH1 0x1F AND DUP3 ADD SWAP2 JUMPDEST POP POP POP POP POP DUP2 MSTORE PUSH1 0x20 ADD PUSH1 0x1 DUP3 ADD DUP1 SLOAD PUSH2 0x32E3 SWAP1 PUSH2 0x547E JUMP JUMPDEST DUP1 PUSH1 0x1F ADD PUSH1 0x20 DUP1 SWAP2 DIV MUL PUSH1 0x20 ADD PUSH1 0x40 MLOAD SWAP1 DUP2 ADD PUSH1 0x40 MSTORE DUP1 SWAP3 SWAP2 SWAP1 DUP2 DUP2 MSTORE PUSH1 0x20 ADD DUP3 DUP1 SLOAD PUSH2 0x330F SWAP1 PUSH2 0x547E JUMP JUMPDEST DUP1 ISZERO PUSH2 0x335C JUMPI DUP1 PUSH1 0x1F LT PUSH2 0x3331 JUMPI PUSH2 0x100 DUP1 DUP4 SLOAD DIV MUL DUP4 MSTORE SWAP2 PUSH1 0x20 ADD SWAP2 PUSH2 0x335C JUMP JUMPDEST DUP3 ADD SWAP2 SWAP1 PUSH1 0x0 MSTORE PUSH1 0x20 PUSH1 0x0 KECCAK256 SWAP1 JUMPDEST DUP2 SLOAD DUP2 MSTORE SWAP1 PUSH1 0x1 ADD SWAP1 PUSH1 0x20 ADD DUP1 DUP4 GT PUSH2 0x333F JUMPI DUP3 SWAP1 SUB PUSH1 0x1F AND DUP3 ADD SWAP2 JUMPDEST POP POP POP POP POP DUP2 MSTORE PUSH1 0x20 ADD PUSH1 0x2 DUP3 ADD DUP1 SLOAD PUSH2 0x3375 SWAP1 PUSH2 0x547E JUMP JUMPDEST DUP1 PUSH1 0x1F ADD PUSH1 0x20 DUP1 SWAP2 DIV MUL PUSH1 0x20 ADD PUSH1 0x40 MLOAD SWAP1 DUP2 ADD PUSH1 0x40 MSTORE DUP1 SWAP3 SWAP2 SWAP1 DUP2 DUP2 MSTORE PUSH1 0x20 ADD DUP3 DUP1 SLOAD PUSH2 0x33A1 SWAP1 PUSH2 0x547E JUMP JUMPDEST DUP1 ISZERO PUSH2 0x33EE JUMPI DUP1 PUSH1 0x1F LT PUSH2 0x33C3 JUMPI PUSH2 0x100 DUP1 DUP4 SLOAD DIV MUL DUP4 MSTORE SWAP2 PUSH1 0x20 ADD SWAP2 PUSH2 0x33EE JUMP JUMPDEST DUP3 ADD SWAP2 SWAP1 PUSH1 0x0 MSTORE PUSH1 0x20 PUSH1 0x0 KECCAK256 SWAP1 JUMPDEST DUP2 SLOAD DUP2 MSTORE SWAP1 PUSH1 0x1 ADD SWAP1 PUSH1 0x20 ADD DUP1 DUP4 GT PUSH2 0x33D1 JUMPI DUP3 SWAP1 SUB PUSH1 0x1F AND DUP3 ADD SWAP2 JUMPDEST POP POP POP POP POP DUP2 MSTORE PUSH1 0x20 ADD PUSH1 0x3 DUP3 ADD DUP1 SLOAD PUSH2 0x3407 SWAP1 PUSH2 0x547E JUMP JUMPDEST DUP1 PUSH1 0x1F ADD PUSH1 0x20 DUP1 SWAP2 DIV MUL PUSH1 0x20 ADD PUSH1 0x40 MLOAD SWAP1 DUP2 ADD PUSH1 0x40 MSTORE DUP1 SWAP3 SWAP2 SWAP1 DUP2 DUP2 MSTORE PUSH1 0x20 ADD DUP3 DUP1 SLOAD PUSH2 0x3433 SWAP1 PUSH2 0x547E JUMP JUMPDEST DUP1 ISZERO PUSH2 0x3480 JUMPI DUP1 PUSH1 0x1F LT PUSH2 0x3455 JUMPI PUSH2 0x100 DUP1 DUP4 SLOAD DIV MUL DUP4 MSTORE SWAP2 PUSH1 0x20 ADD SWAP2 PUSH2 0x3480 JUMP JUMPDEST DUP3 ADD SWAP2 SWAP1 PUSH1 0x0 MSTORE PUSH1 0x20 PUSH1 0x0 KECCAK256 SWAP1 JUMPDEST DUP2 SLOAD DUP2 MSTORE SWAP1 PUSH1 0x1 ADD SWAP1 PUSH1 0x20 ADD DUP1 DUP4 GT PUSH2 0x3463 JUMPI DUP3 SWAP1 SUB PUSH1 0x1F AND DUP3 ADD SWAP2 JUMPDEST POP POP POP POP POP DUP2 MSTORE PUSH1 0x20 ADD PUSH1 0x4 DUP3 ADD DUP1 SLOAD PUSH2 0x3499 SWAP1 PUSH2 0x547E JUMP JUMPDEST DUP1 PUSH1 0x1F ADD PUSH1 0x20 DUP1 SWAP2 DIV MUL PUSH1 0x20 ADD PUSH1 0x40 MLOAD SWAP1 DUP2 ADD PUSH1 0x40 MSTORE DUP1 SWAP3 SWAP2 SWAP1 DUP2 DUP2 MSTORE PUSH1 0x20 ADD DUP3 DUP1 SLOAD PUSH2 0x34C5 SWAP1 PUSH2 0x547E JUMP JUMPDEST DUP1 ISZERO PUSH2 0x3512 JUMPI DUP1 PUSH1 0x1F LT PUSH2 0x34E7 JUMPI PUSH2 0x100 DUP1 DUP4 SLOAD DIV MUL DUP4 MSTORE SWAP2 PUSH1 0x20 ADD SWAP2 PUSH2 0x3512 JUMP JUMPDEST DUP3 ADD SWAP2 SWAP1 PUSH1 0x0 MSTORE PUSH1 0x20 PUSH1 0x0 KECCAK256 SWAP1 JUMPDEST DUP2 SLOAD DUP2 MSTORE SWAP1 PUSH1 0x1 ADD SWAP1 PUSH1 0x20 ADD DUP1 DUP4 GT PUSH2 0x34F5 JUMPI DUP3 SWAP1 SUB PUSH1 0x1F AND DUP3 ADD SWAP2 JUMPDEST POP POP POP POP POP DUP2 MSTORE PUSH1 0x20 ADD PUSH1 0x5 DUP3 ADD DUP1 SLOAD PUSH2 0x352B SWAP1 PUSH2 0x547E JUMP JUMPDEST DUP1 PUSH1 0x1F ADD PUSH1 0x20 DUP1 SWAP2 DIV MUL PUSH1 0x20 ADD PUSH1 0x40 MLOAD SWAP1 DUP2 ADD PUSH1 0x40 MSTORE DUP1 SWAP3 SWAP2 SWAP1 DUP2 DUP2 MSTORE PUSH1 0x20 ADD DUP3 DUP1 SLOAD PUSH2 0x3557 SWAP1 PUSH2 0x547E JUMP JUMPDEST DUP1 ISZERO PUSH2 0x35A4 JUMPI DUP1 PUSH1 0x1F LT PUSH2 0x3579 JUMPI PUSH2 0x100 DUP1 DUP4 SLOAD DIV MUL DUP4 MSTORE SWAP2 PUSH1 0x20 ADD SWAP2 PUSH2 0x35A4 JUMP JUMPDEST DUP3 ADD SWAP2 SWAP1 PUSH1 0x0 MSTORE PUSH1 0x20 PUSH1 0x0 KECCAK256 SWAP1 JUMPDEST DUP2 SLOAD DUP2 MSTORE SWAP1 PUSH1 0x1 ADD SWAP1 PUSH1 0x20 ADD DUP1 DUP4 GT PUSH2 0x3587 JUMPI DUP3 SWAP1 SUB PUSH1 0x1F AND DUP3 ADD SWAP2 JUMPDEST POP POP POP POP POP DUP2 MSTORE PUSH1 0x20 ADD PUSH1 0x6 DUP3 ADD DUP1 SLOAD PUSH2 0x35BD SWAP1 PUSH2 0x547E JUMP JUMPDEST DUP1 PUSH1 0x1F ADD PUSH1 0x20 DUP1 SWAP2 DIV MUL PUSH1 0x20 ADD PUSH1 0x40 MLOAD SWAP1 DUP2 ADD PUSH1 0x40 MSTORE DUP1 SWAP3 SWAP2 SWAP1 DUP2 DUP2 MSTORE PUSH1 0x20 ADD DUP3 DUP1 SLOAD PUSH2 0x35E9 SWAP1 PUSH2 0x547E JUMP JUMPDEST DUP1 ISZERO PUSH2 0x3636 JUMPI DUP1 PUSH1 0x1F LT PUSH2 0x360B JUMPI PUSH2 0x100 DUP1 DUP4 SLOAD DIV MUL DUP4 MSTORE SWAP2 PUSH1 0x20 ADD SWAP2 PUSH2 0x3636 JUMP JUMPDEST DUP3 ADD SWAP2 SWAP1 PUSH1 0x0 MSTORE PUSH1 0x20 PUSH1 0x0 KECCAK256 SWAP1 JUMPDEST DUP2 SLOAD DUP2 MSTORE SWAP1 PUSH1 0x1 ADD SWAP1 PUSH1 0x20 ADD DUP1 DUP4 GT PUSH2 0x3619 JUMPI DUP3 SWAP1 SUB PUSH1 0x1F AND DUP3 ADD SWAP2 JUMPDEST POP POP POP POP POP DUP2 MSTORE PUSH1 0x20 ADD PUSH1 0x7 DUP3 ADD PUSH1 0x0 SWAP1 SLOAD SWAP1 PUSH2 0x100 EXP SWAP1 DIV PUSH20 0xFFFFFFFFFFFFFFFFFFFFFFFFFFFFFFFFFFFFFFFF AND PUSH20 0xFFFFFFFFFFFFFFFFFFFFFFFFFFFFFFFFFFFFFFFF AND PUSH20 0xFFFFFFFFFFFFFFFFFFFFFFFFFFFFFFFFFFFFFFFF AND DUP2 MSTORE PUSH1 0x20 ADD PUSH1 0x8 DUP3 ADD SLOAD DUP2 MSTORE POP POP SWAP1 POP DUP2 PUSH1 0x0 ADD MLOAD DUP2 PUSH1 0x20 ADD MLOAD DUP4 PUSH1 0x40 ADD MLOAD DUP5 PUSH1 0x60 ADD MLOAD DUP6 PUSH1 0xC0 ADD MLOAD DUP7 PUSH1 0x80 ADD MLOAD DUP8 PUSH1 0xA0 ADD MLOAD DUP9 PUSH1 0xE0 ADD MLOAD SWAP10 POP SWAP10 POP SWAP10 POP SWAP10 POP SWAP10 POP SWAP10 POP SWAP10 POP SWAP10 POP POP POP SWAP2 SWAP4 SWAP6 SWAP8 POP SWAP2 SWAP4 SWAP6 SWAP8 JUMP JUMPDEST PUSH1 0x60 PUSH1 0x3 DUP1 SLOAD DUP1 PUSH1 0x20 MUL PUSH1 0x20 ADD PUSH1 0x40 MLOAD SWAP1 DUP2 ADD PUSH1 0x40 MSTORE DUP1 SWAP3 SWAP2 SWAP1 DUP2 DUP2 MSTORE PUSH1 0x20 ADD DUP3 DUP1 SLOAD DUP1 ISZERO PUSH2 0x376A JUMPI PUSH1 0x20 MUL DUP3 ADD SWAP2 SWAP1 PUSH1 0x0 MSTORE PUSH1 0x20 PUSH1 0x0 KECCAK256 SWAP1 JUMPDEST DUP2 PUSH1 0x0 SWAP1 SLOAD SWAP1 PUSH2 0x100 EXP SWAP1 DIV PUSH20 0xFFFFFFFFFFFFFFFFFFFFFFFFFFFFFFFFFFFFFFFF AND PUSH20 0xFFFFFFFFFFFFFFFFFFFFFFFFFFFFFFFFFFFFFFFF AND DUP2 MSTORE PUSH1 0x20 ADD SWAP1 PUSH1 0x1 ADD SWAP1 DUP1 DUP4 GT PUSH2 0x3720 JUMPI JUMPDEST POP POP POP POP POP SWAP1 POP SWAP1 JUMP JUMPDEST PUSH1 0xB SLOAD DUP2 JUMP JUMPDEST PUSH1 0x9 PUSH1 0x0 CALLER PUSH20 0xFFFFFFFFFFFFFFFFFFFFFFFFFFFFFFFFFFFFFFFF AND PUSH20 0xFFFFFFFFFFFFFFFFFFFFFFFFFFFFFFFFFFFFFFFF AND DUP2 MSTORE PUSH1 0x20 ADD SWAP1 DUP2 MSTORE PUSH1 0x20 ADD PUSH1 0x0 KECCAK256 PUSH1 0x0 SWAP1 SLOAD SWAP1 PUSH2 0x100 EXP SWAP1 DIV PUSH1 0xFF AND PUSH2 0x37D0 JUMPI PUSH1 0x0 DUP1 REVERT JUMPDEST PUSH1 0x0 PUSH1 0x5 PUSH1 0x0 CALLER PUSH20 0xFFFFFFFFFFFFFFFFFFFFFFFFFFFFFFFFFFFFFFFF AND PUSH20 0xFFFFFFFFFFFFFFFFFFFFFFFFFFFFFFFFFFFFFFFF AND DUP2 MSTORE PUSH1 0x20 ADD SWAP1 DUP2 MSTORE PUSH1 0x20 ADD PUSH1 0x0 KECCAK256 SWAP1 POP DUP8 DUP2 PUSH1 0x0 ADD SWAP1 DUP2 PUSH2 0x3824 SWAP2 SWAP1 PUSH2 0x565B JUMP JUMPDEST POP DUP7 DUP2 PUSH1 0x1 ADD SWAP1 DUP2 PUSH2 0x3836 SWAP2 SWAP1 PUSH2 0x565B JUMP JUMPDEST POP DUP6 DUP2 PUSH1 0x2 ADD SWAP1 DUP2 PUSH2 0x3848 SWAP2 SWAP1 PUSH2 0x565B JUMP JUMPDEST POP DUP5 DUP2 PUSH1 0x3 ADD SWAP1 DUP2 PUSH2 0x385A SWAP2 SWAP1 PUSH2 0x565B JUMP JUMPDEST POP DUP4 DUP2 PUSH1 0x4 ADD SWAP1 DUP2 PUSH2 0x386C SWAP2 SWAP1 PUSH2 0x565B JUMP JUMPDEST POP DUP3 DUP2 PUSH1 0x5 ADD SWAP1 DUP2 PUSH2 0x387E SWAP2 SWAP1 PUSH2 0x565B JUMP JUMPDEST POP DUP2 DUP2 PUSH1 0x6 ADD SWAP1 DUP2 PUSH2 0x3890 SWAP2 SWAP1 PUSH2 0x565B JUMP JUMPDEST POP CALLER DUP2 PUSH1 0x7 ADD PUSH1 0x0 PUSH2 0x100 EXP DUP2 SLOAD DUP2 PUSH20 0xFFFFFFFFFFFFFFFFFFFFFFFFFFFFFFFFFFFFFFFF MUL NOT AND SWAP1 DUP4 PUSH20 0xFFFFFFFFFFFFFFFFFFFFFFFFFFFFFFFFFFFFFFFF AND MUL OR SWAP1 SSTORE POP POP POP POP POP POP POP POP POP JUMP JUMPDEST PUSH1 0x60 PUSH1 0x2 DUP1 SLOAD DUP1 PUSH1 0x20 MUL PUSH1 0x20 ADD PUSH1 0x40 MLOAD SWAP1 DUP2 ADD PUSH1 0x40 MSTORE DUP1 SWAP3 SWAP2 SWAP1 DUP2 DUP2 MSTORE PUSH1 0x20 ADD DUP3 DUP1 SLOAD DUP1 ISZERO PUSH2 0x3962 JUMPI PUSH1 0x20 MUL DUP3 ADD SWAP2 SWAP1 PUSH1 0x0 MSTORE PUSH1 0x20 PUSH1 0x0 KECCAK256 SWAP1 JUMPDEST DUP2 PUSH1 0x0 SWAP1 SLOAD SWAP1 PUSH2 0x100 EXP SWAP1 DIV PUSH20 0xFFFFFFFFFFFFFFFFFFFFFFFFFFFFFFFFFFFFFFFF AND PUSH20 0xFFFFFFFFFFFFFFFFFFFFFFFFFFFFFFFFFFFFFFFF AND DUP2 MSTORE PUSH1 0x20 ADD SWAP1 PUSH1 0x1 ADD SWAP1 DUP1 DUP4 GT PUSH2 0x3918 JUMPI JUMPDEST POP POP POP POP POP SWAP1 POP SWAP1 JUMP JUMPDEST PUSH1 0x8 PUSH1 0x0 CALLER PUSH20 0xFFFFFFFFFFFFFFFFFFFFFFFFFFFFFFFFFFFFFFFF AND PUSH20 0xFFFFFFFFFFFFFFFFFFFFFFFFFFFFFFFFFFFFFFFF AND DUP2 MSTORE PUSH1 0x20 ADD SWAP1 DUP2 MSTORE PUSH1 0x20 ADD PUSH1 0x0 KECCAK256 PUSH1 0x0 SWAP1 SLOAD SWAP1 PUSH2 0x100 EXP SWAP1 DIV PUSH1 0xFF AND PUSH2 0x39C2 JUMPI PUSH1 0x0 DUP1 REVERT JUMPDEST PUSH1 0x0 PUSH1 0x4 PUSH1 0x0 CALLER PUSH20 0xFFFFFFFFFFFFFFFFFFFFFFFFFFFFFFFFFFFFFFFF AND PUSH20 0xFFFFFFFFFFFFFFFFFFFFFFFFFFFFFFFFFFFFFFFF AND DUP2 MSTORE PUSH1 0x20 ADD SWAP1 DUP2 MSTORE PUSH1 0x20 ADD PUSH1 0x0 KECCAK256 SWAP1 POP DUP12 DUP2 PUSH1 0x0 ADD SWAP1 DUP2 PUSH2 0x3A16 SWAP2 SWAP1 PUSH2 0x565B JUMP JUMPDEST POP DUP11 DUP2 PUSH1 0x1 ADD SWAP1 DUP2 PUSH2 0x3A28 SWAP2 SWAP1 PUSH2 0x565B JUMP JUMPDEST POP DUP10 DUP2 PUSH1 0x2 ADD SWAP1 DUP2 PUSH2 0x3A3A SWAP2 SWAP1 PUSH2 0x565B JUMP JUMPDEST POP DUP9 DUP2 PUSH1 0x3 ADD SWAP1 DUP2 PUSH2 0x3A4C SWAP2 SWAP1 PUSH2 0x565B JUMP JUMPDEST POP DUP8 DUP2 PUSH1 0x4 ADD SWAP1 DUP2 PUSH2 0x3A5E SWAP2 SWAP1 PUSH2 0x565B JUMP JUMPDEST POP DUP7 DUP2 PUSH1 0x5 ADD SWAP1 DUP2 PUSH2 0x3A70 SWAP2 SWAP1 PUSH2 0x565B JUMP JUMPDEST POP DUP6 DUP2 PUSH1 0x6 ADD SWAP1 DUP2 PUSH2 0x3A82 SWAP2 SWAP1 PUSH2 0x565B JUMP JUMPDEST POP DUP5 DUP2 PUSH1 0x7 ADD SWAP1 DUP2 PUSH2 0x3A94 SWAP2 SWAP1 PUSH2 0x565B JUMP JUMPDEST POP DUP4 DUP2 PUSH1 0x8 ADD SWAP1 DUP2 PUSH2 0x3AA6 SWAP2 SWAP1 PUSH2 0x565B JUMP JUMPDEST POP DUP3 DUP2 PUSH1 0x9 ADD SWAP1 DUP2 PUSH2 0x3AB8 SWAP2 SWAP1 PUSH2 0x565B JUMP JUMPDEST POP DUP2 DUP2 PUSH1 0xA ADD SWAP1 DUP2 PUSH2 0x3ACA SWAP2 SWAP1 PUSH2 0x565B JUMP JUMPDEST POP CALLER DUP2 PUSH1 0xD ADD PUSH1 0x0 PUSH2 0x100 EXP DUP2 SLOAD DUP2 PUSH20 0xFFFFFFFFFFFFFFFFFFFFFFFFFFFFFFFFFFFFFFFF MUL NOT AND SWAP1 DUP4 PUSH20 0xFFFFFFFFFFFFFFFFFFFFFFFFFFFFFFFFFFFFFFFF AND MUL OR SWAP1 SSTORE POP POP POP POP POP POP POP POP POP POP POP POP POP JUMP JUMPDEST PUSH1 0x1 DUP2 DUP2 SLOAD DUP2 LT PUSH2 0x3B2C JUMPI PUSH1 0x0 DUP1 REVERT JUMPDEST SWAP1 PUSH1 0x0 MSTORE PUSH1 0x20 PUSH1 0x0 KECCAK256 ADD PUSH1 0x0 SWAP2 POP SLOAD SWAP1 PUSH2 0x100 EXP SWAP1 DIV PUSH20 0xFFFFFFFFFFFFFFFFFFFFFFFFFFFFFFFFFFFFFFFF AND DUP2 JUMP JUMPDEST PUSH1 0x0 DUP1 PUSH1 0x4 PUSH1 0x0 DUP5 PUSH20 0xFFFFFFFFFFFFFFFFFFFFFFFFFFFFFFFFFFFFFFFF AND PUSH20 0xFFFFFFFFFFFFFFFFFFFFFFFFFFFFFFFFFFFFFFFF AND DUP2 MSTORE PUSH1 0x20 ADD SWAP1 DUP2 MSTORE PUSH1 0x20 ADD PUSH1 0x0 KECCAK256 PUSH1 0x40 MLOAD DUP1 PUSH2 0x1E0 ADD PUSH1 0x40 MSTORE SWAP1 DUP2 PUSH1 0x0 DUP3 ADD DUP1 SLOAD PUSH2 0x3BB9 SWAP1 PUSH2 0x547E JUMP JUMPDEST DUP1 PUSH1 0x1F ADD PUSH1 0x20 DUP1 SWAP2 DIV MUL PUSH1 0x20 ADD PUSH1 0x40 MLOAD SWAP1 DUP2 ADD PUSH1 0x40 MSTORE DUP1 SWAP3 SWAP2 SWAP1 DUP2 DUP2 MSTORE PUSH1 0x20 ADD DUP3 DUP1 SLOAD PUSH2 0x3BE5 SWAP1 PUSH2 0x547E JUMP JUMPDEST DUP1 ISZERO PUSH2 0x3C32 JUMPI DUP1 PUSH1 0x1F LT PUSH2 0x3C07 JUMPI PUSH2 0x100 DUP1 DUP4 SLOAD DIV MUL DUP4 MSTORE SWAP2 PUSH1 0x20 ADD SWAP2 PUSH2 0x3C32 JUMP JUMPDEST DUP3 ADD SWAP2 SWAP1 PUSH1 0x0 MSTORE PUSH1 0x20 PUSH1 0x0 KECCAK256 SWAP1 JUMPDEST DUP2 SLOAD DUP2 MSTORE SWAP1 PUSH1 0x1 ADD SWAP1 PUSH1 0x20 ADD DUP1 DUP4 GT PUSH2 0x3C15 JUMPI DUP3 SWAP1 SUB PUSH1 0x1F AND DUP3 ADD SWAP2 JUMPDEST POP POP POP POP POP DUP2 MSTORE PUSH1 0x20 ADD PUSH1 0x1 DUP3 ADD DUP1 SLOAD PUSH2 0x3C4B SWAP1 PUSH2 0x547E JUMP JUMPDEST DUP1 PUSH1 0x1F ADD PUSH1 0x20 DUP1 SWAP2 DIV MUL PUSH1 0x20 ADD PUSH1 0x40 MLOAD SWAP1 DUP2 ADD PUSH1 0x40 MSTORE DUP1 SWAP3 SWAP2 SWAP1 DUP2 DUP2 MSTORE PUSH1 0x20 ADD DUP3 DUP1 SLOAD PUSH2 0x3C77 SWAP1 PUSH2 0x547E JUMP JUMPDEST DUP1 ISZERO PUSH2 0x3CC4 JUMPI DUP1 PUSH1 0x1F LT PUSH2 0x3C99 JUMPI PUSH2 0x100 DUP1 DUP4 SLOAD DIV MUL DUP4 MSTORE SWAP2 PUSH1 0x20 ADD SWAP2 PUSH2 0x3CC4 JUMP JUMPDEST DUP3 ADD SWAP2 SWAP1 PUSH1 0x0 MSTORE PUSH1 0x20 PUSH1 0x0 KECCAK256 SWAP1 JUMPDEST DUP2 SLOAD DUP2 MSTORE SWAP1 PUSH1 0x1 ADD SWAP1 PUSH1 0x20 ADD DUP1 DUP4 GT PUSH2 0x3CA7 JUMPI DUP3 SWAP1 SUB PUSH1 0x1F AND DUP3 ADD SWAP2 JUMPDEST POP POP POP POP POP DUP2 MSTORE PUSH1 0x20 ADD PUSH1 0x2 DUP3 ADD DUP1 SLOAD PUSH2 0x3CDD SWAP1 PUSH2 0x547E JUMP JUMPDEST DUP1 PUSH1 0x1F ADD PUSH1 0x20 DUP1 SWAP2 DIV MUL PUSH1 0x20 ADD PUSH1 0x40 MLOAD SWAP1 DUP2 ADD PUSH1 0x40 MSTORE DUP1 SWAP3 SWAP2 SWAP1 DUP2 DUP2 MSTORE PUSH1 0x20 ADD DUP3 DUP1 SLOAD PUSH2 0x3D09 SWAP1 PUSH2 0x547E JUMP JUMPDEST DUP1 ISZERO PUSH2 0x3D56 JUMPI DUP1 PUSH1 0x1F LT PUSH2 0x3D2B JUMPI PUSH2 0x100 DUP1 DUP4 SLOAD DIV MUL DUP4 MSTORE SWAP2 PUSH1 0x20 ADD SWAP2 PUSH2 0x3D56 JUMP JUMPDEST DUP3 ADD SWAP2 SWAP1 PUSH1 0x0 MSTORE PUSH1 0x20 PUSH1 0x0 KECCAK256 SWAP1 JUMPDEST DUP2 SLOAD DUP2 MSTORE SWAP1 PUSH1 0x1 ADD SWAP1 PUSH1 0x20 ADD DUP1 DUP4 GT PUSH2 0x3D39 JUMPI DUP3 SWAP1 SUB PUSH1 0x1F AND DUP3 ADD SWAP2 JUMPDEST POP POP POP POP POP DUP2 MSTORE PUSH1 0x20 ADD PUSH1 0x3 DUP3 ADD DUP1 SLOAD PUSH2 0x3D6F SWAP1 PUSH2 0x547E JUMP JUMPDEST DUP1 PUSH1 0x1F ADD PUSH1 0x20 DUP1 SWAP2 DIV MUL PUSH1 0x20 ADD PUSH1 0x40 MLOAD SWAP1 DUP2 ADD PUSH1 0x40 MSTORE DUP1 SWAP3 SWAP2 SWAP1 DUP2 DUP2 MSTORE PUSH1 0x20 ADD DUP3 DUP1 SLOAD PUSH2 0x3D9B SWAP1 PUSH2 0x547E JUMP JUMPDEST DUP1 ISZERO PUSH2 0x3DE8 JUMPI DUP1 PUSH1 0x1F LT PUSH2 0x3DBD JUMPI PUSH2 0x100 DUP1 DUP4 SLOAD DIV MUL DUP4 MSTORE SWAP2 PUSH1 0x20 ADD SWAP2 PUSH2 0x3DE8 JUMP JUMPDEST DUP3 ADD SWAP2 SWAP1 PUSH1 0x0 MSTORE PUSH1 0x20 PUSH1 0x0 KECCAK256 SWAP1 JUMPDEST DUP2 SLOAD DUP2 MSTORE SWAP1 PUSH1 0x1 ADD SWAP1 PUSH1 0x20 ADD DUP1 DUP4 GT PUSH2 0x3DCB JUMPI DUP3 SWAP1 SUB PUSH1 0x1F AND DUP3 ADD SWAP2 JUMPDEST POP POP POP POP POP DUP2 MSTORE PUSH1 0x20 ADD PUSH1 0x4 DUP3 ADD DUP1 SLOAD PUSH2 0x3E01 SWAP1 PUSH2 0x547E JUMP JUMPDEST DUP1 PUSH1 0x1F ADD PUSH1 0x20 DUP1 SWAP2 DIV MUL PUSH1 0x20 ADD PUSH1 0x40 MLOAD SWAP1 DUP2 ADD PUSH1 0x40 MSTORE DUP1 SWAP3 SWAP2 SWAP1 DUP2 DUP2 MSTORE PUSH1 0x20 ADD DUP3 DUP1 SLOAD PUSH2 0x3E2D SWAP1 PUSH2 0x547E JUMP JUMPDEST DUP1 ISZERO PUSH2 0x3E7A JUMPI DUP1 PUSH1 0x1F LT PUSH2 0x3E4F JUMPI PUSH2 0x100 DUP1 DUP4 SLOAD DIV MUL DUP4 MSTORE SWAP2 PUSH1 0x20 ADD SWAP2 PUSH2 0x3E7A JUMP JUMPDEST DUP3 ADD SWAP2 SWAP1 PUSH1 0x0 MSTORE PUSH1 0x20 PUSH1 0x0 KECCAK256 SWAP1 JUMPDEST DUP2 SLOAD DUP2 MSTORE SWAP1 PUSH1 0x1 ADD SWAP1 PUSH1 0x20 ADD DUP1 DUP4 GT PUSH2 0x3E5D JUMPI DUP3 SWAP1 SUB PUSH1 0x1F AND DUP3 ADD SWAP2 JUMPDEST POP POP POP POP POP DUP2 MSTORE PUSH1 0x20 ADD PUSH1 0x5 DUP3 ADD DUP1 SLOAD PUSH2 0x3E93 SWAP1 PUSH2 0x547E JUMP JUMPDEST DUP1 PUSH1 0x1F ADD PUSH1 0x20 DUP1 SWAP2 DIV MUL PUSH1 0x20 ADD PUSH1 0x40 MLOAD SWAP1 DUP2 ADD PUSH1 0x40 MSTORE DUP1 SWAP3 SWAP2 SWAP1 DUP2 DUP2 MSTORE PUSH1 0x20 ADD DUP3 DUP1 SLOAD PUSH2 0x3EBF SWAP1 PUSH2 0x547E JUMP JUMPDEST DUP1 ISZERO PUSH2 0x3F0C JUMPI DUP1 PUSH1 0x1F LT PUSH2 0x3EE1 JUMPI PUSH2 0x100 DUP1 DUP4 SLOAD DIV MUL DUP4 MSTORE SWAP2 PUSH1 0x20 ADD SWAP2 PUSH2 0x3F0C JUMP JUMPDEST DUP3 ADD SWAP2 SWAP1 PUSH1 0x0 MSTORE PUSH1 0x20 PUSH1 0x0 KECCAK256 SWAP1 JUMPDEST DUP2 SLOAD DUP2 MSTORE SWAP1 PUSH1 0x1 ADD SWAP1 PUSH1 0x20 ADD DUP1 DUP4 GT PUSH2 0x3EEF JUMPI DUP3 SWAP1 SUB PUSH1 0x1F AND DUP3 ADD SWAP2 JUMPDEST POP POP POP POP POP DUP2 MSTORE PUSH1 0x20 ADD PUSH1 0x6 DUP3 ADD DUP1 SLOAD PUSH2 0x3F25 SWAP1 PUSH2 0x547E JUMP JUMPDEST DUP1 PUSH1 0x1F ADD PUSH1 0x20 DUP1 SWAP2 DIV MUL PUSH1 0x20 ADD PUSH1 0x40 MLOAD SWAP1 DUP2 ADD PUSH1 0x40 MSTORE DUP1 SWAP3 SWAP2 SWAP1 DUP2 DUP2 MSTORE PUSH1 0x20 ADD DUP3 DUP1 SLOAD PUSH2 0x3F51 SWAP1 PUSH2 0x547E JUMP JUMPDEST DUP1 ISZERO PUSH2 0x3F9E JUMPI DUP1 PUSH1 0x1F LT PUSH2 0x3F73 JUMPI PUSH2 0x100 DUP1 DUP4 SLOAD DIV MUL DUP4 MSTORE SWAP2 PUSH1 0x20 ADD SWAP2 PUSH2 0x3F9E JUMP JUMPDEST DUP3 ADD SWAP2 SWAP1 PUSH1 0x0 MSTORE PUSH1 0x20 PUSH1 0x0 KECCAK256 SWAP1 JUMPDEST DUP2 SLOAD DUP2 MSTORE SWAP1 PUSH1 0x1 ADD SWAP1 PUSH1 0x20 ADD DUP1 DUP4 GT PUSH2 0x3F81 JUMPI DUP3 SWAP1 SUB PUSH1 0x1F AND DUP3 ADD SWAP2 JUMPDEST POP POP POP POP POP DUP2 MSTORE PUSH1 0x20 ADD PUSH1 0x7 DUP3 ADD DUP1 SLOAD PUSH2 0x3FB7 SWAP1 PUSH2 0x547E JUMP JUMPDEST DUP1 PUSH1 0x1F ADD PUSH1 0x20 DUP1 SWAP2 DIV MUL PUSH1 0x20 ADD PUSH1 0x40 MLOAD SWAP1 DUP2 ADD PUSH1 0x40 MSTORE DUP1 SWAP3 SWAP2 SWAP1 DUP2 DUP2 MSTORE PUSH1 0x20 ADD DUP3 DUP1 SLOAD PUSH2 0x3FE3 SWAP1 PUSH2 0x547E JUMP JUMPDEST DUP1 ISZERO PUSH2 0x4030 JUMPI DUP1 PUSH1 0x1F LT PUSH2 0x4005 JUMPI PUSH2 0x100 DUP1 DUP4 SLOAD DIV MUL DUP4 MSTORE SWAP2 PUSH1 0x20 ADD SWAP2 PUSH2 0x4030 JUMP JUMPDEST DUP3 ADD SWAP2 SWAP1 PUSH1 0x0 MSTORE PUSH1 0x20 PUSH1 0x0 KECCAK256 SWAP1 JUMPDEST DUP2 SLOAD DUP2 MSTORE SWAP1 PUSH1 0x1 ADD SWAP1 PUSH1 0x20 ADD DUP1 DUP4 GT PUSH2 0x4013 JUMPI DUP3 SWAP1 SUB PUSH1 0x1F AND DUP3 ADD SWAP2 JUMPDEST POP POP POP POP POP DUP2 MSTORE PUSH1 0x20 ADD PUSH1 0x8 DUP3 ADD DUP1 SLOAD PUSH2 0x4049 SWAP1 PUSH2 0x547E JUMP JUMPDEST DUP1 PUSH1 0x1F ADD PUSH1 0x20 DUP1 SWAP2 DIV MUL PUSH1 0x20 ADD PUSH1 0x40 MLOAD SWAP1 DUP2 ADD PUSH1 0x40 MSTORE DUP1 SWAP3 SWAP2 SWAP1 DUP2 DUP2 MSTORE PUSH1 0x20 ADD DUP3 DUP1 SLOAD PUSH2 0x4075 SWAP1 PUSH2 0x547E JUMP JUMPDEST DUP1 ISZERO PUSH2 0x40C2 JUMPI DUP1 PUSH1 0x1F LT PUSH2 0x4097 JUMPI PUSH2 0x100 DUP1 DUP4 SLOAD DIV MUL DUP4 MSTORE SWAP2 PUSH1 0x20 ADD SWAP2 PUSH2 0x40C2 JUMP JUMPDEST DUP3 ADD SWAP2 SWAP1 PUSH1 0x0 MSTORE PUSH1 0x20 PUSH1 0x0 KECCAK256 SWAP1 JUMPDEST DUP2 SLOAD DUP2 MSTORE SWAP1 PUSH1 0x1 ADD SWAP1 PUSH1 0x20 ADD DUP1 DUP4 GT PUSH2 0x40A5 JUMPI DUP3 SWAP1 SUB PUSH1 0x1F AND DUP3 ADD SWAP2 JUMPDEST POP POP POP POP POP DUP2 MSTORE PUSH1 0x20 ADD PUSH1 0x9 DUP3 ADD DUP1 SLOAD PUSH2 0x40DB SWAP1 PUSH2 0x547E JUMP JUMPDEST DUP1 PUSH1 0x1F ADD PUSH1 0x20 DUP1 SWAP2 DIV MUL PUSH1 0x20 ADD PUSH1 0x40 MLOAD SWAP1 DUP2 ADD PUSH1 0x40 MSTORE DUP1 SWAP3 SWAP2 SWAP1 DUP2 DUP2 MSTORE PUSH1 0x20 ADD DUP3 DUP1 SLOAD PUSH2 0x4107 SWAP1 PUSH2 0x547E JUMP JUMPDEST DUP1 ISZERO PUSH2 0x4154 JUMPI DUP1 PUSH1 0x1F LT PUSH2 0x4129 JUMPI PUSH2 0x100 DUP1 DUP4 SLOAD DIV MUL DUP4 MSTORE SWAP2 PUSH1 0x20 ADD SWAP2 PUSH2 0x4154 JUMP JUMPDEST DUP3 ADD SWAP2 SWAP1 PUSH1 0x0 MSTORE PUSH1 0x20 PUSH1 0x0 KECCAK256 SWAP1 JUMPDEST DUP2 SLOAD DUP2 MSTORE SWAP1 PUSH1 0x1 ADD SWAP1 PUSH1 0x20 ADD DUP1 DUP4 GT PUSH2 0x4137 JUMPI DUP3 SWAP1 SUB PUSH1 0x1F AND DUP3 ADD SWAP2 JUMPDEST POP POP POP POP POP DUP2 MSTORE PUSH1 0x20 ADD PUSH1 0xA DUP3 ADD DUP1 SLOAD PUSH2 0x416D SWAP1 PUSH2 0x547E JUMP JUMPDEST DUP1 PUSH1 0x1F ADD PUSH1 0x20 DUP1 SWAP2 DIV MUL PUSH1 0x20 ADD PUSH1 0x40 MLOAD SWAP1 DUP2 ADD PUSH1 0x40 MSTORE DUP1 SWAP3 SWAP2 SWAP1 DUP2 DUP2 MSTORE PUSH1 0x20 ADD DUP3 DUP1 SLOAD PUSH2 0x4199 SWAP1 PUSH2 0x547E JUMP JUMPDEST DUP1 ISZERO PUSH2 0x41E6 JUMPI DUP1 PUSH1 0x1F LT PUSH2 0x41BB JUMPI PUSH2 0x100 DUP1 DUP4 SLOAD DIV MUL DUP4 MSTORE SWAP2 PUSH1 0x20 ADD SWAP2 PUSH2 0x41E6 JUMP JUMPDEST DUP3 ADD SWAP2 SWAP1 PUSH1 0x0 MSTORE PUSH1 0x20 PUSH1 0x0 KECCAK256 SWAP1 JUMPDEST DUP2 SLOAD DUP2 MSTORE SWAP1 PUSH1 0x1 ADD SWAP1 PUSH1 0x20 ADD DUP1 DUP4 GT PUSH2 0x41C9 JUMPI DUP3 SWAP1 SUB PUSH1 0x1F AND DUP3 ADD SWAP2 JUMPDEST POP POP POP POP POP DUP2 MSTORE PUSH1 0x20 ADD PUSH1 0xB DUP3 ADD DUP1 SLOAD PUSH2 0x41FF SWAP1 PUSH2 0x547E JUMP JUMPDEST DUP1 PUSH1 0x1F ADD PUSH1 0x20 DUP1 SWAP2 DIV MUL PUSH1 0x20 ADD PUSH1 0x40 MLOAD SWAP1 DUP2 ADD PUSH1 0x40 MSTORE DUP1 SWAP3 SWAP2 SWAP1 DUP2 DUP2 MSTORE PUSH1 0x20 ADD DUP3 DUP1 SLOAD PUSH2 0x422B SWAP1 PUSH2 0x547E JUMP JUMPDEST DUP1 ISZERO PUSH2 0x4278 JUMPI DUP1 PUSH1 0x1F LT PUSH2 0x424D JUMPI PUSH2 0x100 DUP1 DUP4 SLOAD DIV MUL DUP4 MSTORE SWAP2 PUSH1 0x20 ADD SWAP2 PUSH2 0x4278 JUMP JUMPDEST DUP3 ADD SWAP2 SWAP1 PUSH1 0x0 MSTORE PUSH1 0x20 PUSH1 0x0 KECCAK256 SWAP1 JUMPDEST DUP2 SLOAD DUP2 MSTORE SWAP1 PUSH1 0x1 ADD SWAP1 PUSH1 0x20 ADD DUP1 DUP4 GT PUSH2 0x425B JUMPI DUP3 SWAP1 SUB PUSH1 0x1F AND DUP3 ADD SWAP2 JUMPDEST POP POP POP POP POP DUP2 MSTORE PUSH1 0x20 ADD PUSH1 0xC DUP3 ADD DUP1 SLOAD PUSH2 0x4291 SWAP1 PUSH2 0x547E JUMP JUMPDEST DUP1 PUSH1 0x1F ADD PUSH1 0x20 DUP1 SWAP2 DIV MUL PUSH1 0x20 ADD PUSH1 0x40 MLOAD SWAP1 DUP2 ADD PUSH1 0x40 MSTORE DUP1 SWAP3 SWAP2 SWAP1 DUP2 DUP2 MSTORE PUSH1 0x20 ADD DUP3 DUP1 SLOAD PUSH2 0x42BD SWAP1 PUSH2 0x547E JUMP JUMPDEST DUP1 ISZERO PUSH2 0x430A JUMPI DUP1 PUSH1 0x1F LT PUSH2 0x42DF JUMPI PUSH2 0x100 DUP1 DUP4 SLOAD DIV MUL DUP4 MSTORE SWAP2 PUSH1 0x20 ADD SWAP2 PUSH2 0x430A JUMP JUMPDEST DUP3 ADD SWAP2 SWAP1 PUSH1 0x0 MSTORE PUSH1 0x20 PUSH1 0x0 KECCAK256 SWAP1 JUMPDEST DUP2 SLOAD DUP2 MSTORE SWAP1 PUSH1 0x1 ADD SWAP1 PUSH1 0x20 ADD DUP1 DUP4 GT PUSH2 0x42ED JUMPI DUP3 SWAP1 SUB PUSH1 0x1F AND DUP3 ADD SWAP2 JUMPDEST POP POP POP POP POP DUP2 MSTORE PUSH1 0x20 ADD PUSH1 0xD DUP3 ADD PUSH1 0x0 SWAP1 SLOAD SWAP1 PUSH2 0x100 EXP SWAP1 DIV PUSH20 0xFFFFFFFFFFFFFFFFFFFFFFFFFFFFFFFFFFFFFFFF AND PUSH20 0xFFFFFFFFFFFFFFFFFFFFFFFFFFFFFFFFFFFFFFFF AND PUSH20 0xFFFFFFFFFFFFFFFFFFFFFFFFFFFFFFFFFFFFFFFF AND DUP2 MSTORE PUSH1 0x20 ADD PUSH1 0xE DUP3 ADD SLOAD DUP2 MSTORE POP POP SWAP1 POP DUP1 PUSH2 0x1C0 ADD MLOAD SWAP2 POP POP SWAP2 SWAP1 POP JUMP JUMPDEST PUSH1 0xE SLOAD DUP2 JUMP JUMPDEST PUSH1 0x0 PUSH1 0xB SLOAD SWAP1 POP SWAP1 JUMP JUMPDEST PUSH1 0x60 DUP1 PUSH1 0x60 DUP1 PUSH1 0x60 DUP1 PUSH1 0x60 PUSH1 0x9 PUSH1 0x0 DUP10 PUSH20 0xFFFFFFFFFFFFFFFFFFFFFFFFFFFFFFFFFFFFFFFF AND PUSH20 0xFFFFFFFFFFFFFFFFFFFFFFFFFFFFFFFFFFFFFFFF AND DUP2 MSTORE PUSH1 0x20 ADD SWAP1 DUP2 MSTORE PUSH1 0x20 ADD PUSH1 0x0 KECCAK256 PUSH1 0x0 SWAP1 SLOAD SWAP1 PUSH2 0x100 EXP SWAP1 DIV PUSH1 0xFF AND PUSH2 0x43F4 JUMPI PUSH1 0x0 DUP1 REVERT JUMPDEST PUSH1 0x0 PUSH1 0x5 PUSH1 0x0 DUP11 PUSH20 0xFFFFFFFFFFFFFFFFFFFFFFFFFFFFFFFFFFFFFFFF AND PUSH20 0xFFFFFFFFFFFFFFFFFFFFFFFFFFFFFFFFFFFFFFFF AND DUP2 MSTORE PUSH1 0x20 ADD SWAP1 DUP2 MSTORE PUSH1 0x20 ADD PUSH1 0x0 KECCAK256 PUSH1 0x40 MLOAD DUP1 PUSH2 0x120 ADD PUSH1 0x40 MSTORE SWAP1 DUP2 PUSH1 0x0 DUP3 ADD DUP1 SLOAD PUSH2 0x4451 SWAP1 PUSH2 0x547E JUMP JUMPDEST DUP1 PUSH1 0x1F ADD PUSH1 0x20 DUP1 SWAP2 DIV MUL PUSH1 0x20 ADD PUSH1 0x40 MLOAD SWAP1 DUP2 ADD PUSH1 0x40 MSTORE DUP1 SWAP3 SWAP2 SWAP1 DUP2 DUP2 MSTORE PUSH1 0x20 ADD DUP3 DUP1 SLOAD PUSH2 0x447D SWAP1 PUSH2 0x547E JUMP JUMPDEST DUP1 ISZERO PUSH2 0x44CA JUMPI DUP1 PUSH1 0x1F LT PUSH2 0x449F JUMPI PUSH2 0x100 DUP1 DUP4 SLOAD DIV MUL DUP4 MSTORE SWAP2 PUSH1 0x20 ADD SWAP2 PUSH2 0x44CA JUMP JUMPDEST DUP3 ADD SWAP2 SWAP1 PUSH1 0x0 MSTORE PUSH1 0x20 PUSH1 0x0 KECCAK256 SWAP1 JUMPDEST DUP2 SLOAD DUP2 MSTORE SWAP1 PUSH1 0x1 ADD SWAP1 PUSH1 0x20 ADD DUP1 DUP4 GT PUSH2 0x44AD JUMPI DUP3 SWAP1 SUB PUSH1 0x1F AND DUP3 ADD SWAP2 JUMPDEST POP POP POP POP POP DUP2 MSTORE PUSH1 0x20 ADD PUSH1 0x1 DUP3 ADD DUP1 SLOAD PUSH2 0x44E3 SWAP1 PUSH2 0x547E JUMP JUMPDEST DUP1 PUSH1 0x1F ADD PUSH1 0x20 DUP1 SWAP2 DIV MUL PUSH1 0x20 ADD PUSH1 0x40 MLOAD SWAP1 DUP2 ADD PUSH1 0x40 MSTORE DUP1 SWAP3 SWAP2 SWAP1 DUP2 DUP2 MSTORE PUSH1 0x20 ADD DUP3 DUP1 SLOAD PUSH2 0x450F SWAP1 PUSH2 0x547E JUMP JUMPDEST DUP1 ISZERO PUSH2 0x455C JUMPI DUP1 PUSH1 0x1F LT PUSH2 0x4531 JUMPI PUSH2 0x100 DUP1 DUP4 SLOAD DIV MUL DUP4 MSTORE SWAP2 PUSH1 0x20 ADD SWAP2 PUSH2 0x455C JUMP JUMPDEST DUP3 ADD SWAP2 SWAP1 PUSH1 0x0 MSTORE PUSH1 0x20 PUSH1 0x0 KECCAK256 SWAP1 JUMPDEST DUP2 SLOAD DUP2 MSTORE SWAP1 PUSH1 0x1 ADD SWAP1 PUSH1 0x20 ADD DUP1 DUP4 GT PUSH2 0x453F JUMPI DUP3 SWAP1 SUB PUSH1 0x1F AND DUP3 ADD SWAP2 JUMPDEST POP POP POP POP POP DUP2 MSTORE PUSH1 0x20 ADD PUSH1 0x2 DUP3 ADD DUP1 SLOAD PUSH2 0x4575 SWAP1 PUSH2 0x547E JUMP JUMPDEST DUP1 PUSH1 0x1F ADD PUSH1 0x20 DUP1 SWAP2 DIV MUL PUSH1 0x20 ADD PUSH1 0x40 MLOAD SWAP1 DUP2 ADD PUSH1 0x40 MSTORE DUP1 SWAP3 SWAP2 SWAP1 DUP2 DUP2 MSTORE PUSH1 0x20 ADD DUP3 DUP1 SLOAD PUSH2 0x45A1 SWAP1 PUSH2 0x547E JUMP JUMPDEST DUP1 ISZERO PUSH2 0x45EE JUMPI DUP1 PUSH1 0x1F LT PUSH2 0x45C3 JUMPI PUSH2 0x100 DUP1 DUP4 SLOAD DIV MUL DUP4 MSTORE SWAP2 PUSH1 0x20 ADD SWAP2 PUSH2 0x45EE JUMP JUMPDEST DUP3 ADD SWAP2 SWAP1 PUSH1 0x0 MSTORE PUSH1 0x20 PUSH1 0x0 KECCAK256 SWAP1 JUMPDEST DUP2 SLOAD DUP2 MSTORE SWAP1 PUSH1 0x1 ADD SWAP1 PUSH1 0x20 ADD DUP1 DUP4 GT PUSH2 0x45D1 JUMPI DUP3 SWAP1 SUB PUSH1 0x1F AND DUP3 ADD SWAP2 JUMPDEST POP POP POP POP POP DUP2 MSTORE PUSH1 0x20 ADD PUSH1 0x3 DUP3 ADD DUP1 SLOAD PUSH2 0x4607 SWAP1 PUSH2 0x547E JUMP JUMPDEST DUP1 PUSH1 0x1F ADD PUSH1 0x20 DUP1 SWAP2 DIV MUL PUSH1 0x20 ADD PUSH1 0x40 MLOAD SWAP1 DUP2 ADD PUSH1 0x40 MSTORE DUP1 SWAP3 SWAP2 SWAP1 DUP2 DUP2 MSTORE PUSH1 0x20 ADD DUP3 DUP1 SLOAD PUSH2 0x4633 SWAP1 PUSH2 0x547E JUMP JUMPDEST DUP1 ISZERO PUSH2 0x4680 JUMPI DUP1 PUSH1 0x1F LT PUSH2 0x4655 JUMPI PUSH2 0x100 DUP1 DUP4 SLOAD DIV MUL DUP4 MSTORE SWAP2 PUSH1 0x20 ADD SWAP2 PUSH2 0x4680 JUMP JUMPDEST DUP3 ADD SWAP2 SWAP1 PUSH1 0x0 MSTORE PUSH1 0x20 PUSH1 0x0 KECCAK256 SWAP1 JUMPDEST DUP2 SLOAD DUP2 MSTORE SWAP1 PUSH1 0x1 ADD SWAP1 PUSH1 0x20 ADD DUP1 DUP4 GT PUSH2 0x4663 JUMPI DUP3 SWAP1 SUB PUSH1 0x1F AND DUP3 ADD SWAP2 JUMPDEST POP POP POP POP POP DUP2 MSTORE PUSH1 0x20 ADD PUSH1 0x4 DUP3 ADD DUP1 SLOAD PUSH2 0x4699 SWAP1 PUSH2 0x547E JUMP JUMPDEST DUP1 PUSH1 0x1F ADD PUSH1 0x20 DUP1 SWAP2 DIV MUL PUSH1 0x20 ADD PUSH1 0x40 MLOAD SWAP1 DUP2 ADD PUSH1 0x40 MSTORE DUP1 SWAP3 SWAP2 SWAP1 DUP2 DUP2 MSTORE PUSH1 0x20 ADD DUP3 DUP1 SLOAD PUSH2 0x46C5 SWAP1 PUSH2 0x547E JUMP JUMPDEST DUP1 ISZERO PUSH2 0x4712 JUMPI DUP1 PUSH1 0x1F LT PUSH2 0x46E7 JUMPI PUSH2 0x100 DUP1 DUP4 SLOAD DIV MUL DUP4 MSTORE SWAP2 PUSH1 0x20 ADD SWAP2 PUSH2 0x4712 JUMP JUMPDEST DUP3 ADD SWAP2 SWAP1 PUSH1 0x0 MSTORE PUSH1 0x20 PUSH1 0x0 KECCAK256 SWAP1 JUMPDEST DUP2 SLOAD DUP2 MSTORE SWAP1 PUSH1 0x1 ADD SWAP1 PUSH1 0x20 ADD DUP1 DUP4 GT PUSH2 0x46F5 JUMPI DUP3 SWAP1 SUB PUSH1 0x1F AND DUP3 ADD SWAP2 JUMPDEST POP POP POP POP POP DUP2 MSTORE PUSH1 0x20 ADD PUSH1 0x5 DUP3 ADD DUP1 SLOAD PUSH2 0x472B SWAP1 PUSH2 0x547E JUMP JUMPDEST DUP1 PUSH1 0x1F ADD PUSH1 0x20 DUP1 SWAP2 DIV MUL PUSH1 0x20 ADD PUSH1 0x40 MLOAD SWAP1 DUP2 ADD PUSH1 0x40 MSTORE DUP1 SWAP3 SWAP2 SWAP1 DUP2 DUP2 MSTORE PUSH1 0x20 ADD DUP3 DUP1 SLOAD PUSH2 0x4757 SWAP1 PUSH2 0x547E JUMP JUMPDEST DUP1 ISZERO PUSH2 0x47A4 JUMPI DUP1 PUSH1 0x1F LT PUSH2 0x4779 JUMPI PUSH2 0x100 DUP1 DUP4 SLOAD DIV MUL DUP4 MSTORE SWAP2 PUSH1 0x20 ADD SWAP2 PUSH2 0x47A4 JUMP JUMPDEST DUP3 ADD SWAP2 SWAP1 PUSH1 0x0 MSTORE PUSH1 0x20 PUSH1 0x0 KECCAK256 SWAP1 JUMPDEST DUP2 SLOAD DUP2 MSTORE SWAP1 PUSH1 0x1 ADD SWAP1 PUSH1 0x20 ADD DUP1 DUP4 GT PUSH2 0x4787 JUMPI DUP3 SWAP1 SUB PUSH1 0x1F AND DUP3 ADD SWAP2 JUMPDEST POP POP POP POP POP DUP2 MSTORE PUSH1 0x20 ADD PUSH1 0x6 DUP3 ADD DUP1 SLOAD PUSH2 0x47BD SWAP1 PUSH2 0x547E JUMP JUMPDEST DUP1 PUSH1 0x1F ADD PUSH1 0x20 DUP1 SWAP2 DIV MUL PUSH1 0x20 ADD PUSH1 0x40 MLOAD SWAP1 DUP2 ADD PUSH1 0x40 MSTORE DUP1 SWAP3 SWAP2 SWAP1 DUP2 DUP2 MSTORE PUSH1 0x20 ADD DUP3 DUP1 SLOAD PUSH2 0x47E9 SWAP1 PUSH2 0x547E JUMP JUMPDEST DUP1 ISZERO PUSH2 0x4836 JUMPI DUP1 PUSH1 0x1F LT PUSH2 0x480B JUMPI PUSH2 0x100 DUP1 DUP4 SLOAD DIV MUL DUP4 MSTORE SWAP2 PUSH1 0x20 ADD SWAP2 PUSH2 0x4836 JUMP JUMPDEST DUP3 ADD SWAP2 SWAP1 PUSH1 0x0 MSTORE PUSH1 0x20 PUSH1 0x0 KECCAK256 SWAP1 JUMPDEST DUP2 SLOAD DUP2 MSTORE SWAP1 PUSH1 0x1 ADD SWAP1 PUSH1 0x20 ADD DUP1 DUP4 GT PUSH2 0x4819 JUMPI DUP3 SWAP1 SUB PUSH1 0x1F AND DUP3 ADD SWAP2 JUMPDEST POP POP POP POP POP DUP2 MSTORE PUSH1 0x20 ADD PUSH1 0x7 DUP3 ADD PUSH1 0x0 SWAP1 SLOAD SWAP1 PUSH2 0x100 EXP SWAP1 DIV PUSH20 0xFFFFFFFFFFFFFFFFFFFFFFFFFFFFFFFFFFFFFFFF AND PUSH20 0xFFFFFFFFFFFFFFFFFFFFFFFFFFFFFFFFFFFFFFFF AND PUSH20 0xFFFFFFFFFFFFFFFFFFFFFFFFFFFFFFFFFFFFFFFF AND DUP2 MSTORE PUSH1 0x20 ADD PUSH1 0x8 DUP3 ADD SLOAD DUP2 MSTORE POP POP SWAP1 POP DUP1 PUSH1 0x0 ADD MLOAD DUP2 PUSH1 0x20 ADD MLOAD DUP3 PUSH1 0x40 ADD MLOAD DUP4 PUSH1 0x60 ADD MLOAD DUP5 PUSH1 0x80 ADD MLOAD DUP6 PUSH1 0xA0 ADD MLOAD DUP7 PUSH1 0xC0 ADD MLOAD SWAP8 POP SWAP8 POP SWAP8 POP SWAP8 POP SWAP8 POP SWAP8 POP SWAP8 POP POP SWAP2 SWAP4 SWAP6 SWAP8 SWAP1 SWAP3 SWAP5 SWAP7 POP JUMP JUMPDEST PUSH1 0x3 DUP2 DUP2 SLOAD DUP2 LT PUSH2 0x48EE JUMPI PUSH1 0x0 DUP1 REVERT JUMPDEST SWAP1 PUSH1 0x0 MSTORE PUSH1 0x20 PUSH1 0x0 KECCAK256 ADD PUSH1 0x0 SWAP2 POP SLOAD SWAP1 PUSH2 0x100 EXP SWAP1 DIV PUSH20 0xFFFFFFFFFFFFFFFFFFFFFFFFFFFFFFFFFFFFFFFF AND DUP2 JUMP JUMPDEST PUSH1 0x0 PUSH1 0xA PUSH1 0x0 DUP4 PUSH20 0xFFFFFFFFFFFFFFFFFFFFFFFFFFFFFFFFFFFFFFFF AND PUSH20 0xFFFFFFFFFFFFFFFFFFFFFFFFFFFFFFFFFFFFFFFF AND DUP2 MSTORE PUSH1 0x20 ADD SWAP1 DUP2 MSTORE PUSH1 0x20 ADD PUSH1 0x0 KECCAK256 SLOAD SWAP1 POP SWAP2 SWAP1 POP JUMP JUMPDEST PUSH1 0xD SLOAD DUP2 JUMP JUMPDEST PUSH1 0x0 PUSH1 0x40 MLOAD SWAP1 POP SWAP1 JUMP JUMPDEST PUSH1 0x0 DUP1 REVERT JUMPDEST PUSH1 0x0 DUP1 REVERT JUMPDEST PUSH1 0x0 PUSH20 0xFFFFFFFFFFFFFFFFFFFFFFFFFFFFFFFFFFFFFFFF DUP3 AND SWAP1 POP SWAP2 SWAP1 POP JUMP JUMPDEST PUSH1 0x0 PUSH2 0x49AB DUP3 PUSH2 0x4980 JUMP JUMPDEST SWAP1 POP SWAP2 SWAP1 POP JUMP JUMPDEST PUSH2 0x49BB DUP2 PUSH2 0x49A0 JUMP JUMPDEST DUP2 EQ PUSH2 0x49C6 JUMPI PUSH1 0x0 DUP1 REVERT JUMPDEST POP JUMP JUMPDEST PUSH1 0x0 DUP2 CALLDATALOAD SWAP1 POP PUSH2 0x49D8 DUP2 PUSH2 0x49B2 JUMP JUMPDEST SWAP3 SWAP2 POP POP JUMP JUMPDEST PUSH1 0x0 PUSH1 0x20 DUP3 DUP5 SUB SLT ISZERO PUSH2 0x49F4 JUMPI PUSH2 0x49F3 PUSH2 0x4976 JUMP JUMPDEST JUMPDEST PUSH1 0x0 PUSH2 0x4A02 DUP5 DUP3 DUP6 ADD PUSH2 0x49C9 JUMP JUMPDEST SWAP2 POP POP SWAP3 SWAP2 POP POP JUMP JUMPDEST PUSH1 0x0 DUP2 ISZERO ISZERO SWAP1 POP SWAP2 SWAP1 POP JUMP JUMPDEST PUSH2 0x4A20 DUP2 PUSH2 0x4A0B JUMP JUMPDEST DUP3 MSTORE POP POP JUMP JUMPDEST PUSH1 0x0 PUSH1 0x20 DUP3 ADD SWAP1 POP PUSH2 0x4A3B PUSH1 0x0 DUP4 ADD DUP5 PUSH2 0x4A17 JUMP JUMPDEST SWAP3 SWAP2 POP POP JUMP JUMPDEST PUSH1 0x0 DUP2 SWAP1 POP SWAP2 SWAP1 POP JUMP JUMPDEST PUSH2 0x4A54 DUP2 PUSH2 0x4A41 JUMP JUMPDEST DUP2 EQ PUSH2 0x4A5F JUMPI PUSH1 0x0 DUP1 REVERT JUMPDEST POP JUMP JUMPDEST PUSH1 0x0 DUP2 CALLDATALOAD SWAP1 POP PUSH2 0x4A71 DUP2 PUSH2 0x4A4B JUMP JUMPDEST SWAP3 SWAP2 POP POP JUMP JUMPDEST PUSH1 0x0 PUSH1 0x20 DUP3 DUP5 SUB SLT ISZERO PUSH2 0x4A8D JUMPI PUSH2 0x4A8C PUSH2 0x4976 JUMP JUMPDEST JUMPDEST PUSH1 0x0 PUSH2 0x4A9B DUP5 DUP3 DUP6 ADD PUSH2 0x4A62 JUMP JUMPDEST SWAP2 POP POP SWAP3 SWAP2 POP POP JUMP JUMPDEST PUSH2 0x4AAD DUP2 PUSH2 0x49A0 JUMP JUMPDEST DUP3 MSTORE POP POP JUMP JUMPDEST PUSH1 0x0 PUSH1 0x20 DUP3 ADD SWAP1 POP PUSH2 0x4AC8 PUSH1 0x0 DUP4 ADD DUP5 PUSH2 0x4AA4 JUMP JUMPDEST SWAP3 SWAP2 POP POP JUMP JUMPDEST PUSH1 0x0 DUP2 MLOAD SWAP1 POP SWAP2 SWAP1 POP JUMP JUMPDEST PUSH1 0x0 DUP3 DUP3 MSTORE PUSH1 0x20 DUP3 ADD SWAP1 POP SWAP3 SWAP2 POP POP JUMP JUMPDEST PUSH1 0x0 DUP2 SWAP1 POP PUSH1 0x20 DUP3 ADD SWAP1 POP SWAP2 SWAP1 POP JUMP JUMPDEST PUSH2 0x4B03 DUP2 PUSH2 0x49A0 JUMP JUMPDEST DUP3 MSTORE POP POP JUMP JUMPDEST PUSH1 0x0 PUSH2 0x4B15 DUP4 DUP4 PUSH2 0x4AFA JUMP JUMPDEST PUSH1 0x20 DUP4 ADD SWAP1 POP SWAP3 SWAP2 POP POP JUMP JUMPDEST PUSH1 0x0 PUSH1 0x20 DUP3 ADD SWAP1 POP SWAP2 SWAP1 POP JUMP JUMPDEST PUSH1 0x0 PUSH2 0x4B39 DUP3 PUSH2 0x4ACE JUMP JUMPDEST PUSH2 0x4B43 DUP2 DUP6 PUSH2 0x4AD9 JUMP JUMPDEST SWAP4 POP PUSH2 0x4B4E DUP4 PUSH2 0x4AEA JUMP JUMPDEST DUP1 PUSH1 0x0 JUMPDEST DUP4 DUP2 LT ISZERO PUSH2 0x4B7F JUMPI DUP2 MLOAD PUSH2 0x4B66 DUP9 DUP3 PUSH2 0x4B09 JUMP JUMPDEST SWAP8 POP PUSH2 0x4B71 DUP4 PUSH2 0x4B21 JUMP JUMPDEST SWAP3 POP POP PUSH1 0x1 DUP2 ADD SWAP1 POP PUSH2 0x4B52 JUMP JUMPDEST POP DUP6 SWAP4 POP POP POP POP SWAP3 SWAP2 POP POP JUMP JUMPDEST PUSH1 0x0 PUSH1 0x20 DUP3 ADD SWAP1 POP DUP2 DUP2 SUB PUSH1 0x0 DUP4 ADD MSTORE PUSH2 0x4BA6 DUP2 DUP5 PUSH2 0x4B2E JUMP JUMPDEST SWAP1 POP SWAP3 SWAP2 POP POP JUMP JUMPDEST PUSH1 0x0 DUP1 REVERT JUMPDEST PUSH1 0x0 DUP1 REVERT JUMPDEST PUSH1 0x0 PUSH1 0x1F NOT PUSH1 0x1F DUP4 ADD AND SWAP1 POP SWAP2 SWAP1 POP JUMP JUMPDEST PUSH32 0x4E487B7100000000000000000000000000000000000000000000000000000000 PUSH1 0x0 MSTORE PUSH1 0x41 PUSH1 0x4 MSTORE PUSH1 0x24 PUSH1 0x0 REVERT JUMPDEST PUSH2 0x4C01 DUP3 PUSH2 0x4BB8 JUMP JUMPDEST DUP2 ADD DUP2 DUP2 LT PUSH8 0xFFFFFFFFFFFFFFFF DUP3 GT OR ISZERO PUSH2 0x4C20 JUMPI PUSH2 0x4C1F PUSH2 0x4BC9 JUMP JUMPDEST JUMPDEST DUP1 PUSH1 0x40 MSTORE POP POP POP JUMP JUMPDEST PUSH1 0x0 PUSH2 0x4C33 PUSH2 0x496C JUMP JUMPDEST SWAP1 POP PUSH2 0x4C3F DUP3 DUP3 PUSH2 0x4BF8 JUMP JUMPDEST SWAP2 SWAP1 POP JUMP JUMPDEST PUSH1 0x0 PUSH8 0xFFFFFFFFFFFFFFFF DUP3 GT ISZERO PUSH2 0x4C5F JUMPI PUSH2 0x4C5E PUSH2 0x4BC9 JUMP JUMPDEST JUMPDEST PUSH2 0x4C68 DUP3 PUSH2 0x4BB8 JUMP JUMPDEST SWAP1 POP PUSH1 0x20 DUP2 ADD SWAP1 POP SWAP2 SWAP1 POP JUMP JUMPDEST DUP3 DUP2 DUP4 CALLDATACOPY PUSH1 0x0 DUP4 DUP4 ADD MSTORE POP POP POP JUMP JUMPDEST PUSH1 0x0 PUSH2 0x4C97 PUSH2 0x4C92 DUP5 PUSH2 0x4C44 JUMP JUMPDEST PUSH2 0x4C29 JUMP JUMPDEST SWAP1 POP DUP3 DUP2 MSTORE PUSH1 0x20 DUP2 ADD DUP5 DUP5 DUP5 ADD GT ISZERO PUSH2 0x4CB3 JUMPI PUSH2 0x4CB2 PUSH2 0x4BB3 JUMP JUMPDEST JUMPDEST PUSH2 0x4CBE DUP5 DUP3 DUP6 PUSH2 0x4C75 JUMP JUMPDEST POP SWAP4 SWAP3 POP POP POP JUMP JUMPDEST PUSH1 0x0 DUP3 PUSH1 0x1F DUP4 ADD SLT PUSH2 0x4CDB JUMPI PUSH2 0x4CDA PUSH2 0x4BAE JUMP JUMPDEST JUMPDEST DUP2 CALLDATALOAD PUSH2 0x4CEB DUP5 DUP3 PUSH1 0x20 DUP7 ADD PUSH2 0x4C84 JUMP JUMPDEST SWAP2 POP POP SWAP3 SWAP2 POP POP JUMP JUMPDEST PUSH1 0x0 DUP1 PUSH1 0x0 DUP1 PUSH1 0x0 DUP1 PUSH1 0x0 PUSH1 0xE0 DUP9 DUP11 SUB SLT ISZERO PUSH2 0x4D13 JUMPI PUSH2 0x4D12 PUSH2 0x4976 JUMP JUMPDEST JUMPDEST PUSH1 0x0 PUSH2 0x4D21 DUP11 DUP3 DUP12 ADD PUSH2 0x49C9 JUMP JUMPDEST SWAP8 POP POP PUSH1 0x20 DUP9 ADD CALLDATALOAD PUSH8 0xFFFFFFFFFFFFFFFF DUP2 GT ISZERO PUSH2 0x4D42 JUMPI PUSH2 0x4D41 PUSH2 0x497B JUMP JUMPDEST JUMPDEST PUSH2 0x4D4E DUP11 DUP3 DUP12 ADD PUSH2 0x4CC6 JUMP JUMPDEST SWAP7 POP POP PUSH1 0x40 DUP9 ADD CALLDATALOAD PUSH8 0xFFFFFFFFFFFFFFFF DUP2 GT ISZERO PUSH2 0x4D6F JUMPI PUSH2 0x4D6E PUSH2 0x497B JUMP JUMPDEST JUMPDEST PUSH2 0x4D7B DUP11 DUP3 DUP12 ADD PUSH2 0x4CC6 JUMP JUMPDEST SWAP6 POP POP PUSH1 0x60 DUP9 ADD CALLDATALOAD PUSH8 0xFFFFFFFFFFFFFFFF DUP2 GT ISZERO PUSH2 0x4D9C JUMPI PUSH2 0x4D9B PUSH2 0x497B JUMP JUMPDEST JUMPDEST PUSH2 0x4DA8 DUP11 DUP3 DUP12 ADD PUSH2 0x4CC6 JUMP JUMPDEST SWAP5 POP POP PUSH1 0x80 DUP9 ADD CALLDATALOAD PUSH8 0xFFFFFFFFFFFFFFFF DUP2 GT ISZERO PUSH2 0x4DC9 JUMPI PUSH2 0x4DC8 PUSH2 0x497B JUMP JUMPDEST JUMPDEST PUSH2 0x4DD5 DUP11 DUP3 DUP12 ADD PUSH2 0x4CC6 JUMP JUMPDEST SWAP4 POP POP PUSH1 0xA0 DUP9 ADD CALLDATALOAD PUSH8 0xFFFFFFFFFFFFFFFF DUP2 GT ISZERO PUSH2 0x4DF6 JUMPI PUSH2 0x4DF5 PUSH2 0x497B JUMP JUMPDEST JUMPDEST PUSH2 0x4E02 DUP11 DUP3 DUP12 ADD PUSH2 0x4CC6 JUMP JUMPDEST SWAP3 POP POP PUSH1 0xC0 DUP9 ADD CALLDATALOAD PUSH8 0xFFFFFFFFFFFFFFFF DUP2 GT ISZERO PUSH2 0x4E23 JUMPI PUSH2 0x4E22 PUSH2 0x497B JUMP JUMPDEST JUMPDEST PUSH2 0x4E2F DUP11 DUP3 DUP12 ADD PUSH2 0x4CC6 JUMP JUMPDEST SWAP2 POP POP SWAP3 SWAP6 SWAP9 SWAP2 SWAP5 SWAP8 POP SWAP3 SWAP6 POP JUMP JUMPDEST PUSH2 0x4E47 DUP2 PUSH2 0x4A41 JUMP JUMPDEST DUP3 MSTORE POP POP JUMP JUMPDEST PUSH1 0x0 PUSH1 0x20 DUP3 ADD SWAP1 POP PUSH2 0x4E62 PUSH1 0x0 DUP4 ADD DUP5 PUSH2 0x4E3E JUMP JUMPDEST SWAP3 SWAP2 POP POP JUMP JUMPDEST PUSH1 0x0 DUP2 MLOAD SWAP1 POP SWAP2 SWAP1 POP JUMP JUMPDEST PUSH1 0x0 DUP3 DUP3 MSTORE PUSH1 0x20 DUP3 ADD SWAP1 POP SWAP3 SWAP2 POP POP JUMP JUMPDEST PUSH1 0x0 JUMPDEST DUP4 DUP2 LT ISZERO PUSH2 0x4EA2 JUMPI DUP1 DUP3 ADD MLOAD DUP2 DUP5 ADD MSTORE PUSH1 0x20 DUP2 ADD SWAP1 POP PUSH2 0x4E87 JUMP JUMPDEST PUSH1 0x0 DUP5 DUP5 ADD MSTORE POP POP POP POP JUMP JUMPDEST PUSH1 0x0 PUSH2 0x4EB9 DUP3 PUSH2 0x4E68 JUMP JUMPDEST PUSH2 0x4EC3 DUP2 DUP6 PUSH2 0x4E73 JUMP JUMPDEST SWAP4 POP PUSH2 0x4ED3 DUP2 DUP6 PUSH1 0x20 DUP7 ADD PUSH2 0x4E84 JUMP JUMPDEST PUSH2 0x4EDC DUP2 PUSH2 0x4BB8 JUMP JUMPDEST DUP5 ADD SWAP2 POP POP SWAP3 SWAP2 POP POP JUMP JUMPDEST PUSH1 0x0 PUSH1 0xC0 DUP3 ADD SWAP1 POP DUP2 DUP2 SUB PUSH1 0x0 DUP4 ADD MSTORE PUSH2 0x4F01 DUP2 DUP10 PUSH2 0x4EAE JUMP JUMPDEST SWAP1 POP DUP2 DUP2 SUB PUSH1 0x20 DUP4 ADD MSTORE PUSH2 0x4F15 DUP2 DUP9 PUSH2 0x4EAE JUMP JUMPDEST SWAP1 POP DUP2 DUP2 SUB PUSH1 0x40 DUP4 ADD MSTORE PUSH2 0x4F29 DUP2 DUP8 PUSH2 0x4EAE JUMP JUMPDEST SWAP1 POP DUP2 DUP2 SUB PUSH1 0x60 DUP4 ADD MSTORE PUSH2 0x4F3D DUP2 DUP7 PUSH2 0x4EAE JUMP JUMPDEST SWAP1 POP DUP2 DUP2 SUB PUSH1 0x80 DUP4 ADD MSTORE PUSH2 0x4F51 DUP2 DUP6 PUSH2 0x4EAE JUMP JUMPDEST SWAP1 POP DUP2 DUP2 SUB PUSH1 0xA0 DUP4 ADD MSTORE PUSH2 0x4F65 DUP2 DUP5 PUSH2 0x4EAE JUMP JUMPDEST SWAP1 POP SWAP8 SWAP7 POP POP POP POP POP POP POP JUMP JUMPDEST PUSH1 0x0 PUSH1 0xE0 DUP3 ADD SWAP1 POP DUP2 DUP2 SUB PUSH1 0x0 DUP4 ADD MSTORE PUSH2 0x4F8C DUP2 DUP11 PUSH2 0x4EAE JUMP JUMPDEST SWAP1 POP DUP2 DUP2 SUB PUSH1 0x20 DUP4 ADD MSTORE PUSH2 0x4FA0 DUP2 DUP10 PUSH2 0x4EAE JUMP JUMPDEST SWAP1 POP DUP2 DUP2 SUB PUSH1 0x40 DUP4 ADD MSTORE PUSH2 0x4FB4 DUP2 DUP9 PUSH2 0x4EAE JUMP JUMPDEST SWAP1 POP DUP2 DUP2 SUB PUSH1 0x60 DUP4 ADD MSTORE PUSH2 0x4FC8 DUP2 DUP8 PUSH2 0x4EAE JUMP JUMPDEST SWAP1 POP DUP2 DUP2 SUB PUSH1 0x80 DUP4 ADD MSTORE PUSH2 0x4FDC DUP2 DUP7 PUSH2 0x4EAE JUMP JUMPDEST SWAP1 POP DUP2 DUP2 SUB PUSH1 0xA0 DUP4 ADD MSTORE PUSH2 0x4FF0 DUP2 DUP6 PUSH2 0x4EAE JUMP JUMPDEST SWAP1 POP DUP2 DUP2 SUB PUSH1 0xC0 DUP4 ADD MSTORE PUSH2 0x5004 DUP2 DUP5 PUSH2 0x4EAE JUMP JUMPDEST SWAP1 POP SWAP9 SWAP8 POP POP POP POP POP POP POP POP JUMP JUMPDEST PUSH1 0x0 DUP1 PUSH1 0x0 DUP1 PUSH1 0x0 DUP1 PUSH1 0x0 DUP1 PUSH1 0x0 DUP1 PUSH1 0x0 PUSH2 0x160 DUP13 DUP15 SUB SLT ISZERO PUSH2 0x5038 JUMPI PUSH2 0x5037 PUSH2 0x4976 JUMP JUMPDEST JUMPDEST PUSH1 0x0 DUP13 ADD CALLDATALOAD PUSH8 0xFFFFFFFFFFFFFFFF DUP2 GT ISZERO PUSH2 0x5056 JUMPI PUSH2 0x5055 PUSH2 0x497B JUMP JUMPDEST JUMPDEST PUSH2 0x5062 DUP15 DUP3 DUP16 ADD PUSH2 0x4CC6 JUMP JUMPDEST SWAP12 POP POP PUSH1 0x20 DUP13 ADD CALLDATALOAD PUSH8 0xFFFFFFFFFFFFFFFF DUP2 GT ISZERO PUSH2 0x5083 JUMPI PUSH2 0x5082 PUSH2 0x497B JUMP JUMPDEST JUMPDEST PUSH2 0x508F DUP15 DUP3 DUP16 ADD PUSH2 0x4CC6 JUMP JUMPDEST SWAP11 POP POP PUSH1 0x40 DUP13 ADD CALLDATALOAD PUSH8 0xFFFFFFFFFFFFFFFF DUP2 GT ISZERO PUSH2 0x50B0 JUMPI PUSH2 0x50AF PUSH2 0x497B JUMP JUMPDEST JUMPDEST PUSH2 0x50BC DUP15 DUP3 DUP16 ADD PUSH2 0x4CC6 JUMP JUMPDEST SWAP10 POP POP PUSH1 0x60 DUP13 ADD CALLDATALOAD PUSH8 0xFFFFFFFFFFFFFFFF DUP2 GT ISZERO PUSH2 0x50DD JUMPI PUSH2 0x50DC PUSH2 0x497B JUMP JUMPDEST JUMPDEST PUSH2 0x50E9 DUP15 DUP3 DUP16 ADD PUSH2 0x4CC6 JUMP JUMPDEST SWAP9 POP POP PUSH1 0x80 DUP13 ADD CALLDATALOAD PUSH8 0xFFFFFFFFFFFFFFFF DUP2 GT ISZERO PUSH2 0x510A JUMPI PUSH2 0x5109 PUSH2 0x497B JUMP JUMPDEST JUMPDEST PUSH2 0x5116 DUP15 DUP3 DUP16 ADD PUSH2 0x4CC6 JUMP JUMPDEST SWAP8 POP POP PUSH1 0xA0 DUP13 ADD CALLDATALOAD PUSH8 0xFFFFFFFFFFFFFFFF DUP2 GT ISZERO PUSH2 0x5137 JUMPI PUSH2 0x5136 PUSH2 0x497B JUMP JUMPDEST JUMPDEST PUSH2 0x5143 DUP15 DUP3 DUP16 ADD PUSH2 0x4CC6 JUMP JUMPDEST SWAP7 POP POP PUSH1 0xC0 DUP13 ADD CALLDATALOAD PUSH8 0xFFFFFFFFFFFFFFFF DUP2 GT ISZERO PUSH2 0x5164 JUMPI PUSH2 0x5163 PUSH2 0x497B JUMP JUMPDEST JUMPDEST PUSH2 0x5170 DUP15 DUP3 DUP16 ADD PUSH2 0x4CC6 JUMP JUMPDEST SWAP6 POP POP PUSH1 0xE0 DUP13 ADD CALLDATALOAD PUSH8 0xFFFFFFFFFFFFFFFF DUP2 GT ISZERO PUSH2 0x5191 JUMPI PUSH2 0x5190 PUSH2 0x497B JUMP JUMPDEST JUMPDEST PUSH2 0x519D DUP15 DUP3 DUP16 ADD PUSH2 0x4CC6 JUMP JUMPDEST SWAP5 POP POP PUSH2 0x100 DUP13 ADD CALLDATALOAD PUSH8 0xFFFFFFFFFFFFFFFF DUP2 GT ISZERO PUSH2 0x51BF JUMPI PUSH2 0x51BE PUSH2 0x497B JUMP JUMPDEST JUMPDEST PUSH2 0x51CB DUP15 DUP3 DUP16 ADD PUSH2 0x4CC6 JUMP JUMPDEST SWAP4 POP POP PUSH2 0x120 DUP13 ADD CALLDATALOAD PUSH8 0xFFFFFFFFFFFFFFFF DUP2 GT ISZERO PUSH2 0x51ED JUMPI PUSH2 0x51EC PUSH2 0x497B JUMP JUMPDEST JUMPDEST PUSH2 0x51F9 DUP15 DUP3 DUP16 ADD PUSH2 0x4CC6 JUMP JUMPDEST SWAP3 POP POP PUSH2 0x140 DUP13 ADD CALLDATALOAD PUSH8 0xFFFFFFFFFFFFFFFF DUP2 GT ISZERO PUSH2 0x521B JUMPI PUSH2 0x521A PUSH2 0x497B JUMP JUMPDEST JUMPDEST PUSH2 0x5227 DUP15 DUP3 DUP16 ADD PUSH2 0x4CC6 JUMP JUMPDEST SWAP2 POP POP SWAP3 SWAP6 SWAP9 SWAP12 POP SWAP3 SWAP6 SWAP9 SWAP12 SWAP1 SWAP4 SWAP7 SWAP10 POP JUMP JUMPDEST PUSH1 0x0 DUP1 PUSH1 0x0 DUP1 PUSH1 0x0 DUP1 PUSH1 0x0 PUSH1 0xE0 DUP9 DUP11 SUB SLT ISZERO PUSH2 0x5259 JUMPI PUSH2 0x5258 PUSH2 0x4976 JUMP JUMPDEST JUMPDEST PUSH1 0x0 DUP9 ADD CALLDATALOAD PUSH8 0xFFFFFFFFFFFFFFFF DUP2 GT ISZERO PUSH2 0x5277 JUMPI PUSH2 0x5276 PUSH2 0x497B JUMP JUMPDEST JUMPDEST PUSH2 0x5283 DUP11 DUP3 DUP12 ADD PUSH2 0x4CC6 JUMP JUMPDEST SWAP8 POP POP PUSH1 0x20 DUP9 ADD CALLDATALOAD PUSH8 0xFFFFFFFFFFFFFFFF DUP2 GT ISZERO PUSH2 0x52A4 JUMPI PUSH2 0x52A3 PUSH2 0x497B JUMP JUMPDEST JUMPDEST PUSH2 0x52B0 DUP11 DUP3 DUP12 ADD PUSH2 0x4CC6 JUMP JUMPDEST SWAP7 POP POP PUSH1 0x40 DUP9 ADD CALLDATALOAD PUSH8 0xFFFFFFFFFFFFFFFF DUP2 GT ISZERO PUSH2 0x52D1 JUMPI PUSH2 0x52D0 PUSH2 0x497B JUMP JUMPDEST JUMPDEST PUSH2 0x52DD DUP11 DUP3 DUP12 ADD PUSH2 0x4CC6 JUMP JUMPDEST SWAP6 POP POP PUSH1 0x60 DUP9 ADD CALLDATALOAD PUSH8 0xFFFFFFFFFFFFFFFF DUP2 GT ISZERO PUSH2 0x52FE JUMPI PUSH2 0x52FD PUSH2 0x497B JUMP JUMPDEST JUMPDEST PUSH2 0x530A DUP11 DUP3 DUP12 ADD PUSH2 0x4CC6 JUMP JUMPDEST SWAP5 POP POP PUSH1 0x80 DUP9 ADD CALLDATALOAD PUSH8 0xFFFFFFFFFFFFFFFF DUP2 GT ISZERO PUSH2 0x532B JUMPI PUSH2 0x532A PUSH2 0x497B JUMP JUMPDEST JUMPDEST PUSH2 0x5337 DUP11 DUP3 DUP12 ADD PUSH2 0x4CC6 JUMP JUMPDEST SWAP4 POP POP PUSH1 0xA0 DUP9 ADD CALLDATALOAD PUSH8 0xFFFFFFFFFFFFFFFF DUP2 GT ISZERO PUSH2 0x5358 JUMPI PUSH2 0x5357 PUSH2 0x497B JUMP JUMPDEST JUMPDEST PUSH2 0x5364 DUP11 DUP3 DUP12 ADD PUSH2 0x4CC6 JUMP JUMPDEST SWAP3 POP POP PUSH1 0xC0 DUP9 ADD CALLDATALOAD PUSH8 0xFFFFFFFFFFFFFFFF DUP2 GT ISZERO PUSH2 0x5385 JUMPI PUSH2 0x5384 PUSH2 0x497B JUMP JUMPDEST JUMPDEST PUSH2 0x5391 DUP11 DUP3 DUP12 ADD PUSH2 0x4CC6 JUMP JUMPDEST SWAP2 POP POP SWAP3 SWAP6 SWAP9 SWAP2 SWAP5 SWAP8 POP SWAP3 SWAP6 POP JUMP JUMPDEST PUSH1 0x0 PUSH2 0x100 DUP3 ADD SWAP1 POP PUSH2 0x53B6 PUSH1 0x0 DUP4 ADD DUP12 PUSH2 0x4AA4 JUMP JUMPDEST DUP2 DUP2 SUB PUSH1 0x20 DUP4 ADD MSTORE PUSH2 0x53C8 DUP2 DUP11 PUSH2 0x4EAE JUMP JUMPDEST SWAP1 POP DUP2 DUP2 SUB PUSH1 0x40 DUP4 ADD MSTORE PUSH2 0x53DC DUP2 DUP10 PUSH2 0x4EAE JUMP JUMPDEST SWAP1 POP DUP2 DUP2 SUB PUSH1 0x60 DUP4 ADD MSTORE PUSH2 0x53F0 DUP2 DUP9 PUSH2 0x4EAE JUMP JUMPDEST SWAP1 POP DUP2 DUP2 SUB PUSH1 0x80 DUP4 ADD MSTORE PUSH2 0x5404 DUP2 DUP8 PUSH2 0x4EAE JUMP JUMPDEST SWAP1 POP DUP2 DUP2 SUB PUSH1 0xA0 DUP4 ADD MSTORE PUSH2 0x5418 DUP2 DUP7 PUSH2 0x4EAE JUMP JUMPDEST SWAP1 POP DUP2 DUP2 SUB PUSH1 0xC0 DUP4 ADD MSTORE PUSH2 0x542C DUP2 DUP6 PUSH2 0x4EAE JUMP JUMPDEST SWAP1 POP DUP2 DUP2 SUB PUSH1 0xE0 DUP4 ADD MSTORE PUSH2 0x5440 DUP2 DUP5 PUSH2 0x4EAE JUMP JUMPDEST SWAP1 POP SWAP10 SWAP9 POP POP POP POP POP POP POP POP POP JUMP JUMPDEST PUSH32 0x4E487B7100000000000000000000000000000000000000000000000000000000 PUSH1 0x0 MSTORE PUSH1 0x22 PUSH1 0x4 MSTORE PUSH1 0x24 PUSH1 0x0 REVERT JUMPDEST PUSH1 0x0 PUSH1 0x2 DUP3 DIV SWAP1 POP PUSH1 0x1 DUP3 AND DUP1 PUSH2 0x5496 JUMPI PUSH1 0x7F DUP3 AND SWAP2 POP JUMPDEST PUSH1 0x20 DUP3 LT DUP2 SUB PUSH2 0x54A9 JUMPI PUSH2 0x54A8 PUSH2 0x544F JUMP JUMPDEST JUMPDEST POP SWAP2 SWAP1 POP JUMP JUMPDEST PUSH1 0x0 DUP2 SWAP1 POP DUP2 PUSH1 0x0 MSTORE PUSH1 0x20 PUSH1 0x0 KECCAK256 SWAP1 POP SWAP2 SWAP1 POP JUMP JUMPDEST PUSH1 0x0 PUSH1 0x20 PUSH1 0x1F DUP4 ADD DIV SWAP1 POP SWAP2 SWAP1 POP JUMP JUMPDEST PUSH1 0x0 DUP3 DUP3 SHL SWAP1 POP SWAP3 SWAP2 POP POP JUMP JUMPDEST PUSH1 0x0 PUSH1 0x8 DUP4 MUL PUSH2 0x5511 PUSH32 0xFFFFFFFFFFFFFFFFFFFFFFFFFFFFFFFFFFFFFFFFFFFFFFFFFFFFFFFFFFFFFFFF DUP3 PUSH2 0x54D4 JUMP JUMPDEST PUSH2 0x551B DUP7 DUP4 PUSH2 0x54D4 JUMP JUMPDEST SWAP6 POP DUP1 NOT DUP5 AND SWAP4 POP DUP1 DUP7 AND DUP5 OR SWAP3 POP POP POP SWAP4 SWAP3 POP POP POP JUMP JUMPDEST PUSH1 0x0 DUP2 SWAP1 POP SWAP2 SWAP1 POP JUMP JUMPDEST PUSH1 0x0 PUSH2 0x5558 PUSH2 0x5553 PUSH2 0x554E DUP5 PUSH2 0x4A41 JUMP JUMPDEST PUSH2 0x5533 JUMP JUMPDEST PUSH2 0x4A41 JUMP JUMPDEST SWAP1 POP SWAP2 SWAP1 POP JUMP JUMPDEST PUSH1 0x0 DUP2 SWAP1 POP SWAP2 SWAP1 POP JUMP JUMPDEST PUSH2 0x5572 DUP4 PUSH2 0x553D JUMP JUMPDEST PUSH2 0x5586 PUSH2 0x557E DUP3 PUSH2 0x555F JUMP JUMPDEST DUP5 DUP5 SLOAD PUSH2 0x54E1 JUMP JUMPDEST DUP3 SSTORE POP POP POP POP JUMP JUMPDEST PUSH1 0x0 SWAP1 JUMP JUMPDEST PUSH2 0x559B PUSH2 0x558E JUMP JUMPDEST PUSH2 0x55A6 DUP2 DUP5 DUP5 PUSH2 0x5569 JUMP JUMPDEST POP POP POP JUMP JUMPDEST JUMPDEST DUP2 DUP2 LT ISZERO PUSH2 0x55CA JUMPI PUSH2 0x55BF PUSH1 0x0 DUP3 PUSH2 0x5593 JUMP JUMPDEST PUSH1 0x1 DUP2 ADD SWAP1 POP PUSH2 0x55AC JUMP JUMPDEST POP POP JUMP JUMPDEST PUSH1 0x1F DUP3 GT ISZERO PUSH2 0x560F JUMPI PUSH2 0x55E0 DUP2 PUSH2 0x54AF JUMP JUMPDEST PUSH2 0x55E9 DUP5 PUSH2 0x54C4 JUMP JUMPDEST DUP2 ADD PUSH1 0x20 DUP6 LT ISZERO PUSH2 0x55F8 JUMPI DUP2 SWAP1 POP JUMPDEST PUSH2 0x560C PUSH2 0x5604 DUP6 PUSH2 0x54C4 JUMP JUMPDEST DUP4 ADD DUP3 PUSH2 0x55AB JUMP JUMPDEST POP POP JUMPDEST POP POP POP JUMP JUMPDEST PUSH1 0x0 DUP3 DUP3 SHR SWAP1 POP SWAP3 SWAP2 POP POP JUMP JUMPDEST PUSH1 0x0 PUSH2 0x5632 PUSH1 0x0 NOT DUP5 PUSH1 0x8 MUL PUSH2 0x5614 JUMP JUMPDEST NOT DUP1 DUP4 AND SWAP2 POP POP SWAP3 SWAP2 POP POP JUMP JUMPDEST PUSH1 0x0 PUSH2 0x564B DUP4 DUP4 PUSH2 0x5621 JUMP JUMPDEST SWAP2 POP DUP3 PUSH1 0x2 MUL DUP3 OR SWAP1 POP SWAP3 SWAP2 POP POP JUMP JUMPDEST PUSH2 0x5664 DUP3 PUSH2 0x4E68 JUMP JUMPDEST PUSH8 0xFFFFFFFFFFFFFFFF DUP2 GT ISZERO PUSH2 0x567D JUMPI PUSH2 0x567C PUSH2 0x4BC9 JUMP JUMPDEST JUMPDEST PUSH2 0x5687 DUP3 SLOAD PUSH2 0x547E JUMP JUMPDEST PUSH2 0x5692 DUP3 DUP3 DUP6 PUSH2 0x55CE JUMP JUMPDEST PUSH1 0x0 PUSH1 0x20 SWAP1 POP PUSH1 0x1F DUP4 GT PUSH1 0x1 DUP2 EQ PUSH2 0x56C5 JUMPI PUSH1 0x0 DUP5 ISZERO PUSH2 0x56B3 JUMPI DUP3 DUP8 ADD MLOAD SWAP1 POP JUMPDEST PUSH2 0x56BD DUP6 DUP3 PUSH2 0x563F JUMP JUMPDEST DUP7 SSTORE POP PUSH2 0x5725 JUMP JUMPDEST PUSH1 0x1F NOT DUP5 AND PUSH2 0x56D3 DUP7 PUSH2 0x54AF JUMP JUMPDEST PUSH1 0x0 JUMPDEST DUP3 DUP2 LT ISZERO PUSH2 0x56FB JUMPI DUP5 DUP10 ADD MLOAD DUP3 SSTORE PUSH1 0x1 DUP3 ADD SWAP2 POP PUSH1 0x20 DUP6 ADD SWAP5 POP PUSH1 0x20 DUP2 ADD SWAP1 POP PUSH2 0x56D6 JUMP JUMPDEST DUP7 DUP4 LT ISZERO PUSH2 0x5718 JUMPI DUP5 DUP10 ADD MLOAD PUSH2 0x5714 PUSH1 0x1F DUP10 AND DUP3 PUSH2 0x5621 JUMP JUMPDEST DUP4 SSTORE POP JUMPDEST PUSH1 0x1 PUSH1 0x2 DUP9 MUL ADD DUP9 SSTORE POP POP POP JUMPDEST POP POP POP POP POP POP JUMP JUMPDEST PUSH32 0x4E487B7100000000000000000000000000000000000000000000000000000000 PUSH1 0x0 MSTORE PUSH1 0x11 PUSH1 0x4 MSTORE PUSH1 0x24 PUSH1 0x0 REVERT JUMPDEST PUSH1 0x0 PUSH2 0x5767 DUP3 PUSH2 0x4A41 JUMP JUMPDEST SWAP2 POP PUSH32 0xFFFFFFFFFFFFFFFFFFFFFFFFFFFFFFFFFFFFFFFFFFFFFFFFFFFFFFFFFFFFFFFF DUP3 SUB PUSH2 0x5799 JUMPI PUSH2 0x5798 PUSH2 0x572D JUMP JUMPDEST JUMPDEST PUSH1 0x1 DUP3 ADD SWAP1 POP SWAP2 SWAP1 POP JUMP INVALID LOG2 PUSH5 0x6970667358 0x22 SLT KECCAK256 0x4E DUP7 ISZERO DUP8 PUSH26 0x267E4E27727F1C51B6C4336C9D1289D1298E4B5E77E0B9B39860 DUP1 PUSH5 0x736F6C6343 STOP ADDMOD GT STOP CALLER "},"gasEstimates":{"creation":{"codeDepositCost":"4498000","executionCost":"49524","totalCost":"4547524"},"external":{"RevokePermission(address)":"25150","appointmentCount()":"2539","appointmentList(uint256)":"5022","doctorCount()":"2496","doctorList(uint256)":"5025","editDetails(string,string,string,string,string,string,string,string,string,string,string)":"infinite","editDoctor(string,string,string,string,string,string,string)":"infinite","getAppointmentCount()":"2549","getAppointmentPerPatient(address)":"2929","getAppointments()":"infinite","getDoctorCount()":"2526","getDoctors()":"infinite","getPatientCount()":"2548","getPatients()":"infinite","getPermissionGrantedCount()":"2505","givePermission(address)":"49550","owner()":"2579","patientCount()":"2474","patientList(uint256)":"5001","permissionGrantedCount()":"2518","searchAppointment(address)":"infinite","searchAppointmentDate(address)":"infinite","searchDoctor(address)":"infinite","searchDoctorDate(address)":"infinite","searchPatientDemographic(address)":"infinite","searchPatientMedical(address)":"infinite","searchRecordDate(address)":"infinite","setAppointment(address,string,string,string,string,string,string)":"infinite","setDetails(string,string,string,string,string,string,string,string,string,string,string)":"infinite","setDoctor(string,string,string,string,string,string,string)":"infinite","updateAppointment(address,string,string,string,string,string,string)":"infinite"}},"methodIdentifiers":{"RevokePermission(address)":"02516abd","appointmentCount()":"eebc3fb2","appointmentList(uint256)":"e6fce0d2","doctorCount()":"78522bc4","doctorList(uint256)":"127ca4b4","editDetails(string,string,string,string,string,string,string,string,string,string,string)":"b6b477f3","editDoctor(string,string,string,string,string,string,string)":"a5aca8bc","getAppointmentCount()":"29e4afbb","getAppointmentPerPatient(address)":"e93a15b9","getAppointments()":"96b80d08","getDoctorCount()":"79111c1c","getDoctors()":"b13d5d94","getPatientCount()":"c190665b","getPatients()":"12ad1c37","getPermissionGrantedCount()":"24c24b2b","givePermission(address)":"3d391f70","owner()":"8da5cb5b","patientCount()":"a0303c41","patientList(uint256)":"babb1d41","permissionGrantedCount()":"c0cb24ba","searchAppointment(address)":"92041982","searchAppointmentDate(address)":"4c14b38d","searchDoctor(address)":"caee6c85","searchDoctorDate(address)":"625961fc","searchPatientDemographic(address)":"3bc98280","searchPatientMedical(address)":"2a825ba0","searchRecordDate(address)":"bd6f972b","setAppointment(address,string,string,string,string,string,string)":"245f9686","setDetails(string,string,string,string,string,string,string,string,string,string,string)":"80b76b26","setDoctor(string,string,string,string,string,string,string)":"8b945c6d","updateAppointment(address,string,string,string,string,string,string)":"261b73f3"}},"storageLayout":{"storage":[{"astId":72,"contract":"Record.sol:Record","label":"owner","offset":0,"slot":"0","type":"t_address"},{"astId":75,"contract":"Record.sol:Record","label":"patientList","offset":0,"slot":"1","type":"t_array(t_address)dyn_storage"},{"astId":78,"contract":"Record.sol:Record","label":"doctorList","offset":0,"slot":"2","type":"t_array(t_address)dyn_storage"},{"astId":81,"contract":"Record.sol:Record","label":"appointmentList","offset":0,"slot":"3","type":"t_array(t_address)dyn_storage"},{"astId":86,"contract":"Record.sol:Record","label":"patients","offset":0,"slot":"4","type":"t_mapping(t_address,t_struct(Patients)32_storage)"},{"astId":91,"contract":"Record.sol:Record","label":"doctors","offset":0,"slot":"5","type":"t_mapping(t_address,t_struct(Doctors)51_storage)"},{"astId":96,"contract":"Record.sol:Record","label":"appointments","offset":0,"slot":"6","type":"t_mapping(t_address,t_struct(Appointments)70_storage)"},{"astId":102,"contract":"Record.sol:Record","label":"isApproved","offset":0,"slot":"7","type":"t_mapping(t_address,t_mapping(t_address,t_bool))"},{"astId":106,"contract":"Record.sol:Record","label":"isPatient","offset":0,"slot":"8","type":"t_mapping(t_address,t_bool)"},{"astId":110,"contract":"Record.sol:Record","label":"isDoctor","offset":0,"slot":"9","type":"t_mapping(t_address,t_bool)"},{"astId":114,"contract":"Record.sol:Record","label":"AppointmentPerPatient","offset":0,"slot":"10","type":"t_mapping(t_address,t_uint256)"},{"astId":117,"contract":"Record.sol:Record","label":"patientCount","offset":0,"slot":"11","type":"t_uint256"},{"astId":120,"contract":"Record.sol:Record","label":"doctorCount","offset":0,"slot":"12","type":"t_uint256"},{"astId":123,"contract":"Record.sol:Record","label":"appointmentCount","offset":0,"slot":"13","type":"t_uint256"},{"astId":126,"contract":"Record.sol:Record","label":"permissionGrantedCount","offset":0,"slot":"14","type":"t_uint256"}],"types":{"t_address":{"encoding":"inplace","label":"address","numberOfBytes":"20"},"t_array(t_address)dyn_storage":{"base":"t_address","encoding":"dynamic_array","label":"address[]","numberOfBytes":"32"},"t_bool":{"encoding":"inplace","label":"bool","numberOfBytes":"1"},"t_mapping(t_address,t_bool)":{"encoding":"mapping","key":"t_address","label":"mapping(address => bool)","numberOfBytes":"32","value":"t_bool"},"t_mapping(t_address,t_mapping(t_address,t_bool))":{"encoding":"mapping","key":"t_address","label":"mapping(address => mapping(address => bool))","numberOfBytes":"32","value":"t_mapping(t_address,t_bool)"},"t_mapping(t_address,t_struct(Appointments)70_storage)":{"encoding":"mapping","key":"t_address","label":"mapping(address => struct Record.Appointments)","numberOfBytes":"32","value":"t_struct(Appointments)70_storage"},"t_mapping(t_address,t_struct(Doctors)51_storage)":{"encoding":"mapping","key":"t_address","label":"mapping(address => struct Record.Doctors)","numberOfBytes":"32","value":"t_struct(Doctors)51_storage"},"t_mapping(t_address,t_struct(Patients)32_storage)":{"encoding":"mapping","key":"t_address","label":"mapping(address => struct Record.Patients)","numberOfBytes":"32","value":"t_struct(Patients)32_storage"},"t_mapping(t_address,t_uint256)":{"encoding":"mapping","key":"t_address","label":"mapping(address => uint256)","numberOfBytes":"32","value":"t_uint256"},"t_string_storage":{"encoding":"bytes","label":"string","numberOfBytes":"32"},"t_struct(Appointments)70_storage":{"encoding":"inplace","label":"struct Record.Appointments","members":[{"astId":53,"contract":"Record.sol:Record","label":"doctoraddr","offset":0,"slot":"0","type":"t_address"},{"astId":55,"contract":"Record.sol:Record","label":"patientaddr","offset":0,"slot":"1","type":"t_address"},{"astId":57,"contract":"Record.sol:Record","label":"date","offset":0,"slot":"2","type":"t_string_storage"},{"astId":59,"contract":"Record.sol:Record","label":"time","offset":0,"slot":"3","type":"t_string_storage"},{"astId":61,"contract":"Record.sol:Record","label":"prescription","offset":0,"slot":"4","type":"t_string_storage"},{"astId":63,"contract":"Record.sol:Record","label":"description","offset":0,"slot":"5","type":"t_string_storage"},{"astId":65,"contract":"Record.sol:Record","label":"diagnosis","offset":0,"slot":"6","type":"t_string_storage"},{"astId":67,"contract":"Record.sol:Record","label":"status","offset":0,"slot":"7","type":"t_string_storage"},{"astId":69,"contract":"Record.sol:Record","label":"creationDate","offset":0,"slot":"8","type":"t_uint256"}],"numberOfBytes":"288"},"t_struct(Doctors)51_storage":{"encoding":"inplace","label":"struct Record.Doctors","members":[{"astId":34,"contract":"Record.sol:Record","label":"ic","offset":0,"slot":"0","type":"t_string_storage"},{"astId":36,"contract":"Record.sol:Record","label":"name","offset":0,"slot":"1","type":"t_string_storage"},{"astId":38,"contract":"Record.sol:Record","label":"phone","offset":0,"slot":"2","type":"t_string_storage"},{"astId":40,"contract":"Record.sol:Record","label":"gender","offset":0,"slot":"3","type":"t_string_storage"},{"astId":42,"contract":"Record.sol:Record","label":"dob","offset":0,"slot":"4","type":"t_string_storage"},{"astId":44,"contract":"Record.sol:Record","label":"qualification","offset":0,"slot":"5","type":"t_string_storage"},{"astId":46,"contract":"Record.sol:Record","label":"major","offset":0,"slot":"6","type":"t_string_storage"},{"astId":48,"contract":"Record.sol:Record","label":"addr","offset":0,"slot":"7","type":"t_address"},{"astId":50,"contract":"Record.sol:Record","label":"date","offset":0,"slot":"8","type":"t_uint256"}],"numberOfBytes":"288"},"t_struct(Patients)32_storage":{"encoding":"inplace","label":"struct Record.Patients","members":[{"astId":3,"contract":"Record.sol:Record","label":"ic","offset":0,"slot":"0","type":"t_string_storage"},{"astId":5,"contract":"Record.sol:Record","label":"name","offset":0,"slot":"1","type":"t_string_storage"},{"astId":7,"contract":"Record.sol:Record","label":"phone","offset":0,"slot":"2","type":"t_string_storage"},{"astId":9,"contract":"Record.sol:Record","label":"gender","offset":0,"slot":"3","type":"t_string_storage"},{"astId":11,"contract":"Record.sol:Record","label":"dob","offset":0,"slot":"4","type":"t_string_storage"},{"astId":13,"contract":"Record.sol:Record","label":"height","offset":0,"slot":"5","type":"t_string_storage"},{"astId":15,"contract":"Record.sol:Record","label":"weight","offset":0,"slot":"6","type":"t_string_storage"},{"astId":17,"contract":"Record.sol:Record","label":"houseaddr","offset":0,"slot":"7","type":"t_string_storage"},{"astId":19,"contract":"Record.sol:Record","label":"bloodgroup","offset":0,"slot":"8","type":"t_string_storage"},{"astId":21,"contract":"Record.sol:Record","label":"allergies","offset":0,"slot":"9","type":"t_string_storage"},{"astId":23,"contract":"Record.sol:Record","label":"medication","offset":0,"slot":"10","type":"t_string_storage"},{"astId":25,"contract":"Record.sol:Record","label":"emergencyName","offset":0,"slot":"11","type":"t_string_storage"},{"astId":27,"contract":"Record.sol:Record","label":"emergencyContact","offset":0,"slot":"12","type":"t_string_storage"},{"astId":29,"contract":"Record.sol:Record","label":"addr","offset":0,"slot":"13","type":"t_address"},{"astId":31,"contract":"Record.sol:Record","label":"date","offset":0,"slot":"14","type":"t_uint256"}],"numberOfBytes":"480"},"t_uint256":{"encoding":"inplace","label":"uint256","numberOfBytes":"32"}}},"userdoc":{"kind":"user","methods":{},"version":1}}